{
  "_format": "hh-sol-artifact-1",
  "contractName": "Genesis",
  "sourceName": "src/contracts/Genesis.sol",
  "abi": [
    {
      "inputs": [
        {
          "internalType": "uint256",
          "name": "_projectTax",
          "type": "uint256"
        }
      ],
      "stateMutability": "nonpayable",
      "type": "constructor"
    },
    {
      "anonymous": false,
      "inputs": [
        {
          "indexed": false,
          "internalType": "uint256",
          "name": "id",
          "type": "uint256"
        },
        {
          "indexed": false,
          "internalType": "string",
          "name": "actionType",
          "type": "string"
        },
        {
          "indexed": true,
          "internalType": "address",
          "name": "executor",
          "type": "address"
        },
        {
          "indexed": false,
          "internalType": "uint256",
          "name": "timestamp",
          "type": "uint256"
        }
      ],
      "name": "Action",
      "type": "event"
    },
    {
      "inputs": [
        {
          "internalType": "uint256",
          "name": "id",
          "type": "uint256"
        }
      ],
      "name": "backProject",
      "outputs": [
        {
          "internalType": "bool",
          "name": "",
          "type": "bool"
        }
      ],
      "stateMutability": "payable",
      "type": "function"
    },
    {
      "inputs": [],
      "name": "balance",
      "outputs": [
        {
          "internalType": "uint256",
          "name": "",
          "type": "uint256"
        }
      ],
      "stateMutability": "view",
      "type": "function"
    },
    {
      "inputs": [
        {
          "internalType": "uint256",
          "name": "_taxPct",
          "type": "uint256"
        }
      ],
      "name": "changeTax",
      "outputs": [],
      "stateMutability": "nonpayable",
      "type": "function"
    },
    {
      "inputs": [
        {
          "internalType": "string",
          "name": "title",
          "type": "string"
        },
        {
          "internalType": "string",
          "name": "description",
          "type": "string"
        },
        {
          "internalType": "string",
          "name": "imageURL",
          "type": "string"
        },
        {
          "internalType": "uint256",
          "name": "cost",
          "type": "uint256"
        },
        {
          "internalType": "uint256",
          "name": "expiresAt",
          "type": "uint256"
        }
      ],
      "name": "createProject",
      "outputs": [
        {
          "internalType": "bool",
          "name": "",
          "type": "bool"
        }
      ],
      "stateMutability": "nonpayable",
      "type": "function"
    },
    {
      "inputs": [
        {
          "internalType": "uint256",
          "name": "id",
          "type": "uint256"
        }
      ],
      "name": "deleteProject",
      "outputs": [
        {
          "internalType": "bool",
          "name": "",
          "type": "bool"
        }
      ],
      "stateMutability": "nonpayable",
      "type": "function"
    },
    {
      "inputs": [
        {
          "internalType": "uint256",
          "name": "id",
          "type": "uint256"
        }
      ],
      "name": "getBackers",
      "outputs": [
        {
          "components": [
            {
              "internalType": "address",
              "name": "owner",
              "type": "address"
            },
            {
              "internalType": "uint256",
              "name": "contributions",
              "type": "uint256"
            },
            {
              "internalType": "uint256",
              "name": "timestamp",
              "type": "uint256"
            },
            {
              "internalType": "bool",
              "name": "refunded",
              "type": "bool"
            }
          ],
          "internalType": "struct Genesis.backerStruct[]",
          "name": "",
          "type": "tuple[]"
        }
      ],
      "stateMutability": "view",
      "type": "function"
    },
    {
      "inputs": [
        {
          "internalType": "uint256",
          "name": "id",
          "type": "uint256"
        }
      ],
      "name": "getProject",
      "outputs": [
        {
          "components": [
            {
              "internalType": "uint256",
              "name": "id",
              "type": "uint256"
            },
            {
              "internalType": "address",
              "name": "project",
              "type": "address"
            },
            {
              "internalType": "address",
              "name": "owner",
              "type": "address"
            },
            {
              "internalType": "string",
              "name": "title",
              "type": "string"
            },
            {
              "internalType": "string",
              "name": "description",
              "type": "string"
            },
            {
              "internalType": "string",
              "name": "imageURL",
              "type": "string"
            },
            {
              "internalType": "uint256",
              "name": "cost",
              "type": "uint256"
            },
            {
              "internalType": "uint256",
              "name": "raised",
              "type": "uint256"
            },
            {
              "internalType": "uint256",
              "name": "timestamp",
              "type": "uint256"
            },
            {
              "internalType": "uint256",
              "name": "expiresAt",
              "type": "uint256"
            },
            {
              "internalType": "uint256",
              "name": "backers",
              "type": "uint256"
            },
            {
              "internalType": "enum Genesis.statusEnum",
              "name": "status",
              "type": "uint8"
            }
          ],
          "internalType": "struct Genesis.projectStruct",
          "name": "",
          "type": "tuple"
        }
      ],
      "stateMutability": "view",
      "type": "function"
    },
    {
      "inputs": [],
      "name": "getProjects",
      "outputs": [
        {
          "components": [
            {
              "internalType": "uint256",
              "name": "id",
              "type": "uint256"
            },
            {
              "internalType": "address",
              "name": "project",
              "type": "address"
            },
            {
              "internalType": "address",
              "name": "owner",
              "type": "address"
            },
            {
              "internalType": "string",
              "name": "title",
              "type": "string"
            },
            {
              "internalType": "string",
              "name": "description",
              "type": "string"
            },
            {
              "internalType": "string",
              "name": "imageURL",
              "type": "string"
            },
            {
              "internalType": "uint256",
              "name": "cost",
              "type": "uint256"
            },
            {
              "internalType": "uint256",
              "name": "raised",
              "type": "uint256"
            },
            {
              "internalType": "uint256",
              "name": "timestamp",
              "type": "uint256"
            },
            {
              "internalType": "uint256",
              "name": "expiresAt",
              "type": "uint256"
            },
            {
              "internalType": "uint256",
              "name": "backers",
              "type": "uint256"
            },
            {
              "internalType": "enum Genesis.statusEnum",
              "name": "status",
              "type": "uint8"
            }
          ],
          "internalType": "struct Genesis.projectStruct[]",
          "name": "",
          "type": "tuple[]"
        }
      ],
      "stateMutability": "view",
      "type": "function"
    },
    {
      "inputs": [
        {
          "internalType": "address",
          "name": "addr",
          "type": "address"
        }
      ],
      "name": "isAppOwner",
      "outputs": [
        {
          "internalType": "bool",
          "name": "",
          "type": "bool"
        }
      ],
      "stateMutability": "view",
      "type": "function"
    },
    {
      "inputs": [],
      "name": "isAppOwner",
      "outputs": [
        {
          "internalType": "bool",
          "name": "",
          "type": "bool"
        }
      ],
      "stateMutability": "view",
      "type": "function"
    },
    {
      "inputs": [],
      "name": "owner",
      "outputs": [
        {
          "internalType": "address",
          "name": "",
          "type": "address"
        }
      ],
      "stateMutability": "view",
      "type": "function"
    },
    {
      "inputs": [
        {
          "internalType": "uint256",
          "name": "id",
          "type": "uint256"
        }
      ],
      "name": "payOutProject",
      "outputs": [
        {
          "internalType": "bool",
          "name": "",
          "type": "bool"
        }
      ],
      "stateMutability": "nonpayable",
      "type": "function"
    },
    {
      "inputs": [],
      "name": "projectCount",
      "outputs": [
        {
          "internalType": "uint256",
          "name": "",
          "type": "uint256"
        }
      ],
      "stateMutability": "view",
      "type": "function"
    },
    {
      "inputs": [
        {
          "internalType": "uint256",
          "name": "",
          "type": "uint256"
        }
      ],
      "name": "projectExist",
      "outputs": [
        {
          "internalType": "bool",
          "name": "",
          "type": "bool"
        }
      ],
      "stateMutability": "view",
      "type": "function"
    },
    {
      "inputs": [],
      "name": "projectTax",
      "outputs": [
        {
          "internalType": "uint256",
          "name": "",
          "type": "uint256"
        }
      ],
      "stateMutability": "view",
      "type": "function"
    },
    {
      "inputs": [
        {
          "internalType": "uint256",
          "name": "id",
          "type": "uint256"
        }
      ],
      "name": "requestRefund",
      "outputs": [
        {
          "internalType": "bool",
          "name": "",
          "type": "bool"
        }
      ],
      "stateMutability": "nonpayable",
      "type": "function"
    },
    {
      "inputs": [],
      "name": "stats",
      "outputs": [
        {
          "internalType": "uint256",
          "name": "totalProject",
          "type": "uint256"
        },
        {
          "internalType": "uint256",
          "name": "totalBacking",
          "type": "uint256"
        },
        {
          "internalType": "uint256",
          "name": "totalDonations",
          "type": "uint256"
        }
      ],
      "stateMutability": "view",
      "type": "function"
    },
    {
      "inputs": [
        {
          "internalType": "uint256",
          "name": "id",
          "type": "uint256"
        },
        {
          "internalType": "string",
          "name": "title",
          "type": "string"
        },
        {
          "internalType": "string",
          "name": "description",
          "type": "string"
        },
        {
          "internalType": "string",
          "name": "imageURL",
          "type": "string"
        },
        {
          "internalType": "uint256",
          "name": "expiresAt",
          "type": "uint256"
        }
      ],
      "name": "updateProject",
      "outputs": [
        {
          "internalType": "bool",
          "name": "",
          "type": "bool"
        }
      ],
      "stateMutability": "nonpayable",
      "type": "function"
    }
  ],
  "bytecode": "0x608060405234801561001057600080fd5b5060405161239a38038061239a83398101604081905261002f91610049565b600080546001600160a01b03191633179055600155610062565b60006020828403121561005b57600080fd5b5051919050565b612329806100716000396000f3fe6080604052600436106101095760003560e01c8063a4b2409e11610095578063ca766f6411610064578063ca766f64146102f6578063d24cd3ec14610316578063d80528ae1461032c578063dcc6012814610366578063f0f3f2c81461038857600080fd5b8063a4b2409e14610273578063b531dcba14610293578063b69ef8a8146102b3578063c9168b72146102c957600080fd5b80634cd0cb28116100dc5780634cd0cb28146101b85780638593054b146101d85780638da5cb5b146102085780639a3fa8c7146102405780639f39a1941461026057600080fd5b8063056c29ee1461010e5780631453d4821461014357806336fbad26146101725780633e45c8af14610196575b600080fd5b34801561011a57600080fd5b5061012e610129366004611dc1565b6103b5565b60405190151581526020015b60405180910390f35b34801561014f57600080fd5b5061012e61015e366004611e5b565b6000546001600160a01b0391821691161490565b34801561017e57600080fd5b5061018860025481565b60405190815260200161013a565b3480156101a257600080fd5b506101b66101b1366004611e8b565b610869565b005b3480156101c457600080fd5b5061012e6101d3366004611e8b565b6108be565b3480156101e457600080fd5b5061012e6101f3366004611e8b565b600a6020526000908152604090205460ff1681565b34801561021457600080fd5b50600054610228906001600160a01b031681565b6040516001600160a01b03909116815260200161013a565b34801561024c57600080fd5b5061012e61025b366004611ea4565b6109e2565b61012e61026e366004611e8b565b610c85565b34801561027f57600080fd5b5061012e61028e366004611e8b565b611069565b34801561029f57600080fd5b5061012e6102ae366004611e8b565b611160565b3480156102bf57600080fd5b5061018860035481565b3480156102d557600080fd5b506102e96102e4366004611e8b565b611258565b60405161013a9190611f3e565b34801561030257600080fd5b506000546001600160a01b0316331461012e565b34801561032257600080fd5b5061018860015481565b34801561033857600080fd5b5060045460055460065461034b92919083565b6040805193845260208401929092529082015260600161013a565b34801561037257600080fd5b5061037b61131f565b60405161013a9190612114565b34801561039457600080fd5b506103a86103a3366004611e8b565b6115ca565b60405161013a9190612176565b6000808651116104045760405162461bcd60e51b81526020600482015260156024820152745469746c652063616e6e6f7420626520656d70747960581b60448201526064015b60405180910390fd5b60008551116104555760405162461bcd60e51b815260206004820152601b60248201527f4465736372697074696f6e2063616e6e6f7420626520656d707479000000000060448201526064016103fb565b60008451116104a15760405162461bcd60e51b8152602060048201526018602482015277496d61676555524c2063616e6e6f7420626520656d70747960401b60448201526064016103fb565b600083116104e75760405162461bcd60e51b8152602060048201526013602482015272436f73742063616e6e6f74206265207a65726f60681b60448201526064016103fb565b6104ef611c02565b60025481523360408201908152606082018881526080830188905260a0830187905260c083018690524261010084015261012083018590526007805460018101825560009190915283517fa66cc928b5edb82af9bd49922954155ab7b0942694bea4ce44661d9a8736c688600c9092029182019081556020808601517fa66cc928b5edb82af9bd49922954155ab7b0942694bea4ce44661d9a8736c689840180546001600160a01b03199081166001600160a01b039384161790915595517fa66cc928b5edb82af9bd49922954155ab7b0942694bea4ce44661d9a8736c68a8501805490971691161790945591518051859461060f937fa66cc928b5edb82af9bd49922954155ab7b0942694bea4ce44661d9a8736c68b01920190611c85565b506080820151805161062b916004840191602090910190611c85565b5060a08201518051610647916005840191602090910190611c85565b5060c0820151600682015560e0820151600782015561010082015160088201556101208201516009820155610140820151600a820155610160820151600b8201805460ff191660018360048111156106a1576106a1611ffa565b021790555050600280546000908152600a602090815260408083208054600160ff1990911681179091553384526008835281842080548083018255908552938390208751600c909502019384558683015190840180546001600160a01b03199081166001600160a01b039384161790915591870151948401805490921694169390931790925560608401518051859450919261074592600385019290910190611c85565b5060808201518051610761916004840191602090910190611c85565b5060a0820151805161077d916005840191602090910190611c85565b5060c0820151600682015560e0820151600782015561010082015160088201556101208201516009820155610140820151600a820155610160820151600b8201805460ff191660018360048111156107d7576107d7611ffa565b021790555050506001600460000160008282546107f4919061219f565b90915550506002805433916000805160206122d48339815191529190600061081b836121b7565b9091555060408051918252606060208301819052600e908301526d50524f4a4543542043524541544560901b6080830152429082015260a00160405180910390a25060019695505050505050565b6000546001600160a01b031633146108b95760405162461bcd60e51b81526020600482015260136024820152724f776e6572207265736572766564206f6e6c7960681b60448201526064016103fb565b600155565b6000818152600a602052604081205460ff166108ec5760405162461bcd60e51b81526004016103fb906121d2565b600782815481106108ff576108ff6121fd565b60009182526020909120600c90910201600201546001600160a01b0316331461093a5760405162461bcd60e51b81526004016103fb90612213565b60036007838154811061094f5761094f6121fd565b60009182526020909120600b600c9092020101805460ff1916600183600481111561097c5761097c611ffa565b021790555061098a82611880565b60408051838152606060208201819052600f908201526e141493d29150d50811115311551151608a1b60808201524281830152905133916000805160206122d4833981519152919081900360a00190a2506001919050565b6000858152600a602052604081205460ff16610a105760405162461bcd60e51b81526004016103fb906121d2565b60078681548110610a2357610a236121fd565b60009182526020909120600c90910201600201546001600160a01b03163314610a5e5760405162461bcd60e51b81526004016103fb90612213565b6000855111610aa75760405162461bcd60e51b81526020600482015260156024820152745469746c652063616e6e6f7420626520656d70747960581b60448201526064016103fb565b6000845111610af85760405162461bcd60e51b815260206004820152601b60248201527f4465736372697074696f6e2063616e6e6f7420626520656d707479000000000060448201526064016103fb565b6000835111610b445760405162461bcd60e51b8152602060048201526018602482015277496d61676555524c2063616e6e6f7420626520656d70747960401b60448201526064016103fb565b8460078781548110610b5857610b586121fd565b90600052602060002090600c02016003019080519060200190610b7c929190611c85565b508360078781548110610b9157610b916121fd565b90600052602060002090600c02016004019080519060200190610bb5929190611c85565b508260078781548110610bca57610bca6121fd565b90600052602060002090600c02016005019080519060200190610bee929190611c85565b508160078781548110610c0357610c036121fd565b90600052602060002090600c020160090181905550336001600160a01b03166000805160206122d48339815191528742604051610c71929190918252606060208301819052600f908301526e141493d29150d50815541110551151608a1b6080830152604082015260a00190565b60405180910390a250600195945050505050565b6000803411610cd65760405162461bcd60e51b815260206004820152601f60248201527f4574686572206d7573742062652067726561746572207468616e207a65726f0060448201526064016103fb565b6000828152600a602052604090205460ff16610d045760405162461bcd60e51b81526004016103fb906121d2565b600060078381548110610d1957610d196121fd565b60009182526020909120600b600c90920201015460ff166004811115610d4157610d41611ffa565b14610d845760405162461bcd60e51b8152602060048201526013602482015272283937b532b1ba1034b9903737ba1037b832b760691b60448201526064016103fb565b600160046001016000828254610d9a919061219f565b909155505060068054349190600090610db490849061219f565b925050819055503460078381548110610dcf57610dcf6121fd565b90600052602060002090600c02016007016000828254610def919061219f565b92505081905550600160078381548110610e0b57610e0b6121fd565b90600052602060002090600c0201600a016000828254610e2b919061219f565b9091555050600082815260096020908152604080832081516080808201845233808352348387019081524284870181815260608087018b8152885460018082018b55998d529b8b902097516004909c0290970180546001600160a01b0319166001600160a01b03909c169b909b178b559251968a01969096559451600289015592516003909701805460ff1916971515979097179096558351888152948501829052600e918501919091526d141493d29150d508109050d2d15160921b90840152908201526000805160206122d48339815191529060a00160405180910390a260078281548110610f1e57610f1e6121fd565b90600052602060002090600c02016006015460078381548110610f4357610f436121fd565b90600052602060002090600c02016007015410610fee57600160078381548110610f6f57610f6f6121fd565b60009182526020909120600b600c9092020101805460ff19166001836004811115610f9c57610f9c611ffa565b021790555060078281548110610fb457610fb46121fd565b90600052602060002090600c02016007015460036000828254610fd7919061219f565b90915550610fe6905082611a27565b506001919050565b60078281548110611001576110016121fd565b90600052602060002090600c0201600901544210610fe65760026007838154811061102e5761102e6121fd565b60009182526020909120600b600c9092020101805460ff1916600183600481111561105b5761105b611ffa565b0217905550610fe682611880565b6000600260078381548110611080576110806121fd565b60009182526020909120600b600c90920201015460ff1660048111156110a8576110a8611ffa565b1415806110f057506003600783815481106110c5576110c56121fd565b60009182526020909120600b600c90920201015460ff1660048111156110ed576110ed611ffa565b14155b61114b5760405162461bcd60e51b815260206004820152602660248201527f50726f6a65637420686173206d61726b656420617320726576657274206f722060448201526564656c65746560d01b60648201526084016103fb565b60026007838154811061102e5761102e6121fd565b6000600160078381548110611177576111776121fd565b60009182526020909120600b600c90920201015460ff16600481111561119f5761119f611ffa565b146111ec5760405162461bcd60e51b815260206004820152601b60248201527f50726f6a656374206973206e6f7420617070726f76656420796574000000000060448201526064016103fb565b600782815481106111ff576111ff6121fd565b60009182526020909120600c90910201600201546001600160a01b031633148061123357506000546001600160a01b031633145b61124f5760405162461bcd60e51b81526004016103fb90612213565b610fe682611a27565b6000818152600a602052604090205460609060ff166112895760405162461bcd60e51b81526004016103fb906121d2565b600082815260096020908152604080832080548251818502810185019093528083529193909284015b82821015611314576000848152602090819020604080516080810182526004860290920180546001600160a01b03168352600180820154848601526002820154928401929092526003015460ff161515606083015290835290920191016112b2565b505050509050919050565b60606007805480602002602001604051908101604052809291908181526020016000905b828210156115c15760008481526020908190206040805161018081018252600c86029092018054835260018101546001600160a01b03908116948401949094526002810154909316908201526003820180549192916060840191906113a790612240565b80601f01602080910402602001604051908101604052809291908181526020018280546113d390612240565b80156114205780601f106113f557610100808354040283529160200191611420565b820191906000526020600020905b81548152906001019060200180831161140357829003601f168201915b5050505050815260200160048201805461143990612240565b80601f016020809104026020016040519081016040528092919081815260200182805461146590612240565b80156114b25780601f10611487576101008083540402835291602001916114b2565b820191906000526020600020905b81548152906001019060200180831161149557829003601f168201915b505050505081526020016005820180546114cb90612240565b80601f01602080910402602001604051908101604052809291908181526020018280546114f790612240565b80156115445780601f1061151957610100808354040283529160200191611544565b820191906000526020600020905b81548152906001019060200180831161152757829003601f168201915b505050918352505060068201546020820152600782015460408201526008820154606082015260098201546080820152600a82015460a0820152600b82015460c09091019060ff16600481111561159d5761159d611ffa565b60048111156115ae576115ae611ffa565b8152505081526020019060010190611343565b50505050905090565b6115d2611c02565b6000828152600a602052604090205460ff166116005760405162461bcd60e51b81526004016103fb906121d2565b60078281548110611613576116136121fd565b60009182526020918290206040805161018081018252600c9093029091018054835260018101546001600160a01b039081169484019490945260028101549093169082015260038201805491929160608401919061167090612240565b80601f016020809104026020016040519081016040528092919081815260200182805461169c90612240565b80156116e95780601f106116be576101008083540402835291602001916116e9565b820191906000526020600020905b8154815290600101906020018083116116cc57829003601f168201915b5050505050815260200160048201805461170290612240565b80601f016020809104026020016040519081016040528092919081815260200182805461172e90612240565b801561177b5780601f106117505761010080835404028352916020019161177b565b820191906000526020600020905b81548152906001019060200180831161175e57829003601f168201915b5050505050815260200160058201805461179490612240565b80601f01602080910402602001604051908101604052809291908181526020018280546117c090612240565b801561180d5780601f106117e25761010080835404028352916020019161180d565b820191906000526020600020905b8154815290600101906020018083116117f057829003601f168201915b505050918352505060068201546020820152600782015460408201526008820154606082015260098201546080820152600a82015460a0820152600b82015460c09091019060ff16600481111561186657611866611ffa565b600481111561187757611877611ffa565b90525092915050565b60005b600082815260096020526040902054811015611a235760008281526009602052604081208054839081106118b9576118b96121fd565b6000918252602080832060049092029091015485835260099091526040822080546001600160a01b03909216935090849081106118f8576118f86121fd565b90600052602060002090600402016001015490506001600960008681526020019081526020016000208481548110611932576119326121fd565b906000526020600020906004020160030160006101000a81548160ff0219169083151502179055504260096000868152602001908152602001600020848154811061197f5761197f6121fd565b90600052602060002090600402016002018190555061199e8282611b9d565b80600785815481106119b2576119b26121fd565b90600052602060002090600c020160070160008282546119d2919061227b565b909155505060058054600191906000906119ed90849061227b565b909155505060068054829190600090611a0790849061227b565b9250508190555050508080611a1b906121b7565b915050611883565b5050565b600060078281548110611a3c57611a3c6121fd565b90600052602060002090600c02016007015490506000606460015483611a629190612292565b611a6c91906122b1565b9050600460078481548110611a8357611a836121fd565b60009182526020909120600b600c9092020101805460ff19166001836004811115611ab057611ab0611ffa565b0217905550600054611acb906001600160a01b031682611b9d565b611b0d60078481548110611ae157611ae16121fd565b600091825260209091206002600c9092020101546001600160a01b0316611b08838561227b565b611b9d565b60078381548110611b2057611b206121fd565b90600052602060002090600c02016007015460036000828254611b43919061227b565b909155505060408051848152606060208201819052600f908201526e141493d29150d5081410525113d555608a1b60808201524281830152905133916000805160206122d4833981519152919081900360a00190a2505050565b6000826001600160a01b03168260405160006040518083038185875af1925050503d8060008114611bea576040519150601f19603f3d011682016040523d82523d6000602084013e611bef565b606091505b5050905080611bfd57600080fd5b505050565b6040518061018001604052806000815260200160006001600160a01b0316815260200160006001600160a01b03168152602001606081526020016060815260200160608152602001600081526020016000815260200160008152602001600081526020016000815260200160006004811115611c8057611c80611ffa565b905290565b828054611c9190612240565b90600052602060002090601f016020900481019282611cb35760008555611cf9565b82601f10611ccc57805160ff1916838001178555611cf9565b82800160010185558215611cf9579182015b82811115611cf9578251825591602001919060010190611cde565b50611d05929150611d09565b5090565b5b80821115611d055760008155600101611d0a565b634e487b7160e01b600052604160045260246000fd5b600082601f830112611d4557600080fd5b813567ffffffffffffffff80821115611d6057611d60611d1e565b604051601f8301601f19908116603f01168101908282118183101715611d8857611d88611d1e565b81604052838152866020858801011115611da157600080fd5b836020870160208301376000602085830101528094505050505092915050565b600080600080600060a08688031215611dd957600080fd5b853567ffffffffffffffff80821115611df157600080fd5b611dfd89838a01611d34565b96506020880135915080821115611e1357600080fd5b611e1f89838a01611d34565b95506040880135915080821115611e3557600080fd5b50611e4288828901611d34565b9598949750949560608101359550608001359392505050565b600060208284031215611e6d57600080fd5b81356001600160a01b0381168114611e8457600080fd5b9392505050565b600060208284031215611e9d57600080fd5b5035919050565b600080600080600060a08688031215611ebc57600080fd5b85359450602086013567ffffffffffffffff80821115611edb57600080fd5b611ee789838a01611d34565b95506040880135915080821115611efd57600080fd5b611f0989838a01611d34565b94506060880135915080821115611f1f57600080fd5b50611f2c88828901611d34565b95989497509295608001359392505050565b602080825282518282018190526000919060409081850190868401855b82811015611fa057815180516001600160a01b031685528681015187860152858101518686015260609081015115159085015260809093019290850190600101611f5b565b5091979650505050505050565b6000815180845260005b81811015611fd357602081850181015186830182015201611fb7565b81811115611fe5576000602083870101525b50601f01601f19169290920160200192915050565b634e487b7160e01b600052602160045260246000fd5b6005811061202e57634e487b7160e01b600052602160045260246000fd5b9052565b600061018082518452602083015161205560208601826001600160a01b03169052565b50604083015161207060408601826001600160a01b03169052565b50606083015181606086015261208882860182611fad565b915050608083015184820360808601526120a28282611fad565b91505060a083015184820360a08601526120bc8282611fad565b91505060c083015160c085015260e083015160e08501526101008084015181860152506101208084015181860152506101408084015181860152506101608084015161210a82870182612010565b5090949350505050565b6000602080830181845280855180835260408601915060408160051b870101925083870160005b8281101561216957603f19888603018452612157858351612032565b9450928501929085019060010161213b565b5092979650505050505050565b602081526000611e846020830184612032565b634e487b7160e01b600052601160045260246000fd5b600082198211156121b2576121b2612189565b500190565b60006000198214156121cb576121cb612189565b5060010190565b602080825260119082015270141c9bda9958dd081b9bdd08199bdd5b99607a1b604082015260600190565b634e487b7160e01b600052603260045260246000fd5b602080825260139082015272556e617574686f72697a656420456e7469747960681b604082015260600190565b600181811c9082168061225457607f821691505b6020821081141561227557634e487b7160e01b600052602260045260246000fd5b50919050565b60008282101561228d5761228d612189565b500390565b60008160001904831182151516156122ac576122ac612189565b500290565b6000826122ce57634e487b7160e01b600052601260045260246000fd5b50049056feaee8e5d3bbb2f71a951b5632cee20f7ac487b9f8ab4f66a236f7694b13af7c6aa26469706673582212207ed5c4a495ad139a026266d0db76ccc9920a887ec08ea579b9d0cc4893f9f32164736f6c634300080b0033",
  "linkReferences": {},
  "deployedLinkReferences": {}
}