{
  "_format": "hh-sol-artifact-1",
  "contractName": "Genesis",
  "sourceName": "src/contracts/Genesis.sol",
  "abi": [
    {
      "inputs": [
        {
          "internalType": "uint256",
          "name": "_projectTax",
          "type": "uint256"
        }
      ],
      "stateMutability": "nonpayable",
      "type": "constructor"
    },
    {
      "anonymous": false,
      "inputs": [
        {
          "indexed": false,
          "internalType": "uint256",
          "name": "id",
          "type": "uint256"
        },
        {
          "indexed": false,
          "internalType": "string",
          "name": "actionType",
          "type": "string"
        },
        {
          "indexed": true,
          "internalType": "address",
          "name": "executor",
          "type": "address"
        },
        {
          "indexed": false,
          "internalType": "uint256",
          "name": "timestamp",
          "type": "uint256"
        }
      ],
      "name": "Action",
      "type": "event"
    },
    {
      "inputs": [
        {
          "internalType": "address",
          "name": "_newCreator",
          "type": "address"
        }
      ],
      "name": "addCreator",
      "outputs": [],
      "stateMutability": "nonpayable",
      "type": "function"
    },
    {
      "inputs": [
        {
          "internalType": "uint256",
          "name": "id",
          "type": "uint256"
        }
      ],
      "name": "backProject",
      "outputs": [
        {
          "internalType": "bool",
          "name": "",
          "type": "bool"
        }
      ],
      "stateMutability": "payable",
      "type": "function"
    },
    {
      "inputs": [],
      "name": "balance",
      "outputs": [
        {
          "internalType": "uint256",
          "name": "",
          "type": "uint256"
        }
      ],
      "stateMutability": "view",
      "type": "function"
    },
    {
      "inputs": [
        {
          "internalType": "uint256",
          "name": "_taxPct",
          "type": "uint256"
        }
      ],
      "name": "changeTax",
      "outputs": [],
      "stateMutability": "nonpayable",
      "type": "function"
    },
    {
      "inputs": [
        {
          "internalType": "string",
          "name": "title",
          "type": "string"
        },
        {
          "internalType": "string",
          "name": "description",
          "type": "string"
        },
        {
          "internalType": "string",
          "name": "imageURL",
          "type": "string"
        },
        {
          "internalType": "uint256",
          "name": "cost",
          "type": "uint256"
        },
        {
          "internalType": "uint256",
          "name": "expiresAt",
          "type": "uint256"
        }
      ],
      "name": "createProject",
      "outputs": [
        {
          "internalType": "bool",
          "name": "",
          "type": "bool"
        }
      ],
      "stateMutability": "nonpayable",
      "type": "function"
    },
    {
      "inputs": [
        {
          "internalType": "uint256",
          "name": "id",
          "type": "uint256"
        }
      ],
      "name": "deleteProject",
      "outputs": [
        {
          "internalType": "bool",
          "name": "",
          "type": "bool"
        }
      ],
      "stateMutability": "nonpayable",
      "type": "function"
    },
    {
      "inputs": [
        {
          "internalType": "uint256",
          "name": "id",
          "type": "uint256"
        }
      ],
      "name": "getBackers",
      "outputs": [
        {
          "components": [
            {
              "internalType": "address",
              "name": "owner",
              "type": "address"
            },
            {
              "internalType": "uint256",
              "name": "contributions",
              "type": "uint256"
            },
            {
              "internalType": "uint256",
              "name": "timestamp",
              "type": "uint256"
            },
            {
              "internalType": "bool",
              "name": "refunded",
              "type": "bool"
            }
          ],
          "internalType": "struct Genesis.backerStruct[]",
          "name": "",
          "type": "tuple[]"
        }
      ],
      "stateMutability": "view",
      "type": "function"
    },
    {
      "inputs": [
        {
          "internalType": "uint256",
          "name": "id",
          "type": "uint256"
        }
      ],
      "name": "getProject",
      "outputs": [
        {
          "components": [
            {
              "internalType": "uint256",
              "name": "id",
              "type": "uint256"
            },
            {
              "internalType": "address",
              "name": "project",
              "type": "address"
            },
            {
              "internalType": "address",
              "name": "owner",
              "type": "address"
            },
            {
              "internalType": "string",
              "name": "title",
              "type": "string"
            },
            {
              "internalType": "string",
              "name": "description",
              "type": "string"
            },
            {
              "internalType": "string",
              "name": "imageURL",
              "type": "string"
            },
            {
              "internalType": "uint256",
              "name": "cost",
              "type": "uint256"
            },
            {
              "internalType": "uint256",
              "name": "raised",
              "type": "uint256"
            },
            {
              "internalType": "uint256",
              "name": "timestamp",
              "type": "uint256"
            },
            {
              "internalType": "uint256",
              "name": "expiresAt",
              "type": "uint256"
            },
            {
              "internalType": "uint256",
              "name": "backers",
              "type": "uint256"
            },
            {
              "internalType": "enum Genesis.statusEnum",
              "name": "status",
              "type": "uint8"
            }
          ],
          "internalType": "struct Genesis.projectStruct",
          "name": "",
          "type": "tuple"
        }
      ],
      "stateMutability": "view",
      "type": "function"
    },
    {
      "inputs": [],
      "name": "getProjects",
      "outputs": [
        {
          "components": [
            {
              "internalType": "uint256",
              "name": "id",
              "type": "uint256"
            },
            {
              "internalType": "address",
              "name": "project",
              "type": "address"
            },
            {
              "internalType": "address",
              "name": "owner",
              "type": "address"
            },
            {
              "internalType": "string",
              "name": "title",
              "type": "string"
            },
            {
              "internalType": "string",
              "name": "description",
              "type": "string"
            },
            {
              "internalType": "string",
              "name": "imageURL",
              "type": "string"
            },
            {
              "internalType": "uint256",
              "name": "cost",
              "type": "uint256"
            },
            {
              "internalType": "uint256",
              "name": "raised",
              "type": "uint256"
            },
            {
              "internalType": "uint256",
              "name": "timestamp",
              "type": "uint256"
            },
            {
              "internalType": "uint256",
              "name": "expiresAt",
              "type": "uint256"
            },
            {
              "internalType": "uint256",
              "name": "backers",
              "type": "uint256"
            },
            {
              "internalType": "enum Genesis.statusEnum",
              "name": "status",
              "type": "uint8"
            }
          ],
          "internalType": "struct Genesis.projectStruct[]",
          "name": "",
          "type": "tuple[]"
        }
      ],
      "stateMutability": "view",
      "type": "function"
    },
    {
      "inputs": [
        {
          "internalType": "address",
          "name": "addr",
          "type": "address"
        }
      ],
      "name": "isAppOwner",
      "outputs": [
        {
          "internalType": "bool",
          "name": "",
          "type": "bool"
        }
      ],
      "stateMutability": "view",
      "type": "function"
    },
    {
      "inputs": [],
      "name": "isAppOwner",
      "outputs": [
        {
          "internalType": "bool",
          "name": "",
          "type": "bool"
        }
      ],
      "stateMutability": "view",
      "type": "function"
    },
    {
      "inputs": [
        {
          "internalType": "address",
          "name": "",
          "type": "address"
        }
      ],
      "name": "isCreator",
      "outputs": [
        {
          "internalType": "bool",
          "name": "",
          "type": "bool"
        }
      ],
      "stateMutability": "view",
      "type": "function"
    },
    {
      "inputs": [],
      "name": "owner",
      "outputs": [
        {
          "internalType": "address",
          "name": "",
          "type": "address"
        }
      ],
      "stateMutability": "view",
      "type": "function"
    },
    {
      "inputs": [
        {
          "internalType": "uint256",
          "name": "id",
          "type": "uint256"
        }
      ],
      "name": "payOutProject",
      "outputs": [
        {
          "internalType": "bool",
          "name": "",
          "type": "bool"
        }
      ],
      "stateMutability": "nonpayable",
      "type": "function"
    },
    {
      "inputs": [],
      "name": "projectCount",
      "outputs": [
        {
          "internalType": "uint256",
          "name": "",
          "type": "uint256"
        }
      ],
      "stateMutability": "view",
      "type": "function"
    },
    {
      "inputs": [
        {
          "internalType": "uint256",
          "name": "",
          "type": "uint256"
        }
      ],
      "name": "projectExist",
      "outputs": [
        {
          "internalType": "bool",
          "name": "",
          "type": "bool"
        }
      ],
      "stateMutability": "view",
      "type": "function"
    },
    {
      "inputs": [],
      "name": "projectTax",
      "outputs": [
        {
          "internalType": "uint256",
          "name": "",
          "type": "uint256"
        }
      ],
      "stateMutability": "view",
      "type": "function"
    },
    {
      "inputs": [
        {
          "internalType": "uint256",
          "name": "id",
          "type": "uint256"
        }
      ],
      "name": "requestRefund",
      "outputs": [
        {
          "internalType": "bool",
          "name": "",
          "type": "bool"
        }
      ],
      "stateMutability": "nonpayable",
      "type": "function"
    },
    {
      "inputs": [],
      "name": "stats",
      "outputs": [
        {
          "internalType": "uint256",
          "name": "totalProject",
          "type": "uint256"
        },
        {
          "internalType": "uint256",
          "name": "totalBacking",
          "type": "uint256"
        },
        {
          "internalType": "uint256",
          "name": "totalDonations",
          "type": "uint256"
        }
      ],
      "stateMutability": "view",
      "type": "function"
    },
    {
      "inputs": [
        {
          "internalType": "uint256",
          "name": "id",
          "type": "uint256"
        },
        {
          "internalType": "string",
          "name": "title",
          "type": "string"
        },
        {
          "internalType": "string",
          "name": "description",
          "type": "string"
        },
        {
          "internalType": "string",
          "name": "imageURL",
          "type": "string"
        },
        {
          "internalType": "uint256",
          "name": "expiresAt",
          "type": "uint256"
        }
      ],
      "name": "updateProject",
      "outputs": [
        {
          "internalType": "bool",
          "name": "",
          "type": "bool"
        }
      ],
      "stateMutability": "nonpayable",
      "type": "function"
    }
  ],
  "bytecode": "0x608060405234801561001057600080fd5b506040516200258e3803806200258e8339810160408190526100319161004b565b600080546001600160a01b03191633179055600155610064565b60006020828403121561005d57600080fd5b5051919050565b61251a80620000746000396000f3fe60806040526004361061011f5760003560e01c8063a4b2409e116100a0578063d24cd3ec11610064578063d24cd3ec1461034c578063d80528ae14610362578063dcc601281461039c578063efd46065146103be578063f0f3f2c8146103ee57600080fd5b8063a4b2409e146102a9578063b531dcba146102c9578063b69ef8a8146102e9578063c9168b72146102ff578063ca766f641461032c57600080fd5b80634cd0cb28116100e75780634cd0cb28146101ee5780638593054b1461020e5780638da5cb5b1461023e5780639a3fa8c7146102765780639f39a1941461029657600080fd5b8063056c29ee146101245780631453d4821461015957806336fbad26146101885780633b9dce05146101ac5780633e45c8af146101ce575b600080fd5b34801561013057600080fd5b5061014461013f366004611f83565b61041b565b60405190151581526020015b60405180910390f35b34801561016557600080fd5b5061014461017436600461201d565b6000546001600160a01b0391821691161490565b34801561019457600080fd5b5061019e60025481565b604051908152602001610150565b3480156101b857600080fd5b506101cc6101c736600461201d565b610901565b005b3480156101da57600080fd5b506101cc6101e936600461204d565b6109cd565b3480156101fa57600080fd5b5061014461020936600461204d565b610a22565b34801561021a57600080fd5b5061014461022936600461204d565b600a6020526000908152604090205460ff1681565b34801561024a57600080fd5b5060005461025e906001600160a01b031681565b6040516001600160a01b039091168152602001610150565b34801561028257600080fd5b50610144610291366004612066565b610b75565b6101446102a436600461204d565b610e47565b3480156102b557600080fd5b506101446102c436600461204d565b61122b565b3480156102d557600080fd5b506101446102e436600461204d565b611322565b3480156102f557600080fd5b5061019e60035481565b34801561030b57600080fd5b5061031f61031a36600461204d565b61141a565b6040516101509190612100565b34801561033857600080fd5b506000546001600160a01b03163314610144565b34801561035857600080fd5b5061019e60015481565b34801561036e57600080fd5b5060045460055460065461038192919083565b60408051938452602084019290925290820152606001610150565b3480156103a857600080fd5b506103b16114e1565b60405161015091906122d6565b3480156103ca57600080fd5b506101446103d936600461201d565b600b6020526000908152604090205460ff1681565b3480156103fa57600080fd5b5061040e61040936600461204d565b61178c565b6040516101509190612338565b336000908152600b602052604081205460ff166104535760405162461bcd60e51b815260040161044a9061234b565b60405180910390fd5b600086511161049c5760405162461bcd60e51b81526020600482015260156024820152745469746c652063616e6e6f7420626520656d70747960581b604482015260640161044a565b60008551116104ed5760405162461bcd60e51b815260206004820152601b60248201527f4465736372697074696f6e2063616e6e6f7420626520656d7074790000000000604482015260640161044a565b60008451116105395760405162461bcd60e51b8152602060048201526018602482015277496d61676555524c2063616e6e6f7420626520656d70747960401b604482015260640161044a565b6000831161057f5760405162461bcd60e51b8152602060048201526013602482015272436f73742063616e6e6f74206265207a65726f60681b604482015260640161044a565b610587611dc4565b60025481523360408201908152606082018881526080830188905260a0830187905260c083018690524261010084015261012083018590526007805460018101825560009190915283517fa66cc928b5edb82af9bd49922954155ab7b0942694bea4ce44661d9a8736c688600c9092029182019081556020808601517fa66cc928b5edb82af9bd49922954155ab7b0942694bea4ce44661d9a8736c689840180546001600160a01b03199081166001600160a01b039384161790915595517fa66cc928b5edb82af9bd49922954155ab7b0942694bea4ce44661d9a8736c68a850180549097169116179094559151805185946106a7937fa66cc928b5edb82af9bd49922954155ab7b0942694bea4ce44661d9a8736c68b01920190611e47565b50608082015180516106c3916004840191602090910190611e47565b5060a082015180516106df916005840191602090910190611e47565b5060c0820151600682015560e0820151600782015561010082015160088201556101208201516009820155610140820151600a820155610160820151600b8201805460ff19166001836004811115610739576107396121bc565b021790555050600280546000908152600a602090815260408083208054600160ff1990911681179091553384526008835281842080548083018255908552938390208751600c909502019384558683015190840180546001600160a01b03199081166001600160a01b03938416179091559187015194840180549092169416939093179092556060840151805185945091926107dd92600385019290910190611e47565b50608082015180516107f9916004840191602090910190611e47565b5060a08201518051610815916005840191602090910190611e47565b5060c0820151600682015560e0820151600782015561010082015160088201556101208201516009820155610140820151600a820155610160820151600b8201805460ff1916600183600481111561086f5761086f6121bc565b0217905550505060016004600001600082825461088c9190612390565b90915550506002805433916000805160206124c5833981519152919060006108b3836123a8565b9091555060408051918252606060208301819052600e908301526d50524f4a4543542043524541544560901b6080830152429082015260a00160405180910390a25060019695505050505050565b6000546001600160a01b031633146109515760405162461bcd60e51b81526020600482015260136024820152724f776e6572207265736572766564206f6e6c7960681b604482015260640161044a565b6001600160a01b0381166000908152600b6020526040808220805460ff191660011790555133916000805160206124c5833981519152916109c291904290918252606060208301819052600d908301526c10d491505513d4881051111151609a1b6080830152604082015260a00190565b60405180910390a250565b6000546001600160a01b03163314610a1d5760405162461bcd60e51b81526020600482015260136024820152724f776e6572207265736572766564206f6e6c7960681b604482015260640161044a565b600155565b336000908152600b602052604081205460ff16610a515760405162461bcd60e51b815260040161044a9061234b565b6000828152600a602052604090205460ff16610a7f5760405162461bcd60e51b815260040161044a906123c3565b60078281548110610a9257610a926123ee565b60009182526020909120600c90910201600201546001600160a01b03163314610acd5760405162461bcd60e51b815260040161044a90612404565b600360078381548110610ae257610ae26123ee565b60009182526020909120600b600c9092020101805460ff19166001836004811115610b0f57610b0f6121bc565b0217905550610b1d82611a42565b60408051838152606060208201819052600f908201526e141493d29150d50811115311551151608a1b60808201524281830152905133916000805160206124c5833981519152919081900360a00190a2506001919050565b336000908152600b602052604081205460ff16610ba45760405162461bcd60e51b815260040161044a9061234b565b6000868152600a602052604090205460ff16610bd25760405162461bcd60e51b815260040161044a906123c3565b60078681548110610be557610be56123ee565b60009182526020909120600c90910201600201546001600160a01b03163314610c205760405162461bcd60e51b815260040161044a90612404565b6000855111610c695760405162461bcd60e51b81526020600482015260156024820152745469746c652063616e6e6f7420626520656d70747960581b604482015260640161044a565b6000845111610cba5760405162461bcd60e51b815260206004820152601b60248201527f4465736372697074696f6e2063616e6e6f7420626520656d7074790000000000604482015260640161044a565b6000835111610d065760405162461bcd60e51b8152602060048201526018602482015277496d61676555524c2063616e6e6f7420626520656d70747960401b604482015260640161044a565b8460078781548110610d1a57610d1a6123ee565b90600052602060002090600c02016003019080519060200190610d3e929190611e47565b508360078781548110610d5357610d536123ee565b90600052602060002090600c02016004019080519060200190610d77929190611e47565b508260078781548110610d8c57610d8c6123ee565b90600052602060002090600c02016005019080519060200190610db0929190611e47565b508160078781548110610dc557610dc56123ee565b90600052602060002090600c020160090181905550336001600160a01b03166000805160206124c58339815191528742604051610e33929190918252606060208301819052600f908301526e141493d29150d50815541110551151608a1b6080830152604082015260a00190565b60405180910390a250600195945050505050565b6000803411610e985760405162461bcd60e51b815260206004820152601f60248201527f4574686572206d7573742062652067726561746572207468616e207a65726f00604482015260640161044a565b6000828152600a602052604090205460ff16610ec65760405162461bcd60e51b815260040161044a906123c3565b600060078381548110610edb57610edb6123ee565b60009182526020909120600b600c90920201015460ff166004811115610f0357610f036121bc565b14610f465760405162461bcd60e51b8152602060048201526013602482015272283937b532b1ba1034b9903737ba1037b832b760691b604482015260640161044a565b600160046001016000828254610f5c9190612390565b909155505060068054349190600090610f76908490612390565b925050819055503460078381548110610f9157610f916123ee565b90600052602060002090600c02016007016000828254610fb19190612390565b92505081905550600160078381548110610fcd57610fcd6123ee565b90600052602060002090600c0201600a016000828254610fed9190612390565b9091555050600082815260096020908152604080832081516080808201845233808352348387019081524284870181815260608087018b8152885460018082018b55998d529b8b902097516004909c0290970180546001600160a01b0319166001600160a01b03909c169b909b178b559251968a01969096559451600289015592516003909701805460ff1916971515979097179096558351888152948501829052600e918501919091526d141493d29150d508109050d2d15160921b90840152908201526000805160206124c58339815191529060a00160405180910390a2600782815481106110e0576110e06123ee565b90600052602060002090600c02016006015460078381548110611105576111056123ee565b90600052602060002090600c020160070154106111b057600160078381548110611131576111316123ee565b60009182526020909120600b600c9092020101805460ff1916600183600481111561115e5761115e6121bc565b021790555060078281548110611176576111766123ee565b90600052602060002090600c020160070154600360008282546111999190612390565b909155506111a8905082611be9565b506001919050565b600782815481106111c3576111c36123ee565b90600052602060002090600c02016009015442106111a8576002600783815481106111f0576111f06123ee565b60009182526020909120600b600c9092020101805460ff1916600183600481111561121d5761121d6121bc565b02179055506111a882611a42565b6000600260078381548110611242576112426123ee565b60009182526020909120600b600c90920201015460ff16600481111561126a5761126a6121bc565b1415806112b25750600360078381548110611287576112876123ee565b60009182526020909120600b600c90920201015460ff1660048111156112af576112af6121bc565b14155b61130d5760405162461bcd60e51b815260206004820152602660248201527f50726f6a65637420686173206d61726b656420617320726576657274206f722060448201526564656c65746560d01b606482015260840161044a565b6002600783815481106111f0576111f06123ee565b6000600160078381548110611339576113396123ee565b60009182526020909120600b600c90920201015460ff166004811115611361576113616121bc565b146113ae5760405162461bcd60e51b815260206004820152601b60248201527f50726f6a656374206973206e6f7420617070726f766564207965740000000000604482015260640161044a565b600782815481106113c1576113c16123ee565b60009182526020909120600c90910201600201546001600160a01b03163314806113f557506000546001600160a01b031633145b6114115760405162461bcd60e51b815260040161044a90612404565b6111a882611be9565b6000818152600a602052604090205460609060ff1661144b5760405162461bcd60e51b815260040161044a906123c3565b600082815260096020908152604080832080548251818502810185019093528083529193909284015b828210156114d6576000848152602090819020604080516080810182526004860290920180546001600160a01b03168352600180820154848601526002820154928401929092526003015460ff16151560608301529083529092019101611474565b505050509050919050565b60606007805480602002602001604051908101604052809291908181526020016000905b828210156117835760008481526020908190206040805161018081018252600c86029092018054835260018101546001600160a01b039081169484019490945260028101549093169082015260038201805491929160608401919061156990612431565b80601f016020809104026020016040519081016040528092919081815260200182805461159590612431565b80156115e25780601f106115b7576101008083540402835291602001916115e2565b820191906000526020600020905b8154815290600101906020018083116115c557829003601f168201915b505050505081526020016004820180546115fb90612431565b80601f016020809104026020016040519081016040528092919081815260200182805461162790612431565b80156116745780601f1061164957610100808354040283529160200191611674565b820191906000526020600020905b81548152906001019060200180831161165757829003601f168201915b5050505050815260200160058201805461168d90612431565b80601f01602080910402602001604051908101604052809291908181526020018280546116b990612431565b80156117065780601f106116db57610100808354040283529160200191611706565b820191906000526020600020905b8154815290600101906020018083116116e957829003601f168201915b505050918352505060068201546020820152600782015460408201526008820154606082015260098201546080820152600a82015460a0820152600b82015460c09091019060ff16600481111561175f5761175f6121bc565b6004811115611770576117706121bc565b8152505081526020019060010190611505565b50505050905090565b611794611dc4565b6000828152600a602052604090205460ff166117c25760405162461bcd60e51b815260040161044a906123c3565b600782815481106117d5576117d56123ee565b60009182526020918290206040805161018081018252600c9093029091018054835260018101546001600160a01b039081169484019490945260028101549093169082015260038201805491929160608401919061183290612431565b80601f016020809104026020016040519081016040528092919081815260200182805461185e90612431565b80156118ab5780601f10611880576101008083540402835291602001916118ab565b820191906000526020600020905b81548152906001019060200180831161188e57829003601f168201915b505050505081526020016004820180546118c490612431565b80601f01602080910402602001604051908101604052809291908181526020018280546118f090612431565b801561193d5780601f106119125761010080835404028352916020019161193d565b820191906000526020600020905b81548152906001019060200180831161192057829003601f168201915b5050505050815260200160058201805461195690612431565b80601f016020809104026020016040519081016040528092919081815260200182805461198290612431565b80156119cf5780601f106119a4576101008083540402835291602001916119cf565b820191906000526020600020905b8154815290600101906020018083116119b257829003601f168201915b505050918352505060068201546020820152600782015460408201526008820154606082015260098201546080820152600a82015460a0820152600b82015460c09091019060ff166004811115611a2857611a286121bc565b6004811115611a3957611a396121bc565b90525092915050565b60005b600082815260096020526040902054811015611be5576000828152600960205260408120805483908110611a7b57611a7b6123ee565b6000918252602080832060049092029091015485835260099091526040822080546001600160a01b0390921693509084908110611aba57611aba6123ee565b90600052602060002090600402016001015490506001600960008681526020019081526020016000208481548110611af457611af46123ee565b906000526020600020906004020160030160006101000a81548160ff02191690831515021790555042600960008681526020019081526020016000208481548110611b4157611b416123ee565b906000526020600020906004020160020181905550611b608282611d5f565b8060078581548110611b7457611b746123ee565b90600052602060002090600c02016007016000828254611b94919061246c565b90915550506005805460019190600090611baf90849061246c565b909155505060068054829190600090611bc990849061246c565b9250508190555050508080611bdd906123a8565b915050611a45565b5050565b600060078281548110611bfe57611bfe6123ee565b90600052602060002090600c02016007015490506000606460015483611c249190612483565b611c2e91906124a2565b9050600460078481548110611c4557611c456123ee565b60009182526020909120600b600c9092020101805460ff19166001836004811115611c7257611c726121bc565b0217905550600054611c8d906001600160a01b031682611d5f565b611ccf60078481548110611ca357611ca36123ee565b600091825260209091206002600c9092020101546001600160a01b0316611cca838561246c565b611d5f565b60078381548110611ce257611ce26123ee565b90600052602060002090600c02016007015460036000828254611d05919061246c565b909155505060408051848152606060208201819052600f908201526e141493d29150d5081410525113d555608a1b60808201524281830152905133916000805160206124c5833981519152919081900360a00190a2505050565b6000826001600160a01b03168260405160006040518083038185875af1925050503d8060008114611dac576040519150601f19603f3d011682016040523d82523d6000602084013e611db1565b606091505b5050905080611dbf57600080fd5b505050565b6040518061018001604052806000815260200160006001600160a01b0316815260200160006001600160a01b03168152602001606081526020016060815260200160608152602001600081526020016000815260200160008152602001600081526020016000815260200160006004811115611e4257611e426121bc565b905290565b828054611e5390612431565b90600052602060002090601f016020900481019282611e755760008555611ebb565b82601f10611e8e57805160ff1916838001178555611ebb565b82800160010185558215611ebb579182015b82811115611ebb578251825591602001919060010190611ea0565b50611ec7929150611ecb565b5090565b5b80821115611ec75760008155600101611ecc565b634e487b7160e01b600052604160045260246000fd5b600082601f830112611f0757600080fd5b813567ffffffffffffffff80821115611f2257611f22611ee0565b604051601f8301601f19908116603f01168101908282118183101715611f4a57611f4a611ee0565b81604052838152866020858801011115611f6357600080fd5b836020870160208301376000602085830101528094505050505092915050565b600080600080600060a08688031215611f9b57600080fd5b853567ffffffffffffffff80821115611fb357600080fd5b611fbf89838a01611ef6565b96506020880135915080821115611fd557600080fd5b611fe189838a01611ef6565b95506040880135915080821115611ff757600080fd5b5061200488828901611ef6565b9598949750949560608101359550608001359392505050565b60006020828403121561202f57600080fd5b81356001600160a01b038116811461204657600080fd5b9392505050565b60006020828403121561205f57600080fd5b5035919050565b600080600080600060a0868803121561207e57600080fd5b85359450602086013567ffffffffffffffff8082111561209d57600080fd5b6120a989838a01611ef6565b955060408801359150808211156120bf57600080fd5b6120cb89838a01611ef6565b945060608801359150808211156120e157600080fd5b506120ee88828901611ef6565b95989497509295608001359392505050565b602080825282518282018190526000919060409081850190868401855b8281101561216257815180516001600160a01b03168552868101518786015285810151868601526060908101511515908501526080909301929085019060010161211d565b5091979650505050505050565b6000815180845260005b8181101561219557602081850181015186830182015201612179565b818111156121a7576000602083870101525b50601f01601f19169290920160200192915050565b634e487b7160e01b600052602160045260246000fd5b600581106121f057634e487b7160e01b600052602160045260246000fd5b9052565b600061018082518452602083015161221760208601826001600160a01b03169052565b50604083015161223260408601826001600160a01b03169052565b50606083015181606086015261224a8286018261216f565b91505060808301518482036080860152612264828261216f565b91505060a083015184820360a086015261227e828261216f565b91505060c083015160c085015260e083015160e0850152610100808401518186015250610120808401518186015250610140808401518186015250610160808401516122cc828701826121d2565b5090949350505050565b6000602080830181845280855180835260408601915060408160051b870101925083870160005b8281101561232b57603f198886030184526123198583516121f4565b945092850192908501906001016122fd565b5092979650505050505050565b60208152600061204660208301846121f4565b60208082526015908201527443726561746f72207265736572766564206f6e6c7960581b604082015260600190565b634e487b7160e01b600052601160045260246000fd5b600082198211156123a3576123a361237a565b500190565b60006000198214156123bc576123bc61237a565b5060010190565b602080825260119082015270141c9bda9958dd081b9bdd08199bdd5b99607a1b604082015260600190565b634e487b7160e01b600052603260045260246000fd5b602080825260139082015272556e617574686f72697a656420456e7469747960681b604082015260600190565b600181811c9082168061244557607f821691505b6020821081141561246657634e487b7160e01b600052602260045260246000fd5b50919050565b60008282101561247e5761247e61237a565b500390565b600081600019048311821515161561249d5761249d61237a565b500290565b6000826124bf57634e487b7160e01b600052601260045260246000fd5b50049056feaee8e5d3bbb2f71a951b5632cee20f7ac487b9f8ab4f66a236f7694b13af7c6aa2646970667358221220707cfba05df5e789bf3b8c3049170b8b3db1cdf958903c00843649a5795f882c64736f6c634300080b0033",
  "linkReferences": {},
  "deployedLinkReferences": {}
}