{
  "_format": "hh-sol-artifact-1",
  "contractName": "Genesis",
  "sourceName": "src/contracts/Genesis.sol",
  "abi": [
    {
      "inputs": [
        {
          "internalType": "uint256",
          "name": "_projectTax",
          "type": "uint256"
        }
      ],
      "stateMutability": "nonpayable",
      "type": "constructor"
    },
    {
      "anonymous": false,
      "inputs": [
        {
          "indexed": false,
          "internalType": "uint256",
          "name": "id",
          "type": "uint256"
        },
        {
          "indexed": false,
          "internalType": "string",
          "name": "actionType",
          "type": "string"
        },
        {
          "indexed": true,
          "internalType": "address",
          "name": "executor",
          "type": "address"
        },
        {
          "indexed": false,
          "internalType": "uint256",
          "name": "timestamp",
          "type": "uint256"
        }
      ],
      "name": "Action",
      "type": "event"
    },
    {
      "inputs": [
        {
          "internalType": "address",
          "name": "",
          "type": "address"
        }
      ],
      "name": "CreatorExist",
      "outputs": [
        {
          "internalType": "bool",
          "name": "",
          "type": "bool"
        }
      ],
      "stateMutability": "view",
      "type": "function"
    },
    {
      "inputs": [
        {
          "internalType": "address",
          "name": "_newCreator",
          "type": "address"
        }
      ],
      "name": "addCreator",
      "outputs": [],
      "stateMutability": "nonpayable",
      "type": "function"
    },
    {
      "inputs": [
        {
          "internalType": "uint256",
          "name": "id",
          "type": "uint256"
        }
      ],
      "name": "backProject",
      "outputs": [
        {
          "internalType": "bool",
          "name": "",
          "type": "bool"
        }
      ],
      "stateMutability": "payable",
      "type": "function"
    },
    {
      "inputs": [],
      "name": "balance",
      "outputs": [
        {
          "internalType": "uint256",
          "name": "",
          "type": "uint256"
        }
      ],
      "stateMutability": "view",
      "type": "function"
    },
    {
      "inputs": [
        {
          "internalType": "uint256",
          "name": "_taxPct",
          "type": "uint256"
        }
      ],
      "name": "changeTax",
      "outputs": [],
      "stateMutability": "nonpayable",
      "type": "function"
    },
    {
      "inputs": [
        {
          "internalType": "string",
          "name": "title",
          "type": "string"
        },
        {
          "internalType": "string",
          "name": "description",
          "type": "string"
        },
        {
          "internalType": "string",
          "name": "imageURL",
          "type": "string"
        },
        {
          "internalType": "uint256",
          "name": "cost",
          "type": "uint256"
        },
        {
          "internalType": "uint256",
          "name": "expiresAt",
          "type": "uint256"
        }
      ],
      "name": "createProject",
      "outputs": [
        {
          "internalType": "bool",
          "name": "",
          "type": "bool"
        }
      ],
      "stateMutability": "nonpayable",
      "type": "function"
    },
    {
      "inputs": [
        {
          "internalType": "uint256",
          "name": "id",
          "type": "uint256"
        }
      ],
      "name": "deleteProject",
      "outputs": [
        {
          "internalType": "bool",
          "name": "",
          "type": "bool"
        }
      ],
      "stateMutability": "nonpayable",
      "type": "function"
    },
    {
      "inputs": [
        {
          "internalType": "uint256",
          "name": "id",
          "type": "uint256"
        }
      ],
      "name": "getBackers",
      "outputs": [
        {
          "components": [
            {
              "internalType": "address",
              "name": "owner",
              "type": "address"
            },
            {
              "internalType": "uint256",
              "name": "contributions",
              "type": "uint256"
            },
            {
              "internalType": "uint256",
              "name": "timestamp",
              "type": "uint256"
            },
            {
              "internalType": "bool",
              "name": "refunded",
              "type": "bool"
            }
          ],
          "internalType": "struct Genesis.backerStruct[]",
          "name": "",
          "type": "tuple[]"
        }
      ],
      "stateMutability": "view",
      "type": "function"
    },
    {
      "inputs": [
        {
          "internalType": "uint256",
          "name": "id",
          "type": "uint256"
        }
      ],
      "name": "getProject",
      "outputs": [
        {
          "components": [
            {
              "internalType": "uint256",
              "name": "id",
              "type": "uint256"
            },
            {
              "internalType": "address",
              "name": "project",
              "type": "address"
            },
            {
              "internalType": "address",
              "name": "owner",
              "type": "address"
            },
            {
              "internalType": "string",
              "name": "title",
              "type": "string"
            },
            {
              "internalType": "string",
              "name": "description",
              "type": "string"
            },
            {
              "internalType": "string",
              "name": "imageURL",
              "type": "string"
            },
            {
              "internalType": "uint256",
              "name": "cost",
              "type": "uint256"
            },
            {
              "internalType": "uint256",
              "name": "raised",
              "type": "uint256"
            },
            {
              "internalType": "uint256",
              "name": "timestamp",
              "type": "uint256"
            },
            {
              "internalType": "uint256",
              "name": "expiresAt",
              "type": "uint256"
            },
            {
              "internalType": "uint256",
              "name": "backers",
              "type": "uint256"
            },
            {
              "internalType": "enum Genesis.statusEnum",
              "name": "status",
              "type": "uint8"
            }
          ],
          "internalType": "struct Genesis.projectStruct",
          "name": "",
          "type": "tuple"
        }
      ],
      "stateMutability": "view",
      "type": "function"
    },
    {
      "inputs": [],
      "name": "getProjects",
      "outputs": [
        {
          "components": [
            {
              "internalType": "uint256",
              "name": "id",
              "type": "uint256"
            },
            {
              "internalType": "address",
              "name": "project",
              "type": "address"
            },
            {
              "internalType": "address",
              "name": "owner",
              "type": "address"
            },
            {
              "internalType": "string",
              "name": "title",
              "type": "string"
            },
            {
              "internalType": "string",
              "name": "description",
              "type": "string"
            },
            {
              "internalType": "string",
              "name": "imageURL",
              "type": "string"
            },
            {
              "internalType": "uint256",
              "name": "cost",
              "type": "uint256"
            },
            {
              "internalType": "uint256",
              "name": "raised",
              "type": "uint256"
            },
            {
              "internalType": "uint256",
              "name": "timestamp",
              "type": "uint256"
            },
            {
              "internalType": "uint256",
              "name": "expiresAt",
              "type": "uint256"
            },
            {
              "internalType": "uint256",
              "name": "backers",
              "type": "uint256"
            },
            {
              "internalType": "enum Genesis.statusEnum",
              "name": "status",
              "type": "uint8"
            }
          ],
          "internalType": "struct Genesis.projectStruct[]",
          "name": "",
          "type": "tuple[]"
        }
      ],
      "stateMutability": "view",
      "type": "function"
    },
    {
      "inputs": [
        {
          "internalType": "address",
          "name": "addr",
          "type": "address"
        }
      ],
      "name": "isAppOwner",
      "outputs": [
        {
          "internalType": "bool",
          "name": "",
          "type": "bool"
        }
      ],
      "stateMutability": "view",
      "type": "function"
    },
    {
      "inputs": [],
      "name": "isAppOwner",
      "outputs": [
        {
          "internalType": "bool",
          "name": "",
          "type": "bool"
        }
      ],
      "stateMutability": "view",
      "type": "function"
    },
    {
      "inputs": [
        {
          "internalType": "address",
          "name": "addr",
          "type": "address"
        }
      ],
      "name": "isCreator",
      "outputs": [
        {
          "internalType": "bool",
          "name": "",
          "type": "bool"
        }
      ],
      "stateMutability": "view",
      "type": "function"
    },
    {
      "inputs": [],
      "name": "owner",
      "outputs": [
        {
          "internalType": "address",
          "name": "",
          "type": "address"
        }
      ],
      "stateMutability": "view",
      "type": "function"
    },
    {
      "inputs": [
        {
          "internalType": "uint256",
          "name": "id",
          "type": "uint256"
        }
      ],
      "name": "payOutProject",
      "outputs": [
        {
          "internalType": "bool",
          "name": "",
          "type": "bool"
        }
      ],
      "stateMutability": "nonpayable",
      "type": "function"
    },
    {
      "inputs": [],
      "name": "projectCount",
      "outputs": [
        {
          "internalType": "uint256",
          "name": "",
          "type": "uint256"
        }
      ],
      "stateMutability": "view",
      "type": "function"
    },
    {
      "inputs": [
        {
          "internalType": "uint256",
          "name": "",
          "type": "uint256"
        }
      ],
      "name": "projectExist",
      "outputs": [
        {
          "internalType": "bool",
          "name": "",
          "type": "bool"
        }
      ],
      "stateMutability": "view",
      "type": "function"
    },
    {
      "inputs": [],
      "name": "projectTax",
      "outputs": [
        {
          "internalType": "uint256",
          "name": "",
          "type": "uint256"
        }
      ],
      "stateMutability": "view",
      "type": "function"
    },
    {
      "inputs": [
        {
          "internalType": "uint256",
          "name": "id",
          "type": "uint256"
        }
      ],
      "name": "requestRefund",
      "outputs": [
        {
          "internalType": "bool",
          "name": "",
          "type": "bool"
        }
      ],
      "stateMutability": "nonpayable",
      "type": "function"
    },
    {
      "inputs": [],
      "name": "stats",
      "outputs": [
        {
          "internalType": "uint256",
          "name": "totalProject",
          "type": "uint256"
        },
        {
          "internalType": "uint256",
          "name": "totalBacking",
          "type": "uint256"
        },
        {
          "internalType": "uint256",
          "name": "totalDonations",
          "type": "uint256"
        }
      ],
      "stateMutability": "view",
      "type": "function"
    },
    {
      "inputs": [
        {
          "internalType": "uint256",
          "name": "id",
          "type": "uint256"
        },
        {
          "internalType": "string",
          "name": "title",
          "type": "string"
        },
        {
          "internalType": "string",
          "name": "description",
          "type": "string"
        },
        {
          "internalType": "string",
          "name": "imageURL",
          "type": "string"
        },
        {
          "internalType": "uint256",
          "name": "expiresAt",
          "type": "uint256"
        }
      ],
      "name": "updateProject",
      "outputs": [
        {
          "internalType": "bool",
          "name": "",
          "type": "bool"
        }
      ],
      "stateMutability": "nonpayable",
      "type": "function"
    }
  ],
  "bytecode": "0x608060405234801561001057600080fd5b50604051620025d2380380620025d28339810160408190526100319161004b565b600080546001600160a01b03191633179055600155610064565b60006020828403121561005d57600080fd5b5051919050565b61255e80620000746000396000f3fe60806040526004361061012a5760003560e01c8063a4b2409e116100ab578063d24cd3ec1161006f578063d24cd3ec14610357578063d80528ae1461036d578063dcc60128146103a7578063efd46065146103c9578063f0f3f2c814610402578063f7767c931461042f57600080fd5b8063a4b2409e146102b4578063b531dcba146102d4578063b69ef8a8146102f4578063c9168b721461030a578063ca766f641461033757600080fd5b80634cd0cb28116100f25780634cd0cb28146101f95780638593054b146102195780638da5cb5b146102495780639a3fa8c7146102815780639f39a194146102a157600080fd5b8063056c29ee1461012f5780631453d4821461016457806336fbad26146101935780633b9dce05146101b75780633e45c8af146101d9575b600080fd5b34801561013b57600080fd5b5061014f61014a366004611fc7565b61045f565b60405190151581526020015b60405180910390f35b34801561017057600080fd5b5061014f61017f366004612061565b6000546001600160a01b0391821691161490565b34801561019f57600080fd5b506101a960025481565b60405190815260200161015b565b3480156101c357600080fd5b506101d76101d2366004612061565b610945565b005b3480156101e557600080fd5b506101d76101f4366004612091565b610a11565b34801561020557600080fd5b5061014f610214366004612091565b610a66565b34801561022557600080fd5b5061014f610234366004612091565b600a6020526000908152604090205460ff1681565b34801561025557600080fd5b50600054610269906001600160a01b031681565b6040516001600160a01b03909116815260200161015b565b34801561028d57600080fd5b5061014f61029c3660046120aa565b610bb9565b61014f6102af366004612091565b610e8b565b3480156102c057600080fd5b5061014f6102cf366004612091565b61126f565b3480156102e057600080fd5b5061014f6102ef366004612091565b611366565b34801561030057600080fd5b506101a960035481565b34801561031657600080fd5b5061032a610325366004612091565b61145e565b60405161015b9190612144565b34801561034357600080fd5b506000546001600160a01b0316331461014f565b34801561036357600080fd5b506101a960015481565b34801561037957600080fd5b5060045460055460065461038c92919083565b6040805193845260208401929092529082015260600161015b565b3480156103b357600080fd5b506103bc611525565b60405161015b919061231a565b3480156103d557600080fd5b5061014f6103e4366004612061565b6001600160a01b03166000908152600b602052604090205460ff1690565b34801561040e57600080fd5b5061042261041d366004612091565b6117d0565b60405161015b919061237c565b34801561043b57600080fd5b5061014f61044a366004612061565b600b6020526000908152604090205460ff1681565b336000908152600b602052604081205460ff166104975760405162461bcd60e51b815260040161048e9061238f565b60405180910390fd5b60008651116104e05760405162461bcd60e51b81526020600482015260156024820152745469746c652063616e6e6f7420626520656d70747960581b604482015260640161048e565b60008551116105315760405162461bcd60e51b815260206004820152601b60248201527f4465736372697074696f6e2063616e6e6f7420626520656d7074790000000000604482015260640161048e565b600084511161057d5760405162461bcd60e51b8152602060048201526018602482015277496d61676555524c2063616e6e6f7420626520656d70747960401b604482015260640161048e565b600083116105c35760405162461bcd60e51b8152602060048201526013602482015272436f73742063616e6e6f74206265207a65726f60681b604482015260640161048e565b6105cb611e08565b60025481523360408201908152606082018881526080830188905260a0830187905260c083018690524261010084015261012083018590526007805460018101825560009190915283517fa66cc928b5edb82af9bd49922954155ab7b0942694bea4ce44661d9a8736c688600c9092029182019081556020808601517fa66cc928b5edb82af9bd49922954155ab7b0942694bea4ce44661d9a8736c689840180546001600160a01b03199081166001600160a01b039384161790915595517fa66cc928b5edb82af9bd49922954155ab7b0942694bea4ce44661d9a8736c68a850180549097169116179094559151805185946106eb937fa66cc928b5edb82af9bd49922954155ab7b0942694bea4ce44661d9a8736c68b01920190611e8b565b5060808201518051610707916004840191602090910190611e8b565b5060a08201518051610723916005840191602090910190611e8b565b5060c0820151600682015560e0820151600782015561010082015160088201556101208201516009820155610140820151600a820155610160820151600b8201805460ff1916600183600481111561077d5761077d612200565b021790555050600280546000908152600a602090815260408083208054600160ff1990911681179091553384526008835281842080548083018255908552938390208751600c909502019384558683015190840180546001600160a01b03199081166001600160a01b039384161790915591870151948401805490921694169390931790925560608401518051859450919261082192600385019290910190611e8b565b506080820151805161083d916004840191602090910190611e8b565b5060a08201518051610859916005840191602090910190611e8b565b5060c0820151600682015560e0820151600782015561010082015160088201556101208201516009820155610140820151600a820155610160820151600b8201805460ff191660018360048111156108b3576108b3612200565b021790555050506001600460000160008282546108d091906123d4565b9091555050600280543391600080516020612509833981519152919060006108f7836123ec565b9091555060408051918252606060208301819052600e908301526d50524f4a4543542043524541544560901b6080830152429082015260a00160405180910390a25060019695505050505050565b6000546001600160a01b031633146109955760405162461bcd60e51b81526020600482015260136024820152724f776e6572207265736572766564206f6e6c7960681b604482015260640161048e565b6001600160a01b0381166000908152600b6020526040808220805460ff1916600117905551339160008051602061250983398151915291610a0691904290918252606060208301819052600d908301526c10d491505513d4881051111151609a1b6080830152604082015260a00190565b60405180910390a250565b6000546001600160a01b03163314610a615760405162461bcd60e51b81526020600482015260136024820152724f776e6572207265736572766564206f6e6c7960681b604482015260640161048e565b600155565b336000908152600b602052604081205460ff16610a955760405162461bcd60e51b815260040161048e9061238f565b6000828152600a602052604090205460ff16610ac35760405162461bcd60e51b815260040161048e90612407565b60078281548110610ad657610ad6612432565b60009182526020909120600c90910201600201546001600160a01b03163314610b115760405162461bcd60e51b815260040161048e90612448565b600360078381548110610b2657610b26612432565b60009182526020909120600b600c9092020101805460ff19166001836004811115610b5357610b53612200565b0217905550610b6182611a86565b60408051838152606060208201819052600f908201526e141493d29150d50811115311551151608a1b6080820152428183015290513391600080516020612509833981519152919081900360a00190a2506001919050565b336000908152600b602052604081205460ff16610be85760405162461bcd60e51b815260040161048e9061238f565b6000868152600a602052604090205460ff16610c165760405162461bcd60e51b815260040161048e90612407565b60078681548110610c2957610c29612432565b60009182526020909120600c90910201600201546001600160a01b03163314610c645760405162461bcd60e51b815260040161048e90612448565b6000855111610cad5760405162461bcd60e51b81526020600482015260156024820152745469746c652063616e6e6f7420626520656d70747960581b604482015260640161048e565b6000845111610cfe5760405162461bcd60e51b815260206004820152601b60248201527f4465736372697074696f6e2063616e6e6f7420626520656d7074790000000000604482015260640161048e565b6000835111610d4a5760405162461bcd60e51b8152602060048201526018602482015277496d61676555524c2063616e6e6f7420626520656d70747960401b604482015260640161048e565b8460078781548110610d5e57610d5e612432565b90600052602060002090600c02016003019080519060200190610d82929190611e8b565b508360078781548110610d9757610d97612432565b90600052602060002090600c02016004019080519060200190610dbb929190611e8b565b508260078781548110610dd057610dd0612432565b90600052602060002090600c02016005019080519060200190610df4929190611e8b565b508160078781548110610e0957610e09612432565b90600052602060002090600c020160090181905550336001600160a01b03166000805160206125098339815191528742604051610e77929190918252606060208301819052600f908301526e141493d29150d50815541110551151608a1b6080830152604082015260a00190565b60405180910390a250600195945050505050565b6000803411610edc5760405162461bcd60e51b815260206004820152601f60248201527f4574686572206d7573742062652067726561746572207468616e207a65726f00604482015260640161048e565b6000828152600a602052604090205460ff16610f0a5760405162461bcd60e51b815260040161048e90612407565b600060078381548110610f1f57610f1f612432565b60009182526020909120600b600c90920201015460ff166004811115610f4757610f47612200565b14610f8a5760405162461bcd60e51b8152602060048201526013602482015272283937b532b1ba1034b9903737ba1037b832b760691b604482015260640161048e565b600160046001016000828254610fa091906123d4565b909155505060068054349190600090610fba9084906123d4565b925050819055503460078381548110610fd557610fd5612432565b90600052602060002090600c02016007016000828254610ff591906123d4565b9250508190555060016007838154811061101157611011612432565b90600052602060002090600c0201600a01600082825461103191906123d4565b9091555050600082815260096020908152604080832081516080808201845233808352348387019081524284870181815260608087018b8152885460018082018b55998d529b8b902097516004909c0290970180546001600160a01b0319166001600160a01b03909c169b909b178b559251968a01969096559451600289015592516003909701805460ff1916971515979097179096558351888152948501829052600e918501919091526d141493d29150d508109050d2d15160921b90840152908201526000805160206125098339815191529060a00160405180910390a26007828154811061112457611124612432565b90600052602060002090600c0201600601546007838154811061114957611149612432565b90600052602060002090600c020160070154106111f45760016007838154811061117557611175612432565b60009182526020909120600b600c9092020101805460ff191660018360048111156111a2576111a2612200565b0217905550600782815481106111ba576111ba612432565b90600052602060002090600c020160070154600360008282546111dd91906123d4565b909155506111ec905082611c2d565b506001919050565b6007828154811061120757611207612432565b90600052602060002090600c02016009015442106111ec5760026007838154811061123457611234612432565b60009182526020909120600b600c9092020101805460ff1916600183600481111561126157611261612200565b02179055506111ec82611a86565b600060026007838154811061128657611286612432565b60009182526020909120600b600c90920201015460ff1660048111156112ae576112ae612200565b1415806112f657506003600783815481106112cb576112cb612432565b60009182526020909120600b600c90920201015460ff1660048111156112f3576112f3612200565b14155b6113515760405162461bcd60e51b815260206004820152602660248201527f50726f6a65637420686173206d61726b656420617320726576657274206f722060448201526564656c65746560d01b606482015260840161048e565b60026007838154811061123457611234612432565b600060016007838154811061137d5761137d612432565b60009182526020909120600b600c90920201015460ff1660048111156113a5576113a5612200565b146113f25760405162461bcd60e51b815260206004820152601b60248201527f50726f6a656374206973206e6f7420617070726f766564207965740000000000604482015260640161048e565b6007828154811061140557611405612432565b60009182526020909120600c90910201600201546001600160a01b031633148061143957506000546001600160a01b031633145b6114555760405162461bcd60e51b815260040161048e90612448565b6111ec82611c2d565b6000818152600a602052604090205460609060ff1661148f5760405162461bcd60e51b815260040161048e90612407565b600082815260096020908152604080832080548251818502810185019093528083529193909284015b8282101561151a576000848152602090819020604080516080810182526004860290920180546001600160a01b03168352600180820154848601526002820154928401929092526003015460ff161515606083015290835290920191016114b8565b505050509050919050565b60606007805480602002602001604051908101604052809291908181526020016000905b828210156117c75760008481526020908190206040805161018081018252600c86029092018054835260018101546001600160a01b03908116948401949094526002810154909316908201526003820180549192916060840191906115ad90612475565b80601f01602080910402602001604051908101604052809291908181526020018280546115d990612475565b80156116265780601f106115fb57610100808354040283529160200191611626565b820191906000526020600020905b81548152906001019060200180831161160957829003601f168201915b5050505050815260200160048201805461163f90612475565b80601f016020809104026020016040519081016040528092919081815260200182805461166b90612475565b80156116b85780601f1061168d576101008083540402835291602001916116b8565b820191906000526020600020905b81548152906001019060200180831161169b57829003601f168201915b505050505081526020016005820180546116d190612475565b80601f01602080910402602001604051908101604052809291908181526020018280546116fd90612475565b801561174a5780601f1061171f5761010080835404028352916020019161174a565b820191906000526020600020905b81548152906001019060200180831161172d57829003601f168201915b505050918352505060068201546020820152600782015460408201526008820154606082015260098201546080820152600a82015460a0820152600b82015460c09091019060ff1660048111156117a3576117a3612200565b60048111156117b4576117b4612200565b8152505081526020019060010190611549565b50505050905090565b6117d8611e08565b6000828152600a602052604090205460ff166118065760405162461bcd60e51b815260040161048e90612407565b6007828154811061181957611819612432565b60009182526020918290206040805161018081018252600c9093029091018054835260018101546001600160a01b039081169484019490945260028101549093169082015260038201805491929160608401919061187690612475565b80601f01602080910402602001604051908101604052809291908181526020018280546118a290612475565b80156118ef5780601f106118c4576101008083540402835291602001916118ef565b820191906000526020600020905b8154815290600101906020018083116118d257829003601f168201915b5050505050815260200160048201805461190890612475565b80601f016020809104026020016040519081016040528092919081815260200182805461193490612475565b80156119815780601f1061195657610100808354040283529160200191611981565b820191906000526020600020905b81548152906001019060200180831161196457829003601f168201915b5050505050815260200160058201805461199a90612475565b80601f01602080910402602001604051908101604052809291908181526020018280546119c690612475565b8015611a135780601f106119e857610100808354040283529160200191611a13565b820191906000526020600020905b8154815290600101906020018083116119f657829003601f168201915b505050918352505060068201546020820152600782015460408201526008820154606082015260098201546080820152600a82015460a0820152600b82015460c09091019060ff166004811115611a6c57611a6c612200565b6004811115611a7d57611a7d612200565b90525092915050565b60005b600082815260096020526040902054811015611c29576000828152600960205260408120805483908110611abf57611abf612432565b6000918252602080832060049092029091015485835260099091526040822080546001600160a01b0390921693509084908110611afe57611afe612432565b90600052602060002090600402016001015490506001600960008681526020019081526020016000208481548110611b3857611b38612432565b906000526020600020906004020160030160006101000a81548160ff02191690831515021790555042600960008681526020019081526020016000208481548110611b8557611b85612432565b906000526020600020906004020160020181905550611ba48282611da3565b8060078581548110611bb857611bb8612432565b90600052602060002090600c02016007016000828254611bd891906124b0565b90915550506005805460019190600090611bf39084906124b0565b909155505060068054829190600090611c0d9084906124b0565b9250508190555050508080611c21906123ec565b915050611a89565b5050565b600060078281548110611c4257611c42612432565b90600052602060002090600c02016007015490506000606460015483611c6891906124c7565b611c7291906124e6565b9050600460078481548110611c8957611c89612432565b60009182526020909120600b600c9092020101805460ff19166001836004811115611cb657611cb6612200565b0217905550600054611cd1906001600160a01b031682611da3565b611d1360078481548110611ce757611ce7612432565b600091825260209091206002600c9092020101546001600160a01b0316611d0e83856124b0565b611da3565b60078381548110611d2657611d26612432565b90600052602060002090600c02016007015460036000828254611d4991906124b0565b909155505060408051848152606060208201819052600f908201526e141493d29150d5081410525113d555608a1b6080820152428183015290513391600080516020612509833981519152919081900360a00190a2505050565b6000826001600160a01b03168260405160006040518083038185875af1925050503d8060008114611df0576040519150601f19603f3d011682016040523d82523d6000602084013e611df5565b606091505b5050905080611e0357600080fd5b505050565b6040518061018001604052806000815260200160006001600160a01b0316815260200160006001600160a01b03168152602001606081526020016060815260200160608152602001600081526020016000815260200160008152602001600081526020016000815260200160006004811115611e8657611e86612200565b905290565b828054611e9790612475565b90600052602060002090601f016020900481019282611eb95760008555611eff565b82601f10611ed257805160ff1916838001178555611eff565b82800160010185558215611eff579182015b82811115611eff578251825591602001919060010190611ee4565b50611f0b929150611f0f565b5090565b5b80821115611f0b5760008155600101611f10565b634e487b7160e01b600052604160045260246000fd5b600082601f830112611f4b57600080fd5b813567ffffffffffffffff80821115611f6657611f66611f24565b604051601f8301601f19908116603f01168101908282118183101715611f8e57611f8e611f24565b81604052838152866020858801011115611fa757600080fd5b836020870160208301376000602085830101528094505050505092915050565b600080600080600060a08688031215611fdf57600080fd5b853567ffffffffffffffff80821115611ff757600080fd5b61200389838a01611f3a565b9650602088013591508082111561201957600080fd5b61202589838a01611f3a565b9550604088013591508082111561203b57600080fd5b5061204888828901611f3a565b9598949750949560608101359550608001359392505050565b60006020828403121561207357600080fd5b81356001600160a01b038116811461208a57600080fd5b9392505050565b6000602082840312156120a357600080fd5b5035919050565b600080600080600060a086880312156120c257600080fd5b85359450602086013567ffffffffffffffff808211156120e157600080fd5b6120ed89838a01611f3a565b9550604088013591508082111561210357600080fd5b61210f89838a01611f3a565b9450606088013591508082111561212557600080fd5b5061213288828901611f3a565b95989497509295608001359392505050565b602080825282518282018190526000919060409081850190868401855b828110156121a657815180516001600160a01b031685528681015187860152858101518686015260609081015115159085015260809093019290850190600101612161565b5091979650505050505050565b6000815180845260005b818110156121d9576020818501810151868301820152016121bd565b818111156121eb576000602083870101525b50601f01601f19169290920160200192915050565b634e487b7160e01b600052602160045260246000fd5b6005811061223457634e487b7160e01b600052602160045260246000fd5b9052565b600061018082518452602083015161225b60208601826001600160a01b03169052565b50604083015161227660408601826001600160a01b03169052565b50606083015181606086015261228e828601826121b3565b915050608083015184820360808601526122a882826121b3565b91505060a083015184820360a08601526122c282826121b3565b91505060c083015160c085015260e083015160e08501526101008084015181860152506101208084015181860152506101408084015181860152506101608084015161231082870182612216565b5090949350505050565b6000602080830181845280855180835260408601915060408160051b870101925083870160005b8281101561236f57603f1988860301845261235d858351612238565b94509285019290850190600101612341565b5092979650505050505050565b60208152600061208a6020830184612238565b60208082526015908201527443726561746f72207265736572766564206f6e6c7960581b604082015260600190565b634e487b7160e01b600052601160045260246000fd5b600082198211156123e7576123e76123be565b500190565b6000600019821415612400576124006123be565b5060010190565b602080825260119082015270141c9bda9958dd081b9bdd08199bdd5b99607a1b604082015260600190565b634e487b7160e01b600052603260045260246000fd5b602080825260139082015272556e617574686f72697a656420456e7469747960681b604082015260600190565b600181811c9082168061248957607f821691505b602082108114156124aa57634e487b7160e01b600052602260045260246000fd5b50919050565b6000828210156124c2576124c26123be565b500390565b60008160001904831182151516156124e1576124e16123be565b500290565b60008261250357634e487b7160e01b600052601260045260246000fd5b50049056feaee8e5d3bbb2f71a951b5632cee20f7ac487b9f8ab4f66a236f7694b13af7c6aa264697066735822122076992e6326747b5f2a87faefa45f9012f2eab74ea54935a6d08653198fe80abb64736f6c634300080b0033",
  "linkReferences": {},
  "deployedLinkReferences": {}
}