{
  "_format": "hh-sol-artifact-1",
  "contractName": "Genesis",
  "sourceName": "src/contracts/Genesis.sol",
  "abi": [
    {
      "inputs": [
        {
          "internalType": "uint256",
          "name": "_projectTax",
          "type": "uint256"
        }
      ],
      "stateMutability": "nonpayable",
      "type": "constructor"
    },
    {
      "anonymous": false,
      "inputs": [
        {
          "indexed": false,
          "internalType": "uint256",
          "name": "id",
          "type": "uint256"
        },
        {
          "indexed": false,
          "internalType": "string",
          "name": "actionType",
          "type": "string"
        },
        {
          "indexed": true,
          "internalType": "address",
          "name": "executor",
          "type": "address"
        },
        {
          "indexed": false,
          "internalType": "uint256",
          "name": "timestamp",
          "type": "uint256"
        }
      ],
      "name": "Action",
      "type": "event"
    },
    {
      "inputs": [
        {
          "internalType": "uint256",
          "name": "id",
          "type": "uint256"
        }
      ],
      "name": "backProject",
      "outputs": [
        {
          "internalType": "bool",
          "name": "",
          "type": "bool"
        }
      ],
      "stateMutability": "payable",
      "type": "function"
    },
    {
      "inputs": [],
      "name": "balance",
      "outputs": [
        {
          "internalType": "uint256",
          "name": "",
          "type": "uint256"
        }
      ],
      "stateMutability": "view",
      "type": "function"
    },
    {
      "inputs": [
        {
          "internalType": "uint256",
          "name": "_taxPct",
          "type": "uint256"
        }
      ],
      "name": "changeTax",
      "outputs": [],
      "stateMutability": "nonpayable",
      "type": "function"
    },
    {
      "inputs": [
        {
          "internalType": "string",
          "name": "title",
          "type": "string"
        },
        {
          "internalType": "string",
          "name": "description",
          "type": "string"
        },
        {
          "internalType": "string",
          "name": "imageURL",
          "type": "string"
        },
        {
          "internalType": "uint256",
          "name": "cost",
          "type": "uint256"
        },
        {
          "internalType": "uint256",
          "name": "expiresAt",
          "type": "uint256"
        }
      ],
      "name": "createProject",
      "outputs": [
        {
          "internalType": "bool",
          "name": "",
          "type": "bool"
        }
      ],
      "stateMutability": "nonpayable",
      "type": "function"
    },
    {
      "inputs": [
        {
          "internalType": "uint256",
          "name": "id",
          "type": "uint256"
        }
      ],
      "name": "deleteProject",
      "outputs": [
        {
          "internalType": "bool",
          "name": "",
          "type": "bool"
        }
      ],
      "stateMutability": "nonpayable",
      "type": "function"
    },
    {
      "inputs": [
        {
          "internalType": "uint256",
          "name": "id",
          "type": "uint256"
        }
      ],
      "name": "getBackers",
      "outputs": [
        {
          "components": [
            {
              "internalType": "address",
              "name": "owner",
              "type": "address"
            },
            {
              "internalType": "uint256",
              "name": "contributions",
              "type": "uint256"
            },
            {
              "internalType": "uint256",
              "name": "timestamp",
              "type": "uint256"
            },
            {
              "internalType": "bool",
              "name": "refunded",
              "type": "bool"
            }
          ],
          "internalType": "struct Genesis.backerStruct[]",
          "name": "",
          "type": "tuple[]"
        }
      ],
      "stateMutability": "view",
      "type": "function"
    },
    {
      "inputs": [
        {
          "internalType": "uint256",
          "name": "id",
          "type": "uint256"
        }
      ],
      "name": "getProject",
      "outputs": [
        {
          "components": [
            {
              "internalType": "uint256",
              "name": "id",
              "type": "uint256"
            },
            {
              "internalType": "address",
              "name": "project",
              "type": "address"
            },
            {
              "internalType": "address",
              "name": "owner",
              "type": "address"
            },
            {
              "internalType": "string",
              "name": "title",
              "type": "string"
            },
            {
              "internalType": "string",
              "name": "description",
              "type": "string"
            },
            {
              "internalType": "string",
              "name": "imageURL",
              "type": "string"
            },
            {
              "internalType": "uint256",
              "name": "cost",
              "type": "uint256"
            },
            {
              "internalType": "uint256",
              "name": "raised",
              "type": "uint256"
            },
            {
              "internalType": "uint256",
              "name": "timestamp",
              "type": "uint256"
            },
            {
              "internalType": "uint256",
              "name": "expiresAt",
              "type": "uint256"
            },
            {
              "internalType": "uint256",
              "name": "backers",
              "type": "uint256"
            },
            {
              "internalType": "enum Genesis.statusEnum",
              "name": "status",
              "type": "uint8"
            }
          ],
          "internalType": "struct Genesis.projectStruct",
          "name": "",
          "type": "tuple"
        }
      ],
      "stateMutability": "view",
      "type": "function"
    },
    {
      "inputs": [],
      "name": "getProjects",
      "outputs": [
        {
          "components": [
            {
              "internalType": "uint256",
              "name": "id",
              "type": "uint256"
            },
            {
              "internalType": "address",
              "name": "project",
              "type": "address"
            },
            {
              "internalType": "address",
              "name": "owner",
              "type": "address"
            },
            {
              "internalType": "string",
              "name": "title",
              "type": "string"
            },
            {
              "internalType": "string",
              "name": "description",
              "type": "string"
            },
            {
              "internalType": "string",
              "name": "imageURL",
              "type": "string"
            },
            {
              "internalType": "uint256",
              "name": "cost",
              "type": "uint256"
            },
            {
              "internalType": "uint256",
              "name": "raised",
              "type": "uint256"
            },
            {
              "internalType": "uint256",
              "name": "timestamp",
              "type": "uint256"
            },
            {
              "internalType": "uint256",
              "name": "expiresAt",
              "type": "uint256"
            },
            {
              "internalType": "uint256",
              "name": "backers",
              "type": "uint256"
            },
            {
              "internalType": "enum Genesis.statusEnum",
              "name": "status",
              "type": "uint8"
            }
          ],
          "internalType": "struct Genesis.projectStruct[]",
          "name": "",
          "type": "tuple[]"
        }
      ],
      "stateMutability": "view",
      "type": "function"
    },
    {
      "inputs": [],
      "name": "owner",
      "outputs": [
        {
          "internalType": "address",
          "name": "",
          "type": "address"
        }
      ],
      "stateMutability": "view",
      "type": "function"
    },
    {
      "inputs": [
        {
          "internalType": "uint256",
          "name": "id",
          "type": "uint256"
        }
      ],
      "name": "payOutProject",
      "outputs": [
        {
          "internalType": "bool",
          "name": "",
          "type": "bool"
        }
      ],
      "stateMutability": "nonpayable",
      "type": "function"
    },
    {
      "inputs": [],
      "name": "projectCount",
      "outputs": [
        {
          "internalType": "uint256",
          "name": "",
          "type": "uint256"
        }
      ],
      "stateMutability": "view",
      "type": "function"
    },
    {
      "inputs": [
        {
          "internalType": "uint256",
          "name": "",
          "type": "uint256"
        }
      ],
      "name": "projectExist",
      "outputs": [
        {
          "internalType": "bool",
          "name": "",
          "type": "bool"
        }
      ],
      "stateMutability": "view",
      "type": "function"
    },
    {
      "inputs": [],
      "name": "projectTax",
      "outputs": [
        {
          "internalType": "uint256",
          "name": "",
          "type": "uint256"
        }
      ],
      "stateMutability": "view",
      "type": "function"
    },
    {
      "inputs": [
        {
          "internalType": "uint256",
          "name": "id",
          "type": "uint256"
        }
      ],
      "name": "requestRefund",
      "outputs": [
        {
          "internalType": "bool",
          "name": "",
          "type": "bool"
        }
      ],
      "stateMutability": "nonpayable",
      "type": "function"
    },
    {
      "inputs": [],
      "name": "stats",
      "outputs": [
        {
          "internalType": "uint256",
          "name": "totalProject",
          "type": "uint256"
        },
        {
          "internalType": "uint256",
          "name": "totalBacking",
          "type": "uint256"
        },
        {
          "internalType": "uint256",
          "name": "totalDonations",
          "type": "uint256"
        }
      ],
      "stateMutability": "view",
      "type": "function"
    },
    {
      "inputs": [
        {
          "internalType": "uint256",
          "name": "id",
          "type": "uint256"
        },
        {
          "internalType": "string",
          "name": "title",
          "type": "string"
        },
        {
          "internalType": "string",
          "name": "description",
          "type": "string"
        },
        {
          "internalType": "string",
          "name": "imageURL",
          "type": "string"
        },
        {
          "internalType": "uint256",
          "name": "expiresAt",
          "type": "uint256"
        }
      ],
      "name": "updateProject",
      "outputs": [
        {
          "internalType": "bool",
          "name": "",
          "type": "bool"
        }
      ],
      "stateMutability": "nonpayable",
      "type": "function"
    }
  ],
  "bytecode": "0x608060405234801561001057600080fd5b5060405161230c38038061230c83398101604081905261002f91610049565b600080546001600160a01b03191633179055600155610062565b60006020828403121561005b57600080fd5b5051919050565b61229b806100716000396000f3fe6080604052600436106100f35760003560e01c8063a4b2409e1161008a578063d24cd3ec11610059578063d24cd3ec146102b1578063d80528ae146102c7578063dcc6012814610301578063f0f3f2c81461032357600080fd5b8063a4b2409e1461022e578063b531dcba1461024e578063b69ef8a81461026e578063c9168b721461028457600080fd5b80638593054b116100c65780638593054b146101935780638da5cb5b146101c35780639a3fa8c7146101fb5780639f39a1941461021b57600080fd5b8063056c29ee146100f857806336fbad261461012d5780633e45c8af146101515780634cd0cb2814610173575b600080fd5b34801561010457600080fd5b50610118610113366004611d5c565b610350565b60405190151581526020015b60405180910390f35b34801561013957600080fd5b5061014360025481565b604051908152602001610124565b34801561015d57600080fd5b5061017161016c366004611df6565b610804565b005b34801561017f57600080fd5b5061011861018e366004611df6565b610859565b34801561019f57600080fd5b506101186101ae366004611df6565b600a6020526000908152604090205460ff1681565b3480156101cf57600080fd5b506000546101e3906001600160a01b031681565b6040516001600160a01b039091168152602001610124565b34801561020757600080fd5b50610118610216366004611e0f565b61097d565b610118610229366004611df6565b610c20565b34801561023a57600080fd5b50610118610249366004611df6565b611004565b34801561025a57600080fd5b50610118610269366004611df6565b6110fb565b34801561027a57600080fd5b5061014360035481565b34801561029057600080fd5b506102a461029f366004611df6565b6111f3565b6040516101249190611ea9565b3480156102bd57600080fd5b5061014360015481565b3480156102d357600080fd5b506004546005546006546102e692919083565b60408051938452602084019290925290820152606001610124565b34801561030d57600080fd5b506103166112ba565b604051610124919061207f565b34801561032f57600080fd5b5061034361033e366004611df6565b611565565b60405161012491906120e1565b60008086511161039f5760405162461bcd60e51b81526020600482015260156024820152745469746c652063616e6e6f7420626520656d70747960581b60448201526064015b60405180910390fd5b60008551116103f05760405162461bcd60e51b815260206004820152601b60248201527f4465736372697074696f6e2063616e6e6f7420626520656d70747900000000006044820152606401610396565b600084511161043c5760405162461bcd60e51b8152602060048201526018602482015277496d61676555524c2063616e6e6f7420626520656d70747960401b6044820152606401610396565b600083116104825760405162461bcd60e51b8152602060048201526013602482015272436f73742063616e6e6f74206265207a65726f60681b6044820152606401610396565b61048a611b9d565b60025481523360408201908152606082018881526080830188905260a0830187905260c083018690524261010084015261012083018590526007805460018101825560009190915283517fa66cc928b5edb82af9bd49922954155ab7b0942694bea4ce44661d9a8736c688600c9092029182019081556020808601517fa66cc928b5edb82af9bd49922954155ab7b0942694bea4ce44661d9a8736c689840180546001600160a01b03199081166001600160a01b039384161790915595517fa66cc928b5edb82af9bd49922954155ab7b0942694bea4ce44661d9a8736c68a850180549097169116179094559151805185946105aa937fa66cc928b5edb82af9bd49922954155ab7b0942694bea4ce44661d9a8736c68b01920190611c20565b50608082015180516105c6916004840191602090910190611c20565b5060a082015180516105e2916005840191602090910190611c20565b5060c0820151600682015560e0820151600782015561010082015160088201556101208201516009820155610140820151600a820155610160820151600b8201805460ff1916600183600481111561063c5761063c611f65565b021790555050600280546000908152600a602090815260408083208054600160ff1990911681179091553384526008835281842080548083018255908552938390208751600c909502019384558683015190840180546001600160a01b03199081166001600160a01b03938416179091559187015194840180549092169416939093179092556060840151805185945091926106e092600385019290910190611c20565b50608082015180516106fc916004840191602090910190611c20565b5060a08201518051610718916005840191602090910190611c20565b5060c0820151600682015560e0820151600782015561010082015160088201556101208201516009820155610140820151600a820155610160820151600b8201805460ff1916600183600481111561077257610772611f65565b0217905550505060016004600001600082825461078f9190612111565b9091555050600280543391600080516020612246833981519152919060006107b683612129565b9091555060408051918252606060208301819052600e908301526d50524f4a4543542043524541544560901b6080830152429082015260a00160405180910390a25060019695505050505050565b6000546001600160a01b031633146108545760405162461bcd60e51b81526020600482015260136024820152724f776e6572207265736572766564206f6e6c7960681b6044820152606401610396565b600155565b6000818152600a602052604081205460ff166108875760405162461bcd60e51b815260040161039690612144565b6007828154811061089a5761089a61216f565b60009182526020909120600c90910201600201546001600160a01b031633146108d55760405162461bcd60e51b815260040161039690612185565b6003600783815481106108ea576108ea61216f565b60009182526020909120600b600c9092020101805460ff1916600183600481111561091757610917611f65565b02179055506109258261181b565b60408051838152606060208201819052600f908201526e141493d29150d50811115311551151608a1b6080820152428183015290513391600080516020612246833981519152919081900360a00190a2506001919050565b6000858152600a602052604081205460ff166109ab5760405162461bcd60e51b815260040161039690612144565b600786815481106109be576109be61216f565b60009182526020909120600c90910201600201546001600160a01b031633146109f95760405162461bcd60e51b815260040161039690612185565b6000855111610a425760405162461bcd60e51b81526020600482015260156024820152745469746c652063616e6e6f7420626520656d70747960581b6044820152606401610396565b6000845111610a935760405162461bcd60e51b815260206004820152601b60248201527f4465736372697074696f6e2063616e6e6f7420626520656d70747900000000006044820152606401610396565b6000835111610adf5760405162461bcd60e51b8152602060048201526018602482015277496d61676555524c2063616e6e6f7420626520656d70747960401b6044820152606401610396565b8460078781548110610af357610af361216f565b90600052602060002090600c02016003019080519060200190610b17929190611c20565b508360078781548110610b2c57610b2c61216f565b90600052602060002090600c02016004019080519060200190610b50929190611c20565b508260078781548110610b6557610b6561216f565b90600052602060002090600c02016005019080519060200190610b89929190611c20565b508160078781548110610b9e57610b9e61216f565b90600052602060002090600c020160090181905550336001600160a01b03166000805160206122468339815191528742604051610c0c929190918252606060208301819052600f908301526e141493d29150d50815541110551151608a1b6080830152604082015260a00190565b60405180910390a250600195945050505050565b6000803411610c715760405162461bcd60e51b815260206004820152601f60248201527f4574686572206d7573742062652067726561746572207468616e207a65726f006044820152606401610396565b6000828152600a602052604090205460ff16610c9f5760405162461bcd60e51b815260040161039690612144565b600060078381548110610cb457610cb461216f565b60009182526020909120600b600c90920201015460ff166004811115610cdc57610cdc611f65565b14610d1f5760405162461bcd60e51b8152602060048201526013602482015272283937b532b1ba1034b9903737ba1037b832b760691b6044820152606401610396565b600160046001016000828254610d359190612111565b909155505060068054349190600090610d4f908490612111565b925050819055503460078381548110610d6a57610d6a61216f565b90600052602060002090600c02016007016000828254610d8a9190612111565b92505081905550600160078381548110610da657610da661216f565b90600052602060002090600c0201600a016000828254610dc69190612111565b9091555050600082815260096020908152604080832081516080808201845233808352348387019081524284870181815260608087018b8152885460018082018b55998d529b8b902097516004909c0290970180546001600160a01b0319166001600160a01b03909c169b909b178b559251968a01969096559451600289015592516003909701805460ff1916971515979097179096558351888152948501829052600e918501919091526d141493d29150d508109050d2d15160921b90840152908201526000805160206122468339815191529060a00160405180910390a260078281548110610eb957610eb961216f565b90600052602060002090600c02016006015460078381548110610ede57610ede61216f565b90600052602060002090600c02016007015410610f8957600160078381548110610f0a57610f0a61216f565b60009182526020909120600b600c9092020101805460ff19166001836004811115610f3757610f37611f65565b021790555060078281548110610f4f57610f4f61216f565b90600052602060002090600c02016007015460036000828254610f729190612111565b90915550610f819050826119c2565b506001919050565b60078281548110610f9c57610f9c61216f565b90600052602060002090600c0201600901544210610f8157600260078381548110610fc957610fc961216f565b60009182526020909120600b600c9092020101805460ff19166001836004811115610ff657610ff6611f65565b0217905550610f818261181b565b600060026007838154811061101b5761101b61216f565b60009182526020909120600b600c90920201015460ff16600481111561104357611043611f65565b14158061108b57506003600783815481106110605761106061216f565b60009182526020909120600b600c90920201015460ff16600481111561108857611088611f65565b14155b6110e65760405162461bcd60e51b815260206004820152602660248201527f50726f6a65637420686173206d61726b656420617320726576657274206f722060448201526564656c65746560d01b6064820152608401610396565b600260078381548110610fc957610fc961216f565b60006001600783815481106111125761111261216f565b60009182526020909120600b600c90920201015460ff16600481111561113a5761113a611f65565b146111875760405162461bcd60e51b815260206004820152601b60248201527f50726f6a656374206973206e6f7420617070726f7665642079657400000000006044820152606401610396565b6007828154811061119a5761119a61216f565b60009182526020909120600c90910201600201546001600160a01b03163314806111ce57506000546001600160a01b031633145b6111ea5760405162461bcd60e51b815260040161039690612185565b610f81826119c2565b6000818152600a602052604090205460609060ff166112245760405162461bcd60e51b815260040161039690612144565b600082815260096020908152604080832080548251818502810185019093528083529193909284015b828210156112af576000848152602090819020604080516080810182526004860290920180546001600160a01b03168352600180820154848601526002820154928401929092526003015460ff1615156060830152908352909201910161124d565b505050509050919050565b60606007805480602002602001604051908101604052809291908181526020016000905b8282101561155c5760008481526020908190206040805161018081018252600c86029092018054835260018101546001600160a01b0390811694840194909452600281015490931690820152600382018054919291606084019190611342906121b2565b80601f016020809104026020016040519081016040528092919081815260200182805461136e906121b2565b80156113bb5780601f10611390576101008083540402835291602001916113bb565b820191906000526020600020905b81548152906001019060200180831161139e57829003601f168201915b505050505081526020016004820180546113d4906121b2565b80601f0160208091040260200160405190810160405280929190818152602001828054611400906121b2565b801561144d5780601f106114225761010080835404028352916020019161144d565b820191906000526020600020905b81548152906001019060200180831161143057829003601f168201915b50505050508152602001600582018054611466906121b2565b80601f0160208091040260200160405190810160405280929190818152602001828054611492906121b2565b80156114df5780601f106114b4576101008083540402835291602001916114df565b820191906000526020600020905b8154815290600101906020018083116114c257829003601f168201915b505050918352505060068201546020820152600782015460408201526008820154606082015260098201546080820152600a82015460a0820152600b82015460c09091019060ff16600481111561153857611538611f65565b600481111561154957611549611f65565b81525050815260200190600101906112de565b50505050905090565b61156d611b9d565b6000828152600a602052604090205460ff1661159b5760405162461bcd60e51b815260040161039690612144565b600782815481106115ae576115ae61216f565b60009182526020918290206040805161018081018252600c9093029091018054835260018101546001600160a01b039081169484019490945260028101549093169082015260038201805491929160608401919061160b906121b2565b80601f0160208091040260200160405190810160405280929190818152602001828054611637906121b2565b80156116845780601f1061165957610100808354040283529160200191611684565b820191906000526020600020905b81548152906001019060200180831161166757829003601f168201915b5050505050815260200160048201805461169d906121b2565b80601f01602080910402602001604051908101604052809291908181526020018280546116c9906121b2565b80156117165780601f106116eb57610100808354040283529160200191611716565b820191906000526020600020905b8154815290600101906020018083116116f957829003601f168201915b5050505050815260200160058201805461172f906121b2565b80601f016020809104026020016040519081016040528092919081815260200182805461175b906121b2565b80156117a85780601f1061177d576101008083540402835291602001916117a8565b820191906000526020600020905b81548152906001019060200180831161178b57829003601f168201915b505050918352505060068201546020820152600782015460408201526008820154606082015260098201546080820152600a82015460a0820152600b82015460c09091019060ff16600481111561180157611801611f65565b600481111561181257611812611f65565b90525092915050565b60005b6000828152600960205260409020548110156119be5760008281526009602052604081208054839081106118545761185461216f565b6000918252602080832060049092029091015485835260099091526040822080546001600160a01b03909216935090849081106118935761189361216f565b906000526020600020906004020160010154905060016009600086815260200190815260200160002084815481106118cd576118cd61216f565b906000526020600020906004020160030160006101000a81548160ff0219169083151502179055504260096000868152602001908152602001600020848154811061191a5761191a61216f565b9060005260206000209060040201600201819055506119398282611b38565b806007858154811061194d5761194d61216f565b90600052602060002090600c0201600701600082825461196d91906121ed565b909155505060058054600191906000906119889084906121ed565b9091555050600680548291906000906119a29084906121ed565b92505081905550505080806119b690612129565b91505061181e565b5050565b6000600782815481106119d7576119d761216f565b90600052602060002090600c020160070154905060006064600154836119fd9190612204565b611a079190612223565b9050600460078481548110611a1e57611a1e61216f565b60009182526020909120600b600c9092020101805460ff19166001836004811115611a4b57611a4b611f65565b0217905550600054611a66906001600160a01b031682611b38565b611aa860078481548110611a7c57611a7c61216f565b600091825260209091206002600c9092020101546001600160a01b0316611aa383856121ed565b611b38565b60078381548110611abb57611abb61216f565b90600052602060002090600c02016007015460036000828254611ade91906121ed565b909155505060408051848152606060208201819052600f908201526e141493d29150d5081410525113d555608a1b6080820152428183015290513391600080516020612246833981519152919081900360a00190a2505050565b6000826001600160a01b03168260405160006040518083038185875af1925050503d8060008114611b85576040519150601f19603f3d011682016040523d82523d6000602084013e611b8a565b606091505b5050905080611b9857600080fd5b505050565b6040518061018001604052806000815260200160006001600160a01b0316815260200160006001600160a01b03168152602001606081526020016060815260200160608152602001600081526020016000815260200160008152602001600081526020016000815260200160006004811115611c1b57611c1b611f65565b905290565b828054611c2c906121b2565b90600052602060002090601f016020900481019282611c4e5760008555611c94565b82601f10611c6757805160ff1916838001178555611c94565b82800160010185558215611c94579182015b82811115611c94578251825591602001919060010190611c79565b50611ca0929150611ca4565b5090565b5b80821115611ca05760008155600101611ca5565b634e487b7160e01b600052604160045260246000fd5b600082601f830112611ce057600080fd5b813567ffffffffffffffff80821115611cfb57611cfb611cb9565b604051601f8301601f19908116603f01168101908282118183101715611d2357611d23611cb9565b81604052838152866020858801011115611d3c57600080fd5b836020870160208301376000602085830101528094505050505092915050565b600080600080600060a08688031215611d7457600080fd5b853567ffffffffffffffff80821115611d8c57600080fd5b611d9889838a01611ccf565b96506020880135915080821115611dae57600080fd5b611dba89838a01611ccf565b95506040880135915080821115611dd057600080fd5b50611ddd88828901611ccf565b9598949750949560608101359550608001359392505050565b600060208284031215611e0857600080fd5b5035919050565b600080600080600060a08688031215611e2757600080fd5b85359450602086013567ffffffffffffffff80821115611e4657600080fd5b611e5289838a01611ccf565b95506040880135915080821115611e6857600080fd5b611e7489838a01611ccf565b94506060880135915080821115611e8a57600080fd5b50611e9788828901611ccf565b95989497509295608001359392505050565b602080825282518282018190526000919060409081850190868401855b82811015611f0b57815180516001600160a01b031685528681015187860152858101518686015260609081015115159085015260809093019290850190600101611ec6565b5091979650505050505050565b6000815180845260005b81811015611f3e57602081850181015186830182015201611f22565b81811115611f50576000602083870101525b50601f01601f19169290920160200192915050565b634e487b7160e01b600052602160045260246000fd5b60058110611f9957634e487b7160e01b600052602160045260246000fd5b9052565b6000610180825184526020830151611fc060208601826001600160a01b03169052565b506040830151611fdb60408601826001600160a01b03169052565b506060830151816060860152611ff382860182611f18565b9150506080830151848203608086015261200d8282611f18565b91505060a083015184820360a08601526120278282611f18565b91505060c083015160c085015260e083015160e08501526101008084015181860152506101208084015181860152506101408084015181860152506101608084015161207582870182611f7b565b5090949350505050565b6000602080830181845280855180835260408601915060408160051b870101925083870160005b828110156120d457603f198886030184526120c2858351611f9d565b945092850192908501906001016120a6565b5092979650505050505050565b6020815260006120f46020830184611f9d565b9392505050565b634e487b7160e01b600052601160045260246000fd5b60008219821115612124576121246120fb565b500190565b600060001982141561213d5761213d6120fb565b5060010190565b602080825260119082015270141c9bda9958dd081b9bdd08199bdd5b99607a1b604082015260600190565b634e487b7160e01b600052603260045260246000fd5b602080825260139082015272556e617574686f72697a656420456e7469747960681b604082015260600190565b600181811c908216806121c657607f821691505b602082108114156121e757634e487b7160e01b600052602260045260246000fd5b50919050565b6000828210156121ff576121ff6120fb565b500390565b600081600019048311821515161561221e5761221e6120fb565b500290565b60008261224057634e487b7160e01b600052601260045260246000fd5b50049056feaee8e5d3bbb2f71a951b5632cee20f7ac487b9f8ab4f66a236f7694b13af7c6aa26469706673582212209d25430479bf173952cbcfd108a1891ec22f6f97adbe5d4878100764dbed780864736f6c634300080b0033",
  "linkReferences": {},
  "deployedLinkReferences": {}
}