{
  "_format": "hh-sol-artifact-1",
  "contractName": "Genesis",
  "sourceName": "src/contracts/Genesis.sol",
  "abi": [
    {
      "inputs": [
        {
          "internalType": "uint256",
          "name": "_projectTax",
          "type": "uint256"
        }
      ],
      "stateMutability": "nonpayable",
      "type": "constructor"
    },
    {
      "inputs": [
        {
          "internalType": "address",
          "name": "sender",
          "type": "address"
        },
        {
          "internalType": "uint256",
          "name": "tokenId",
          "type": "uint256"
        },
        {
          "internalType": "address",
          "name": "owner",
          "type": "address"
        }
      ],
      "name": "ERC721IncorrectOwner",
      "type": "error"
    },
    {
      "inputs": [
        {
          "internalType": "address",
          "name": "operator",
          "type": "address"
        },
        {
          "internalType": "uint256",
          "name": "tokenId",
          "type": "uint256"
        }
      ],
      "name": "ERC721InsufficientApproval",
      "type": "error"
    },
    {
      "inputs": [
        {
          "internalType": "address",
          "name": "approver",
          "type": "address"
        }
      ],
      "name": "ERC721InvalidApprover",
      "type": "error"
    },
    {
      "inputs": [
        {
          "internalType": "address",
          "name": "operator",
          "type": "address"
        }
      ],
      "name": "ERC721InvalidOperator",
      "type": "error"
    },
    {
      "inputs": [
        {
          "internalType": "address",
          "name": "owner",
          "type": "address"
        }
      ],
      "name": "ERC721InvalidOwner",
      "type": "error"
    },
    {
      "inputs": [
        {
          "internalType": "address",
          "name": "receiver",
          "type": "address"
        }
      ],
      "name": "ERC721InvalidReceiver",
      "type": "error"
    },
    {
      "inputs": [
        {
          "internalType": "address",
          "name": "sender",
          "type": "address"
        }
      ],
      "name": "ERC721InvalidSender",
      "type": "error"
    },
    {
      "inputs": [
        {
          "internalType": "uint256",
          "name": "tokenId",
          "type": "uint256"
        }
      ],
      "name": "ERC721NonexistentToken",
      "type": "error"
    },
    {
      "anonymous": false,
      "inputs": [
        {
          "indexed": false,
          "internalType": "uint256",
          "name": "id",
          "type": "uint256"
        },
        {
          "indexed": false,
          "internalType": "string",
          "name": "actionType",
          "type": "string"
        },
        {
          "indexed": true,
          "internalType": "address",
          "name": "executor",
          "type": "address"
        },
        {
          "indexed": false,
          "internalType": "uint256",
          "name": "timestamp",
          "type": "uint256"
        }
      ],
      "name": "Action",
      "type": "event"
    },
    {
      "anonymous": false,
      "inputs": [
        {
          "indexed": true,
          "internalType": "address",
          "name": "owner",
          "type": "address"
        },
        {
          "indexed": true,
          "internalType": "address",
          "name": "approved",
          "type": "address"
        },
        {
          "indexed": true,
          "internalType": "uint256",
          "name": "tokenId",
          "type": "uint256"
        }
      ],
      "name": "Approval",
      "type": "event"
    },
    {
      "anonymous": false,
      "inputs": [
        {
          "indexed": true,
          "internalType": "address",
          "name": "owner",
          "type": "address"
        },
        {
          "indexed": true,
          "internalType": "address",
          "name": "operator",
          "type": "address"
        },
        {
          "indexed": false,
          "internalType": "bool",
          "name": "approved",
          "type": "bool"
        }
      ],
      "name": "ApprovalForAll",
      "type": "event"
    },
    {
      "anonymous": false,
      "inputs": [
        {
          "indexed": false,
          "internalType": "uint256",
          "name": "_fromTokenId",
          "type": "uint256"
        },
        {
          "indexed": false,
          "internalType": "uint256",
          "name": "_toTokenId",
          "type": "uint256"
        }
      ],
      "name": "BatchMetadataUpdate",
      "type": "event"
    },
    {
      "anonymous": false,
      "inputs": [
        {
          "indexed": false,
          "internalType": "uint256",
          "name": "_tokenId",
          "type": "uint256"
        }
      ],
      "name": "MetadataUpdate",
      "type": "event"
    },
    {
      "anonymous": false,
      "inputs": [
        {
          "indexed": true,
          "internalType": "address",
          "name": "from",
          "type": "address"
        },
        {
          "indexed": true,
          "internalType": "address",
          "name": "to",
          "type": "address"
        },
        {
          "indexed": true,
          "internalType": "uint256",
          "name": "tokenId",
          "type": "uint256"
        }
      ],
      "name": "Transfer",
      "type": "event"
    },
    {
      "inputs": [
        {
          "internalType": "address",
          "name": "",
          "type": "address"
        }
      ],
      "name": "CreatorExist",
      "outputs": [
        {
          "internalType": "bool",
          "name": "",
          "type": "bool"
        }
      ],
      "stateMutability": "view",
      "type": "function"
    },
    {
      "inputs": [
        {
          "internalType": "address",
          "name": "",
          "type": "address"
        },
        {
          "internalType": "uint256",
          "name": "",
          "type": "uint256"
        }
      ],
      "name": "UserOfNFTs",
      "outputs": [
        {
          "internalType": "uint256",
          "name": "",
          "type": "uint256"
        }
      ],
      "stateMutability": "view",
      "type": "function"
    },
    {
      "inputs": [
        {
          "internalType": "address",
          "name": "_newCreator",
          "type": "address"
        }
      ],
      "name": "addCreator",
      "outputs": [],
      "stateMutability": "nonpayable",
      "type": "function"
    },
    {
      "inputs": [
        {
          "internalType": "address",
          "name": "to",
          "type": "address"
        },
        {
          "internalType": "uint256",
          "name": "tokenId",
          "type": "uint256"
        }
      ],
      "name": "approve",
      "outputs": [],
      "stateMutability": "nonpayable",
      "type": "function"
    },
    {
      "inputs": [
        {
          "internalType": "uint256",
          "name": "id",
          "type": "uint256"
        }
      ],
      "name": "backProject",
      "outputs": [
        {
          "internalType": "bool",
          "name": "",
          "type": "bool"
        }
      ],
      "stateMutability": "payable",
      "type": "function"
    },
    {
      "inputs": [],
      "name": "balance",
      "outputs": [
        {
          "internalType": "uint256",
          "name": "",
          "type": "uint256"
        }
      ],
      "stateMutability": "view",
      "type": "function"
    },
    {
      "inputs": [
        {
          "internalType": "address",
          "name": "owner",
          "type": "address"
        }
      ],
      "name": "balanceOf",
      "outputs": [
        {
          "internalType": "uint256",
          "name": "",
          "type": "uint256"
        }
      ],
      "stateMutability": "view",
      "type": "function"
    },
    {
      "inputs": [
        {
          "internalType": "uint256",
          "name": "_taxPct",
          "type": "uint256"
        }
      ],
      "name": "changeTax",
      "outputs": [],
      "stateMutability": "nonpayable",
      "type": "function"
    },
    {
      "inputs": [
        {
          "internalType": "string",
          "name": "title",
          "type": "string"
        },
        {
          "internalType": "string",
          "name": "description",
          "type": "string"
        },
        {
          "internalType": "string",
          "name": "imageURL",
          "type": "string"
        },
        {
          "internalType": "uint256",
          "name": "cost",
          "type": "uint256"
        },
        {
          "internalType": "uint256",
          "name": "expiresAt",
          "type": "uint256"
        }
      ],
      "name": "createProject",
      "outputs": [
        {
          "internalType": "bool",
          "name": "",
          "type": "bool"
        }
      ],
      "stateMutability": "nonpayable",
      "type": "function"
    },
    {
      "inputs": [
        {
          "internalType": "uint256",
          "name": "id",
          "type": "uint256"
        }
      ],
      "name": "deleteProject",
      "outputs": [
        {
          "internalType": "bool",
          "name": "",
          "type": "bool"
        }
      ],
      "stateMutability": "nonpayable",
      "type": "function"
    },
    {
      "inputs": [
        {
          "internalType": "uint256",
          "name": "tokenId",
          "type": "uint256"
        }
      ],
      "name": "getApproved",
      "outputs": [
        {
          "internalType": "address",
          "name": "",
          "type": "address"
        }
      ],
      "stateMutability": "view",
      "type": "function"
    },
    {
      "inputs": [
        {
          "internalType": "uint256",
          "name": "id",
          "type": "uint256"
        }
      ],
      "name": "getBackers",
      "outputs": [
        {
          "components": [
            {
              "internalType": "address",
              "name": "owner",
              "type": "address"
            },
            {
              "internalType": "uint256",
              "name": "contributions",
              "type": "uint256"
            },
            {
              "internalType": "uint256",
              "name": "timestamp",
              "type": "uint256"
            },
            {
              "internalType": "bool",
              "name": "refunded",
              "type": "bool"
            }
          ],
          "internalType": "struct Genesis.backerStruct[]",
          "name": "",
          "type": "tuple[]"
        }
      ],
      "stateMutability": "view",
      "type": "function"
    },
    {
      "inputs": [
        {
          "internalType": "address",
          "name": "_owner",
          "type": "address"
        }
      ],
      "name": "getNfts",
      "outputs": [
        {
          "internalType": "string[]",
          "name": "",
          "type": "string[]"
        }
      ],
      "stateMutability": "view",
      "type": "function"
    },
    {
      "inputs": [
        {
          "internalType": "uint256",
          "name": "id",
          "type": "uint256"
        }
      ],
      "name": "getProject",
      "outputs": [
        {
          "components": [
            {
              "internalType": "uint256",
              "name": "id",
              "type": "uint256"
            },
            {
              "internalType": "address",
              "name": "project",
              "type": "address"
            },
            {
              "internalType": "address",
              "name": "owner",
              "type": "address"
            },
            {
              "internalType": "string",
              "name": "title",
              "type": "string"
            },
            {
              "internalType": "string",
              "name": "description",
              "type": "string"
            },
            {
              "internalType": "string",
              "name": "imageURL",
              "type": "string"
            },
            {
              "internalType": "uint256",
              "name": "cost",
              "type": "uint256"
            },
            {
              "internalType": "uint256",
              "name": "raised",
              "type": "uint256"
            },
            {
              "internalType": "uint256",
              "name": "timestamp",
              "type": "uint256"
            },
            {
              "internalType": "uint256",
              "name": "expiresAt",
              "type": "uint256"
            },
            {
              "internalType": "uint256",
              "name": "backers",
              "type": "uint256"
            },
            {
              "internalType": "enum Genesis.statusEnum",
              "name": "status",
              "type": "uint8"
            }
          ],
          "internalType": "struct Genesis.projectStruct",
          "name": "",
          "type": "tuple"
        }
      ],
      "stateMutability": "view",
      "type": "function"
    },
    {
      "inputs": [],
      "name": "getProjects",
      "outputs": [
        {
          "components": [
            {
              "internalType": "uint256",
              "name": "id",
              "type": "uint256"
            },
            {
              "internalType": "address",
              "name": "project",
              "type": "address"
            },
            {
              "internalType": "address",
              "name": "owner",
              "type": "address"
            },
            {
              "internalType": "string",
              "name": "title",
              "type": "string"
            },
            {
              "internalType": "string",
              "name": "description",
              "type": "string"
            },
            {
              "internalType": "string",
              "name": "imageURL",
              "type": "string"
            },
            {
              "internalType": "uint256",
              "name": "cost",
              "type": "uint256"
            },
            {
              "internalType": "uint256",
              "name": "raised",
              "type": "uint256"
            },
            {
              "internalType": "uint256",
              "name": "timestamp",
              "type": "uint256"
            },
            {
              "internalType": "uint256",
              "name": "expiresAt",
              "type": "uint256"
            },
            {
              "internalType": "uint256",
              "name": "backers",
              "type": "uint256"
            },
            {
              "internalType": "enum Genesis.statusEnum",
              "name": "status",
              "type": "uint8"
            }
          ],
          "internalType": "struct Genesis.projectStruct[]",
          "name": "",
          "type": "tuple[]"
        }
      ],
      "stateMutability": "view",
      "type": "function"
    },
    {
      "inputs": [
        {
          "internalType": "address",
          "name": "addr",
          "type": "address"
        }
      ],
      "name": "isAppOwner",
      "outputs": [
        {
          "internalType": "bool",
          "name": "",
          "type": "bool"
        }
      ],
      "stateMutability": "view",
      "type": "function"
    },
    {
      "inputs": [],
      "name": "isAppOwner",
      "outputs": [
        {
          "internalType": "bool",
          "name": "",
          "type": "bool"
        }
      ],
      "stateMutability": "view",
      "type": "function"
    },
    {
      "inputs": [
        {
          "internalType": "address",
          "name": "owner",
          "type": "address"
        },
        {
          "internalType": "address",
          "name": "operator",
          "type": "address"
        }
      ],
      "name": "isApprovedForAll",
      "outputs": [
        {
          "internalType": "bool",
          "name": "",
          "type": "bool"
        }
      ],
      "stateMutability": "view",
      "type": "function"
    },
    {
      "inputs": [
        {
          "internalType": "address",
          "name": "addr",
          "type": "address"
        }
      ],
      "name": "isCreator",
      "outputs": [
        {
          "internalType": "bool",
          "name": "",
          "type": "bool"
        }
      ],
      "stateMutability": "view",
      "type": "function"
    },
    {
      "inputs": [],
      "name": "name",
      "outputs": [
        {
          "internalType": "string",
          "name": "",
          "type": "string"
        }
      ],
      "stateMutability": "view",
      "type": "function"
    },
    {
      "inputs": [],
      "name": "owner",
      "outputs": [
        {
          "internalType": "address",
          "name": "",
          "type": "address"
        }
      ],
      "stateMutability": "view",
      "type": "function"
    },
    {
      "inputs": [
        {
          "internalType": "uint256",
          "name": "tokenId",
          "type": "uint256"
        }
      ],
      "name": "ownerOf",
      "outputs": [
        {
          "internalType": "address",
          "name": "",
          "type": "address"
        }
      ],
      "stateMutability": "view",
      "type": "function"
    },
    {
      "inputs": [
        {
          "internalType": "uint256",
          "name": "id",
          "type": "uint256"
        }
      ],
      "name": "payOutProject",
      "outputs": [
        {
          "internalType": "bool",
          "name": "",
          "type": "bool"
        }
      ],
      "stateMutability": "nonpayable",
      "type": "function"
    },
    {
      "inputs": [],
      "name": "projectCount",
      "outputs": [
        {
          "internalType": "uint256",
          "name": "",
          "type": "uint256"
        }
      ],
      "stateMutability": "view",
      "type": "function"
    },
    {
      "inputs": [
        {
          "internalType": "uint256",
          "name": "",
          "type": "uint256"
        }
      ],
      "name": "projectExist",
      "outputs": [
        {
          "internalType": "bool",
          "name": "",
          "type": "bool"
        }
      ],
      "stateMutability": "view",
      "type": "function"
    },
    {
      "inputs": [
        {
          "internalType": "uint256",
          "name": "",
          "type": "uint256"
        },
        {
          "internalType": "uint256",
          "name": "",
          "type": "uint256"
        }
      ],
      "name": "projectOfNFTs",
      "outputs": [
        {
          "internalType": "uint256",
          "name": "",
          "type": "uint256"
        }
      ],
      "stateMutability": "view",
      "type": "function"
    },
    {
      "inputs": [],
      "name": "projectTax",
      "outputs": [
        {
          "internalType": "uint256",
          "name": "",
          "type": "uint256"
        }
      ],
      "stateMutability": "view",
      "type": "function"
    },
    {
      "inputs": [
        {
          "internalType": "uint256",
          "name": "id",
          "type": "uint256"
        }
      ],
      "name": "requestRefund",
      "outputs": [
        {
          "internalType": "bool",
          "name": "",
          "type": "bool"
        }
      ],
      "stateMutability": "nonpayable",
      "type": "function"
    },
    {
      "inputs": [
        {
          "internalType": "address",
          "name": "from",
          "type": "address"
        },
        {
          "internalType": "address",
          "name": "to",
          "type": "address"
        },
        {
          "internalType": "uint256",
          "name": "tokenId",
          "type": "uint256"
        }
      ],
      "name": "safeTransferFrom",
      "outputs": [],
      "stateMutability": "nonpayable",
      "type": "function"
    },
    {
      "inputs": [
        {
          "internalType": "address",
          "name": "from",
          "type": "address"
        },
        {
          "internalType": "address",
          "name": "to",
          "type": "address"
        },
        {
          "internalType": "uint256",
          "name": "tokenId",
          "type": "uint256"
        },
        {
          "internalType": "bytes",
          "name": "data",
          "type": "bytes"
        }
      ],
      "name": "safeTransferFrom",
      "outputs": [],
      "stateMutability": "nonpayable",
      "type": "function"
    },
    {
      "inputs": [
        {
          "internalType": "address",
          "name": "operator",
          "type": "address"
        },
        {
          "internalType": "bool",
          "name": "approved",
          "type": "bool"
        }
      ],
      "name": "setApprovalForAll",
      "outputs": [],
      "stateMutability": "nonpayable",
      "type": "function"
    },
    {
      "inputs": [
        {
          "internalType": "uint256",
          "name": "id",
          "type": "uint256"
        }
      ],
      "name": "startProject",
      "outputs": [
        {
          "internalType": "bool",
          "name": "",
          "type": "bool"
        }
      ],
      "stateMutability": "nonpayable",
      "type": "function"
    },
    {
      "inputs": [],
      "name": "stats",
      "outputs": [
        {
          "internalType": "uint256",
          "name": "totalProject",
          "type": "uint256"
        },
        {
          "internalType": "uint256",
          "name": "totalBacking",
          "type": "uint256"
        },
        {
          "internalType": "uint256",
          "name": "totalDonations",
          "type": "uint256"
        }
      ],
      "stateMutability": "view",
      "type": "function"
    },
    {
      "inputs": [
        {
          "internalType": "bytes4",
          "name": "interfaceId",
          "type": "bytes4"
        }
      ],
      "name": "supportsInterface",
      "outputs": [
        {
          "internalType": "bool",
          "name": "",
          "type": "bool"
        }
      ],
      "stateMutability": "view",
      "type": "function"
    },
    {
      "inputs": [],
      "name": "symbol",
      "outputs": [
        {
          "internalType": "string",
          "name": "",
          "type": "string"
        }
      ],
      "stateMutability": "view",
      "type": "function"
    },
    {
      "inputs": [],
      "name": "tokenCounter",
      "outputs": [
        {
          "internalType": "uint256",
          "name": "",
          "type": "uint256"
        }
      ],
      "stateMutability": "view",
      "type": "function"
    },
    {
      "inputs": [
        {
          "internalType": "uint256",
          "name": "tokenId",
          "type": "uint256"
        }
      ],
      "name": "tokenURI",
      "outputs": [
        {
          "internalType": "string",
          "name": "",
          "type": "string"
        }
      ],
      "stateMutability": "view",
      "type": "function"
    },
    {
      "inputs": [
        {
          "internalType": "address",
          "name": "from",
          "type": "address"
        },
        {
          "internalType": "address",
          "name": "to",
          "type": "address"
        },
        {
          "internalType": "uint256",
          "name": "tokenId",
          "type": "uint256"
        }
      ],
      "name": "transferFrom",
      "outputs": [],
      "stateMutability": "nonpayable",
      "type": "function"
    },
    {
      "inputs": [
        {
          "internalType": "uint256",
          "name": "id",
          "type": "uint256"
        },
        {
          "internalType": "string",
          "name": "title",
          "type": "string"
        },
        {
          "internalType": "string",
          "name": "description",
          "type": "string"
        },
        {
          "internalType": "string",
          "name": "imageURL",
          "type": "string"
        },
        {
          "internalType": "uint256",
          "name": "expiresAt",
          "type": "uint256"
        }
      ],
      "name": "updateProject",
      "outputs": [
        {
          "internalType": "bool",
          "name": "",
          "type": "bool"
        }
      ],
      "stateMutability": "nonpayable",
      "type": "function"
    }
  ],
  "bytecode": "0x608060405234801561001057600080fd5b50604051613f07380380613f0783398101604081905261002f916100ab565b60405180604001604052806008815260200167139d1c1d519d5b9960c21b815250604051806040016040528060048152602001634e54505560e01b815250816000908161007c9190610163565b5060016100898282610163565b50506000600b5550600780546001600160a01b03191633179055600855610221565b6000602082840312156100bd57600080fd5b5051919050565b634e487b7160e01b600052604160045260246000fd5b600181811c908216806100ee57607f821691505b60208210810361010e57634e487b7160e01b600052602260045260246000fd5b50919050565b601f82111561015e57806000526020600020601f840160051c8101602085101561013b5750805b601f840160051c820191505b8181101561015b5760008155600101610147565b50505b505050565b81516001600160401b0381111561017c5761017c6100c4565b6101908161018a84546100da565b84610114565b6020601f8211600181146101c457600083156101ac5750848201515b600019600385901b1c1916600184901b17845561015b565b600084815260208120601f198516915b828110156101f457878501518255602094850194600190920191016101d4565b50848210156102125786840151600019600387901b60f8161c191681555b50505050600190811b01905550565b613cd7806102306000396000f3fe6080604052600436106102305760003560e01c80639a3fa8c71161012e578063ca766f64116100ab578063e985e9c51161006f578063e985e9c5146106c9578063efd46065146106e9578063f0f3f2c814610722578063f62bf2de1461074f578063f7767c931461076f57600080fd5b8063ca766f6414610621578063d082e38114610641578063d24cd3ec14610657578063d80528ae1461066d578063dcc60128146106a757600080fd5b8063b69ef8a8116100f2578063b69ef8a81461057e578063b88d4fde14610594578063c1ada37e146105b4578063c87b56dd146105d4578063c9168b72146105f457600080fd5b80639a3fa8c7146104eb5780639f39a1941461050b578063a22cb4651461051e578063a4b2409e1461053e578063b531dcba1461055e57600080fd5b80633d061498116101bc5780636352211e116101805780636352211e1461044657806370a08231146104665780638593054b146104865780638da5cb5b146104b657806395d89b41146104d657600080fd5b80633d061498146103995780633e45c8af146103b957806342842e0e146103d957806344cc2afe146103f95780634cd0cb281461042657600080fd5b8063095ea7b311610203578063095ea7b3146102e45780631453d4821461030657806323b872dd1461033557806336fbad26146103555780633b9dce051461037957600080fd5b806301ffc9a714610235578063056c29ee1461026a57806306fdde031461028a578063081812fc146102ac575b600080fd5b34801561024157600080fd5b506102556102503660046131f7565b61079f565b60405190151581526020015b60405180910390f35b34801561027657600080fd5b506102556102853660046132c4565b6107b0565b34801561029657600080fd5b5061029f610c81565b60405161026191906133ba565b3480156102b857600080fd5b506102cc6102c73660046133cd565b610d13565b6040516001600160a01b039091168152602001610261565b3480156102f057600080fd5b506103046102ff3660046133fd565b610d3c565b005b34801561031257600080fd5b50610255610321366004613427565b6007546001600160a01b0391821691161490565b34801561034157600080fd5b50610304610350366004613442565b610d4b565b34801561036157600080fd5b5061036b60095481565b604051908152602001610261565b34801561038557600080fd5b50610304610394366004613427565b610dd6565b3480156103a557600080fd5b5061036b6103b436600461347f565b610ea2565b3480156103c557600080fd5b506103046103d43660046133cd565b610ed3565b3480156103e557600080fd5b506103046103f4366004613442565b610f28565b34801561040557600080fd5b50610419610414366004613427565b610f48565b60405161026191906134a1565b34801561043257600080fd5b506102556104413660046133cd565b611042565b34801561045257600080fd5b506102cc6104613660046133cd565b6111ab565b34801561047257600080fd5b5061036b610481366004613427565b6111b6565b34801561049257600080fd5b506102556104a13660046133cd565b60126020526000908152604090205460ff1681565b3480156104c257600080fd5b506007546102cc906001600160a01b031681565b3480156104e257600080fd5b5061029f6111fe565b3480156104f757600080fd5b50610255610506366004613506565b61120d565b6102556105193660046133cd565b6114df565b34801561052a57600080fd5b506103046105393660046135ac565b611886565b34801561054a57600080fd5b506102556105593660046133cd565b611891565b34801561056a57600080fd5b506102556105793660046133cd565b611988565b34801561058a57600080fd5b5061036b600a5481565b3480156105a057600080fd5b506103046105af3660046135e8565b611a50565b3480156105c057600080fd5b5061036b6105cf3660046133fd565b611a67565b3480156105e057600080fd5b5061029f6105ef3660046133cd565b611a83565b34801561060057600080fd5b5061061461060f3660046133cd565b611a8e565b6040516102619190613664565b34801561062d57600080fd5b506007546001600160a01b03163314610255565b34801561064d57600080fd5b5061036b600b5481565b34801561066357600080fd5b5061036b60085481565b34801561067957600080fd5b50600c54600d54600e5461068c92919083565b60408051938452602084019290925290820152606001610261565b3480156106b357600080fd5b506106bc611b55565b60405161026191906137e6565b3480156106d557600080fd5b506102556106e436600461383f565b611e00565b3480156106f557600080fd5b50610255610704366004613427565b6001600160a01b031660009081526013602052604090205460ff1690565b34801561072e57600080fd5b5061074261073d3660046133cd565b611e2e565b6040516102619190613872565b34801561075b57600080fd5b5061025561076a3660046133cd565b6120e4565b34801561077b57600080fd5b5061025561078a366004613427565b60136020526000908152604090205460ff1681565b60006107aa82612231565b92915050565b3360009081526013602052604081205460ff16806107d857506007546001600160a01b031633145b6107fd5760405162461bcd60e51b81526004016107f490613885565b60405180910390fd5b60008651116108465760405162461bcd60e51b81526020600482015260156024820152745469746c652063616e6e6f7420626520656d70747960581b60448201526064016107f4565b60008551116108975760405162461bcd60e51b815260206004820152601b60248201527f4465736372697074696f6e2063616e6e6f7420626520656d707479000000000060448201526064016107f4565b60008451116108e35760405162461bcd60e51b8152602060048201526018602482015277496d61676555524c2063616e6e6f7420626520656d70747960401b60448201526064016107f4565b600083116109295760405162461bcd60e51b8152602060048201526013602482015272436f73742063616e6e6f74206265207a65726f60681b60448201526064016107f4565b61093161315b565b60095481523360408201908152606082018881526080830188905260a0830187905260c08301869052426101008401526101208301859052600f805460018101825560009190915283517f8d1108e10bcb7c27dddfc02ed9d693a074039d026cf4ea4240b40f7d581ac802600c90920291820190815560208501517f8d1108e10bcb7c27dddfc02ed9d693a074039d026cf4ea4240b40f7d581ac803830180546001600160a01b03199081166001600160a01b039384161790915594517f8d1108e10bcb7c27dddfc02ed9d693a074039d026cf4ea4240b40f7d581ac8048401805490961691161790935590518392917f8d1108e10bcb7c27dddfc02ed9d693a074039d026cf4ea4240b40f7d581ac8050190610a4e908261393d565b5060808201516004820190610a63908261393d565b5060a08201516005820190610a78908261393d565b5060c0820151600682015560e0820151600782015561010082015160088201556101208201516009820155610140820151600a820155610160820151600b8201805460ff19166001836005811115610ad257610ad26136d5565b0217905550506009546000908152601260209081526040808320805460ff191660019081179091553384526010835281842080548083018255908552938390208651600c909502019384559185015191830180546001600160a01b039384166001600160a01b0319918216179091559085015160028401805491909316911617905560608301518392506003820190610b6b908261393d565b5060808201516004820190610b80908261393d565b5060a08201516005820190610b95908261393d565b5060c0820151600682015560e0820151600782015561010082015160088201556101208201516009820155610140820151600a820155610160820151600b8201805460ff19166001836005811115610bef57610bef6136d5565b021790555050506001600c6000016000828254610c0c9190613a12565b9091555050600980543391600080516020613c8283398151915291906000610c3383613a25565b9091555060408051918252606060208301819052600e908301526d50524f4a4543542043524541544560901b6080830152429082015260a00160405180910390a25060019695505050505050565b606060008054610c90906138bc565b80601f0160208091040260200160405190810160405280929190818152602001828054610cbc906138bc565b8015610d095780601f10610cde57610100808354040283529160200191610d09565b820191906000526020600020905b815481529060010190602001808311610cec57829003601f168201915b5050505050905090565b6000610d1e82612256565b506000828152600460205260409020546001600160a01b03166107aa565b610d4782823361228f565b5050565b6001600160a01b038216610d7557604051633250574960e11b8152600060048201526024016107f4565b6000610d8283833361229c565b9050836001600160a01b0316816001600160a01b031614610dd0576040516364283d7b60e01b81526001600160a01b03808616600483015260248201849052821660448201526064016107f4565b50505050565b6007546001600160a01b03163314610e265760405162461bcd60e51b81526020600482015260136024820152724f776e6572207265736572766564206f6e6c7960681b60448201526064016107f4565b6001600160a01b038116600090815260136020526040808220805460ff19166001179055513391600080516020613c8283398151915291610e9791904290918252606060208301819052600d908301526c10d491505513d4881051111151609a1b6080830152604082015260a00190565b60405180910390a250565b60146020528160005260406000208181548110610ebe57600080fd5b90600052602060002001600091509150505481565b6007546001600160a01b03163314610f235760405162461bcd60e51b81526020600482015260136024820152724f776e6572207265736572766564206f6e6c7960681b60448201526064016107f4565b600855565b610f4383838360405180602001604052806000815250611a50565b505050565b6001600160a01b0381166000908152601560205260408120546060918167ffffffffffffffff811115610f7d57610f7d613214565b604051908082528060200260200182016040528015610fb057816020015b6060815260200190600190039081610f9b5790505b50905060005b6001600160a01b03851660009081526015602052604090205481101561103a576001600160a01b0385166000908152601560205260409020805461101591908390811061100557611005613a3e565b9060005260206000200154611a83565b82828151811061102757611027613a3e565b6020908102919091010152600101610fb6565b509392505050565b3360009081526013602052604081205460ff168061106a57506007546001600160a01b031633145b6110865760405162461bcd60e51b81526004016107f490613885565b60008281526012602052604090205460ff166110b45760405162461bcd60e51b81526004016107f490613a54565b600f82815481106110c7576110c7613a3e565b60009182526020909120600c90910201600201546001600160a01b031633146111025760405162461bcd60e51b81526004016107f490613a7f565b6003600f838154811061111757611117613a3e565b60009182526020909120600b600c9092020101805460ff19166001836005811115611144576111446136d5565b021790555061115282612395565b60408051838152606060208201819052600f908201526e141493d29150d50811115311551151608a1b6080820152428183015290513391600080516020613c82833981519152919081900360a00190a25060015b919050565b60006107aa82612256565b60006001600160a01b0382166111e2576040516322718ad960e21b8152600060048201526024016107f4565b506001600160a01b031660009081526003602052604090205490565b606060018054610c90906138bc565b3360009081526013602052604081205460ff168061123557506007546001600160a01b031633145b6112515760405162461bcd60e51b81526004016107f490613885565b60008681526012602052604090205460ff1661127f5760405162461bcd60e51b81526004016107f490613a54565b600f868154811061129257611292613a3e565b60009182526020909120600c90910201600201546001600160a01b031633146112cd5760405162461bcd60e51b81526004016107f490613a7f565b60008551116113165760405162461bcd60e51b81526020600482015260156024820152745469746c652063616e6e6f7420626520656d70747960581b60448201526064016107f4565b60008451116113675760405162461bcd60e51b815260206004820152601b60248201527f4465736372697074696f6e2063616e6e6f7420626520656d707479000000000060448201526064016107f4565b60008351116113b35760405162461bcd60e51b8152602060048201526018602482015277496d61676555524c2063616e6e6f7420626520656d70747960401b60448201526064016107f4565b84600f87815481106113c7576113c7613a3e565b90600052602060002090600c020160030190816113e4919061393d565b5083600f87815481106113f9576113f9613a3e565b90600052602060002090600c02016004019081611416919061393d565b5082600f878154811061142b5761142b613a3e565b90600052602060002090600c02016005019081611448919061393d565b5081600f878154811061145d5761145d613a3e565b90600052602060002090600c020160090181905550336001600160a01b0316600080516020613c8283398151915287426040516114cb929190918252606060208301819052600f908301526e141493d29150d50815541110551151608a1b6080830152604082015260a00190565b60405180910390a250600195945050505050565b60008034116115305760405162461bcd60e51b815260206004820152601f60248201527f4574686572206d7573742062652067726561746572207468616e207a65726f0060448201526064016107f4565b60008281526012602052604090205460ff1661155e5760405162461bcd60e51b81526004016107f490613a54565b6000600f838154811061157357611573613a3e565b60009182526020909120600b600c90920201015460ff16600581111561159b5761159b6136d5565b146115de5760405162461bcd60e51b8152602060048201526013602482015272283937b532b1ba1034b9903737ba1037b832b760691b60448201526064016107f4565b6001600c60010160008282546115f49190613a12565b9091555050600e805434919060009061160e908490613a12565b9250508190555034600f838154811061162957611629613a3e565b90600052602060002090600c020160070160008282546116499190613a12565b925050819055506001600f838154811061166557611665613a3e565b90600052602060002090600c0201600a0160008282546116859190613a12565b9091555050600082815260116020908152604080832081516080808201845233808352348387019081524284870181815260608087018b8152885460018082018b55998d529b8b902097516004909c0290970180546001600160a01b0319166001600160a01b03909c169b909b178b559251968a01969096559451600289015592516003909701805460ff1916971515979097179096558351888152948501829052600e918501919091526d141493d29150d508109050d2d15160921b9084015290820152600080516020613c828339815191529060a00160405180910390a2600f828154811061177857611778613a3e565b90600052602060002090600c020160060154600f838154811061179d5761179d613a3e565b90600052602060002090600c02016007015410611803576001600f83815481106117c9576117c9613a3e565b60009182526020909120600b600c9092020101805460ff191660018360058111156117f6576117f66136d5565b0217905550600192915050565b600f828154811061181657611816613a3e565b90600052602060002090600c020160090154421061187e576002600f838154811061184357611843613a3e565b60009182526020909120600b600c9092020101805460ff19166001836005811115611870576118706136d5565b021790555061187e82612395565b506001919050565b610d4733838361252f565b60006002600f83815481106118a8576118a8613a3e565b60009182526020909120600b600c90920201015460ff1660058111156118d0576118d06136d5565b14158061191857506003600f83815481106118ed576118ed613a3e565b60009182526020909120600b600c90920201015460ff166005811115611915576119156136d5565b14155b6119735760405162461bcd60e51b815260206004820152602660248201527f50726f6a65637420686173206d61726b656420617320726576657274206f722060448201526564656c65746560d01b60648201526084016107f4565b6002600f838154811061184357611843613a3e565b60006001600f838154811061199f5761199f613a3e565b60009182526020909120600b600c90920201015460ff1660058111156119c7576119c76136d5565b146119e45760405162461bcd60e51b81526004016107f490613aac565b600f82815481106119f7576119f7613a3e565b60009182526020909120600c90910201600201546001600160a01b0316331480611a2b57506007546001600160a01b031633145b611a475760405162461bcd60e51b81526004016107f490613a7f565b61187e826125ce565b611a5b848484610d4b565b610dd084848484612744565b60156020528160005260406000208181548110610ebe57600080fd5b60606107aa8261286d565b60008181526012602052604090205460609060ff16611abf5760405162461bcd60e51b81526004016107f490613a54565b600082815260116020908152604080832080548251818502810185019093528083529193909284015b82821015611b4a576000848152602090819020604080516080810182526004860290920180546001600160a01b03168352600180820154848601526002820154928401929092526003015460ff16151560608301529083529092019101611ae8565b505050509050919050565b6060600f805480602002602001604051908101604052809291908181526020016000905b82821015611df75760008481526020908190206040805161018081018252600c86029092018054835260018101546001600160a01b0390811694840194909452600281015490931690820152600382018054919291606084019190611bdd906138bc565b80601f0160208091040260200160405190810160405280929190818152602001828054611c09906138bc565b8015611c565780601f10611c2b57610100808354040283529160200191611c56565b820191906000526020600020905b815481529060010190602001808311611c3957829003601f168201915b50505050508152602001600482018054611c6f906138bc565b80601f0160208091040260200160405190810160405280929190818152602001828054611c9b906138bc565b8015611ce85780601f10611cbd57610100808354040283529160200191611ce8565b820191906000526020600020905b815481529060010190602001808311611ccb57829003601f168201915b50505050508152602001600582018054611d01906138bc565b80601f0160208091040260200160405190810160405280929190818152602001828054611d2d906138bc565b8015611d7a5780601f10611d4f57610100808354040283529160200191611d7a565b820191906000526020600020905b815481529060010190602001808311611d5d57829003601f168201915b505050918352505060068201546020820152600782015460408201526008820154606082015260098201546080820152600a82015460a0820152600b82015460c09091019060ff166005811115611dd357611dd36136d5565b6005811115611de457611de46136d5565b8152505081526020019060010190611b79565b50505050905090565b6001600160a01b03918216600090815260056020908152604080832093909416825291909152205460ff1690565b611e3661315b565b60008281526012602052604090205460ff16611e645760405162461bcd60e51b81526004016107f490613a54565b600f8281548110611e7757611e77613a3e565b60009182526020918290206040805161018081018252600c9093029091018054835260018101546001600160a01b0390811694840194909452600281015490931690820152600382018054919291606084019190611ed4906138bc565b80601f0160208091040260200160405190810160405280929190818152602001828054611f00906138bc565b8015611f4d5780601f10611f2257610100808354040283529160200191611f4d565b820191906000526020600020905b815481529060010190602001808311611f3057829003601f168201915b50505050508152602001600482018054611f66906138bc565b80601f0160208091040260200160405190810160405280929190818152602001828054611f92906138bc565b8015611fdf5780601f10611fb457610100808354040283529160200191611fdf565b820191906000526020600020905b815481529060010190602001808311611fc257829003601f168201915b50505050508152602001600582018054611ff8906138bc565b80601f0160208091040260200160405190810160405280929190818152602001828054612024906138bc565b80156120715780601f1061204657610100808354040283529160200191612071565b820191906000526020600020905b81548152906001019060200180831161205457829003601f168201915b505050918352505060068201546020820152600782015460408201526008820154606082015260098201546080820152600a82015460a0820152600b82015460c09091019060ff1660058111156120ca576120ca6136d5565b60058111156120db576120db6136d5565b90525092915050565b3360009081526013602052604081205460ff168061210c57506007546001600160a01b031633145b6121285760405162461bcd60e51b81526004016107f490613885565b60008281526012602052604090205460ff166121565760405162461bcd60e51b81526004016107f490613a54565b6001600f838154811061216b5761216b613a3e565b60009182526020909120600b600c90920201015460ff166005811115612193576121936136d5565b146121b05760405162461bcd60e51b81526004016107f490613aac565b600f82815481106121c3576121c3613a3e565b60009182526020909120600c90910201600201546001600160a01b03163314806121f757506007546001600160a01b031633145b6122135760405162461bcd60e51b81526004016107f490613a7f565b61221c8261297e565b6004600f83815481106117c9576117c9613a3e565b60006001600160e01b03198216632483248360e11b14806107aa57506107aa82612bde565b6000818152600260205260408120546001600160a01b0316806107aa57604051637e27328960e01b8152600481018490526024016107f4565b610f438383836001612c2e565b6000828152600260205260408120546001600160a01b03908116908316156122c9576122c9818486612d34565b6001600160a01b03811615612307576122e6600085600080612c2e565b6001600160a01b038116600090815260036020526040902080546000190190555b6001600160a01b03851615612336576001600160a01b0385166000908152600360205260409020805460010190555b60008481526002602052604080822080546001600160a01b0319166001600160a01b0389811691821790925591518793918516917fddf252ad1be2c89b69c2b068fc378daa952ba7f163c4a11628f55a4df523b3ef91a4949350505050565b60005b600082815260116020526040902054811015610d475760008281526011602052604081208054839081106123ce576123ce613a3e565b6000918252602080832060049092029091015485835260119091526040822080546001600160a01b039092169350908490811061240d5761240d613a3e565b9060005260206000209060040201600101549050600160116000868152602001908152602001600020848154811061244757612447613a3e565b906000526020600020906004020160030160006101000a81548160ff0219169083151502179055504260116000868152602001908152602001600020848154811061249457612494613a3e565b9060005260206000209060040201600201819055506124b38282612d98565b80600f85815481106124c7576124c7613a3e565b90600052602060002090600c020160070160008282546124e79190613ae3565b9091555050600d805460019190600090612502908490613ae3565b9091555050600e805482919060009061251c908490613ae3565b9091555050600190920191506123989050565b6001600160a01b03821661256157604051630b61174360e31b81526001600160a01b03831660048201526024016107f4565b6001600160a01b03838116600081815260056020908152604080832094871680845294825291829020805460ff191686151590811790915591519182527f17307eab39ab6107e8899845ad3d59bd9653f200f220920489ca2b5937696c31910160405180910390a3505050565b6000600f82815481106125e3576125e3613a3e565b90600052602060002090600c020160070154905060006064600854836126099190613af6565b6126139190613b0d565b90506005600f848154811061262a5761262a613a3e565b60009182526020909120600b600c9092020101805460ff19166001836005811115612657576126576136d5565b0217905550600754612672906001600160a01b031682612d98565b6126b4600f848154811061268857612688613a3e565b600091825260209091206002600c9092020101546001600160a01b03166126af8385613ae3565b612d98565b600f83815481106126c7576126c7613a3e565b90600052602060002090600c020160070154600a60008282546126ea9190613ae3565b909155505060408051848152606060208201819052600f908201526e141493d29150d5081410525113d555608a1b6080820152428183015290513391600080516020613c82833981519152919081900360a00190a2505050565b6001600160a01b0383163b15610dd057604051630a85bd0160e11b81526001600160a01b0384169063150b7a0290612786903390889087908790600401613b2f565b6020604051808303816000875af19250505080156127c1575060408051601f3d908101601f191682019092526127be91810190613b6c565b60015b61282a573d8080156127ef576040519150601f19603f3d011682016040523d82523d6000602084013e6127f4565b606091505b50805160000361282257604051633250574960e11b81526001600160a01b03851660048201526024016107f4565b805181602001fd5b6001600160e01b03198116630a85bd0160e11b1461286657604051633250574960e11b81526001600160a01b03851660048201526024016107f4565b5050505050565b606061287882612256565b5060008281526006602052604081208054612892906138bc565b80601f01602080910402602001604051908101604052809291908181526020018280546128be906138bc565b801561290b5780601f106128e05761010080835404028352916020019161290b565b820191906000526020600020905b8154815290600101906020018083116128ee57829003601f168201915b50505050509050600061292960408051602081019091526000815290565b9050805160000361293b575092915050565b81511561296d578082604051602001612955929190613b89565b60405160208183030381529060405292505050919050565b61297684612df8565b949350505050565b60008181526012602052604090205460ff166129ac5760405162461bcd60e51b81526004016107f490613a54565b6001600f82815481106129c1576129c1613a3e565b60009182526020909120600b600c90920201015460ff1660058111156129e9576129e96136d5565b14612a065760405162461bcd60e51b81526004016107f490613aac565b600081815260116020908152604080832080548251818502810185019093528083529192909190849084015b82821015612a94576000848152602090819020604080516080810182526004860290920180546001600160a01b03168352600180820154848601526002820154928401929092526003015460ff16151560608301529083529092019101612a32565b50505050905060005b8151811015612b8d576000828281518110612aba57612aba613a3e565b60200260200101516000015190506000600f8581548110612add57612add613a3e565b90600052602060002090600c0201600301600f8681548110612b0157612b01613a3e565b90600052602060002090600c0201600501604051602001612b23929190613c2a565b60405160208183030381529060405290506000612b408383612e6d565b6000878152601460209081526040808320805460018181018355918552838520018590556001600160a01b0390971683526015825282208054808801825590835291200155505001612a9d565b5060408051838152606060208201819052600b908201526a1391951cc813525395115160aa1b6080820152428183015290513391600080516020613c82833981519152919081900360a00190a25050565b60006001600160e01b031982166380ac58cd60e01b1480612c0f57506001600160e01b03198216635b5e139f60e01b145b806107aa57506301ffc9a760e01b6001600160e01b03198316146107aa565b8080612c4257506001600160a01b03821615155b15612d04576000612c5284612256565b90506001600160a01b03831615801590612c7e5750826001600160a01b0316816001600160a01b031614155b8015612c915750612c8f8184611e00565b155b15612cba5760405163a9fbf51f60e01b81526001600160a01b03841660048201526024016107f4565b8115612d025783856001600160a01b0316826001600160a01b03167f8c5be1e5ebec7d5bd14f71427d1e84f3dd0314c0f7b2291e5b200ac8c7c3b92560405160405180910390a45b505b5050600090815260046020526040902080546001600160a01b0319166001600160a01b0392909216919091179055565b612d3f838383612ea7565b610f43576001600160a01b038316612d6d57604051637e27328960e01b8152600481018290526024016107f4565b60405163177e802f60e01b81526001600160a01b0383166004820152602481018290526044016107f4565b6000826001600160a01b03168260405160006040518083038185875af1925050503d8060008114612de5576040519150601f19603f3d011682016040523d82523d6000602084013e612dea565b606091505b5050905080610f4357600080fd5b6060612e0382612256565b506000612e1b60408051602081019091526000815290565b90506000815111612e3b5760405180602001604052806000815250612e66565b80612e4584612f0a565b604051602001612e56929190613b89565b6040516020818303038152906040525b9392505050565b600b54600090612e7d8482612f9d565b612e878184612fb7565b6001600b6000828254612e9a9190613a12565b9091555090949350505050565b60006001600160a01b038316158015906129765750826001600160a01b0316846001600160a01b03161480612ee15750612ee18484611e00565b806129765750506000908152600460205260409020546001600160a01b03908116911614919050565b60606000612f1783613007565b600101905060008167ffffffffffffffff811115612f3757612f37613214565b6040519080825280601f01601f191660200182016040528015612f61576020820181803683370190505b5090508181016020015b600019016f181899199a1a9b1b9c1cb0b131b232b360811b600a86061a8153600a8504945084612f6b57509392505050565b610d478282604051806020016040528060008152506130df565b6000828152600660205260409020612fcf828261393d565b506040518281527ff8e1a15aba9398e019f0b49df1a4fde98ee17ae345cb5f6b5e2c27f5033e8ce79060200160405180910390a15050565b60008072184f03e93ff9f4daa797ed6e38ed64bf6a1f0160401b83106130465772184f03e93ff9f4daa797ed6e38ed64bf6a1f0160401b830492506040015b6d04ee2d6d415b85acef81000000008310613072576d04ee2d6d415b85acef8100000000830492506020015b662386f26fc10000831061309057662386f26fc10000830492506010015b6305f5e10083106130a8576305f5e100830492506008015b61271083106130bc57612710830492506004015b606483106130ce576064830492506002015b600a83106107aa5760010192915050565b6130e983836130f6565b610f436000848484612744565b6001600160a01b03821661312057604051633250574960e11b8152600060048201526024016107f4565b600061312e8383600061229c565b90506001600160a01b03811615610f43576040516339e3563760e11b8152600060048201526024016107f4565b6040518061018001604052806000815260200160006001600160a01b0316815260200160006001600160a01b031681526020016060815260200160608152602001606081526020016000815260200160008152602001600081526020016000815260200160008152602001600060058111156131d9576131d96136d5565b905290565b6001600160e01b0319811681146131f457600080fd5b50565b60006020828403121561320957600080fd5b8135612e66816131de565b634e487b7160e01b600052604160045260246000fd5b60008067ffffffffffffffff84111561324557613245613214565b50604051601f19601f85018116603f0116810181811067ffffffffffffffff8211171561327457613274613214565b60405283815290508082840185101561328c57600080fd5b83836020830137600060208583010152509392505050565b600082601f8301126132b557600080fd5b612e668383356020850161322a565b600080600080600060a086880312156132dc57600080fd5b853567ffffffffffffffff8111156132f357600080fd5b6132ff888289016132a4565b955050602086013567ffffffffffffffff81111561331c57600080fd5b613328888289016132a4565b945050604086013567ffffffffffffffff81111561334557600080fd5b613351888289016132a4565b9598949750949560608101359550608001359392505050565b60005b8381101561338557818101518382015260200161336d565b50506000910152565b600081518084526133a681602086016020860161336a565b601f01601f19169290920160200192915050565b602081526000612e66602083018461338e565b6000602082840312156133df57600080fd5b5035919050565b80356001600160a01b03811681146111a657600080fd5b6000806040838503121561341057600080fd5b613419836133e6565b946020939093013593505050565b60006020828403121561343957600080fd5b612e66826133e6565b60008060006060848603121561345757600080fd5b613460846133e6565b925061346e602085016133e6565b929592945050506040919091013590565b6000806040838503121561349257600080fd5b50508035926020909101359150565b6000602082016020835280845180835260408501915060408160051b86010192506020860160005b828110156134fa57603f198786030184526134e585835161338e565b945060209384019391909101906001016134c9565b50929695505050505050565b600080600080600060a0868803121561351e57600080fd5b85359450602086013567ffffffffffffffff81111561353c57600080fd5b613548888289016132a4565b945050604086013567ffffffffffffffff81111561356557600080fd5b613571888289016132a4565b935050606086013567ffffffffffffffff81111561358e57600080fd5b61359a888289016132a4565b95989497509295608001359392505050565b600080604083850312156135bf57600080fd5b6135c8836133e6565b9150602083013580151581146135dd57600080fd5b809150509250929050565b600080600080608085870312156135fe57600080fd5b613607856133e6565b9350613615602086016133e6565b925060408501359150606085013567ffffffffffffffff81111561363857600080fd5b8501601f8101871361364957600080fd5b6136588782356020840161322a565b91505092959194509250565b602080825282518282018190526000918401906040840190835b818110156136ca57835180516001600160a01b0316845260208082015181860152604080830151908601526060918201511515918501919091529093019260809092019160010161367e565b509095945050505050565b634e487b7160e01b600052602160045260246000fd5b6006811061370957634e487b7160e01b600052602160045260246000fd5b9052565b805182526000602082015161372d60208501826001600160a01b03169052565b50604082015161374860408501826001600160a01b03169052565b506060820151610180606085015261376461018085018261338e565b90506080830151848203608086015261377d828261338e565b91505060a083015184820360a0860152613797828261338e565b91505060c083015160c085015260e083015160e085015261010083015161010085015261012083015161012085015261014083015161014085015261016083015161103a6101608601826136eb565b6000602082016020835280845180835260408501915060408160051b86010192506020860160005b828110156134fa57603f1987860301845261382a85835161370d565b9450602093840193919091019060010161380e565b6000806040838503121561385257600080fd5b61385b836133e6565b9150613869602084016133e6565b90509250929050565b602081526000612e66602083018461370d565b6020808252601e908201527f43726561746f72204f72204f776e6572207265736572766564206f6e6c790000604082015260600190565b600181811c908216806138d057607f821691505b6020821081036138f057634e487b7160e01b600052602260045260246000fd5b50919050565b601f821115610f4357806000526020600020601f840160051c8101602085101561391d5750805b601f840160051c820191505b818110156128665760008155600101613929565b815167ffffffffffffffff81111561395757613957613214565b61396b8161396584546138bc565b846138f6565b6020601f82116001811461399f57600083156139875750848201515b600019600385901b1c1916600184901b178455612866565b600084815260208120601f198516915b828110156139cf57878501518255602094850194600190920191016139af565b50848210156139ed5786840151600019600387901b60f8161c191681555b50505050600190811b01905550565b634e487b7160e01b600052601160045260246000fd5b808201808211156107aa576107aa6139fc565b600060018201613a3757613a376139fc565b5060010190565b634e487b7160e01b600052603260045260246000fd5b602080825260119082015270141c9bda9958dd081b9bdd08199bdd5b99607a1b604082015260600190565b602080825260139082015272556e617574686f72697a656420456e7469747960681b604082015260600190565b6020808252601b908201527f50726f6a656374206973206e6f7420617070726f766564207965740000000000604082015260600190565b818103818111156107aa576107aa6139fc565b80820281158282048414176107aa576107aa6139fc565b600082613b2a57634e487b7160e01b600052601260045260246000fd5b500490565b6001600160a01b0385811682528416602082015260408101839052608060608201819052600090613b629083018461338e565b9695505050505050565b600060208284031215613b7e57600080fd5b8151612e66816131de565b60008351613b9b81846020880161336a565b835190830190613baf81836020880161336a565b01949350505050565b60008154613bc5816138bc565b600182168015613bdc5760018114613bf157613c21565b60ff1983168652811515820286019350613c21565b84600052602060002060005b83811015613c1957815488820152600190910190602001613bfd565b505081860193505b50505092915050565b6a3d913a34ba3632911d101160a91b81526000613c4a600b830185613bb8565b6f1116101134b6b0b3b2aaa926111d101160811b8152613c6d6010820185613bb8565b61227d60f01b81526002019594505050505056feaee8e5d3bbb2f71a951b5632cee20f7ac487b9f8ab4f66a236f7694b13af7c6aa2646970667358221220b6b1daaa3706420f7a9908a21e809de38fa4dd4b71c5aa04ae79d12fbf57f35b64736f6c634300081a0033",
  "linkReferences": {},
  "deployedLinkReferences": {}
}