{"src/contracts/NTPUVote.sol":{"NTPUVote":{"abi":[{"inputs":[{"internalType":"address","name":"_fundAddress","type":"address"}],"stateMutability":"nonpayable","type":"constructor"},{"inputs":[{"internalType":"uint256","name":"projectId","type":"uint256"}],"name":"createFundReview","outputs":[],"stateMutability":"nonpayable","type":"function"},{"inputs":[],"name":"fundAddress","outputs":[{"internalType":"address","name":"","type":"address"}],"stateMutability":"view","type":"function"},{"inputs":[],"name":"fundContract","outputs":[{"internalType":"contract NTPUFundInterface","name":"","type":"address"}],"stateMutability":"view","type":"function"},{"inputs":[{"internalType":"uint256","name":"","type":"uint256"},{"internalType":"uint256","name":"","type":"uint256"}],"name":"fundReviews","outputs":[{"internalType":"uint256","name":"fundReviewId","type":"uint256"},{"internalType":"uint256","name":"projectId","type":"uint256"},{"internalType":"uint256","name":"startDate","type":"uint256"},{"internalType":"uint256","name":"endDate","type":"uint256"},{"internalType":"uint256","name":"passCount","type":"uint256"},{"internalType":"uint256","name":"totalVoteCount","type":"uint256"}],"stateMutability":"view","type":"function"},{"inputs":[{"internalType":"uint256","name":"projectId","type":"uint256"}],"name":"getFundReviews","outputs":[{"components":[{"internalType":"uint256","name":"fundReviewId","type":"uint256"},{"internalType":"uint256","name":"projectId","type":"uint256"},{"internalType":"uint256","name":"startDate","type":"uint256"},{"internalType":"uint256","name":"endDate","type":"uint256"},{"internalType":"uint256","name":"passCount","type":"uint256"},{"internalType":"uint256","name":"totalVoteCount","type":"uint256"}],"internalType":"struct NTPUVote.FundReview[]","name":"","type":"tuple[]"}],"stateMutability":"view","type":"function"},{"inputs":[{"internalType":"address","name":"","type":"address"},{"internalType":"uint256","name":"","type":"uint256"}],"name":"hasVoted","outputs":[{"internalType":"bool","name":"","type":"bool"}],"stateMutability":"view","type":"function"},{"inputs":[{"internalType":"uint256","name":"projectId","type":"uint256"}],"name":"isFundReviewing","outputs":[{"internalType":"bool","name":"","type":"bool"}],"stateMutability":"view","type":"function"},{"inputs":[{"internalType":"uint256","name":"","type":"uint256"}],"name":"projectReviewing","outputs":[{"internalType":"bool","name":"","type":"bool"}],"stateMutability":"view","type":"function"},{"inputs":[{"internalType":"uint256","name":"projectId","type":"uint256"},{"internalType":"uint256","name":"_option","type":"uint256"}],"name":"vote","outputs":[],"stateMutability":"nonpayable","type":"function"},{"inputs":[{"internalType":"address","name":"","type":"address"},{"internalType":"uint256","name":"","type":"uint256"}],"name":"votes","outputs":[{"internalType":"address","name":"voter","type":"address"},{"internalType":"uint256","name":"projectId","type":"uint256"},{"internalType":"uint256","name":"option","type":"uint256"}],"stateMutability":"view","type":"function"}],"evm":{"bytecode":{"linkReferences":{},"object":"6080604052348015600f57600080fd5b50604051610d1e380380610d1e833981016040819052602c91605d565b600080546001600160a01b039092166001600160a01b0319928316811782556001805490931617909155600255608b565b600060208284031215606e57600080fd5b81516001600160a01b0381168114608457600080fd5b9392505050565b610c848061009a6000396000f3fe608060405234801561001057600080fd5b506004361061009e5760003560e01c8063b384abef11610066578063b384abef14610196578063bb95acc5146101a9578063bd097e21146101cc578063e82bef29146101f7578063ea8467f91461020a57600080fd5b806342545825146100a35780636e9212cf146100e65780637b90ba9d146101265780639f2524ee146101495780639fa264c814610181575b600080fd5b6100d16100b1366004610a89565b600660209081526000928352604080842090915290825290205460ff1681565b60405190151581526020015b60405180910390f35b6100f96100f4366004610ac1565b61022a565b604080519687526020870195909552938501929092526060840152608083015260a082015260c0016100dd565b6100d1610134366004610ae3565b60046020526000908152604090205460ff1681565b61015c610157366004610a89565b61027e565b604080516001600160a01b0390941684526020840192909252908201526060016100dd565b61019461018f366004610ae3565b6102ca565b005b6101946101a4366004610ac1565b6104c0565b6100d16101b7366004610ae3565b60009081526004602052604090205460ff1690565b6001546101df906001600160a01b031681565b6040516001600160a01b0390911681526020016100dd565b6000546101df906001600160a01b031681565b61021d610218366004610ae3565b61085c565b6040516100dd9190610afc565b6003602052816000526040600020818154811061024657600080fd5b600091825260209091206006909102018054600182015460028301546003840154600485015460059095015493965091945092909186565b6005602052816000526040600020818154811061029a57600080fd5b60009182526020909120600390910201805460018201546002909201546001600160a01b03909116935090915083565b600154604051636c57ebdf60e01b8152600481018390523360248201526001600160a01b0390911690636c57ebdf90604401602060405180830381865afa158015610319573d6000803e3d6000fd5b505050506040513d601f19601f8201168201806040525081019061033d9190610b79565b6103a25760405162461bcd60e51b815260206004820152602b60248201527f4f6e6c792070726f6a6563742063726561746f722063616e206372656174652060448201526a66756e642072657669657760a81b60648201526084015b60405180910390fd5b60008181526004602052604090205460ff16156103f85760405162461bcd60e51b815260206004820152601460248201527350726f6a65637420697320726576696577696e6760601b6044820152606401610399565b600081815260036020526040808220815160c081019092526002805491938392919061042383610bb8565b9190505581526020018381526020014281526020014260786104459190610bd1565b81526000602080830182905260409283018290528454600181810187559583528183208551600690920201908155848201518187015584840151600282015560608501516003820155608085015160048083019190915560a0909501516005909101559481529190935291909120805460ff19169091179055565b80600114806104cd575080155b61050a5760405162461bcd60e51b815260206004820152600e60248201526d24b73b30b634b21037b83a34b7b760911b6044820152606401610399565b60008281526004602052604090205460ff166105685760405162461bcd60e51b815260206004820152601860248201527f50726f6a656374206973206e6f7420726576696577696e6700000000000000006044820152606401610399565b6000828152600360205260408120805461058490600190610bea565b8154811061059457610594610bfd565b600091825260208083206006928302015433845291815260408084208385529091529091205490915060ff16156105fd5760405162461bcd60e51b815260206004820152600d60248201526c105b1c9958591e481d9bdd1959609a1b6044820152606401610399565b6000838152600360205260409020805461061990600190610bea565b8154811061062957610629610bfd565b906000526020600020906006020160030154421115610666576000838152600460205260409020805460ff191690556106618361090a565b505050565b3360009081526006602090815260408083208484528252808320805460ff191660019081179091558684526003909252909120805484926106a691610bea565b815481106106b6576106b6610bfd565b906000526020600020906006020160040160008282546106d69190610bd1565b9091555050600083815260036020526040902080546106f790600190610bea565b8154811061070757610707610bfd565b60009182526020822060056006909202010180549161072583610bb8565b90915550503360008181526005602090815260408083208151606081018352948552848301888152858301888152825460018082018555938752949095209551600390940290950180546001600160a01b0319166001600160a01b03948516178155945185820155925160029094019390935590549151636f7bab7160e11b81526004810186905291169063def756e290602401602060405180830381865afa1580156107d6573d6000803e3d6000fd5b505050506040513d601f19601f820116820180604052508101906107fa9190610c13565b6000848152600360205260409020805461081690600190610bea565b8154811061082657610826610bfd565b90600052602060002090600602016005015403610661576000838152600460205260409020805460ff191690556106618361090a565b606060036000838152602001908152602001600020805480602002602001604051908101604052809291908181526020016000905b828210156108ff57838290600052602060002090600602016040518060c0016040529081600082015481526020016001820154815260200160028201548152602001600382015481526020016004820154815260200160058201548152505081526020019060010190610891565b505050509050919050565b600081815260036020526040902080546002919061092a90600190610bea565b8154811061093a5761093a610bfd565b9060005260206000209060060201600501546109569190610c2c565b6000828152600360205260409020805461097290600190610bea565b8154811061098257610982610bfd565b9060005260206000209060060201600401541115610a2857600154600082815260036020526040908190205490516001623c68d960e11b031981526004810184905260248101919091526001600160a01b039091169063ff872e4e906044016020604051808303816000875af1158015610a00573d6000803e3d6000fd5b505050506040513d601f19601f82011682018060405250810190610a249190610b79565b5050565b600154604051631d8394bd60e01b8152600481018390526001600160a01b0390911690631d8394bd90602401600060405180830381600087803b158015610a6e57600080fd5b505af1158015610a82573d6000803e3d6000fd5b5050505050565b60008060408385031215610a9c57600080fd5b82356001600160a01b0381168114610ab357600080fd5b946020939093013593505050565b60008060408385031215610ad457600080fd5b50508035926020909101359150565b600060208284031215610af557600080fd5b5035919050565b602080825282518282018190526000918401906040840190835b81811015610b6e578351805184526020810151602085015260408101516040850152606081015160608501526080810151608085015260a081015160a08501525060c083019250602084019350600181019050610b16565b509095945050505050565b600060208284031215610b8b57600080fd5b81518015158114610b9b57600080fd5b9392505050565b634e487b7160e01b600052601160045260246000fd5b600060018201610bca57610bca610ba2565b5060010190565b80820180821115610be457610be4610ba2565b92915050565b81810381811115610be457610be4610ba2565b634e487b7160e01b600052603260045260246000fd5b600060208284031215610c2557600080fd5b5051919050565b600082610c4957634e487b7160e01b600052601260045260246000fd5b50049056fea2646970667358221220247c56eae180c46e52ef665e6f2095f2c5f08799ed3fbadc16ccc9487584cbbd64736f6c634300081a0033","opcodes":"PUSH1 0x80 PUSH1 0x40 MSTORE CALLVALUE DUP1 ISZERO PUSH1 0xF JUMPI PUSH1 0x0 DUP1 REVERT JUMPDEST POP PUSH1 0x40 MLOAD PUSH2 0xD1E CODESIZE SUB DUP1 PUSH2 0xD1E DUP4 CODECOPY DUP2 ADD PUSH1 0x40 DUP2 SWAP1 MSTORE PUSH1 0x2C SWAP2 PUSH1 0x5D JUMP JUMPDEST PUSH1 0x0 DUP1 SLOAD PUSH1 0x1 PUSH1 0x1 PUSH1 0xA0 SHL SUB SWAP1 SWAP3 AND PUSH1 0x1 PUSH1 0x1 PUSH1 0xA0 SHL SUB NOT SWAP3 DUP4 AND DUP2 OR DUP3 SSTORE PUSH1 0x1 DUP1 SLOAD SWAP1 SWAP4 AND OR SWAP1 SWAP2 SSTORE PUSH1 0x2 SSTORE PUSH1 0x8B JUMP JUMPDEST PUSH1 0x0 PUSH1 0x20 DUP3 DUP5 SUB SLT ISZERO PUSH1 0x6E JUMPI PUSH1 0x0 DUP1 REVERT JUMPDEST DUP2 MLOAD PUSH1 0x1 PUSH1 0x1 PUSH1 0xA0 SHL SUB DUP2 AND DUP2 EQ PUSH1 0x84 JUMPI PUSH1 0x0 DUP1 REVERT JUMPDEST SWAP4 SWAP3 POP POP POP JUMP JUMPDEST PUSH2 0xC84 DUP1 PUSH2 0x9A PUSH1 0x0 CODECOPY PUSH1 0x0 RETURN INVALID PUSH1 0x80 PUSH1 0x40 MSTORE CALLVALUE DUP1 ISZERO PUSH2 0x10 JUMPI PUSH1 0x0 DUP1 REVERT JUMPDEST POP PUSH1 0x4 CALLDATASIZE LT PUSH2 0x9E JUMPI PUSH1 0x0 CALLDATALOAD PUSH1 0xE0 SHR DUP1 PUSH4 0xB384ABEF GT PUSH2 0x66 JUMPI DUP1 PUSH4 0xB384ABEF EQ PUSH2 0x196 JUMPI DUP1 PUSH4 0xBB95ACC5 EQ PUSH2 0x1A9 JUMPI DUP1 PUSH4 0xBD097E21 EQ PUSH2 0x1CC JUMPI DUP1 PUSH4 0xE82BEF29 EQ PUSH2 0x1F7 JUMPI DUP1 PUSH4 0xEA8467F9 EQ PUSH2 0x20A JUMPI PUSH1 0x0 DUP1 REVERT JUMPDEST DUP1 PUSH4 0x42545825 EQ PUSH2 0xA3 JUMPI DUP1 PUSH4 0x6E9212CF EQ PUSH2 0xE6 JUMPI DUP1 PUSH4 0x7B90BA9D EQ PUSH2 0x126 JUMPI DUP1 PUSH4 0x9F2524EE EQ PUSH2 0x149 JUMPI DUP1 PUSH4 0x9FA264C8 EQ PUSH2 0x181 JUMPI JUMPDEST PUSH1 0x0 DUP1 REVERT JUMPDEST PUSH2 0xD1 PUSH2 0xB1 CALLDATASIZE PUSH1 0x4 PUSH2 0xA89 JUMP JUMPDEST PUSH1 0x6 PUSH1 0x20 SWAP1 DUP2 MSTORE PUSH1 0x0 SWAP3 DUP4 MSTORE PUSH1 0x40 DUP1 DUP5 KECCAK256 SWAP1 SWAP2 MSTORE SWAP1 DUP3 MSTORE SWAP1 KECCAK256 SLOAD PUSH1 0xFF AND DUP2 JUMP JUMPDEST PUSH1 0x40 MLOAD SWAP1 ISZERO ISZERO DUP2 MSTORE PUSH1 0x20 ADD JUMPDEST PUSH1 0x40 MLOAD DUP1 SWAP2 SUB SWAP1 RETURN JUMPDEST PUSH2 0xF9 PUSH2 0xF4 CALLDATASIZE PUSH1 0x4 PUSH2 0xAC1 JUMP JUMPDEST PUSH2 0x22A JUMP JUMPDEST PUSH1 0x40 DUP1 MLOAD SWAP7 DUP8 MSTORE PUSH1 0x20 DUP8 ADD SWAP6 SWAP1 SWAP6 MSTORE SWAP4 DUP6 ADD SWAP3 SWAP1 SWAP3 MSTORE PUSH1 0x60 DUP5 ADD MSTORE PUSH1 0x80 DUP4 ADD MSTORE PUSH1 0xA0 DUP3 ADD MSTORE PUSH1 0xC0 ADD PUSH2 0xDD JUMP JUMPDEST PUSH2 0xD1 PUSH2 0x134 CALLDATASIZE PUSH1 0x4 PUSH2 0xAE3 JUMP JUMPDEST PUSH1 0x4 PUSH1 0x20 MSTORE PUSH1 0x0 SWAP1 DUP2 MSTORE PUSH1 0x40 SWAP1 KECCAK256 SLOAD PUSH1 0xFF AND DUP2 JUMP JUMPDEST PUSH2 0x15C PUSH2 0x157 CALLDATASIZE PUSH1 0x4 PUSH2 0xA89 JUMP JUMPDEST PUSH2 0x27E JUMP JUMPDEST PUSH1 0x40 DUP1 MLOAD PUSH1 0x1 PUSH1 0x1 PUSH1 0xA0 SHL SUB SWAP1 SWAP5 AND DUP5 MSTORE PUSH1 0x20 DUP5 ADD SWAP3 SWAP1 SWAP3 MSTORE SWAP1 DUP3 ADD MSTORE PUSH1 0x60 ADD PUSH2 0xDD JUMP JUMPDEST PUSH2 0x194 PUSH2 0x18F CALLDATASIZE PUSH1 0x4 PUSH2 0xAE3 JUMP JUMPDEST PUSH2 0x2CA JUMP JUMPDEST STOP JUMPDEST PUSH2 0x194 PUSH2 0x1A4 CALLDATASIZE PUSH1 0x4 PUSH2 0xAC1 JUMP JUMPDEST PUSH2 0x4C0 JUMP JUMPDEST PUSH2 0xD1 PUSH2 0x1B7 CALLDATASIZE PUSH1 0x4 PUSH2 0xAE3 JUMP JUMPDEST PUSH1 0x0 SWAP1 DUP2 MSTORE PUSH1 0x4 PUSH1 0x20 MSTORE PUSH1 0x40 SWAP1 KECCAK256 SLOAD PUSH1 0xFF AND SWAP1 JUMP JUMPDEST PUSH1 0x1 SLOAD PUSH2 0x1DF SWAP1 PUSH1 0x1 PUSH1 0x1 PUSH1 0xA0 SHL SUB AND DUP2 JUMP JUMPDEST PUSH1 0x40 MLOAD PUSH1 0x1 PUSH1 0x1 PUSH1 0xA0 SHL SUB SWAP1 SWAP2 AND DUP2 MSTORE PUSH1 0x20 ADD PUSH2 0xDD JUMP JUMPDEST PUSH1 0x0 SLOAD PUSH2 0x1DF SWAP1 PUSH1 0x1 PUSH1 0x1 PUSH1 0xA0 SHL SUB AND DUP2 JUMP JUMPDEST PUSH2 0x21D PUSH2 0x218 CALLDATASIZE PUSH1 0x4 PUSH2 0xAE3 JUMP JUMPDEST PUSH2 0x85C JUMP JUMPDEST PUSH1 0x40 MLOAD PUSH2 0xDD SWAP2 SWAP1 PUSH2 0xAFC JUMP JUMPDEST PUSH1 0x3 PUSH1 0x20 MSTORE DUP2 PUSH1 0x0 MSTORE PUSH1 0x40 PUSH1 0x0 KECCAK256 DUP2 DUP2 SLOAD DUP2 LT PUSH2 0x246 JUMPI PUSH1 0x0 DUP1 REVERT JUMPDEST PUSH1 0x0 SWAP2 DUP3 MSTORE PUSH1 0x20 SWAP1 SWAP2 KECCAK256 PUSH1 0x6 SWAP1 SWAP2 MUL ADD DUP1 SLOAD PUSH1 0x1 DUP3 ADD SLOAD PUSH1 0x2 DUP4 ADD SLOAD PUSH1 0x3 DUP5 ADD SLOAD PUSH1 0x4 DUP6 ADD SLOAD PUSH1 0x5 SWAP1 SWAP6 ADD SLOAD SWAP4 SWAP7 POP SWAP2 SWAP5 POP SWAP3 SWAP1 SWAP2 DUP7 JUMP JUMPDEST PUSH1 0x5 PUSH1 0x20 MSTORE DUP2 PUSH1 0x0 MSTORE PUSH1 0x40 PUSH1 0x0 KECCAK256 DUP2 DUP2 SLOAD DUP2 LT PUSH2 0x29A JUMPI PUSH1 0x0 DUP1 REVERT JUMPDEST PUSH1 0x0 SWAP2 DUP3 MSTORE PUSH1 0x20 SWAP1 SWAP2 KECCAK256 PUSH1 0x3 SWAP1 SWAP2 MUL ADD DUP1 SLOAD PUSH1 0x1 DUP3 ADD SLOAD PUSH1 0x2 SWAP1 SWAP3 ADD SLOAD PUSH1 0x1 PUSH1 0x1 PUSH1 0xA0 SHL SUB SWAP1 SWAP2 AND SWAP4 POP SWAP1 SWAP2 POP DUP4 JUMP JUMPDEST PUSH1 0x1 SLOAD PUSH1 0x40 MLOAD PUSH4 0x6C57EBDF PUSH1 0xE0 SHL DUP2 MSTORE PUSH1 0x4 DUP2 ADD DUP4 SWAP1 MSTORE CALLER PUSH1 0x24 DUP3 ADD MSTORE PUSH1 0x1 PUSH1 0x1 PUSH1 0xA0 SHL SUB SWAP1 SWAP2 AND SWAP1 PUSH4 0x6C57EBDF SWAP1 PUSH1 0x44 ADD PUSH1 0x20 PUSH1 0x40 MLOAD DUP1 DUP4 SUB DUP2 DUP7 GAS STATICCALL ISZERO DUP1 ISZERO PUSH2 0x319 JUMPI RETURNDATASIZE PUSH1 0x0 DUP1 RETURNDATACOPY RETURNDATASIZE PUSH1 0x0 REVERT JUMPDEST POP POP POP POP PUSH1 0x40 MLOAD RETURNDATASIZE PUSH1 0x1F NOT PUSH1 0x1F DUP3 ADD AND DUP3 ADD DUP1 PUSH1 0x40 MSTORE POP DUP2 ADD SWAP1 PUSH2 0x33D SWAP2 SWAP1 PUSH2 0xB79 JUMP JUMPDEST PUSH2 0x3A2 JUMPI PUSH1 0x40 MLOAD PUSH3 0x461BCD PUSH1 0xE5 SHL DUP2 MSTORE PUSH1 0x20 PUSH1 0x4 DUP3 ADD MSTORE PUSH1 0x2B PUSH1 0x24 DUP3 ADD MSTORE PUSH32 0x4F6E6C792070726F6A6563742063726561746F722063616E2063726561746520 PUSH1 0x44 DUP3 ADD MSTORE PUSH11 0x66756E6420726576696577 PUSH1 0xA8 SHL PUSH1 0x64 DUP3 ADD MSTORE PUSH1 0x84 ADD JUMPDEST PUSH1 0x40 MLOAD DUP1 SWAP2 SUB SWAP1 REVERT JUMPDEST PUSH1 0x0 DUP2 DUP2 MSTORE PUSH1 0x4 PUSH1 0x20 MSTORE PUSH1 0x40 SWAP1 KECCAK256 SLOAD PUSH1 0xFF AND ISZERO PUSH2 0x3F8 JUMPI PUSH1 0x40 MLOAD PUSH3 0x461BCD PUSH1 0xE5 SHL DUP2 MSTORE PUSH1 0x20 PUSH1 0x4 DUP3 ADD MSTORE PUSH1 0x14 PUSH1 0x24 DUP3 ADD MSTORE PUSH20 0x50726F6A65637420697320726576696577696E67 PUSH1 0x60 SHL PUSH1 0x44 DUP3 ADD MSTORE PUSH1 0x64 ADD PUSH2 0x399 JUMP JUMPDEST PUSH1 0x0 DUP2 DUP2 MSTORE PUSH1 0x3 PUSH1 0x20 MSTORE PUSH1 0x40 DUP1 DUP3 KECCAK256 DUP2 MLOAD PUSH1 0xC0 DUP2 ADD SWAP1 SWAP3 MSTORE PUSH1 0x2 DUP1 SLOAD SWAP2 SWAP4 DUP4 SWAP3 SWAP2 SWAP1 PUSH2 0x423 DUP4 PUSH2 0xBB8 JUMP JUMPDEST SWAP2 SWAP1 POP SSTORE DUP2 MSTORE PUSH1 0x20 ADD DUP4 DUP2 MSTORE PUSH1 0x20 ADD TIMESTAMP DUP2 MSTORE PUSH1 0x20 ADD TIMESTAMP PUSH1 0x78 PUSH2 0x445 SWAP2 SWAP1 PUSH2 0xBD1 JUMP JUMPDEST DUP2 MSTORE PUSH1 0x0 PUSH1 0x20 DUP1 DUP4 ADD DUP3 SWAP1 MSTORE PUSH1 0x40 SWAP3 DUP4 ADD DUP3 SWAP1 MSTORE DUP5 SLOAD PUSH1 0x1 DUP2 DUP2 ADD DUP8 SSTORE SWAP6 DUP4 MSTORE DUP2 DUP4 KECCAK256 DUP6 MLOAD PUSH1 0x6 SWAP1 SWAP3 MUL ADD SWAP1 DUP2 SSTORE DUP5 DUP3 ADD MLOAD DUP2 DUP8 ADD SSTORE DUP5 DUP5 ADD MLOAD PUSH1 0x2 DUP3 ADD SSTORE PUSH1 0x60 DUP6 ADD MLOAD PUSH1 0x3 DUP3 ADD SSTORE PUSH1 0x80 DUP6 ADD MLOAD PUSH1 0x4 DUP1 DUP4 ADD SWAP2 SWAP1 SWAP2 SSTORE PUSH1 0xA0 SWAP1 SWAP6 ADD MLOAD PUSH1 0x5 SWAP1 SWAP2 ADD SSTORE SWAP5 DUP2 MSTORE SWAP2 SWAP1 SWAP4 MSTORE SWAP2 SWAP1 SWAP2 KECCAK256 DUP1 SLOAD PUSH1 0xFF NOT AND SWAP1 SWAP2 OR SWAP1 SSTORE JUMP JUMPDEST DUP1 PUSH1 0x1 EQ DUP1 PUSH2 0x4CD JUMPI POP DUP1 ISZERO JUMPDEST PUSH2 0x50A JUMPI PUSH1 0x40 MLOAD PUSH3 0x461BCD PUSH1 0xE5 SHL DUP2 MSTORE PUSH1 0x20 PUSH1 0x4 DUP3 ADD MSTORE PUSH1 0xE PUSH1 0x24 DUP3 ADD MSTORE PUSH14 0x24B73B30B634B21037B83A34B7B7 PUSH1 0x91 SHL PUSH1 0x44 DUP3 ADD MSTORE PUSH1 0x64 ADD PUSH2 0x399 JUMP JUMPDEST PUSH1 0x0 DUP3 DUP2 MSTORE PUSH1 0x4 PUSH1 0x20 MSTORE PUSH1 0x40 SWAP1 KECCAK256 SLOAD PUSH1 0xFF AND PUSH2 0x568 JUMPI PUSH1 0x40 MLOAD PUSH3 0x461BCD PUSH1 0xE5 SHL DUP2 MSTORE PUSH1 0x20 PUSH1 0x4 DUP3 ADD MSTORE PUSH1 0x18 PUSH1 0x24 DUP3 ADD MSTORE PUSH32 0x50726F6A656374206973206E6F7420726576696577696E670000000000000000 PUSH1 0x44 DUP3 ADD MSTORE PUSH1 0x64 ADD PUSH2 0x399 JUMP JUMPDEST PUSH1 0x0 DUP3 DUP2 MSTORE PUSH1 0x3 PUSH1 0x20 MSTORE PUSH1 0x40 DUP2 KECCAK256 DUP1 SLOAD PUSH2 0x584 SWAP1 PUSH1 0x1 SWAP1 PUSH2 0xBEA JUMP JUMPDEST DUP2 SLOAD DUP2 LT PUSH2 0x594 JUMPI PUSH2 0x594 PUSH2 0xBFD JUMP JUMPDEST PUSH1 0x0 SWAP2 DUP3 MSTORE PUSH1 0x20 DUP1 DUP4 KECCAK256 PUSH1 0x6 SWAP3 DUP4 MUL ADD SLOAD CALLER DUP5 MSTORE SWAP2 DUP2 MSTORE PUSH1 0x40 DUP1 DUP5 KECCAK256 DUP4 DUP6 MSTORE SWAP1 SWAP2 MSTORE SWAP1 SWAP2 KECCAK256 SLOAD SWAP1 SWAP2 POP PUSH1 0xFF AND ISZERO PUSH2 0x5FD JUMPI PUSH1 0x40 MLOAD PUSH3 0x461BCD PUSH1 0xE5 SHL DUP2 MSTORE PUSH1 0x20 PUSH1 0x4 DUP3 ADD MSTORE PUSH1 0xD PUSH1 0x24 DUP3 ADD MSTORE PUSH13 0x105B1C9958591E481D9BDD1959 PUSH1 0x9A SHL PUSH1 0x44 DUP3 ADD MSTORE PUSH1 0x64 ADD PUSH2 0x399 JUMP JUMPDEST PUSH1 0x0 DUP4 DUP2 MSTORE PUSH1 0x3 PUSH1 0x20 MSTORE PUSH1 0x40 SWAP1 KECCAK256 DUP1 SLOAD PUSH2 0x619 SWAP1 PUSH1 0x1 SWAP1 PUSH2 0xBEA JUMP JUMPDEST DUP2 SLOAD DUP2 LT PUSH2 0x629 JUMPI PUSH2 0x629 PUSH2 0xBFD JUMP JUMPDEST SWAP1 PUSH1 0x0 MSTORE PUSH1 0x20 PUSH1 0x0 KECCAK256 SWAP1 PUSH1 0x6 MUL ADD PUSH1 0x3 ADD SLOAD TIMESTAMP GT ISZERO PUSH2 0x666 JUMPI PUSH1 0x0 DUP4 DUP2 MSTORE PUSH1 0x4 PUSH1 0x20 MSTORE PUSH1 0x40 SWAP1 KECCAK256 DUP1 SLOAD PUSH1 0xFF NOT AND SWAP1 SSTORE PUSH2 0x661 DUP4 PUSH2 0x90A JUMP JUMPDEST POP POP POP JUMP JUMPDEST CALLER PUSH1 0x0 SWAP1 DUP2 MSTORE PUSH1 0x6 PUSH1 0x20 SWAP1 DUP2 MSTORE PUSH1 0x40 DUP1 DUP4 KECCAK256 DUP5 DUP5 MSTORE DUP3 MSTORE DUP1 DUP4 KECCAK256 DUP1 SLOAD PUSH1 0xFF NOT AND PUSH1 0x1 SWAP1 DUP2 OR SWAP1 SWAP2 SSTORE DUP7 DUP5 MSTORE PUSH1 0x3 SWAP1 SWAP3 MSTORE SWAP1 SWAP2 KECCAK256 DUP1 SLOAD DUP5 SWAP3 PUSH2 0x6A6 SWAP2 PUSH2 0xBEA JUMP JUMPDEST DUP2 SLOAD DUP2 LT PUSH2 0x6B6 JUMPI PUSH2 0x6B6 PUSH2 0xBFD JUMP JUMPDEST SWAP1 PUSH1 0x0 MSTORE PUSH1 0x20 PUSH1 0x0 KECCAK256 SWAP1 PUSH1 0x6 MUL ADD PUSH1 0x4 ADD PUSH1 0x0 DUP3 DUP3 SLOAD PUSH2 0x6D6 SWAP2 SWAP1 PUSH2 0xBD1 JUMP JUMPDEST SWAP1 SWAP2 SSTORE POP POP PUSH1 0x0 DUP4 DUP2 MSTORE PUSH1 0x3 PUSH1 0x20 MSTORE PUSH1 0x40 SWAP1 KECCAK256 DUP1 SLOAD PUSH2 0x6F7 SWAP1 PUSH1 0x1 SWAP1 PUSH2 0xBEA JUMP JUMPDEST DUP2 SLOAD DUP2 LT PUSH2 0x707 JUMPI PUSH2 0x707 PUSH2 0xBFD JUMP JUMPDEST PUSH1 0x0 SWAP2 DUP3 MSTORE PUSH1 0x20 DUP3 KECCAK256 PUSH1 0x5 PUSH1 0x6 SWAP1 SWAP3 MUL ADD ADD DUP1 SLOAD SWAP2 PUSH2 0x725 DUP4 PUSH2 0xBB8 JUMP JUMPDEST SWAP1 SWAP2 SSTORE POP POP CALLER PUSH1 0x0 DUP2 DUP2 MSTORE PUSH1 0x5 PUSH1 0x20 SWAP1 DUP2 MSTORE PUSH1 0x40 DUP1 DUP4 KECCAK256 DUP2 MLOAD PUSH1 0x60 DUP2 ADD DUP4 MSTORE SWAP5 DUP6 MSTORE DUP5 DUP4 ADD DUP9 DUP2 MSTORE DUP6 DUP4 ADD DUP9 DUP2 MSTORE DUP3 SLOAD PUSH1 0x1 DUP1 DUP3 ADD DUP6 SSTORE SWAP4 DUP8 MSTORE SWAP5 SWAP1 SWAP6 KECCAK256 SWAP6 MLOAD PUSH1 0x3 SWAP1 SWAP5 MUL SWAP1 SWAP6 ADD DUP1 SLOAD PUSH1 0x1 PUSH1 0x1 PUSH1 0xA0 SHL SUB NOT AND PUSH1 0x1 PUSH1 0x1 PUSH1 0xA0 SHL SUB SWAP5 DUP6 AND OR DUP2 SSTORE SWAP5 MLOAD DUP6 DUP3 ADD SSTORE SWAP3 MLOAD PUSH1 0x2 SWAP1 SWAP5 ADD SWAP4 SWAP1 SWAP4 SSTORE SWAP1 SLOAD SWAP2 MLOAD PUSH4 0x6F7BAB71 PUSH1 0xE1 SHL DUP2 MSTORE PUSH1 0x4 DUP2 ADD DUP7 SWAP1 MSTORE SWAP2 AND SWAP1 PUSH4 0xDEF756E2 SWAP1 PUSH1 0x24 ADD PUSH1 0x20 PUSH1 0x40 MLOAD DUP1 DUP4 SUB DUP2 DUP7 GAS STATICCALL ISZERO DUP1 ISZERO PUSH2 0x7D6 JUMPI RETURNDATASIZE PUSH1 0x0 DUP1 RETURNDATACOPY RETURNDATASIZE PUSH1 0x0 REVERT JUMPDEST POP POP POP POP PUSH1 0x40 MLOAD RETURNDATASIZE PUSH1 0x1F NOT PUSH1 0x1F DUP3 ADD AND DUP3 ADD DUP1 PUSH1 0x40 MSTORE POP DUP2 ADD SWAP1 PUSH2 0x7FA SWAP2 SWAP1 PUSH2 0xC13 JUMP JUMPDEST PUSH1 0x0 DUP5 DUP2 MSTORE PUSH1 0x3 PUSH1 0x20 MSTORE PUSH1 0x40 SWAP1 KECCAK256 DUP1 SLOAD PUSH2 0x816 SWAP1 PUSH1 0x1 SWAP1 PUSH2 0xBEA JUMP JUMPDEST DUP2 SLOAD DUP2 LT PUSH2 0x826 JUMPI PUSH2 0x826 PUSH2 0xBFD JUMP JUMPDEST SWAP1 PUSH1 0x0 MSTORE PUSH1 0x20 PUSH1 0x0 KECCAK256 SWAP1 PUSH1 0x6 MUL ADD PUSH1 0x5 ADD SLOAD SUB PUSH2 0x661 JUMPI PUSH1 0x0 DUP4 DUP2 MSTORE PUSH1 0x4 PUSH1 0x20 MSTORE PUSH1 0x40 SWAP1 KECCAK256 DUP1 SLOAD PUSH1 0xFF NOT AND SWAP1 SSTORE PUSH2 0x661 DUP4 PUSH2 0x90A JUMP JUMPDEST PUSH1 0x60 PUSH1 0x3 PUSH1 0x0 DUP4 DUP2 MSTORE PUSH1 0x20 ADD SWAP1 DUP2 MSTORE PUSH1 0x20 ADD PUSH1 0x0 KECCAK256 DUP1 SLOAD DUP1 PUSH1 0x20 MUL PUSH1 0x20 ADD PUSH1 0x40 MLOAD SWAP1 DUP2 ADD PUSH1 0x40 MSTORE DUP1 SWAP3 SWAP2 SWAP1 DUP2 DUP2 MSTORE PUSH1 0x20 ADD PUSH1 0x0 SWAP1 JUMPDEST DUP3 DUP3 LT ISZERO PUSH2 0x8FF JUMPI DUP4 DUP3 SWAP1 PUSH1 0x0 MSTORE PUSH1 0x20 PUSH1 0x0 KECCAK256 SWAP1 PUSH1 0x6 MUL ADD PUSH1 0x40 MLOAD DUP1 PUSH1 0xC0 ADD PUSH1 0x40 MSTORE SWAP1 DUP2 PUSH1 0x0 DUP3 ADD SLOAD DUP2 MSTORE PUSH1 0x20 ADD PUSH1 0x1 DUP3 ADD SLOAD DUP2 MSTORE PUSH1 0x20 ADD PUSH1 0x2 DUP3 ADD SLOAD DUP2 MSTORE PUSH1 0x20 ADD PUSH1 0x3 DUP3 ADD SLOAD DUP2 MSTORE PUSH1 0x20 ADD PUSH1 0x4 DUP3 ADD SLOAD DUP2 MSTORE PUSH1 0x20 ADD PUSH1 0x5 DUP3 ADD SLOAD DUP2 MSTORE POP POP DUP2 MSTORE PUSH1 0x20 ADD SWAP1 PUSH1 0x1 ADD SWAP1 PUSH2 0x891 JUMP JUMPDEST POP POP POP POP SWAP1 POP SWAP2 SWAP1 POP JUMP JUMPDEST PUSH1 0x0 DUP2 DUP2 MSTORE PUSH1 0x3 PUSH1 0x20 MSTORE PUSH1 0x40 SWAP1 KECCAK256 DUP1 SLOAD PUSH1 0x2 SWAP2 SWAP1 PUSH2 0x92A SWAP1 PUSH1 0x1 SWAP1 PUSH2 0xBEA JUMP JUMPDEST DUP2 SLOAD DUP2 LT PUSH2 0x93A JUMPI PUSH2 0x93A PUSH2 0xBFD JUMP JUMPDEST SWAP1 PUSH1 0x0 MSTORE PUSH1 0x20 PUSH1 0x0 KECCAK256 SWAP1 PUSH1 0x6 MUL ADD PUSH1 0x5 ADD SLOAD PUSH2 0x956 SWAP2 SWAP1 PUSH2 0xC2C JUMP JUMPDEST PUSH1 0x0 DUP3 DUP2 MSTORE PUSH1 0x3 PUSH1 0x20 MSTORE PUSH1 0x40 SWAP1 KECCAK256 DUP1 SLOAD PUSH2 0x972 SWAP1 PUSH1 0x1 SWAP1 PUSH2 0xBEA JUMP JUMPDEST DUP2 SLOAD DUP2 LT PUSH2 0x982 JUMPI PUSH2 0x982 PUSH2 0xBFD JUMP JUMPDEST SWAP1 PUSH1 0x0 MSTORE PUSH1 0x20 PUSH1 0x0 KECCAK256 SWAP1 PUSH1 0x6 MUL ADD PUSH1 0x4 ADD SLOAD GT ISZERO PUSH2 0xA28 JUMPI PUSH1 0x1 SLOAD PUSH1 0x0 DUP3 DUP2 MSTORE PUSH1 0x3 PUSH1 0x20 MSTORE PUSH1 0x40 SWAP1 DUP2 SWAP1 KECCAK256 SLOAD SWAP1 MLOAD PUSH1 0x1 PUSH3 0x3C68D9 PUSH1 0xE1 SHL SUB NOT DUP2 MSTORE PUSH1 0x4 DUP2 ADD DUP5 SWAP1 MSTORE PUSH1 0x24 DUP2 ADD SWAP2 SWAP1 SWAP2 MSTORE PUSH1 0x1 PUSH1 0x1 PUSH1 0xA0 SHL SUB SWAP1 SWAP2 AND SWAP1 PUSH4 0xFF872E4E SWAP1 PUSH1 0x44 ADD PUSH1 0x20 PUSH1 0x40 MLOAD DUP1 DUP4 SUB DUP2 PUSH1 0x0 DUP8 GAS CALL ISZERO DUP1 ISZERO PUSH2 0xA00 JUMPI RETURNDATASIZE PUSH1 0x0 DUP1 RETURNDATACOPY RETURNDATASIZE PUSH1 0x0 REVERT JUMPDEST POP POP POP POP PUSH1 0x40 MLOAD RETURNDATASIZE PUSH1 0x1F NOT PUSH1 0x1F DUP3 ADD AND DUP3 ADD DUP1 PUSH1 0x40 MSTORE POP DUP2 ADD SWAP1 PUSH2 0xA24 SWAP2 SWAP1 PUSH2 0xB79 JUMP JUMPDEST POP POP JUMP JUMPDEST PUSH1 0x1 SLOAD PUSH1 0x40 MLOAD PUSH4 0x1D8394BD PUSH1 0xE0 SHL DUP2 MSTORE PUSH1 0x4 DUP2 ADD DUP4 SWAP1 MSTORE PUSH1 0x1 PUSH1 0x1 PUSH1 0xA0 SHL SUB SWAP1 SWAP2 AND SWAP1 PUSH4 0x1D8394BD SWAP1 PUSH1 0x24 ADD PUSH1 0x0 PUSH1 0x40 MLOAD DUP1 DUP4 SUB DUP2 PUSH1 0x0 DUP8 DUP1 EXTCODESIZE ISZERO DUP1 ISZERO PUSH2 0xA6E JUMPI PUSH1 0x0 DUP1 REVERT JUMPDEST POP GAS CALL ISZERO DUP1 ISZERO PUSH2 0xA82 JUMPI RETURNDATASIZE PUSH1 0x0 DUP1 RETURNDATACOPY RETURNDATASIZE PUSH1 0x0 REVERT JUMPDEST POP POP POP POP POP JUMP JUMPDEST PUSH1 0x0 DUP1 PUSH1 0x40 DUP4 DUP6 SUB SLT ISZERO PUSH2 0xA9C JUMPI PUSH1 0x0 DUP1 REVERT JUMPDEST DUP3 CALLDATALOAD PUSH1 0x1 PUSH1 0x1 PUSH1 0xA0 SHL SUB DUP2 AND DUP2 EQ PUSH2 0xAB3 JUMPI PUSH1 0x0 DUP1 REVERT JUMPDEST SWAP5 PUSH1 0x20 SWAP4 SWAP1 SWAP4 ADD CALLDATALOAD SWAP4 POP POP POP JUMP JUMPDEST PUSH1 0x0 DUP1 PUSH1 0x40 DUP4 DUP6 SUB SLT ISZERO PUSH2 0xAD4 JUMPI PUSH1 0x0 DUP1 REVERT JUMPDEST POP POP DUP1 CALLDATALOAD SWAP3 PUSH1 0x20 SWAP1 SWAP2 ADD CALLDATALOAD SWAP2 POP JUMP JUMPDEST PUSH1 0x0 PUSH1 0x20 DUP3 DUP5 SUB SLT ISZERO PUSH2 0xAF5 JUMPI PUSH1 0x0 DUP1 REVERT JUMPDEST POP CALLDATALOAD SWAP2 SWAP1 POP JUMP JUMPDEST PUSH1 0x20 DUP1 DUP3 MSTORE DUP3 MLOAD DUP3 DUP3 ADD DUP2 SWAP1 MSTORE PUSH1 0x0 SWAP2 DUP5 ADD SWAP1 PUSH1 0x40 DUP5 ADD SWAP1 DUP4 JUMPDEST DUP2 DUP2 LT ISZERO PUSH2 0xB6E JUMPI DUP4 MLOAD DUP1 MLOAD DUP5 MSTORE PUSH1 0x20 DUP2 ADD MLOAD PUSH1 0x20 DUP6 ADD MSTORE PUSH1 0x40 DUP2 ADD MLOAD PUSH1 0x40 DUP6 ADD MSTORE PUSH1 0x60 DUP2 ADD MLOAD PUSH1 0x60 DUP6 ADD MSTORE PUSH1 0x80 DUP2 ADD MLOAD PUSH1 0x80 DUP6 ADD MSTORE PUSH1 0xA0 DUP2 ADD MLOAD PUSH1 0xA0 DUP6 ADD MSTORE POP PUSH1 0xC0 DUP4 ADD SWAP3 POP PUSH1 0x20 DUP5 ADD SWAP4 POP PUSH1 0x1 DUP2 ADD SWAP1 POP PUSH2 0xB16 JUMP JUMPDEST POP SWAP1 SWAP6 SWAP5 POP POP POP POP POP JUMP JUMPDEST PUSH1 0x0 PUSH1 0x20 DUP3 DUP5 SUB SLT ISZERO PUSH2 0xB8B JUMPI PUSH1 0x0 DUP1 REVERT JUMPDEST DUP2 MLOAD DUP1 ISZERO ISZERO DUP2 EQ PUSH2 0xB9B JUMPI PUSH1 0x0 DUP1 REVERT JUMPDEST SWAP4 SWAP3 POP POP POP JUMP JUMPDEST PUSH4 0x4E487B71 PUSH1 0xE0 SHL PUSH1 0x0 MSTORE PUSH1 0x11 PUSH1 0x4 MSTORE PUSH1 0x24 PUSH1 0x0 REVERT JUMPDEST PUSH1 0x0 PUSH1 0x1 DUP3 ADD PUSH2 0xBCA JUMPI PUSH2 0xBCA PUSH2 0xBA2 JUMP JUMPDEST POP PUSH1 0x1 ADD SWAP1 JUMP JUMPDEST DUP1 DUP3 ADD DUP1 DUP3 GT ISZERO PUSH2 0xBE4 JUMPI PUSH2 0xBE4 PUSH2 0xBA2 JUMP JUMPDEST SWAP3 SWAP2 POP POP JUMP JUMPDEST DUP2 DUP2 SUB DUP2 DUP2 GT ISZERO PUSH2 0xBE4 JUMPI PUSH2 0xBE4 PUSH2 0xBA2 JUMP JUMPDEST PUSH4 0x4E487B71 PUSH1 0xE0 SHL PUSH1 0x0 MSTORE PUSH1 0x32 PUSH1 0x4 MSTORE PUSH1 0x24 PUSH1 0x0 REVERT JUMPDEST PUSH1 0x0 PUSH1 0x20 DUP3 DUP5 SUB SLT ISZERO PUSH2 0xC25 JUMPI PUSH1 0x0 DUP1 REVERT JUMPDEST POP MLOAD SWAP2 SWAP1 POP JUMP JUMPDEST PUSH1 0x0 DUP3 PUSH2 0xC49 JUMPI PUSH4 0x4E487B71 PUSH1 0xE0 SHL PUSH1 0x0 MSTORE PUSH1 0x12 PUSH1 0x4 MSTORE PUSH1 0x24 PUSH1 0x0 REVERT JUMPDEST POP DIV SWAP1 JUMP INVALID LOG2 PUSH5 0x6970667358 0x22 SLT KECCAK256 0x24 PUSH29 0x56EAE180C46E52EF665E6F2095F2C5F08799ED3FBADC16CCC9487584CB 0xBD PUSH5 0x736F6C6343 STOP ADDMOD BYTE STOP CALLER "},"methodIdentifiers":{"createFundReview(uint256)":"9fa264c8","fundAddress()":"e82bef29","fundContract()":"bd097e21","fundReviews(uint256,uint256)":"6e9212cf","getFundReviews(uint256)":"ea8467f9","hasVoted(address,uint256)":"42545825","isFundReviewing(uint256)":"bb95acc5","projectReviewing(uint256)":"7b90ba9d","vote(uint256,uint256)":"b384abef","votes(address,uint256)":"9f2524ee"}}}}}