{"src/contracts/Genesis.sol":{"Genesis":{"abi":[{"inputs":[{"internalType":"uint256","name":"_projectTax","type":"uint256"}],"stateMutability":"nonpayable","type":"constructor"},{"anonymous":false,"inputs":[{"indexed":false,"internalType":"uint256","name":"id","type":"uint256"},{"indexed":false,"internalType":"string","name":"actionType","type":"string"},{"indexed":true,"internalType":"address","name":"executor","type":"address"},{"indexed":false,"internalType":"uint256","name":"timestamp","type":"uint256"}],"name":"Action","type":"event"},{"inputs":[{"internalType":"address","name":"_newCreator","type":"address"}],"name":"addCreator","outputs":[],"stateMutability":"nonpayable","type":"function"},{"inputs":[{"internalType":"uint256","name":"id","type":"uint256"}],"name":"backProject","outputs":[{"internalType":"bool","name":"","type":"bool"}],"stateMutability":"payable","type":"function"},{"inputs":[],"name":"balance","outputs":[{"internalType":"uint256","name":"","type":"uint256"}],"stateMutability":"view","type":"function"},{"inputs":[{"internalType":"uint256","name":"_taxPct","type":"uint256"}],"name":"changeTax","outputs":[],"stateMutability":"nonpayable","type":"function"},{"inputs":[{"internalType":"string","name":"title","type":"string"},{"internalType":"string","name":"description","type":"string"},{"internalType":"string","name":"imageURL","type":"string"},{"internalType":"uint256","name":"cost","type":"uint256"},{"internalType":"uint256","name":"expiresAt","type":"uint256"}],"name":"createProject","outputs":[{"internalType":"bool","name":"","type":"bool"}],"stateMutability":"nonpayable","type":"function"},{"inputs":[{"internalType":"uint256","name":"id","type":"uint256"}],"name":"deleteProject","outputs":[{"internalType":"bool","name":"","type":"bool"}],"stateMutability":"nonpayable","type":"function"},{"inputs":[{"internalType":"uint256","name":"id","type":"uint256"}],"name":"getBackers","outputs":[{"components":[{"internalType":"address","name":"owner","type":"address"},{"internalType":"uint256","name":"contributions","type":"uint256"},{"internalType":"uint256","name":"timestamp","type":"uint256"},{"internalType":"bool","name":"refunded","type":"bool"}],"internalType":"struct Genesis.backerStruct[]","name":"","type":"tuple[]"}],"stateMutability":"view","type":"function"},{"inputs":[{"internalType":"uint256","name":"id","type":"uint256"}],"name":"getProject","outputs":[{"components":[{"internalType":"uint256","name":"id","type":"uint256"},{"internalType":"address","name":"project","type":"address"},{"internalType":"address","name":"owner","type":"address"},{"internalType":"string","name":"title","type":"string"},{"internalType":"string","name":"description","type":"string"},{"internalType":"string","name":"imageURL","type":"string"},{"internalType":"uint256","name":"cost","type":"uint256"},{"internalType":"uint256","name":"raised","type":"uint256"},{"internalType":"uint256","name":"timestamp","type":"uint256"},{"internalType":"uint256","name":"expiresAt","type":"uint256"},{"internalType":"uint256","name":"backers","type":"uint256"},{"internalType":"enum Genesis.statusEnum","name":"status","type":"uint8"}],"internalType":"struct Genesis.projectStruct","name":"","type":"tuple"}],"stateMutability":"view","type":"function"},{"inputs":[],"name":"getProjects","outputs":[{"components":[{"internalType":"uint256","name":"id","type":"uint256"},{"internalType":"address","name":"project","type":"address"},{"internalType":"address","name":"owner","type":"address"},{"internalType":"string","name":"title","type":"string"},{"internalType":"string","name":"description","type":"string"},{"internalType":"string","name":"imageURL","type":"string"},{"internalType":"uint256","name":"cost","type":"uint256"},{"internalType":"uint256","name":"raised","type":"uint256"},{"internalType":"uint256","name":"timestamp","type":"uint256"},{"internalType":"uint256","name":"expiresAt","type":"uint256"},{"internalType":"uint256","name":"backers","type":"uint256"},{"internalType":"enum Genesis.statusEnum","name":"status","type":"uint8"}],"internalType":"struct Genesis.projectStruct[]","name":"","type":"tuple[]"}],"stateMutability":"view","type":"function"},{"inputs":[{"internalType":"address","name":"addr","type":"address"}],"name":"isAppOwner","outputs":[{"internalType":"bool","name":"","type":"bool"}],"stateMutability":"view","type":"function"},{"inputs":[],"name":"isAppOwner","outputs":[{"internalType":"bool","name":"","type":"bool"}],"stateMutability":"view","type":"function"},{"inputs":[{"internalType":"address","name":"","type":"address"}],"name":"isCreator","outputs":[{"internalType":"bool","name":"","type":"bool"}],"stateMutability":"view","type":"function"},{"inputs":[],"name":"owner","outputs":[{"internalType":"address","name":"","type":"address"}],"stateMutability":"view","type":"function"},{"inputs":[{"internalType":"uint256","name":"id","type":"uint256"}],"name":"payOutProject","outputs":[{"internalType":"bool","name":"","type":"bool"}],"stateMutability":"nonpayable","type":"function"},{"inputs":[],"name":"projectCount","outputs":[{"internalType":"uint256","name":"","type":"uint256"}],"stateMutability":"view","type":"function"},{"inputs":[{"internalType":"uint256","name":"","type":"uint256"}],"name":"projectExist","outputs":[{"internalType":"bool","name":"","type":"bool"}],"stateMutability":"view","type":"function"},{"inputs":[],"name":"projectTax","outputs":[{"internalType":"uint256","name":"","type":"uint256"}],"stateMutability":"view","type":"function"},{"inputs":[{"internalType":"uint256","name":"id","type":"uint256"}],"name":"requestRefund","outputs":[{"internalType":"bool","name":"","type":"bool"}],"stateMutability":"nonpayable","type":"function"},{"inputs":[],"name":"stats","outputs":[{"internalType":"uint256","name":"totalProject","type":"uint256"},{"internalType":"uint256","name":"totalBacking","type":"uint256"},{"internalType":"uint256","name":"totalDonations","type":"uint256"}],"stateMutability":"view","type":"function"},{"inputs":[{"internalType":"uint256","name":"id","type":"uint256"},{"internalType":"string","name":"title","type":"string"},{"internalType":"string","name":"description","type":"string"},{"internalType":"string","name":"imageURL","type":"string"},{"internalType":"uint256","name":"expiresAt","type":"uint256"}],"name":"updateProject","outputs":[{"internalType":"bool","name":"","type":"bool"}],"stateMutability":"nonpayable","type":"function"}],"evm":{"bytecode":{"linkReferences":{},"object":"608060405234801561001057600080fd5b506040516200258e3803806200258e8339810160408190526100319161004b565b600080546001600160a01b03191633179055600155610064565b60006020828403121561005d57600080fd5b5051919050565b61251a80620000746000396000f3fe60806040526004361061011f5760003560e01c8063a4b2409e116100a0578063d24cd3ec11610064578063d24cd3ec1461034c578063d80528ae14610362578063dcc601281461039c578063efd46065146103be578063f0f3f2c8146103ee57600080fd5b8063a4b2409e146102a9578063b531dcba146102c9578063b69ef8a8146102e9578063c9168b72146102ff578063ca766f641461032c57600080fd5b80634cd0cb28116100e75780634cd0cb28146101ee5780638593054b1461020e5780638da5cb5b1461023e5780639a3fa8c7146102765780639f39a1941461029657600080fd5b8063056c29ee146101245780631453d4821461015957806336fbad26146101885780633b9dce05146101ac5780633e45c8af146101ce575b600080fd5b34801561013057600080fd5b5061014461013f366004611f83565b61041b565b60405190151581526020015b60405180910390f35b34801561016557600080fd5b5061014461017436600461201d565b6000546001600160a01b0391821691161490565b34801561019457600080fd5b5061019e60025481565b604051908152602001610150565b3480156101b857600080fd5b506101cc6101c736600461201d565b610901565b005b3480156101da57600080fd5b506101cc6101e936600461204d565b6109cd565b3480156101fa57600080fd5b5061014461020936600461204d565b610a22565b34801561021a57600080fd5b5061014461022936600461204d565b600a6020526000908152604090205460ff1681565b34801561024a57600080fd5b5060005461025e906001600160a01b031681565b6040516001600160a01b039091168152602001610150565b34801561028257600080fd5b50610144610291366004612066565b610b75565b6101446102a436600461204d565b610e47565b3480156102b557600080fd5b506101446102c436600461204d565b61122b565b3480156102d557600080fd5b506101446102e436600461204d565b611322565b3480156102f557600080fd5b5061019e60035481565b34801561030b57600080fd5b5061031f61031a36600461204d565b61141a565b6040516101509190612100565b34801561033857600080fd5b506000546001600160a01b03163314610144565b34801561035857600080fd5b5061019e60015481565b34801561036e57600080fd5b5060045460055460065461038192919083565b60408051938452602084019290925290820152606001610150565b3480156103a857600080fd5b506103b16114e1565b60405161015091906122d6565b3480156103ca57600080fd5b506101446103d936600461201d565b600b6020526000908152604090205460ff1681565b3480156103fa57600080fd5b5061040e61040936600461204d565b61178c565b6040516101509190612338565b336000908152600b602052604081205460ff166104535760405162461bcd60e51b815260040161044a9061234b565b60405180910390fd5b600086511161049c5760405162461bcd60e51b81526020600482015260156024820152745469746c652063616e6e6f7420626520656d70747960581b604482015260640161044a565b60008551116104ed5760405162461bcd60e51b815260206004820152601b60248201527f4465736372697074696f6e2063616e6e6f7420626520656d7074790000000000604482015260640161044a565b60008451116105395760405162461bcd60e51b8152602060048201526018602482015277496d61676555524c2063616e6e6f7420626520656d70747960401b604482015260640161044a565b6000831161057f5760405162461bcd60e51b8152602060048201526013602482015272436f73742063616e6e6f74206265207a65726f60681b604482015260640161044a565b610587611dc4565b60025481523360408201908152606082018881526080830188905260a0830187905260c083018690524261010084015261012083018590526007805460018101825560009190915283517fa66cc928b5edb82af9bd49922954155ab7b0942694bea4ce44661d9a8736c688600c9092029182019081556020808601517fa66cc928b5edb82af9bd49922954155ab7b0942694bea4ce44661d9a8736c689840180546001600160a01b03199081166001600160a01b039384161790915595517fa66cc928b5edb82af9bd49922954155ab7b0942694bea4ce44661d9a8736c68a850180549097169116179094559151805185946106a7937fa66cc928b5edb82af9bd49922954155ab7b0942694bea4ce44661d9a8736c68b01920190611e47565b50608082015180516106c3916004840191602090910190611e47565b5060a082015180516106df916005840191602090910190611e47565b5060c0820151600682015560e0820151600782015561010082015160088201556101208201516009820155610140820151600a820155610160820151600b8201805460ff19166001836004811115610739576107396121bc565b021790555050600280546000908152600a602090815260408083208054600160ff1990911681179091553384526008835281842080548083018255908552938390208751600c909502019384558683015190840180546001600160a01b03199081166001600160a01b03938416179091559187015194840180549092169416939093179092556060840151805185945091926107dd92600385019290910190611e47565b50608082015180516107f9916004840191602090910190611e47565b5060a08201518051610815916005840191602090910190611e47565b5060c0820151600682015560e0820151600782015561010082015160088201556101208201516009820155610140820151600a820155610160820151600b8201805460ff1916600183600481111561086f5761086f6121bc565b0217905550505060016004600001600082825461088c9190612390565b90915550506002805433916000805160206124c5833981519152919060006108b3836123a8565b9091555060408051918252606060208301819052600e908301526d50524f4a4543542043524541544560901b6080830152429082015260a00160405180910390a25060019695505050505050565b6000546001600160a01b031633146109515760405162461bcd60e51b81526020600482015260136024820152724f776e6572207265736572766564206f6e6c7960681b604482015260640161044a565b6001600160a01b0381166000908152600b6020526040808220805460ff191660011790555133916000805160206124c5833981519152916109c291904290918252606060208301819052600d908301526c10d491505513d4881051111151609a1b6080830152604082015260a00190565b60405180910390a250565b6000546001600160a01b03163314610a1d5760405162461bcd60e51b81526020600482015260136024820152724f776e6572207265736572766564206f6e6c7960681b604482015260640161044a565b600155565b336000908152600b602052604081205460ff16610a515760405162461bcd60e51b815260040161044a9061234b565b6000828152600a602052604090205460ff16610a7f5760405162461bcd60e51b815260040161044a906123c3565b60078281548110610a9257610a926123ee565b60009182526020909120600c90910201600201546001600160a01b03163314610acd5760405162461bcd60e51b815260040161044a90612404565b600360078381548110610ae257610ae26123ee565b60009182526020909120600b600c9092020101805460ff19166001836004811115610b0f57610b0f6121bc565b0217905550610b1d82611a42565b60408051838152606060208201819052600f908201526e141493d29150d50811115311551151608a1b60808201524281830152905133916000805160206124c5833981519152919081900360a00190a2506001919050565b336000908152600b602052604081205460ff16610ba45760405162461bcd60e51b815260040161044a9061234b565b6000868152600a602052604090205460ff16610bd25760405162461bcd60e51b815260040161044a906123c3565b60078681548110610be557610be56123ee565b60009182526020909120600c90910201600201546001600160a01b03163314610c205760405162461bcd60e51b815260040161044a90612404565b6000855111610c695760405162461bcd60e51b81526020600482015260156024820152745469746c652063616e6e6f7420626520656d70747960581b604482015260640161044a565b6000845111610cba5760405162461bcd60e51b815260206004820152601b60248201527f4465736372697074696f6e2063616e6e6f7420626520656d7074790000000000604482015260640161044a565b6000835111610d065760405162461bcd60e51b8152602060048201526018602482015277496d61676555524c2063616e6e6f7420626520656d70747960401b604482015260640161044a565b8460078781548110610d1a57610d1a6123ee565b90600052602060002090600c02016003019080519060200190610d3e929190611e47565b508360078781548110610d5357610d536123ee565b90600052602060002090600c02016004019080519060200190610d77929190611e47565b508260078781548110610d8c57610d8c6123ee565b90600052602060002090600c02016005019080519060200190610db0929190611e47565b508160078781548110610dc557610dc56123ee565b90600052602060002090600c020160090181905550336001600160a01b03166000805160206124c58339815191528742604051610e33929190918252606060208301819052600f908301526e141493d29150d50815541110551151608a1b6080830152604082015260a00190565b60405180910390a250600195945050505050565b6000803411610e985760405162461bcd60e51b815260206004820152601f60248201527f4574686572206d7573742062652067726561746572207468616e207a65726f00604482015260640161044a565b6000828152600a602052604090205460ff16610ec65760405162461bcd60e51b815260040161044a906123c3565b600060078381548110610edb57610edb6123ee565b60009182526020909120600b600c90920201015460ff166004811115610f0357610f036121bc565b14610f465760405162461bcd60e51b8152602060048201526013602482015272283937b532b1ba1034b9903737ba1037b832b760691b604482015260640161044a565b600160046001016000828254610f5c9190612390565b909155505060068054349190600090610f76908490612390565b925050819055503460078381548110610f9157610f916123ee565b90600052602060002090600c02016007016000828254610fb19190612390565b92505081905550600160078381548110610fcd57610fcd6123ee565b90600052602060002090600c0201600a016000828254610fed9190612390565b9091555050600082815260096020908152604080832081516080808201845233808352348387019081524284870181815260608087018b8152885460018082018b55998d529b8b902097516004909c0290970180546001600160a01b0319166001600160a01b03909c169b909b178b559251968a01969096559451600289015592516003909701805460ff1916971515979097179096558351888152948501829052600e918501919091526d141493d29150d508109050d2d15160921b90840152908201526000805160206124c58339815191529060a00160405180910390a2600782815481106110e0576110e06123ee565b90600052602060002090600c02016006015460078381548110611105576111056123ee565b90600052602060002090600c020160070154106111b057600160078381548110611131576111316123ee565b60009182526020909120600b600c9092020101805460ff1916600183600481111561115e5761115e6121bc565b021790555060078281548110611176576111766123ee565b90600052602060002090600c020160070154600360008282546111999190612390565b909155506111a8905082611be9565b506001919050565b600782815481106111c3576111c36123ee565b90600052602060002090600c02016009015442106111a8576002600783815481106111f0576111f06123ee565b60009182526020909120600b600c9092020101805460ff1916600183600481111561121d5761121d6121bc565b02179055506111a882611a42565b6000600260078381548110611242576112426123ee565b60009182526020909120600b600c90920201015460ff16600481111561126a5761126a6121bc565b1415806112b25750600360078381548110611287576112876123ee565b60009182526020909120600b600c90920201015460ff1660048111156112af576112af6121bc565b14155b61130d5760405162461bcd60e51b815260206004820152602660248201527f50726f6a65637420686173206d61726b656420617320726576657274206f722060448201526564656c65746560d01b606482015260840161044a565b6002600783815481106111f0576111f06123ee565b6000600160078381548110611339576113396123ee565b60009182526020909120600b600c90920201015460ff166004811115611361576113616121bc565b146113ae5760405162461bcd60e51b815260206004820152601b60248201527f50726f6a656374206973206e6f7420617070726f766564207965740000000000604482015260640161044a565b600782815481106113c1576113c16123ee565b60009182526020909120600c90910201600201546001600160a01b03163314806113f557506000546001600160a01b031633145b6114115760405162461bcd60e51b815260040161044a90612404565b6111a882611be9565b6000818152600a602052604090205460609060ff1661144b5760405162461bcd60e51b815260040161044a906123c3565b600082815260096020908152604080832080548251818502810185019093528083529193909284015b828210156114d6576000848152602090819020604080516080810182526004860290920180546001600160a01b03168352600180820154848601526002820154928401929092526003015460ff16151560608301529083529092019101611474565b505050509050919050565b60606007805480602002602001604051908101604052809291908181526020016000905b828210156117835760008481526020908190206040805161018081018252600c86029092018054835260018101546001600160a01b039081169484019490945260028101549093169082015260038201805491929160608401919061156990612431565b80601f016020809104026020016040519081016040528092919081815260200182805461159590612431565b80156115e25780601f106115b7576101008083540402835291602001916115e2565b820191906000526020600020905b8154815290600101906020018083116115c557829003601f168201915b505050505081526020016004820180546115fb90612431565b80601f016020809104026020016040519081016040528092919081815260200182805461162790612431565b80156116745780601f1061164957610100808354040283529160200191611674565b820191906000526020600020905b81548152906001019060200180831161165757829003601f168201915b5050505050815260200160058201805461168d90612431565b80601f01602080910402602001604051908101604052809291908181526020018280546116b990612431565b80156117065780601f106116db57610100808354040283529160200191611706565b820191906000526020600020905b8154815290600101906020018083116116e957829003601f168201915b505050918352505060068201546020820152600782015460408201526008820154606082015260098201546080820152600a82015460a0820152600b82015460c09091019060ff16600481111561175f5761175f6121bc565b6004811115611770576117706121bc565b8152505081526020019060010190611505565b50505050905090565b611794611dc4565b6000828152600a602052604090205460ff166117c25760405162461bcd60e51b815260040161044a906123c3565b600782815481106117d5576117d56123ee565b60009182526020918290206040805161018081018252600c9093029091018054835260018101546001600160a01b039081169484019490945260028101549093169082015260038201805491929160608401919061183290612431565b80601f016020809104026020016040519081016040528092919081815260200182805461185e90612431565b80156118ab5780601f10611880576101008083540402835291602001916118ab565b820191906000526020600020905b81548152906001019060200180831161188e57829003601f168201915b505050505081526020016004820180546118c490612431565b80601f01602080910402602001604051908101604052809291908181526020018280546118f090612431565b801561193d5780601f106119125761010080835404028352916020019161193d565b820191906000526020600020905b81548152906001019060200180831161192057829003601f168201915b5050505050815260200160058201805461195690612431565b80601f016020809104026020016040519081016040528092919081815260200182805461198290612431565b80156119cf5780601f106119a4576101008083540402835291602001916119cf565b820191906000526020600020905b8154815290600101906020018083116119b257829003601f168201915b505050918352505060068201546020820152600782015460408201526008820154606082015260098201546080820152600a82015460a0820152600b82015460c09091019060ff166004811115611a2857611a286121bc565b6004811115611a3957611a396121bc565b90525092915050565b60005b600082815260096020526040902054811015611be5576000828152600960205260408120805483908110611a7b57611a7b6123ee565b6000918252602080832060049092029091015485835260099091526040822080546001600160a01b0390921693509084908110611aba57611aba6123ee565b90600052602060002090600402016001015490506001600960008681526020019081526020016000208481548110611af457611af46123ee565b906000526020600020906004020160030160006101000a81548160ff02191690831515021790555042600960008681526020019081526020016000208481548110611b4157611b416123ee565b906000526020600020906004020160020181905550611b608282611d5f565b8060078581548110611b7457611b746123ee565b90600052602060002090600c02016007016000828254611b94919061246c565b90915550506005805460019190600090611baf90849061246c565b909155505060068054829190600090611bc990849061246c565b9250508190555050508080611bdd906123a8565b915050611a45565b5050565b600060078281548110611bfe57611bfe6123ee565b90600052602060002090600c02016007015490506000606460015483611c249190612483565b611c2e91906124a2565b9050600460078481548110611c4557611c456123ee565b60009182526020909120600b600c9092020101805460ff19166001836004811115611c7257611c726121bc565b0217905550600054611c8d906001600160a01b031682611d5f565b611ccf60078481548110611ca357611ca36123ee565b600091825260209091206002600c9092020101546001600160a01b0316611cca838561246c565b611d5f565b60078381548110611ce257611ce26123ee565b90600052602060002090600c02016007015460036000828254611d05919061246c565b909155505060408051848152606060208201819052600f908201526e141493d29150d5081410525113d555608a1b60808201524281830152905133916000805160206124c5833981519152919081900360a00190a2505050565b6000826001600160a01b03168260405160006040518083038185875af1925050503d8060008114611dac576040519150601f19603f3d011682016040523d82523d6000602084013e611db1565b606091505b5050905080611dbf57600080fd5b505050565b6040518061018001604052806000815260200160006001600160a01b0316815260200160006001600160a01b03168152602001606081526020016060815260200160608152602001600081526020016000815260200160008152602001600081526020016000815260200160006004811115611e4257611e426121bc565b905290565b828054611e5390612431565b90600052602060002090601f016020900481019282611e755760008555611ebb565b82601f10611e8e57805160ff1916838001178555611ebb565b82800160010185558215611ebb579182015b82811115611ebb578251825591602001919060010190611ea0565b50611ec7929150611ecb565b5090565b5b80821115611ec75760008155600101611ecc565b634e487b7160e01b600052604160045260246000fd5b600082601f830112611f0757600080fd5b813567ffffffffffffffff80821115611f2257611f22611ee0565b604051601f8301601f19908116603f01168101908282118183101715611f4a57611f4a611ee0565b81604052838152866020858801011115611f6357600080fd5b836020870160208301376000602085830101528094505050505092915050565b600080600080600060a08688031215611f9b57600080fd5b853567ffffffffffffffff80821115611fb357600080fd5b611fbf89838a01611ef6565b96506020880135915080821115611fd557600080fd5b611fe189838a01611ef6565b95506040880135915080821115611ff757600080fd5b5061200488828901611ef6565b9598949750949560608101359550608001359392505050565b60006020828403121561202f57600080fd5b81356001600160a01b038116811461204657600080fd5b9392505050565b60006020828403121561205f57600080fd5b5035919050565b600080600080600060a0868803121561207e57600080fd5b85359450602086013567ffffffffffffffff8082111561209d57600080fd5b6120a989838a01611ef6565b955060408801359150808211156120bf57600080fd5b6120cb89838a01611ef6565b945060608801359150808211156120e157600080fd5b506120ee88828901611ef6565b95989497509295608001359392505050565b602080825282518282018190526000919060409081850190868401855b8281101561216257815180516001600160a01b03168552868101518786015285810151868601526060908101511515908501526080909301929085019060010161211d565b5091979650505050505050565b6000815180845260005b8181101561219557602081850181015186830182015201612179565b818111156121a7576000602083870101525b50601f01601f19169290920160200192915050565b634e487b7160e01b600052602160045260246000fd5b600581106121f057634e487b7160e01b600052602160045260246000fd5b9052565b600061018082518452602083015161221760208601826001600160a01b03169052565b50604083015161223260408601826001600160a01b03169052565b50606083015181606086015261224a8286018261216f565b91505060808301518482036080860152612264828261216f565b91505060a083015184820360a086015261227e828261216f565b91505060c083015160c085015260e083015160e0850152610100808401518186015250610120808401518186015250610140808401518186015250610160808401516122cc828701826121d2565b5090949350505050565b6000602080830181845280855180835260408601915060408160051b870101925083870160005b8281101561232b57603f198886030184526123198583516121f4565b945092850192908501906001016122fd565b5092979650505050505050565b60208152600061204660208301846121f4565b60208082526015908201527443726561746f72207265736572766564206f6e6c7960581b604082015260600190565b634e487b7160e01b600052601160045260246000fd5b600082198211156123a3576123a361237a565b500190565b60006000198214156123bc576123bc61237a565b5060010190565b602080825260119082015270141c9bda9958dd081b9bdd08199bdd5b99607a1b604082015260600190565b634e487b7160e01b600052603260045260246000fd5b602080825260139082015272556e617574686f72697a656420456e7469747960681b604082015260600190565b600181811c9082168061244557607f821691505b6020821081141561246657634e487b7160e01b600052602260045260246000fd5b50919050565b60008282101561247e5761247e61237a565b500390565b600081600019048311821515161561249d5761249d61237a565b500290565b6000826124bf57634e487b7160e01b600052601260045260246000fd5b50049056feaee8e5d3bbb2f71a951b5632cee20f7ac487b9f8ab4f66a236f7694b13af7c6aa2646970667358221220707cfba05df5e789bf3b8c3049170b8b3db1cdf958903c00843649a5795f882c64736f6c634300080b0033","opcodes":"PUSH1 0x80 PUSH1 0x40 MSTORE CALLVALUE DUP1 ISZERO PUSH2 0x10 JUMPI PUSH1 0x0 DUP1 REVERT JUMPDEST POP PUSH1 0x40 MLOAD PUSH3 0x258E CODESIZE SUB DUP1 PUSH3 0x258E DUP4 CODECOPY DUP2 ADD PUSH1 0x40 DUP2 SWAP1 MSTORE PUSH2 0x31 SWAP2 PUSH2 0x4B JUMP JUMPDEST PUSH1 0x0 DUP1 SLOAD PUSH1 0x1 PUSH1 0x1 PUSH1 0xA0 SHL SUB NOT AND CALLER OR SWAP1 SSTORE PUSH1 0x1 SSTORE PUSH2 0x64 JUMP JUMPDEST PUSH1 0x0 PUSH1 0x20 DUP3 DUP5 SUB SLT ISZERO PUSH2 0x5D JUMPI PUSH1 0x0 DUP1 REVERT JUMPDEST POP MLOAD SWAP2 SWAP1 POP JUMP JUMPDEST PUSH2 0x251A DUP1 PUSH3 0x74 PUSH1 0x0 CODECOPY PUSH1 0x0 RETURN INVALID PUSH1 0x80 PUSH1 0x40 MSTORE PUSH1 0x4 CALLDATASIZE LT PUSH2 0x11F JUMPI PUSH1 0x0 CALLDATALOAD PUSH1 0xE0 SHR DUP1 PUSH4 0xA4B2409E GT PUSH2 0xA0 JUMPI DUP1 PUSH4 0xD24CD3EC GT PUSH2 0x64 JUMPI DUP1 PUSH4 0xD24CD3EC EQ PUSH2 0x34C JUMPI DUP1 PUSH4 0xD80528AE EQ PUSH2 0x362 JUMPI DUP1 PUSH4 0xDCC60128 EQ PUSH2 0x39C JUMPI DUP1 PUSH4 0xEFD46065 EQ PUSH2 0x3BE JUMPI DUP1 PUSH4 0xF0F3F2C8 EQ PUSH2 0x3EE JUMPI PUSH1 0x0 DUP1 REVERT JUMPDEST DUP1 PUSH4 0xA4B2409E EQ PUSH2 0x2A9 JUMPI DUP1 PUSH4 0xB531DCBA EQ PUSH2 0x2C9 JUMPI DUP1 PUSH4 0xB69EF8A8 EQ PUSH2 0x2E9 JUMPI DUP1 PUSH4 0xC9168B72 EQ PUSH2 0x2FF JUMPI DUP1 PUSH4 0xCA766F64 EQ PUSH2 0x32C JUMPI PUSH1 0x0 DUP1 REVERT JUMPDEST DUP1 PUSH4 0x4CD0CB28 GT PUSH2 0xE7 JUMPI DUP1 PUSH4 0x4CD0CB28 EQ PUSH2 0x1EE JUMPI DUP1 PUSH4 0x8593054B EQ PUSH2 0x20E JUMPI DUP1 PUSH4 0x8DA5CB5B EQ PUSH2 0x23E JUMPI DUP1 PUSH4 0x9A3FA8C7 EQ PUSH2 0x276 JUMPI DUP1 PUSH4 0x9F39A194 EQ PUSH2 0x296 JUMPI PUSH1 0x0 DUP1 REVERT JUMPDEST DUP1 PUSH4 0x56C29EE EQ PUSH2 0x124 JUMPI DUP1 PUSH4 0x1453D482 EQ PUSH2 0x159 JUMPI DUP1 PUSH4 0x36FBAD26 EQ PUSH2 0x188 JUMPI DUP1 PUSH4 0x3B9DCE05 EQ PUSH2 0x1AC JUMPI DUP1 PUSH4 0x3E45C8AF EQ PUSH2 0x1CE JUMPI JUMPDEST PUSH1 0x0 DUP1 REVERT JUMPDEST CALLVALUE DUP1 ISZERO PUSH2 0x130 JUMPI PUSH1 0x0 DUP1 REVERT JUMPDEST POP PUSH2 0x144 PUSH2 0x13F CALLDATASIZE PUSH1 0x4 PUSH2 0x1F83 JUMP JUMPDEST PUSH2 0x41B JUMP JUMPDEST PUSH1 0x40 MLOAD SWAP1 ISZERO ISZERO DUP2 MSTORE PUSH1 0x20 ADD JUMPDEST PUSH1 0x40 MLOAD DUP1 SWAP2 SUB SWAP1 RETURN JUMPDEST CALLVALUE DUP1 ISZERO PUSH2 0x165 JUMPI PUSH1 0x0 DUP1 REVERT JUMPDEST POP PUSH2 0x144 PUSH2 0x174 CALLDATASIZE PUSH1 0x4 PUSH2 0x201D JUMP JUMPDEST PUSH1 0x0 SLOAD PUSH1 0x1 PUSH1 0x1 PUSH1 0xA0 SHL SUB SWAP2 DUP3 AND SWAP2 AND EQ SWAP1 JUMP JUMPDEST CALLVALUE DUP1 ISZERO PUSH2 0x194 JUMPI PUSH1 0x0 DUP1 REVERT JUMPDEST POP PUSH2 0x19E PUSH1 0x2 SLOAD DUP2 JUMP JUMPDEST PUSH1 0x40 MLOAD SWAP1 DUP2 MSTORE PUSH1 0x20 ADD PUSH2 0x150 JUMP JUMPDEST CALLVALUE DUP1 ISZERO PUSH2 0x1B8 JUMPI PUSH1 0x0 DUP1 REVERT JUMPDEST POP PUSH2 0x1CC PUSH2 0x1C7 CALLDATASIZE PUSH1 0x4 PUSH2 0x201D JUMP JUMPDEST PUSH2 0x901 JUMP JUMPDEST STOP JUMPDEST CALLVALUE DUP1 ISZERO PUSH2 0x1DA JUMPI PUSH1 0x0 DUP1 REVERT JUMPDEST POP PUSH2 0x1CC PUSH2 0x1E9 CALLDATASIZE PUSH1 0x4 PUSH2 0x204D JUMP JUMPDEST PUSH2 0x9CD JUMP JUMPDEST CALLVALUE DUP1 ISZERO PUSH2 0x1FA JUMPI PUSH1 0x0 DUP1 REVERT JUMPDEST POP PUSH2 0x144 PUSH2 0x209 CALLDATASIZE PUSH1 0x4 PUSH2 0x204D JUMP JUMPDEST PUSH2 0xA22 JUMP JUMPDEST CALLVALUE DUP1 ISZERO PUSH2 0x21A JUMPI PUSH1 0x0 DUP1 REVERT JUMPDEST POP PUSH2 0x144 PUSH2 0x229 CALLDATASIZE PUSH1 0x4 PUSH2 0x204D JUMP JUMPDEST PUSH1 0xA PUSH1 0x20 MSTORE PUSH1 0x0 SWAP1 DUP2 MSTORE PUSH1 0x40 SWAP1 KECCAK256 SLOAD PUSH1 0xFF AND DUP2 JUMP JUMPDEST CALLVALUE DUP1 ISZERO PUSH2 0x24A JUMPI PUSH1 0x0 DUP1 REVERT JUMPDEST POP PUSH1 0x0 SLOAD PUSH2 0x25E SWAP1 PUSH1 0x1 PUSH1 0x1 PUSH1 0xA0 SHL SUB AND DUP2 JUMP JUMPDEST PUSH1 0x40 MLOAD PUSH1 0x1 PUSH1 0x1 PUSH1 0xA0 SHL SUB SWAP1 SWAP2 AND DUP2 MSTORE PUSH1 0x20 ADD PUSH2 0x150 JUMP JUMPDEST CALLVALUE DUP1 ISZERO PUSH2 0x282 JUMPI PUSH1 0x0 DUP1 REVERT JUMPDEST POP PUSH2 0x144 PUSH2 0x291 CALLDATASIZE PUSH1 0x4 PUSH2 0x2066 JUMP JUMPDEST PUSH2 0xB75 JUMP JUMPDEST PUSH2 0x144 PUSH2 0x2A4 CALLDATASIZE PUSH1 0x4 PUSH2 0x204D JUMP JUMPDEST PUSH2 0xE47 JUMP JUMPDEST CALLVALUE DUP1 ISZERO PUSH2 0x2B5 JUMPI PUSH1 0x0 DUP1 REVERT JUMPDEST POP PUSH2 0x144 PUSH2 0x2C4 CALLDATASIZE PUSH1 0x4 PUSH2 0x204D JUMP JUMPDEST PUSH2 0x122B JUMP JUMPDEST CALLVALUE DUP1 ISZERO PUSH2 0x2D5 JUMPI PUSH1 0x0 DUP1 REVERT JUMPDEST POP PUSH2 0x144 PUSH2 0x2E4 CALLDATASIZE PUSH1 0x4 PUSH2 0x204D JUMP JUMPDEST PUSH2 0x1322 JUMP JUMPDEST CALLVALUE DUP1 ISZERO PUSH2 0x2F5 JUMPI PUSH1 0x0 DUP1 REVERT JUMPDEST POP PUSH2 0x19E PUSH1 0x3 SLOAD DUP2 JUMP JUMPDEST CALLVALUE DUP1 ISZERO PUSH2 0x30B JUMPI PUSH1 0x0 DUP1 REVERT JUMPDEST POP PUSH2 0x31F PUSH2 0x31A CALLDATASIZE PUSH1 0x4 PUSH2 0x204D JUMP JUMPDEST PUSH2 0x141A JUMP JUMPDEST PUSH1 0x40 MLOAD PUSH2 0x150 SWAP2 SWAP1 PUSH2 0x2100 JUMP JUMPDEST CALLVALUE DUP1 ISZERO PUSH2 0x338 JUMPI PUSH1 0x0 DUP1 REVERT JUMPDEST POP PUSH1 0x0 SLOAD PUSH1 0x1 PUSH1 0x1 PUSH1 0xA0 SHL SUB AND CALLER EQ PUSH2 0x144 JUMP JUMPDEST CALLVALUE DUP1 ISZERO PUSH2 0x358 JUMPI PUSH1 0x0 DUP1 REVERT JUMPDEST POP PUSH2 0x19E PUSH1 0x1 SLOAD DUP2 JUMP JUMPDEST CALLVALUE DUP1 ISZERO PUSH2 0x36E JUMPI PUSH1 0x0 DUP1 REVERT JUMPDEST POP PUSH1 0x4 SLOAD PUSH1 0x5 SLOAD PUSH1 0x6 SLOAD PUSH2 0x381 SWAP3 SWAP2 SWAP1 DUP4 JUMP JUMPDEST PUSH1 0x40 DUP1 MLOAD SWAP4 DUP5 MSTORE PUSH1 0x20 DUP5 ADD SWAP3 SWAP1 SWAP3 MSTORE SWAP1 DUP3 ADD MSTORE PUSH1 0x60 ADD PUSH2 0x150 JUMP JUMPDEST CALLVALUE DUP1 ISZERO PUSH2 0x3A8 JUMPI PUSH1 0x0 DUP1 REVERT JUMPDEST POP PUSH2 0x3B1 PUSH2 0x14E1 JUMP JUMPDEST PUSH1 0x40 MLOAD PUSH2 0x150 SWAP2 SWAP1 PUSH2 0x22D6 JUMP JUMPDEST CALLVALUE DUP1 ISZERO PUSH2 0x3CA JUMPI PUSH1 0x0 DUP1 REVERT JUMPDEST POP PUSH2 0x144 PUSH2 0x3D9 CALLDATASIZE PUSH1 0x4 PUSH2 0x201D JUMP JUMPDEST PUSH1 0xB PUSH1 0x20 MSTORE PUSH1 0x0 SWAP1 DUP2 MSTORE PUSH1 0x40 SWAP1 KECCAK256 SLOAD PUSH1 0xFF AND DUP2 JUMP JUMPDEST CALLVALUE DUP1 ISZERO PUSH2 0x3FA JUMPI PUSH1 0x0 DUP1 REVERT JUMPDEST POP PUSH2 0x40E PUSH2 0x409 CALLDATASIZE PUSH1 0x4 PUSH2 0x204D JUMP JUMPDEST PUSH2 0x178C JUMP JUMPDEST PUSH1 0x40 MLOAD PUSH2 0x150 SWAP2 SWAP1 PUSH2 0x2338 JUMP JUMPDEST CALLER PUSH1 0x0 SWAP1 DUP2 MSTORE PUSH1 0xB PUSH1 0x20 MSTORE PUSH1 0x40 DUP2 KECCAK256 SLOAD PUSH1 0xFF AND PUSH2 0x453 JUMPI PUSH1 0x40 MLOAD PUSH3 0x461BCD PUSH1 0xE5 SHL DUP2 MSTORE PUSH1 0x4 ADD PUSH2 0x44A SWAP1 PUSH2 0x234B JUMP JUMPDEST PUSH1 0x40 MLOAD DUP1 SWAP2 SUB SWAP1 REVERT JUMPDEST PUSH1 0x0 DUP7 MLOAD GT PUSH2 0x49C JUMPI PUSH1 0x40 MLOAD PUSH3 0x461BCD PUSH1 0xE5 SHL DUP2 MSTORE PUSH1 0x20 PUSH1 0x4 DUP3 ADD MSTORE PUSH1 0x15 PUSH1 0x24 DUP3 ADD MSTORE PUSH21 0x5469746C652063616E6E6F7420626520656D707479 PUSH1 0x58 SHL PUSH1 0x44 DUP3 ADD MSTORE PUSH1 0x64 ADD PUSH2 0x44A JUMP JUMPDEST PUSH1 0x0 DUP6 MLOAD GT PUSH2 0x4ED JUMPI PUSH1 0x40 MLOAD PUSH3 0x461BCD PUSH1 0xE5 SHL DUP2 MSTORE PUSH1 0x20 PUSH1 0x4 DUP3 ADD MSTORE PUSH1 0x1B PUSH1 0x24 DUP3 ADD MSTORE PUSH32 0x4465736372697074696F6E2063616E6E6F7420626520656D7074790000000000 PUSH1 0x44 DUP3 ADD MSTORE PUSH1 0x64 ADD PUSH2 0x44A JUMP JUMPDEST PUSH1 0x0 DUP5 MLOAD GT PUSH2 0x539 JUMPI PUSH1 0x40 MLOAD PUSH3 0x461BCD PUSH1 0xE5 SHL DUP2 MSTORE PUSH1 0x20 PUSH1 0x4 DUP3 ADD MSTORE PUSH1 0x18 PUSH1 0x24 DUP3 ADD MSTORE PUSH24 0x496D61676555524C2063616E6E6F7420626520656D707479 PUSH1 0x40 SHL PUSH1 0x44 DUP3 ADD MSTORE PUSH1 0x64 ADD PUSH2 0x44A JUMP JUMPDEST PUSH1 0x0 DUP4 GT PUSH2 0x57F JUMPI PUSH1 0x40 MLOAD PUSH3 0x461BCD PUSH1 0xE5 SHL DUP2 MSTORE PUSH1 0x20 PUSH1 0x4 DUP3 ADD MSTORE PUSH1 0x13 PUSH1 0x24 DUP3 ADD MSTORE PUSH19 0x436F73742063616E6E6F74206265207A65726F PUSH1 0x68 SHL PUSH1 0x44 DUP3 ADD MSTORE PUSH1 0x64 ADD PUSH2 0x44A JUMP JUMPDEST PUSH2 0x587 PUSH2 0x1DC4 JUMP JUMPDEST PUSH1 0x2 SLOAD DUP2 MSTORE CALLER PUSH1 0x40 DUP3 ADD SWAP1 DUP2 MSTORE PUSH1 0x60 DUP3 ADD DUP9 DUP2 MSTORE PUSH1 0x80 DUP4 ADD DUP9 SWAP1 MSTORE PUSH1 0xA0 DUP4 ADD DUP8 SWAP1 MSTORE PUSH1 0xC0 DUP4 ADD DUP7 SWAP1 MSTORE TIMESTAMP PUSH2 0x100 DUP5 ADD MSTORE PUSH2 0x120 DUP4 ADD DUP6 SWAP1 MSTORE PUSH1 0x7 DUP1 SLOAD PUSH1 0x1 DUP2 ADD DUP3 SSTORE PUSH1 0x0 SWAP2 SWAP1 SWAP2 MSTORE DUP4 MLOAD PUSH32 0xA66CC928B5EDB82AF9BD49922954155AB7B0942694BEA4CE44661D9A8736C688 PUSH1 0xC SWAP1 SWAP3 MUL SWAP2 DUP3 ADD SWAP1 DUP2 SSTORE PUSH1 0x20 DUP1 DUP7 ADD MLOAD PUSH32 0xA66CC928B5EDB82AF9BD49922954155AB7B0942694BEA4CE44661D9A8736C689 DUP5 ADD DUP1 SLOAD PUSH1 0x1 PUSH1 0x1 PUSH1 0xA0 SHL SUB NOT SWAP1 DUP2 AND PUSH1 0x1 PUSH1 0x1 PUSH1 0xA0 SHL SUB SWAP4 DUP5 AND OR SWAP1 SWAP2 SSTORE SWAP6 MLOAD PUSH32 0xA66CC928B5EDB82AF9BD49922954155AB7B0942694BEA4CE44661D9A8736C68A DUP6 ADD DUP1 SLOAD SWAP1 SWAP8 AND SWAP2 AND OR SWAP1 SWAP5 SSTORE SWAP2 MLOAD DUP1 MLOAD DUP6 SWAP5 PUSH2 0x6A7 SWAP4 PUSH32 0xA66CC928B5EDB82AF9BD49922954155AB7B0942694BEA4CE44661D9A8736C68B ADD SWAP3 ADD SWAP1 PUSH2 0x1E47 JUMP JUMPDEST POP PUSH1 0x80 DUP3 ADD MLOAD DUP1 MLOAD PUSH2 0x6C3 SWAP2 PUSH1 0x4 DUP5 ADD SWAP2 PUSH1 0x20 SWAP1 SWAP2 ADD SWAP1 PUSH2 0x1E47 JUMP JUMPDEST POP PUSH1 0xA0 DUP3 ADD MLOAD DUP1 MLOAD PUSH2 0x6DF SWAP2 PUSH1 0x5 DUP5 ADD SWAP2 PUSH1 0x20 SWAP1 SWAP2 ADD SWAP1 PUSH2 0x1E47 JUMP JUMPDEST POP PUSH1 0xC0 DUP3 ADD MLOAD PUSH1 0x6 DUP3 ADD SSTORE PUSH1 0xE0 DUP3 ADD MLOAD PUSH1 0x7 DUP3 ADD SSTORE PUSH2 0x100 DUP3 ADD MLOAD PUSH1 0x8 DUP3 ADD SSTORE PUSH2 0x120 DUP3 ADD MLOAD PUSH1 0x9 DUP3 ADD SSTORE PUSH2 0x140 DUP3 ADD MLOAD PUSH1 0xA DUP3 ADD SSTORE PUSH2 0x160 DUP3 ADD MLOAD PUSH1 0xB DUP3 ADD DUP1 SLOAD PUSH1 0xFF NOT AND PUSH1 0x1 DUP4 PUSH1 0x4 DUP2 GT ISZERO PUSH2 0x739 JUMPI PUSH2 0x739 PUSH2 0x21BC JUMP JUMPDEST MUL OR SWAP1 SSTORE POP POP PUSH1 0x2 DUP1 SLOAD PUSH1 0x0 SWAP1 DUP2 MSTORE PUSH1 0xA PUSH1 0x20 SWAP1 DUP2 MSTORE PUSH1 0x40 DUP1 DUP4 KECCAK256 DUP1 SLOAD PUSH1 0x1 PUSH1 0xFF NOT SWAP1 SWAP2 AND DUP2 OR SWAP1 SWAP2 SSTORE CALLER DUP5 MSTORE PUSH1 0x8 DUP4 MSTORE DUP2 DUP5 KECCAK256 DUP1 SLOAD DUP1 DUP4 ADD DUP3 SSTORE SWAP1 DUP6 MSTORE SWAP4 DUP4 SWAP1 KECCAK256 DUP8 MLOAD PUSH1 0xC SWAP1 SWAP6 MUL ADD SWAP4 DUP5 SSTORE DUP7 DUP4 ADD MLOAD SWAP1 DUP5 ADD DUP1 SLOAD PUSH1 0x1 PUSH1 0x1 PUSH1 0xA0 SHL SUB NOT SWAP1 DUP2 AND PUSH1 0x1 PUSH1 0x1 PUSH1 0xA0 SHL SUB SWAP4 DUP5 AND OR SWAP1 SWAP2 SSTORE SWAP2 DUP8 ADD MLOAD SWAP5 DUP5 ADD DUP1 SLOAD SWAP1 SWAP3 AND SWAP5 AND SWAP4 SWAP1 SWAP4 OR SWAP1 SWAP3 SSTORE PUSH1 0x60 DUP5 ADD MLOAD DUP1 MLOAD DUP6 SWAP5 POP SWAP2 SWAP3 PUSH2 0x7DD SWAP3 PUSH1 0x3 DUP6 ADD SWAP3 SWAP1 SWAP2 ADD SWAP1 PUSH2 0x1E47 JUMP JUMPDEST POP PUSH1 0x80 DUP3 ADD MLOAD DUP1 MLOAD PUSH2 0x7F9 SWAP2 PUSH1 0x4 DUP5 ADD SWAP2 PUSH1 0x20 SWAP1 SWAP2 ADD SWAP1 PUSH2 0x1E47 JUMP JUMPDEST POP PUSH1 0xA0 DUP3 ADD MLOAD DUP1 MLOAD PUSH2 0x815 SWAP2 PUSH1 0x5 DUP5 ADD SWAP2 PUSH1 0x20 SWAP1 SWAP2 ADD SWAP1 PUSH2 0x1E47 JUMP JUMPDEST POP PUSH1 0xC0 DUP3 ADD MLOAD PUSH1 0x6 DUP3 ADD SSTORE PUSH1 0xE0 DUP3 ADD MLOAD PUSH1 0x7 DUP3 ADD SSTORE PUSH2 0x100 DUP3 ADD MLOAD PUSH1 0x8 DUP3 ADD SSTORE PUSH2 0x120 DUP3 ADD MLOAD PUSH1 0x9 DUP3 ADD SSTORE PUSH2 0x140 DUP3 ADD MLOAD PUSH1 0xA DUP3 ADD SSTORE PUSH2 0x160 DUP3 ADD MLOAD PUSH1 0xB DUP3 ADD DUP1 SLOAD PUSH1 0xFF NOT AND PUSH1 0x1 DUP4 PUSH1 0x4 DUP2 GT ISZERO PUSH2 0x86F JUMPI PUSH2 0x86F PUSH2 0x21BC JUMP JUMPDEST MUL OR SWAP1 SSTORE POP POP POP PUSH1 0x1 PUSH1 0x4 PUSH1 0x0 ADD PUSH1 0x0 DUP3 DUP3 SLOAD PUSH2 0x88C SWAP2 SWAP1 PUSH2 0x2390 JUMP JUMPDEST SWAP1 SWAP2 SSTORE POP POP PUSH1 0x2 DUP1 SLOAD CALLER SWAP2 PUSH1 0x0 DUP1 MLOAD PUSH1 0x20 PUSH2 0x24C5 DUP4 CODECOPY DUP2 MLOAD SWAP2 MSTORE SWAP2 SWAP1 PUSH1 0x0 PUSH2 0x8B3 DUP4 PUSH2 0x23A8 JUMP JUMPDEST SWAP1 SWAP2 SSTORE POP PUSH1 0x40 DUP1 MLOAD SWAP2 DUP3 MSTORE PUSH1 0x60 PUSH1 0x20 DUP4 ADD DUP2 SWAP1 MSTORE PUSH1 0xE SWAP1 DUP4 ADD MSTORE PUSH14 0x50524F4A45435420435245415445 PUSH1 0x90 SHL PUSH1 0x80 DUP4 ADD MSTORE TIMESTAMP SWAP1 DUP3 ADD MSTORE PUSH1 0xA0 ADD PUSH1 0x40 MLOAD DUP1 SWAP2 SUB SWAP1 LOG2 POP PUSH1 0x1 SWAP7 SWAP6 POP POP POP POP POP POP JUMP JUMPDEST PUSH1 0x0 SLOAD PUSH1 0x1 PUSH1 0x1 PUSH1 0xA0 SHL SUB AND CALLER EQ PUSH2 0x951 JUMPI PUSH1 0x40 MLOAD PUSH3 0x461BCD PUSH1 0xE5 SHL DUP2 MSTORE PUSH1 0x20 PUSH1 0x4 DUP3 ADD MSTORE PUSH1 0x13 PUSH1 0x24 DUP3 ADD MSTORE PUSH19 0x4F776E6572207265736572766564206F6E6C79 PUSH1 0x68 SHL PUSH1 0x44 DUP3 ADD MSTORE PUSH1 0x64 ADD PUSH2 0x44A JUMP JUMPDEST PUSH1 0x1 PUSH1 0x1 PUSH1 0xA0 SHL SUB DUP2 AND PUSH1 0x0 SWAP1 DUP2 MSTORE PUSH1 0xB PUSH1 0x20 MSTORE PUSH1 0x40 DUP1 DUP3 KECCAK256 DUP1 SLOAD PUSH1 0xFF NOT AND PUSH1 0x1 OR SWAP1 SSTORE MLOAD CALLER SWAP2 PUSH1 0x0 DUP1 MLOAD PUSH1 0x20 PUSH2 0x24C5 DUP4 CODECOPY DUP2 MLOAD SWAP2 MSTORE SWAP2 PUSH2 0x9C2 SWAP2 SWAP1 TIMESTAMP SWAP1 SWAP2 DUP3 MSTORE PUSH1 0x60 PUSH1 0x20 DUP4 ADD DUP2 SWAP1 MSTORE PUSH1 0xD SWAP1 DUP4 ADD MSTORE PUSH13 0x10D491505513D4881051111151 PUSH1 0x9A SHL PUSH1 0x80 DUP4 ADD MSTORE PUSH1 0x40 DUP3 ADD MSTORE PUSH1 0xA0 ADD SWAP1 JUMP JUMPDEST PUSH1 0x40 MLOAD DUP1 SWAP2 SUB SWAP1 LOG2 POP JUMP JUMPDEST PUSH1 0x0 SLOAD PUSH1 0x1 PUSH1 0x1 PUSH1 0xA0 SHL SUB AND CALLER EQ PUSH2 0xA1D JUMPI PUSH1 0x40 MLOAD PUSH3 0x461BCD PUSH1 0xE5 SHL DUP2 MSTORE PUSH1 0x20 PUSH1 0x4 DUP3 ADD MSTORE PUSH1 0x13 PUSH1 0x24 DUP3 ADD MSTORE PUSH19 0x4F776E6572207265736572766564206F6E6C79 PUSH1 0x68 SHL PUSH1 0x44 DUP3 ADD MSTORE PUSH1 0x64 ADD PUSH2 0x44A JUMP JUMPDEST PUSH1 0x1 SSTORE JUMP JUMPDEST CALLER PUSH1 0x0 SWAP1 DUP2 MSTORE PUSH1 0xB PUSH1 0x20 MSTORE PUSH1 0x40 DUP2 KECCAK256 SLOAD PUSH1 0xFF AND PUSH2 0xA51 JUMPI PUSH1 0x40 MLOAD PUSH3 0x461BCD PUSH1 0xE5 SHL DUP2 MSTORE PUSH1 0x4 ADD PUSH2 0x44A SWAP1 PUSH2 0x234B JUMP JUMPDEST PUSH1 0x0 DUP3 DUP2 MSTORE PUSH1 0xA PUSH1 0x20 MSTORE PUSH1 0x40 SWAP1 KECCAK256 SLOAD PUSH1 0xFF AND PUSH2 0xA7F JUMPI PUSH1 0x40 MLOAD PUSH3 0x461BCD PUSH1 0xE5 SHL DUP2 MSTORE PUSH1 0x4 ADD PUSH2 0x44A SWAP1 PUSH2 0x23C3 JUMP JUMPDEST PUSH1 0x7 DUP3 DUP2 SLOAD DUP2 LT PUSH2 0xA92 JUMPI PUSH2 0xA92 PUSH2 0x23EE JUMP JUMPDEST PUSH1 0x0 SWAP2 DUP3 MSTORE PUSH1 0x20 SWAP1 SWAP2 KECCAK256 PUSH1 0xC SWAP1 SWAP2 MUL ADD PUSH1 0x2 ADD SLOAD PUSH1 0x1 PUSH1 0x1 PUSH1 0xA0 SHL SUB AND CALLER EQ PUSH2 0xACD JUMPI PUSH1 0x40 MLOAD PUSH3 0x461BCD PUSH1 0xE5 SHL DUP2 MSTORE PUSH1 0x4 ADD PUSH2 0x44A SWAP1 PUSH2 0x2404 JUMP JUMPDEST PUSH1 0x3 PUSH1 0x7 DUP4 DUP2 SLOAD DUP2 LT PUSH2 0xAE2 JUMPI PUSH2 0xAE2 PUSH2 0x23EE JUMP JUMPDEST PUSH1 0x0 SWAP2 DUP3 MSTORE PUSH1 0x20 SWAP1 SWAP2 KECCAK256 PUSH1 0xB PUSH1 0xC SWAP1 SWAP3 MUL ADD ADD DUP1 SLOAD PUSH1 0xFF NOT AND PUSH1 0x1 DUP4 PUSH1 0x4 DUP2 GT ISZERO PUSH2 0xB0F JUMPI PUSH2 0xB0F PUSH2 0x21BC JUMP JUMPDEST MUL OR SWAP1 SSTORE POP PUSH2 0xB1D DUP3 PUSH2 0x1A42 JUMP JUMPDEST PUSH1 0x40 DUP1 MLOAD DUP4 DUP2 MSTORE PUSH1 0x60 PUSH1 0x20 DUP3 ADD DUP2 SWAP1 MSTORE PUSH1 0xF SWAP1 DUP3 ADD MSTORE PUSH15 0x141493D29150D50811115311551151 PUSH1 0x8A SHL PUSH1 0x80 DUP3 ADD MSTORE TIMESTAMP DUP2 DUP4 ADD MSTORE SWAP1 MLOAD CALLER SWAP2 PUSH1 0x0 DUP1 MLOAD PUSH1 0x20 PUSH2 0x24C5 DUP4 CODECOPY DUP2 MLOAD SWAP2 MSTORE SWAP2 SWAP1 DUP2 SWAP1 SUB PUSH1 0xA0 ADD SWAP1 LOG2 POP PUSH1 0x1 SWAP2 SWAP1 POP JUMP JUMPDEST CALLER PUSH1 0x0 SWAP1 DUP2 MSTORE PUSH1 0xB PUSH1 0x20 MSTORE PUSH1 0x40 DUP2 KECCAK256 SLOAD PUSH1 0xFF AND PUSH2 0xBA4 JUMPI PUSH1 0x40 MLOAD PUSH3 0x461BCD PUSH1 0xE5 SHL DUP2 MSTORE PUSH1 0x4 ADD PUSH2 0x44A SWAP1 PUSH2 0x234B JUMP JUMPDEST PUSH1 0x0 DUP7 DUP2 MSTORE PUSH1 0xA PUSH1 0x20 MSTORE PUSH1 0x40 SWAP1 KECCAK256 SLOAD PUSH1 0xFF AND PUSH2 0xBD2 JUMPI PUSH1 0x40 MLOAD PUSH3 0x461BCD PUSH1 0xE5 SHL DUP2 MSTORE PUSH1 0x4 ADD PUSH2 0x44A SWAP1 PUSH2 0x23C3 JUMP JUMPDEST PUSH1 0x7 DUP7 DUP2 SLOAD DUP2 LT PUSH2 0xBE5 JUMPI PUSH2 0xBE5 PUSH2 0x23EE JUMP JUMPDEST PUSH1 0x0 SWAP2 DUP3 MSTORE PUSH1 0x20 SWAP1 SWAP2 KECCAK256 PUSH1 0xC SWAP1 SWAP2 MUL ADD PUSH1 0x2 ADD SLOAD PUSH1 0x1 PUSH1 0x1 PUSH1 0xA0 SHL SUB AND CALLER EQ PUSH2 0xC20 JUMPI PUSH1 0x40 MLOAD PUSH3 0x461BCD PUSH1 0xE5 SHL DUP2 MSTORE PUSH1 0x4 ADD PUSH2 0x44A SWAP1 PUSH2 0x2404 JUMP JUMPDEST PUSH1 0x0 DUP6 MLOAD GT PUSH2 0xC69 JUMPI PUSH1 0x40 MLOAD PUSH3 0x461BCD PUSH1 0xE5 SHL DUP2 MSTORE PUSH1 0x20 PUSH1 0x4 DUP3 ADD MSTORE PUSH1 0x15 PUSH1 0x24 DUP3 ADD MSTORE PUSH21 0x5469746C652063616E6E6F7420626520656D707479 PUSH1 0x58 SHL PUSH1 0x44 DUP3 ADD MSTORE PUSH1 0x64 ADD PUSH2 0x44A JUMP JUMPDEST PUSH1 0x0 DUP5 MLOAD GT PUSH2 0xCBA JUMPI PUSH1 0x40 MLOAD PUSH3 0x461BCD PUSH1 0xE5 SHL DUP2 MSTORE PUSH1 0x20 PUSH1 0x4 DUP3 ADD MSTORE PUSH1 0x1B PUSH1 0x24 DUP3 ADD MSTORE PUSH32 0x4465736372697074696F6E2063616E6E6F7420626520656D7074790000000000 PUSH1 0x44 DUP3 ADD MSTORE PUSH1 0x64 ADD PUSH2 0x44A JUMP JUMPDEST PUSH1 0x0 DUP4 MLOAD GT PUSH2 0xD06 JUMPI PUSH1 0x40 MLOAD PUSH3 0x461BCD PUSH1 0xE5 SHL DUP2 MSTORE PUSH1 0x20 PUSH1 0x4 DUP3 ADD MSTORE PUSH1 0x18 PUSH1 0x24 DUP3 ADD MSTORE PUSH24 0x496D61676555524C2063616E6E6F7420626520656D707479 PUSH1 0x40 SHL PUSH1 0x44 DUP3 ADD MSTORE PUSH1 0x64 ADD PUSH2 0x44A JUMP JUMPDEST DUP5 PUSH1 0x7 DUP8 DUP2 SLOAD DUP2 LT PUSH2 0xD1A JUMPI PUSH2 0xD1A PUSH2 0x23EE JUMP JUMPDEST SWAP1 PUSH1 0x0 MSTORE PUSH1 0x20 PUSH1 0x0 KECCAK256 SWAP1 PUSH1 0xC MUL ADD PUSH1 0x3 ADD SWAP1 DUP1 MLOAD SWAP1 PUSH1 0x20 ADD SWAP1 PUSH2 0xD3E SWAP3 SWAP2 SWAP1 PUSH2 0x1E47 JUMP JUMPDEST POP DUP4 PUSH1 0x7 DUP8 DUP2 SLOAD DUP2 LT PUSH2 0xD53 JUMPI PUSH2 0xD53 PUSH2 0x23EE JUMP JUMPDEST SWAP1 PUSH1 0x0 MSTORE PUSH1 0x20 PUSH1 0x0 KECCAK256 SWAP1 PUSH1 0xC MUL ADD PUSH1 0x4 ADD SWAP1 DUP1 MLOAD SWAP1 PUSH1 0x20 ADD SWAP1 PUSH2 0xD77 SWAP3 SWAP2 SWAP1 PUSH2 0x1E47 JUMP JUMPDEST POP DUP3 PUSH1 0x7 DUP8 DUP2 SLOAD DUP2 LT PUSH2 0xD8C JUMPI PUSH2 0xD8C PUSH2 0x23EE JUMP JUMPDEST SWAP1 PUSH1 0x0 MSTORE PUSH1 0x20 PUSH1 0x0 KECCAK256 SWAP1 PUSH1 0xC MUL ADD PUSH1 0x5 ADD SWAP1 DUP1 MLOAD SWAP1 PUSH1 0x20 ADD SWAP1 PUSH2 0xDB0 SWAP3 SWAP2 SWAP1 PUSH2 0x1E47 JUMP JUMPDEST POP DUP2 PUSH1 0x7 DUP8 DUP2 SLOAD DUP2 LT PUSH2 0xDC5 JUMPI PUSH2 0xDC5 PUSH2 0x23EE JUMP JUMPDEST SWAP1 PUSH1 0x0 MSTORE PUSH1 0x20 PUSH1 0x0 KECCAK256 SWAP1 PUSH1 0xC MUL ADD PUSH1 0x9 ADD DUP2 SWAP1 SSTORE POP CALLER PUSH1 0x1 PUSH1 0x1 PUSH1 0xA0 SHL SUB AND PUSH1 0x0 DUP1 MLOAD PUSH1 0x20 PUSH2 0x24C5 DUP4 CODECOPY DUP2 MLOAD SWAP2 MSTORE DUP8 TIMESTAMP PUSH1 0x40 MLOAD PUSH2 0xE33 SWAP3 SWAP2 SWAP1 SWAP2 DUP3 MSTORE PUSH1 0x60 PUSH1 0x20 DUP4 ADD DUP2 SWAP1 MSTORE PUSH1 0xF SWAP1 DUP4 ADD MSTORE PUSH15 0x141493D29150D50815541110551151 PUSH1 0x8A SHL PUSH1 0x80 DUP4 ADD MSTORE PUSH1 0x40 DUP3 ADD MSTORE PUSH1 0xA0 ADD SWAP1 JUMP JUMPDEST PUSH1 0x40 MLOAD DUP1 SWAP2 SUB SWAP1 LOG2 POP PUSH1 0x1 SWAP6 SWAP5 POP POP POP POP POP JUMP JUMPDEST PUSH1 0x0 DUP1 CALLVALUE GT PUSH2 0xE98 JUMPI PUSH1 0x40 MLOAD PUSH3 0x461BCD PUSH1 0xE5 SHL DUP2 MSTORE PUSH1 0x20 PUSH1 0x4 DUP3 ADD MSTORE PUSH1 0x1F PUSH1 0x24 DUP3 ADD MSTORE PUSH32 0x4574686572206D7573742062652067726561746572207468616E207A65726F00 PUSH1 0x44 DUP3 ADD MSTORE PUSH1 0x64 ADD PUSH2 0x44A JUMP JUMPDEST PUSH1 0x0 DUP3 DUP2 MSTORE PUSH1 0xA PUSH1 0x20 MSTORE PUSH1 0x40 SWAP1 KECCAK256 SLOAD PUSH1 0xFF AND PUSH2 0xEC6 JUMPI PUSH1 0x40 MLOAD PUSH3 0x461BCD PUSH1 0xE5 SHL DUP2 MSTORE PUSH1 0x4 ADD PUSH2 0x44A SWAP1 PUSH2 0x23C3 JUMP JUMPDEST PUSH1 0x0 PUSH1 0x7 DUP4 DUP2 SLOAD DUP2 LT PUSH2 0xEDB JUMPI PUSH2 0xEDB PUSH2 0x23EE JUMP JUMPDEST PUSH1 0x0 SWAP2 DUP3 MSTORE PUSH1 0x20 SWAP1 SWAP2 KECCAK256 PUSH1 0xB PUSH1 0xC SWAP1 SWAP3 MUL ADD ADD SLOAD PUSH1 0xFF AND PUSH1 0x4 DUP2 GT ISZERO PUSH2 0xF03 JUMPI PUSH2 0xF03 PUSH2 0x21BC JUMP JUMPDEST EQ PUSH2 0xF46 JUMPI PUSH1 0x40 MLOAD PUSH3 0x461BCD PUSH1 0xE5 SHL DUP2 MSTORE PUSH1 0x20 PUSH1 0x4 DUP3 ADD MSTORE PUSH1 0x13 PUSH1 0x24 DUP3 ADD MSTORE PUSH19 0x283937B532B1BA1034B9903737BA1037B832B7 PUSH1 0x69 SHL PUSH1 0x44 DUP3 ADD MSTORE PUSH1 0x64 ADD PUSH2 0x44A JUMP JUMPDEST PUSH1 0x1 PUSH1 0x4 PUSH1 0x1 ADD PUSH1 0x0 DUP3 DUP3 SLOAD PUSH2 0xF5C SWAP2 SWAP1 PUSH2 0x2390 JUMP JUMPDEST SWAP1 SWAP2 SSTORE POP POP PUSH1 0x6 DUP1 SLOAD CALLVALUE SWAP2 SWAP1 PUSH1 0x0 SWAP1 PUSH2 0xF76 SWAP1 DUP5 SWAP1 PUSH2 0x2390 JUMP JUMPDEST SWAP3 POP POP DUP2 SWAP1 SSTORE POP CALLVALUE PUSH1 0x7 DUP4 DUP2 SLOAD DUP2 LT PUSH2 0xF91 JUMPI PUSH2 0xF91 PUSH2 0x23EE JUMP JUMPDEST SWAP1 PUSH1 0x0 MSTORE PUSH1 0x20 PUSH1 0x0 KECCAK256 SWAP1 PUSH1 0xC MUL ADD PUSH1 0x7 ADD PUSH1 0x0 DUP3 DUP3 SLOAD PUSH2 0xFB1 SWAP2 SWAP1 PUSH2 0x2390 JUMP JUMPDEST SWAP3 POP POP DUP2 SWAP1 SSTORE POP PUSH1 0x1 PUSH1 0x7 DUP4 DUP2 SLOAD DUP2 LT PUSH2 0xFCD JUMPI PUSH2 0xFCD PUSH2 0x23EE JUMP JUMPDEST SWAP1 PUSH1 0x0 MSTORE PUSH1 0x20 PUSH1 0x0 KECCAK256 SWAP1 PUSH1 0xC MUL ADD PUSH1 0xA ADD PUSH1 0x0 DUP3 DUP3 SLOAD PUSH2 0xFED SWAP2 SWAP1 PUSH2 0x2390 JUMP JUMPDEST SWAP1 SWAP2 SSTORE POP POP PUSH1 0x0 DUP3 DUP2 MSTORE PUSH1 0x9 PUSH1 0x20 SWAP1 DUP2 MSTORE PUSH1 0x40 DUP1 DUP4 KECCAK256 DUP2 MLOAD PUSH1 0x80 DUP1 DUP3 ADD DUP5 MSTORE CALLER DUP1 DUP4 MSTORE CALLVALUE DUP4 DUP8 ADD SWAP1 DUP2 MSTORE TIMESTAMP DUP5 DUP8 ADD DUP2 DUP2 MSTORE PUSH1 0x60 DUP1 DUP8 ADD DUP12 DUP2 MSTORE DUP9 SLOAD PUSH1 0x1 DUP1 DUP3 ADD DUP12 SSTORE SWAP10 DUP14 MSTORE SWAP12 DUP12 SWAP1 KECCAK256 SWAP8 MLOAD PUSH1 0x4 SWAP1 SWAP13 MUL SWAP1 SWAP8 ADD DUP1 SLOAD PUSH1 0x1 PUSH1 0x1 PUSH1 0xA0 SHL SUB NOT AND PUSH1 0x1 PUSH1 0x1 PUSH1 0xA0 SHL SUB SWAP1 SWAP13 AND SWAP12 SWAP1 SWAP12 OR DUP12 SSTORE SWAP3 MLOAD SWAP7 DUP11 ADD SWAP7 SWAP1 SWAP7 SSTORE SWAP5 MLOAD PUSH1 0x2 DUP10 ADD SSTORE SWAP3 MLOAD PUSH1 0x3 SWAP1 SWAP8 ADD DUP1 SLOAD PUSH1 0xFF NOT AND SWAP8 ISZERO ISZERO SWAP8 SWAP1 SWAP8 OR SWAP1 SWAP7 SSTORE DUP4 MLOAD DUP9 DUP2 MSTORE SWAP5 DUP6 ADD DUP3 SWAP1 MSTORE PUSH1 0xE SWAP2 DUP6 ADD SWAP2 SWAP1 SWAP2 MSTORE PUSH14 0x141493D29150D508109050D2D151 PUSH1 0x92 SHL SWAP1 DUP5 ADD MSTORE SWAP1 DUP3 ADD MSTORE PUSH1 0x0 DUP1 MLOAD PUSH1 0x20 PUSH2 0x24C5 DUP4 CODECOPY DUP2 MLOAD SWAP2 MSTORE SWAP1 PUSH1 0xA0 ADD PUSH1 0x40 MLOAD DUP1 SWAP2 SUB SWAP1 LOG2 PUSH1 0x7 DUP3 DUP2 SLOAD DUP2 LT PUSH2 0x10E0 JUMPI PUSH2 0x10E0 PUSH2 0x23EE JUMP JUMPDEST SWAP1 PUSH1 0x0 MSTORE PUSH1 0x20 PUSH1 0x0 KECCAK256 SWAP1 PUSH1 0xC MUL ADD PUSH1 0x6 ADD SLOAD PUSH1 0x7 DUP4 DUP2 SLOAD DUP2 LT PUSH2 0x1105 JUMPI PUSH2 0x1105 PUSH2 0x23EE JUMP JUMPDEST SWAP1 PUSH1 0x0 MSTORE PUSH1 0x20 PUSH1 0x0 KECCAK256 SWAP1 PUSH1 0xC MUL ADD PUSH1 0x7 ADD SLOAD LT PUSH2 0x11B0 JUMPI PUSH1 0x1 PUSH1 0x7 DUP4 DUP2 SLOAD DUP2 LT PUSH2 0x1131 JUMPI PUSH2 0x1131 PUSH2 0x23EE JUMP JUMPDEST PUSH1 0x0 SWAP2 DUP3 MSTORE PUSH1 0x20 SWAP1 SWAP2 KECCAK256 PUSH1 0xB PUSH1 0xC SWAP1 SWAP3 MUL ADD ADD DUP1 SLOAD PUSH1 0xFF NOT AND PUSH1 0x1 DUP4 PUSH1 0x4 DUP2 GT ISZERO PUSH2 0x115E JUMPI PUSH2 0x115E PUSH2 0x21BC JUMP JUMPDEST MUL OR SWAP1 SSTORE POP PUSH1 0x7 DUP3 DUP2 SLOAD DUP2 LT PUSH2 0x1176 JUMPI PUSH2 0x1176 PUSH2 0x23EE JUMP JUMPDEST SWAP1 PUSH1 0x0 MSTORE PUSH1 0x20 PUSH1 0x0 KECCAK256 SWAP1 PUSH1 0xC MUL ADD PUSH1 0x7 ADD SLOAD PUSH1 0x3 PUSH1 0x0 DUP3 DUP3 SLOAD PUSH2 0x1199 SWAP2 SWAP1 PUSH2 0x2390 JUMP JUMPDEST SWAP1 SWAP2 SSTORE POP PUSH2 0x11A8 SWAP1 POP DUP3 PUSH2 0x1BE9 JUMP JUMPDEST POP PUSH1 0x1 SWAP2 SWAP1 POP JUMP JUMPDEST PUSH1 0x7 DUP3 DUP2 SLOAD DUP2 LT PUSH2 0x11C3 JUMPI PUSH2 0x11C3 PUSH2 0x23EE JUMP JUMPDEST SWAP1 PUSH1 0x0 MSTORE PUSH1 0x20 PUSH1 0x0 KECCAK256 SWAP1 PUSH1 0xC MUL ADD PUSH1 0x9 ADD SLOAD TIMESTAMP LT PUSH2 0x11A8 JUMPI PUSH1 0x2 PUSH1 0x7 DUP4 DUP2 SLOAD DUP2 LT PUSH2 0x11F0 JUMPI PUSH2 0x11F0 PUSH2 0x23EE JUMP JUMPDEST PUSH1 0x0 SWAP2 DUP3 MSTORE PUSH1 0x20 SWAP1 SWAP2 KECCAK256 PUSH1 0xB PUSH1 0xC SWAP1 SWAP3 MUL ADD ADD DUP1 SLOAD PUSH1 0xFF NOT AND PUSH1 0x1 DUP4 PUSH1 0x4 DUP2 GT ISZERO PUSH2 0x121D JUMPI PUSH2 0x121D PUSH2 0x21BC JUMP JUMPDEST MUL OR SWAP1 SSTORE POP PUSH2 0x11A8 DUP3 PUSH2 0x1A42 JUMP JUMPDEST PUSH1 0x0 PUSH1 0x2 PUSH1 0x7 DUP4 DUP2 SLOAD DUP2 LT PUSH2 0x1242 JUMPI PUSH2 0x1242 PUSH2 0x23EE JUMP JUMPDEST PUSH1 0x0 SWAP2 DUP3 MSTORE PUSH1 0x20 SWAP1 SWAP2 KECCAK256 PUSH1 0xB PUSH1 0xC SWAP1 SWAP3 MUL ADD ADD SLOAD PUSH1 0xFF AND PUSH1 0x4 DUP2 GT ISZERO PUSH2 0x126A JUMPI PUSH2 0x126A PUSH2 0x21BC JUMP JUMPDEST EQ ISZERO DUP1 PUSH2 0x12B2 JUMPI POP PUSH1 0x3 PUSH1 0x7 DUP4 DUP2 SLOAD DUP2 LT PUSH2 0x1287 JUMPI PUSH2 0x1287 PUSH2 0x23EE JUMP JUMPDEST PUSH1 0x0 SWAP2 DUP3 MSTORE PUSH1 0x20 SWAP1 SWAP2 KECCAK256 PUSH1 0xB PUSH1 0xC SWAP1 SWAP3 MUL ADD ADD SLOAD PUSH1 0xFF AND PUSH1 0x4 DUP2 GT ISZERO PUSH2 0x12AF JUMPI PUSH2 0x12AF PUSH2 0x21BC JUMP JUMPDEST EQ ISZERO JUMPDEST PUSH2 0x130D JUMPI PUSH1 0x40 MLOAD PUSH3 0x461BCD PUSH1 0xE5 SHL DUP2 MSTORE PUSH1 0x20 PUSH1 0x4 DUP3 ADD MSTORE PUSH1 0x26 PUSH1 0x24 DUP3 ADD MSTORE PUSH32 0x50726F6A65637420686173206D61726B656420617320726576657274206F7220 PUSH1 0x44 DUP3 ADD MSTORE PUSH6 0x64656C657465 PUSH1 0xD0 SHL PUSH1 0x64 DUP3 ADD MSTORE PUSH1 0x84 ADD PUSH2 0x44A JUMP JUMPDEST PUSH1 0x2 PUSH1 0x7 DUP4 DUP2 SLOAD DUP2 LT PUSH2 0x11F0 JUMPI PUSH2 0x11F0 PUSH2 0x23EE JUMP JUMPDEST PUSH1 0x0 PUSH1 0x1 PUSH1 0x7 DUP4 DUP2 SLOAD DUP2 LT PUSH2 0x1339 JUMPI PUSH2 0x1339 PUSH2 0x23EE JUMP JUMPDEST PUSH1 0x0 SWAP2 DUP3 MSTORE PUSH1 0x20 SWAP1 SWAP2 KECCAK256 PUSH1 0xB PUSH1 0xC SWAP1 SWAP3 MUL ADD ADD SLOAD PUSH1 0xFF AND PUSH1 0x4 DUP2 GT ISZERO PUSH2 0x1361 JUMPI PUSH2 0x1361 PUSH2 0x21BC JUMP JUMPDEST EQ PUSH2 0x13AE JUMPI PUSH1 0x40 MLOAD PUSH3 0x461BCD PUSH1 0xE5 SHL DUP2 MSTORE PUSH1 0x20 PUSH1 0x4 DUP3 ADD MSTORE PUSH1 0x1B PUSH1 0x24 DUP3 ADD MSTORE PUSH32 0x50726F6A656374206973206E6F7420617070726F766564207965740000000000 PUSH1 0x44 DUP3 ADD MSTORE PUSH1 0x64 ADD PUSH2 0x44A JUMP JUMPDEST PUSH1 0x7 DUP3 DUP2 SLOAD DUP2 LT PUSH2 0x13C1 JUMPI PUSH2 0x13C1 PUSH2 0x23EE JUMP JUMPDEST PUSH1 0x0 SWAP2 DUP3 MSTORE PUSH1 0x20 SWAP1 SWAP2 KECCAK256 PUSH1 0xC SWAP1 SWAP2 MUL ADD PUSH1 0x2 ADD SLOAD PUSH1 0x1 PUSH1 0x1 PUSH1 0xA0 SHL SUB AND CALLER EQ DUP1 PUSH2 0x13F5 JUMPI POP PUSH1 0x0 SLOAD PUSH1 0x1 PUSH1 0x1 PUSH1 0xA0 SHL SUB AND CALLER EQ JUMPDEST PUSH2 0x1411 JUMPI PUSH1 0x40 MLOAD PUSH3 0x461BCD PUSH1 0xE5 SHL DUP2 MSTORE PUSH1 0x4 ADD PUSH2 0x44A SWAP1 PUSH2 0x2404 JUMP JUMPDEST PUSH2 0x11A8 DUP3 PUSH2 0x1BE9 JUMP JUMPDEST PUSH1 0x0 DUP2 DUP2 MSTORE PUSH1 0xA PUSH1 0x20 MSTORE PUSH1 0x40 SWAP1 KECCAK256 SLOAD PUSH1 0x60 SWAP1 PUSH1 0xFF AND PUSH2 0x144B JUMPI PUSH1 0x40 MLOAD PUSH3 0x461BCD PUSH1 0xE5 SHL DUP2 MSTORE PUSH1 0x4 ADD PUSH2 0x44A SWAP1 PUSH2 0x23C3 JUMP JUMPDEST PUSH1 0x0 DUP3 DUP2 MSTORE PUSH1 0x9 PUSH1 0x20 SWAP1 DUP2 MSTORE PUSH1 0x40 DUP1 DUP4 KECCAK256 DUP1 SLOAD DUP3 MLOAD DUP2 DUP6 MUL DUP2 ADD DUP6 ADD SWAP1 SWAP4 MSTORE DUP1 DUP4 MSTORE SWAP2 SWAP4 SWAP1 SWAP3 DUP5 ADD JUMPDEST DUP3 DUP3 LT ISZERO PUSH2 0x14D6 JUMPI PUSH1 0x0 DUP5 DUP2 MSTORE PUSH1 0x20 SWAP1 DUP2 SWAP1 KECCAK256 PUSH1 0x40 DUP1 MLOAD PUSH1 0x80 DUP2 ADD DUP3 MSTORE PUSH1 0x4 DUP7 MUL SWAP1 SWAP3 ADD DUP1 SLOAD PUSH1 0x1 PUSH1 0x1 PUSH1 0xA0 SHL SUB AND DUP4 MSTORE PUSH1 0x1 DUP1 DUP3 ADD SLOAD DUP5 DUP7 ADD MSTORE PUSH1 0x2 DUP3 ADD SLOAD SWAP3 DUP5 ADD SWAP3 SWAP1 SWAP3 MSTORE PUSH1 0x3 ADD SLOAD PUSH1 0xFF AND ISZERO ISZERO PUSH1 0x60 DUP4 ADD MSTORE SWAP1 DUP4 MSTORE SWAP1 SWAP3 ADD SWAP2 ADD PUSH2 0x1474 JUMP JUMPDEST POP POP POP POP SWAP1 POP SWAP2 SWAP1 POP JUMP JUMPDEST PUSH1 0x60 PUSH1 0x7 DUP1 SLOAD DUP1 PUSH1 0x20 MUL PUSH1 0x20 ADD PUSH1 0x40 MLOAD SWAP1 DUP2 ADD PUSH1 0x40 MSTORE DUP1 SWAP3 SWAP2 SWAP1 DUP2 DUP2 MSTORE PUSH1 0x20 ADD PUSH1 0x0 SWAP1 JUMPDEST DUP3 DUP3 LT ISZERO PUSH2 0x1783 JUMPI PUSH1 0x0 DUP5 DUP2 MSTORE PUSH1 0x20 SWAP1 DUP2 SWAP1 KECCAK256 PUSH1 0x40 DUP1 MLOAD PUSH2 0x180 DUP2 ADD DUP3 MSTORE PUSH1 0xC DUP7 MUL SWAP1 SWAP3 ADD DUP1 SLOAD DUP4 MSTORE PUSH1 0x1 DUP2 ADD SLOAD PUSH1 0x1 PUSH1 0x1 PUSH1 0xA0 SHL SUB SWAP1 DUP2 AND SWAP5 DUP5 ADD SWAP5 SWAP1 SWAP5 MSTORE PUSH1 0x2 DUP2 ADD SLOAD SWAP1 SWAP4 AND SWAP1 DUP3 ADD MSTORE PUSH1 0x3 DUP3 ADD DUP1 SLOAD SWAP2 SWAP3 SWAP2 PUSH1 0x60 DUP5 ADD SWAP2 SWAP1 PUSH2 0x1569 SWAP1 PUSH2 0x2431 JUMP JUMPDEST DUP1 PUSH1 0x1F ADD PUSH1 0x20 DUP1 SWAP2 DIV MUL PUSH1 0x20 ADD PUSH1 0x40 MLOAD SWAP1 DUP2 ADD PUSH1 0x40 MSTORE DUP1 SWAP3 SWAP2 SWAP1 DUP2 DUP2 MSTORE PUSH1 0x20 ADD DUP3 DUP1 SLOAD PUSH2 0x1595 SWAP1 PUSH2 0x2431 JUMP JUMPDEST DUP1 ISZERO PUSH2 0x15E2 JUMPI DUP1 PUSH1 0x1F LT PUSH2 0x15B7 JUMPI PUSH2 0x100 DUP1 DUP4 SLOAD DIV MUL DUP4 MSTORE SWAP2 PUSH1 0x20 ADD SWAP2 PUSH2 0x15E2 JUMP JUMPDEST DUP3 ADD SWAP2 SWAP1 PUSH1 0x0 MSTORE PUSH1 0x20 PUSH1 0x0 KECCAK256 SWAP1 JUMPDEST DUP2 SLOAD DUP2 MSTORE SWAP1 PUSH1 0x1 ADD SWAP1 PUSH1 0x20 ADD DUP1 DUP4 GT PUSH2 0x15C5 JUMPI DUP3 SWAP1 SUB PUSH1 0x1F AND DUP3 ADD SWAP2 JUMPDEST POP POP POP POP POP DUP2 MSTORE PUSH1 0x20 ADD PUSH1 0x4 DUP3 ADD DUP1 SLOAD PUSH2 0x15FB SWAP1 PUSH2 0x2431 JUMP JUMPDEST DUP1 PUSH1 0x1F ADD PUSH1 0x20 DUP1 SWAP2 DIV MUL PUSH1 0x20 ADD PUSH1 0x40 MLOAD SWAP1 DUP2 ADD PUSH1 0x40 MSTORE DUP1 SWAP3 SWAP2 SWAP1 DUP2 DUP2 MSTORE PUSH1 0x20 ADD DUP3 DUP1 SLOAD PUSH2 0x1627 SWAP1 PUSH2 0x2431 JUMP JUMPDEST DUP1 ISZERO PUSH2 0x1674 JUMPI DUP1 PUSH1 0x1F LT PUSH2 0x1649 JUMPI PUSH2 0x100 DUP1 DUP4 SLOAD DIV MUL DUP4 MSTORE SWAP2 PUSH1 0x20 ADD SWAP2 PUSH2 0x1674 JUMP JUMPDEST DUP3 ADD SWAP2 SWAP1 PUSH1 0x0 MSTORE PUSH1 0x20 PUSH1 0x0 KECCAK256 SWAP1 JUMPDEST DUP2 SLOAD DUP2 MSTORE SWAP1 PUSH1 0x1 ADD SWAP1 PUSH1 0x20 ADD DUP1 DUP4 GT PUSH2 0x1657 JUMPI DUP3 SWAP1 SUB PUSH1 0x1F AND DUP3 ADD SWAP2 JUMPDEST POP POP POP POP POP DUP2 MSTORE PUSH1 0x20 ADD PUSH1 0x5 DUP3 ADD DUP1 SLOAD PUSH2 0x168D SWAP1 PUSH2 0x2431 JUMP JUMPDEST DUP1 PUSH1 0x1F ADD PUSH1 0x20 DUP1 SWAP2 DIV MUL PUSH1 0x20 ADD PUSH1 0x40 MLOAD SWAP1 DUP2 ADD PUSH1 0x40 MSTORE DUP1 SWAP3 SWAP2 SWAP1 DUP2 DUP2 MSTORE PUSH1 0x20 ADD DUP3 DUP1 SLOAD PUSH2 0x16B9 SWAP1 PUSH2 0x2431 JUMP JUMPDEST DUP1 ISZERO PUSH2 0x1706 JUMPI DUP1 PUSH1 0x1F LT PUSH2 0x16DB JUMPI PUSH2 0x100 DUP1 DUP4 SLOAD DIV MUL DUP4 MSTORE SWAP2 PUSH1 0x20 ADD SWAP2 PUSH2 0x1706 JUMP JUMPDEST DUP3 ADD SWAP2 SWAP1 PUSH1 0x0 MSTORE PUSH1 0x20 PUSH1 0x0 KECCAK256 SWAP1 JUMPDEST DUP2 SLOAD DUP2 MSTORE SWAP1 PUSH1 0x1 ADD SWAP1 PUSH1 0x20 ADD DUP1 DUP4 GT PUSH2 0x16E9 JUMPI DUP3 SWAP1 SUB PUSH1 0x1F AND DUP3 ADD SWAP2 JUMPDEST POP POP POP SWAP2 DUP4 MSTORE POP POP PUSH1 0x6 DUP3 ADD SLOAD PUSH1 0x20 DUP3 ADD MSTORE PUSH1 0x7 DUP3 ADD SLOAD PUSH1 0x40 DUP3 ADD MSTORE PUSH1 0x8 DUP3 ADD SLOAD PUSH1 0x60 DUP3 ADD MSTORE PUSH1 0x9 DUP3 ADD SLOAD PUSH1 0x80 DUP3 ADD MSTORE PUSH1 0xA DUP3 ADD SLOAD PUSH1 0xA0 DUP3 ADD MSTORE PUSH1 0xB DUP3 ADD SLOAD PUSH1 0xC0 SWAP1 SWAP2 ADD SWAP1 PUSH1 0xFF AND PUSH1 0x4 DUP2 GT ISZERO PUSH2 0x175F JUMPI PUSH2 0x175F PUSH2 0x21BC JUMP JUMPDEST PUSH1 0x4 DUP2 GT ISZERO PUSH2 0x1770 JUMPI PUSH2 0x1770 PUSH2 0x21BC JUMP JUMPDEST DUP2 MSTORE POP POP DUP2 MSTORE PUSH1 0x20 ADD SWAP1 PUSH1 0x1 ADD SWAP1 PUSH2 0x1505 JUMP JUMPDEST POP POP POP POP SWAP1 POP SWAP1 JUMP JUMPDEST PUSH2 0x1794 PUSH2 0x1DC4 JUMP JUMPDEST PUSH1 0x0 DUP3 DUP2 MSTORE PUSH1 0xA PUSH1 0x20 MSTORE PUSH1 0x40 SWAP1 KECCAK256 SLOAD PUSH1 0xFF AND PUSH2 0x17C2 JUMPI PUSH1 0x40 MLOAD PUSH3 0x461BCD PUSH1 0xE5 SHL DUP2 MSTORE PUSH1 0x4 ADD PUSH2 0x44A SWAP1 PUSH2 0x23C3 JUMP JUMPDEST PUSH1 0x7 DUP3 DUP2 SLOAD DUP2 LT PUSH2 0x17D5 JUMPI PUSH2 0x17D5 PUSH2 0x23EE JUMP JUMPDEST PUSH1 0x0 SWAP2 DUP3 MSTORE PUSH1 0x20 SWAP2 DUP3 SWAP1 KECCAK256 PUSH1 0x40 DUP1 MLOAD PUSH2 0x180 DUP2 ADD DUP3 MSTORE PUSH1 0xC SWAP1 SWAP4 MUL SWAP1 SWAP2 ADD DUP1 SLOAD DUP4 MSTORE PUSH1 0x1 DUP2 ADD SLOAD PUSH1 0x1 PUSH1 0x1 PUSH1 0xA0 SHL SUB SWAP1 DUP2 AND SWAP5 DUP5 ADD SWAP5 SWAP1 SWAP5 MSTORE PUSH1 0x2 DUP2 ADD SLOAD SWAP1 SWAP4 AND SWAP1 DUP3 ADD MSTORE PUSH1 0x3 DUP3 ADD DUP1 SLOAD SWAP2 SWAP3 SWAP2 PUSH1 0x60 DUP5 ADD SWAP2 SWAP1 PUSH2 0x1832 SWAP1 PUSH2 0x2431 JUMP JUMPDEST DUP1 PUSH1 0x1F ADD PUSH1 0x20 DUP1 SWAP2 DIV MUL PUSH1 0x20 ADD PUSH1 0x40 MLOAD SWAP1 DUP2 ADD PUSH1 0x40 MSTORE DUP1 SWAP3 SWAP2 SWAP1 DUP2 DUP2 MSTORE PUSH1 0x20 ADD DUP3 DUP1 SLOAD PUSH2 0x185E SWAP1 PUSH2 0x2431 JUMP JUMPDEST DUP1 ISZERO PUSH2 0x18AB JUMPI DUP1 PUSH1 0x1F LT PUSH2 0x1880 JUMPI PUSH2 0x100 DUP1 DUP4 SLOAD DIV MUL DUP4 MSTORE SWAP2 PUSH1 0x20 ADD SWAP2 PUSH2 0x18AB JUMP JUMPDEST DUP3 ADD SWAP2 SWAP1 PUSH1 0x0 MSTORE PUSH1 0x20 PUSH1 0x0 KECCAK256 SWAP1 JUMPDEST DUP2 SLOAD DUP2 MSTORE SWAP1 PUSH1 0x1 ADD SWAP1 PUSH1 0x20 ADD DUP1 DUP4 GT PUSH2 0x188E JUMPI DUP3 SWAP1 SUB PUSH1 0x1F AND DUP3 ADD SWAP2 JUMPDEST POP POP POP POP POP DUP2 MSTORE PUSH1 0x20 ADD PUSH1 0x4 DUP3 ADD DUP1 SLOAD PUSH2 0x18C4 SWAP1 PUSH2 0x2431 JUMP JUMPDEST DUP1 PUSH1 0x1F ADD PUSH1 0x20 DUP1 SWAP2 DIV MUL PUSH1 0x20 ADD PUSH1 0x40 MLOAD SWAP1 DUP2 ADD PUSH1 0x40 MSTORE DUP1 SWAP3 SWAP2 SWAP1 DUP2 DUP2 MSTORE PUSH1 0x20 ADD DUP3 DUP1 SLOAD PUSH2 0x18F0 SWAP1 PUSH2 0x2431 JUMP JUMPDEST DUP1 ISZERO PUSH2 0x193D JUMPI DUP1 PUSH1 0x1F LT PUSH2 0x1912 JUMPI PUSH2 0x100 DUP1 DUP4 SLOAD DIV MUL DUP4 MSTORE SWAP2 PUSH1 0x20 ADD SWAP2 PUSH2 0x193D JUMP JUMPDEST DUP3 ADD SWAP2 SWAP1 PUSH1 0x0 MSTORE PUSH1 0x20 PUSH1 0x0 KECCAK256 SWAP1 JUMPDEST DUP2 SLOAD DUP2 MSTORE SWAP1 PUSH1 0x1 ADD SWAP1 PUSH1 0x20 ADD DUP1 DUP4 GT PUSH2 0x1920 JUMPI DUP3 SWAP1 SUB PUSH1 0x1F AND DUP3 ADD SWAP2 JUMPDEST POP POP POP POP POP DUP2 MSTORE PUSH1 0x20 ADD PUSH1 0x5 DUP3 ADD DUP1 SLOAD PUSH2 0x1956 SWAP1 PUSH2 0x2431 JUMP JUMPDEST DUP1 PUSH1 0x1F ADD PUSH1 0x20 DUP1 SWAP2 DIV MUL PUSH1 0x20 ADD PUSH1 0x40 MLOAD SWAP1 DUP2 ADD PUSH1 0x40 MSTORE DUP1 SWAP3 SWAP2 SWAP1 DUP2 DUP2 MSTORE PUSH1 0x20 ADD DUP3 DUP1 SLOAD PUSH2 0x1982 SWAP1 PUSH2 0x2431 JUMP JUMPDEST DUP1 ISZERO PUSH2 0x19CF JUMPI DUP1 PUSH1 0x1F LT PUSH2 0x19A4 JUMPI PUSH2 0x100 DUP1 DUP4 SLOAD DIV MUL DUP4 MSTORE SWAP2 PUSH1 0x20 ADD SWAP2 PUSH2 0x19CF JUMP JUMPDEST DUP3 ADD SWAP2 SWAP1 PUSH1 0x0 MSTORE PUSH1 0x20 PUSH1 0x0 KECCAK256 SWAP1 JUMPDEST DUP2 SLOAD DUP2 MSTORE SWAP1 PUSH1 0x1 ADD SWAP1 PUSH1 0x20 ADD DUP1 DUP4 GT PUSH2 0x19B2 JUMPI DUP3 SWAP1 SUB PUSH1 0x1F AND DUP3 ADD SWAP2 JUMPDEST POP POP POP SWAP2 DUP4 MSTORE POP POP PUSH1 0x6 DUP3 ADD SLOAD PUSH1 0x20 DUP3 ADD MSTORE PUSH1 0x7 DUP3 ADD SLOAD PUSH1 0x40 DUP3 ADD MSTORE PUSH1 0x8 DUP3 ADD SLOAD PUSH1 0x60 DUP3 ADD MSTORE PUSH1 0x9 DUP3 ADD SLOAD PUSH1 0x80 DUP3 ADD MSTORE PUSH1 0xA DUP3 ADD SLOAD PUSH1 0xA0 DUP3 ADD MSTORE PUSH1 0xB DUP3 ADD SLOAD PUSH1 0xC0 SWAP1 SWAP2 ADD SWAP1 PUSH1 0xFF AND PUSH1 0x4 DUP2 GT ISZERO PUSH2 0x1A28 JUMPI PUSH2 0x1A28 PUSH2 0x21BC JUMP JUMPDEST PUSH1 0x4 DUP2 GT ISZERO PUSH2 0x1A39 JUMPI PUSH2 0x1A39 PUSH2 0x21BC JUMP JUMPDEST SWAP1 MSTORE POP SWAP3 SWAP2 POP POP JUMP JUMPDEST PUSH1 0x0 JUMPDEST PUSH1 0x0 DUP3 DUP2 MSTORE PUSH1 0x9 PUSH1 0x20 MSTORE PUSH1 0x40 SWAP1 KECCAK256 SLOAD DUP2 LT ISZERO PUSH2 0x1BE5 JUMPI PUSH1 0x0 DUP3 DUP2 MSTORE PUSH1 0x9 PUSH1 0x20 MSTORE PUSH1 0x40 DUP2 KECCAK256 DUP1 SLOAD DUP4 SWAP1 DUP2 LT PUSH2 0x1A7B JUMPI PUSH2 0x1A7B PUSH2 0x23EE JUMP JUMPDEST PUSH1 0x0 SWAP2 DUP3 MSTORE PUSH1 0x20 DUP1 DUP4 KECCAK256 PUSH1 0x4 SWAP1 SWAP3 MUL SWAP1 SWAP2 ADD SLOAD DUP6 DUP4 MSTORE PUSH1 0x9 SWAP1 SWAP2 MSTORE PUSH1 0x40 DUP3 KECCAK256 DUP1 SLOAD PUSH1 0x1 PUSH1 0x1 PUSH1 0xA0 SHL SUB SWAP1 SWAP3 AND SWAP4 POP SWAP1 DUP5 SWAP1 DUP2 LT PUSH2 0x1ABA JUMPI PUSH2 0x1ABA PUSH2 0x23EE JUMP JUMPDEST SWAP1 PUSH1 0x0 MSTORE PUSH1 0x20 PUSH1 0x0 KECCAK256 SWAP1 PUSH1 0x4 MUL ADD PUSH1 0x1 ADD SLOAD SWAP1 POP PUSH1 0x1 PUSH1 0x9 PUSH1 0x0 DUP7 DUP2 MSTORE PUSH1 0x20 ADD SWAP1 DUP2 MSTORE PUSH1 0x20 ADD PUSH1 0x0 KECCAK256 DUP5 DUP2 SLOAD DUP2 LT PUSH2 0x1AF4 JUMPI PUSH2 0x1AF4 PUSH2 0x23EE JUMP JUMPDEST SWAP1 PUSH1 0x0 MSTORE PUSH1 0x20 PUSH1 0x0 KECCAK256 SWAP1 PUSH1 0x4 MUL ADD PUSH1 0x3 ADD PUSH1 0x0 PUSH2 0x100 EXP DUP2 SLOAD DUP2 PUSH1 0xFF MUL NOT AND SWAP1 DUP4 ISZERO ISZERO MUL OR SWAP1 SSTORE POP TIMESTAMP PUSH1 0x9 PUSH1 0x0 DUP7 DUP2 MSTORE PUSH1 0x20 ADD SWAP1 DUP2 MSTORE PUSH1 0x20 ADD PUSH1 0x0 KECCAK256 DUP5 DUP2 SLOAD DUP2 LT PUSH2 0x1B41 JUMPI PUSH2 0x1B41 PUSH2 0x23EE JUMP JUMPDEST SWAP1 PUSH1 0x0 MSTORE PUSH1 0x20 PUSH1 0x0 KECCAK256 SWAP1 PUSH1 0x4 MUL ADD PUSH1 0x2 ADD DUP2 SWAP1 SSTORE POP PUSH2 0x1B60 DUP3 DUP3 PUSH2 0x1D5F JUMP JUMPDEST DUP1 PUSH1 0x7 DUP6 DUP2 SLOAD DUP2 LT PUSH2 0x1B74 JUMPI PUSH2 0x1B74 PUSH2 0x23EE JUMP JUMPDEST SWAP1 PUSH1 0x0 MSTORE PUSH1 0x20 PUSH1 0x0 KECCAK256 SWAP1 PUSH1 0xC MUL ADD PUSH1 0x7 ADD PUSH1 0x0 DUP3 DUP3 SLOAD PUSH2 0x1B94 SWAP2 SWAP1 PUSH2 0x246C JUMP JUMPDEST SWAP1 SWAP2 SSTORE POP POP PUSH1 0x5 DUP1 SLOAD PUSH1 0x1 SWAP2 SWAP1 PUSH1 0x0 SWAP1 PUSH2 0x1BAF SWAP1 DUP5 SWAP1 PUSH2 0x246C JUMP JUMPDEST SWAP1 SWAP2 SSTORE POP POP PUSH1 0x6 DUP1 SLOAD DUP3 SWAP2 SWAP1 PUSH1 0x0 SWAP1 PUSH2 0x1BC9 SWAP1 DUP5 SWAP1 PUSH2 0x246C JUMP JUMPDEST SWAP3 POP POP DUP2 SWAP1 SSTORE POP POP POP DUP1 DUP1 PUSH2 0x1BDD SWAP1 PUSH2 0x23A8 JUMP JUMPDEST SWAP2 POP POP PUSH2 0x1A45 JUMP JUMPDEST POP POP JUMP JUMPDEST PUSH1 0x0 PUSH1 0x7 DUP3 DUP2 SLOAD DUP2 LT PUSH2 0x1BFE JUMPI PUSH2 0x1BFE PUSH2 0x23EE JUMP JUMPDEST SWAP1 PUSH1 0x0 MSTORE PUSH1 0x20 PUSH1 0x0 KECCAK256 SWAP1 PUSH1 0xC MUL ADD PUSH1 0x7 ADD SLOAD SWAP1 POP PUSH1 0x0 PUSH1 0x64 PUSH1 0x1 SLOAD DUP4 PUSH2 0x1C24 SWAP2 SWAP1 PUSH2 0x2483 JUMP JUMPDEST PUSH2 0x1C2E SWAP2 SWAP1 PUSH2 0x24A2 JUMP JUMPDEST SWAP1 POP PUSH1 0x4 PUSH1 0x7 DUP5 DUP2 SLOAD DUP2 LT PUSH2 0x1C45 JUMPI PUSH2 0x1C45 PUSH2 0x23EE JUMP JUMPDEST PUSH1 0x0 SWAP2 DUP3 MSTORE PUSH1 0x20 SWAP1 SWAP2 KECCAK256 PUSH1 0xB PUSH1 0xC SWAP1 SWAP3 MUL ADD ADD DUP1 SLOAD PUSH1 0xFF NOT AND PUSH1 0x1 DUP4 PUSH1 0x4 DUP2 GT ISZERO PUSH2 0x1C72 JUMPI PUSH2 0x1C72 PUSH2 0x21BC JUMP JUMPDEST MUL OR SWAP1 SSTORE POP PUSH1 0x0 SLOAD PUSH2 0x1C8D SWAP1 PUSH1 0x1 PUSH1 0x1 PUSH1 0xA0 SHL SUB AND DUP3 PUSH2 0x1D5F JUMP JUMPDEST PUSH2 0x1CCF PUSH1 0x7 DUP5 DUP2 SLOAD DUP2 LT PUSH2 0x1CA3 JUMPI PUSH2 0x1CA3 PUSH2 0x23EE JUMP JUMPDEST PUSH1 0x0 SWAP2 DUP3 MSTORE PUSH1 0x20 SWAP1 SWAP2 KECCAK256 PUSH1 0x2 PUSH1 0xC SWAP1 SWAP3 MUL ADD ADD SLOAD PUSH1 0x1 PUSH1 0x1 PUSH1 0xA0 SHL SUB AND PUSH2 0x1CCA DUP4 DUP6 PUSH2 0x246C JUMP JUMPDEST PUSH2 0x1D5F JUMP JUMPDEST PUSH1 0x7 DUP4 DUP2 SLOAD DUP2 LT PUSH2 0x1CE2 JUMPI PUSH2 0x1CE2 PUSH2 0x23EE JUMP JUMPDEST SWAP1 PUSH1 0x0 MSTORE PUSH1 0x20 PUSH1 0x0 KECCAK256 SWAP1 PUSH1 0xC MUL ADD PUSH1 0x7 ADD SLOAD PUSH1 0x3 PUSH1 0x0 DUP3 DUP3 SLOAD PUSH2 0x1D05 SWAP2 SWAP1 PUSH2 0x246C JUMP JUMPDEST SWAP1 SWAP2 SSTORE POP POP PUSH1 0x40 DUP1 MLOAD DUP5 DUP2 MSTORE PUSH1 0x60 PUSH1 0x20 DUP3 ADD DUP2 SWAP1 MSTORE PUSH1 0xF SWAP1 DUP3 ADD MSTORE PUSH15 0x141493D29150D5081410525113D555 PUSH1 0x8A SHL PUSH1 0x80 DUP3 ADD MSTORE TIMESTAMP DUP2 DUP4 ADD MSTORE SWAP1 MLOAD CALLER SWAP2 PUSH1 0x0 DUP1 MLOAD PUSH1 0x20 PUSH2 0x24C5 DUP4 CODECOPY DUP2 MLOAD SWAP2 MSTORE SWAP2 SWAP1 DUP2 SWAP1 SUB PUSH1 0xA0 ADD SWAP1 LOG2 POP POP POP JUMP JUMPDEST PUSH1 0x0 DUP3 PUSH1 0x1 PUSH1 0x1 PUSH1 0xA0 SHL SUB AND DUP3 PUSH1 0x40 MLOAD PUSH1 0x0 PUSH1 0x40 MLOAD DUP1 DUP4 SUB DUP2 DUP6 DUP8 GAS CALL SWAP3 POP POP POP RETURNDATASIZE DUP1 PUSH1 0x0 DUP2 EQ PUSH2 0x1DAC JUMPI PUSH1 0x40 MLOAD SWAP2 POP PUSH1 0x1F NOT PUSH1 0x3F RETURNDATASIZE ADD AND DUP3 ADD PUSH1 0x40 MSTORE RETURNDATASIZE DUP3 MSTORE RETURNDATASIZE PUSH1 0x0 PUSH1 0x20 DUP5 ADD RETURNDATACOPY PUSH2 0x1DB1 JUMP JUMPDEST PUSH1 0x60 SWAP2 POP JUMPDEST POP POP SWAP1 POP DUP1 PUSH2 0x1DBF JUMPI PUSH1 0x0 DUP1 REVERT JUMPDEST POP POP POP JUMP JUMPDEST PUSH1 0x40 MLOAD DUP1 PUSH2 0x180 ADD PUSH1 0x40 MSTORE DUP1 PUSH1 0x0 DUP2 MSTORE PUSH1 0x20 ADD PUSH1 0x0 PUSH1 0x1 PUSH1 0x1 PUSH1 0xA0 SHL SUB AND DUP2 MSTORE PUSH1 0x20 ADD PUSH1 0x0 PUSH1 0x1 PUSH1 0x1 PUSH1 0xA0 SHL SUB AND DUP2 MSTORE PUSH1 0x20 ADD PUSH1 0x60 DUP2 MSTORE PUSH1 0x20 ADD PUSH1 0x60 DUP2 MSTORE PUSH1 0x20 ADD PUSH1 0x60 DUP2 MSTORE PUSH1 0x20 ADD PUSH1 0x0 DUP2 MSTORE PUSH1 0x20 ADD PUSH1 0x0 DUP2 MSTORE PUSH1 0x20 ADD PUSH1 0x0 DUP2 MSTORE PUSH1 0x20 ADD PUSH1 0x0 DUP2 MSTORE PUSH1 0x20 ADD PUSH1 0x0 DUP2 MSTORE PUSH1 0x20 ADD PUSH1 0x0 PUSH1 0x4 DUP2 GT ISZERO PUSH2 0x1E42 JUMPI PUSH2 0x1E42 PUSH2 0x21BC JUMP JUMPDEST SWAP1 MSTORE SWAP1 JUMP JUMPDEST DUP3 DUP1 SLOAD PUSH2 0x1E53 SWAP1 PUSH2 0x2431 JUMP JUMPDEST SWAP1 PUSH1 0x0 MSTORE PUSH1 0x20 PUSH1 0x0 KECCAK256 SWAP1 PUSH1 0x1F ADD PUSH1 0x20 SWAP1 DIV DUP2 ADD SWAP3 DUP3 PUSH2 0x1E75 JUMPI PUSH1 0x0 DUP6 SSTORE PUSH2 0x1EBB JUMP JUMPDEST DUP3 PUSH1 0x1F LT PUSH2 0x1E8E JUMPI DUP1 MLOAD PUSH1 0xFF NOT AND DUP4 DUP1 ADD OR DUP6 SSTORE PUSH2 0x1EBB JUMP JUMPDEST DUP3 DUP1 ADD PUSH1 0x1 ADD DUP6 SSTORE DUP3 ISZERO PUSH2 0x1EBB JUMPI SWAP2 DUP3 ADD JUMPDEST DUP3 DUP2 GT ISZERO PUSH2 0x1EBB JUMPI DUP3 MLOAD DUP3 SSTORE SWAP2 PUSH1 0x20 ADD SWAP2 SWAP1 PUSH1 0x1 ADD SWAP1 PUSH2 0x1EA0 JUMP JUMPDEST POP PUSH2 0x1EC7 SWAP3 SWAP2 POP PUSH2 0x1ECB JUMP JUMPDEST POP SWAP1 JUMP JUMPDEST JUMPDEST DUP1 DUP3 GT ISZERO PUSH2 0x1EC7 JUMPI PUSH1 0x0 DUP2 SSTORE PUSH1 0x1 ADD PUSH2 0x1ECC JUMP JUMPDEST PUSH4 0x4E487B71 PUSH1 0xE0 SHL PUSH1 0x0 MSTORE PUSH1 0x41 PUSH1 0x4 MSTORE PUSH1 0x24 PUSH1 0x0 REVERT JUMPDEST PUSH1 0x0 DUP3 PUSH1 0x1F DUP4 ADD SLT PUSH2 0x1F07 JUMPI PUSH1 0x0 DUP1 REVERT JUMPDEST DUP2 CALLDATALOAD PUSH8 0xFFFFFFFFFFFFFFFF DUP1 DUP3 GT ISZERO PUSH2 0x1F22 JUMPI PUSH2 0x1F22 PUSH2 0x1EE0 JUMP JUMPDEST PUSH1 0x40 MLOAD PUSH1 0x1F DUP4 ADD PUSH1 0x1F NOT SWAP1 DUP2 AND PUSH1 0x3F ADD AND DUP2 ADD SWAP1 DUP3 DUP3 GT DUP2 DUP4 LT OR ISZERO PUSH2 0x1F4A JUMPI PUSH2 0x1F4A PUSH2 0x1EE0 JUMP JUMPDEST DUP2 PUSH1 0x40 MSTORE DUP4 DUP2 MSTORE DUP7 PUSH1 0x20 DUP6 DUP9 ADD ADD GT ISZERO PUSH2 0x1F63 JUMPI PUSH1 0x0 DUP1 REVERT JUMPDEST DUP4 PUSH1 0x20 DUP8 ADD PUSH1 0x20 DUP4 ADD CALLDATACOPY PUSH1 0x0 PUSH1 0x20 DUP6 DUP4 ADD ADD MSTORE DUP1 SWAP5 POP POP POP POP POP SWAP3 SWAP2 POP POP JUMP JUMPDEST PUSH1 0x0 DUP1 PUSH1 0x0 DUP1 PUSH1 0x0 PUSH1 0xA0 DUP7 DUP9 SUB SLT ISZERO PUSH2 0x1F9B JUMPI PUSH1 0x0 DUP1 REVERT JUMPDEST DUP6 CALLDATALOAD PUSH8 0xFFFFFFFFFFFFFFFF DUP1 DUP3 GT ISZERO PUSH2 0x1FB3 JUMPI PUSH1 0x0 DUP1 REVERT JUMPDEST PUSH2 0x1FBF DUP10 DUP4 DUP11 ADD PUSH2 0x1EF6 JUMP JUMPDEST SWAP7 POP PUSH1 0x20 DUP9 ADD CALLDATALOAD SWAP2 POP DUP1 DUP3 GT ISZERO PUSH2 0x1FD5 JUMPI PUSH1 0x0 DUP1 REVERT JUMPDEST PUSH2 0x1FE1 DUP10 DUP4 DUP11 ADD PUSH2 0x1EF6 JUMP JUMPDEST SWAP6 POP PUSH1 0x40 DUP9 ADD CALLDATALOAD SWAP2 POP DUP1 DUP3 GT ISZERO PUSH2 0x1FF7 JUMPI PUSH1 0x0 DUP1 REVERT JUMPDEST POP PUSH2 0x2004 DUP9 DUP3 DUP10 ADD PUSH2 0x1EF6 JUMP JUMPDEST SWAP6 SWAP9 SWAP5 SWAP8 POP SWAP5 SWAP6 PUSH1 0x60 DUP2 ADD CALLDATALOAD SWAP6 POP PUSH1 0x80 ADD CALLDATALOAD SWAP4 SWAP3 POP POP POP JUMP JUMPDEST PUSH1 0x0 PUSH1 0x20 DUP3 DUP5 SUB SLT ISZERO PUSH2 0x202F JUMPI PUSH1 0x0 DUP1 REVERT JUMPDEST DUP2 CALLDATALOAD PUSH1 0x1 PUSH1 0x1 PUSH1 0xA0 SHL SUB DUP2 AND DUP2 EQ PUSH2 0x2046 JUMPI PUSH1 0x0 DUP1 REVERT JUMPDEST SWAP4 SWAP3 POP POP POP JUMP JUMPDEST PUSH1 0x0 PUSH1 0x20 DUP3 DUP5 SUB SLT ISZERO PUSH2 0x205F JUMPI PUSH1 0x0 DUP1 REVERT JUMPDEST POP CALLDATALOAD SWAP2 SWAP1 POP JUMP JUMPDEST PUSH1 0x0 DUP1 PUSH1 0x0 DUP1 PUSH1 0x0 PUSH1 0xA0 DUP7 DUP9 SUB SLT ISZERO PUSH2 0x207E JUMPI PUSH1 0x0 DUP1 REVERT JUMPDEST DUP6 CALLDATALOAD SWAP5 POP PUSH1 0x20 DUP7 ADD CALLDATALOAD PUSH8 0xFFFFFFFFFFFFFFFF DUP1 DUP3 GT ISZERO PUSH2 0x209D JUMPI PUSH1 0x0 DUP1 REVERT JUMPDEST PUSH2 0x20A9 DUP10 DUP4 DUP11 ADD PUSH2 0x1EF6 JUMP JUMPDEST SWAP6 POP PUSH1 0x40 DUP9 ADD CALLDATALOAD SWAP2 POP DUP1 DUP3 GT ISZERO PUSH2 0x20BF JUMPI PUSH1 0x0 DUP1 REVERT JUMPDEST PUSH2 0x20CB DUP10 DUP4 DUP11 ADD PUSH2 0x1EF6 JUMP JUMPDEST SWAP5 POP PUSH1 0x60 DUP9 ADD CALLDATALOAD SWAP2 POP DUP1 DUP3 GT ISZERO PUSH2 0x20E1 JUMPI PUSH1 0x0 DUP1 REVERT JUMPDEST POP PUSH2 0x20EE DUP9 DUP3 DUP10 ADD PUSH2 0x1EF6 JUMP JUMPDEST SWAP6 SWAP9 SWAP5 SWAP8 POP SWAP3 SWAP6 PUSH1 0x80 ADD CALLDATALOAD SWAP4 SWAP3 POP POP POP JUMP JUMPDEST PUSH1 0x20 DUP1 DUP3 MSTORE DUP3 MLOAD DUP3 DUP3 ADD DUP2 SWAP1 MSTORE PUSH1 0x0 SWAP2 SWAP1 PUSH1 0x40 SWAP1 DUP2 DUP6 ADD SWAP1 DUP7 DUP5 ADD DUP6 JUMPDEST DUP3 DUP2 LT ISZERO PUSH2 0x2162 JUMPI DUP2 MLOAD DUP1 MLOAD PUSH1 0x1 PUSH1 0x1 PUSH1 0xA0 SHL SUB AND DUP6 MSTORE DUP7 DUP2 ADD MLOAD DUP8 DUP7 ADD MSTORE DUP6 DUP2 ADD MLOAD DUP7 DUP7 ADD MSTORE PUSH1 0x60 SWAP1 DUP2 ADD MLOAD ISZERO ISZERO SWAP1 DUP6 ADD MSTORE PUSH1 0x80 SWAP1 SWAP4 ADD SWAP3 SWAP1 DUP6 ADD SWAP1 PUSH1 0x1 ADD PUSH2 0x211D JUMP JUMPDEST POP SWAP2 SWAP8 SWAP7 POP POP POP POP POP POP POP JUMP JUMPDEST PUSH1 0x0 DUP2 MLOAD DUP1 DUP5 MSTORE PUSH1 0x0 JUMPDEST DUP2 DUP2 LT ISZERO PUSH2 0x2195 JUMPI PUSH1 0x20 DUP2 DUP6 ADD DUP2 ADD MLOAD DUP7 DUP4 ADD DUP3 ADD MSTORE ADD PUSH2 0x2179 JUMP JUMPDEST DUP2 DUP2 GT ISZERO PUSH2 0x21A7 JUMPI PUSH1 0x0 PUSH1 0x20 DUP4 DUP8 ADD ADD MSTORE JUMPDEST POP PUSH1 0x1F ADD PUSH1 0x1F NOT AND SWAP3 SWAP1 SWAP3 ADD PUSH1 0x20 ADD SWAP3 SWAP2 POP POP JUMP JUMPDEST PUSH4 0x4E487B71 PUSH1 0xE0 SHL PUSH1 0x0 MSTORE PUSH1 0x21 PUSH1 0x4 MSTORE PUSH1 0x24 PUSH1 0x0 REVERT JUMPDEST PUSH1 0x5 DUP2 LT PUSH2 0x21F0 JUMPI PUSH4 0x4E487B71 PUSH1 0xE0 SHL PUSH1 0x0 MSTORE PUSH1 0x21 PUSH1 0x4 MSTORE PUSH1 0x24 PUSH1 0x0 REVERT JUMPDEST SWAP1 MSTORE JUMP JUMPDEST PUSH1 0x0 PUSH2 0x180 DUP3 MLOAD DUP5 MSTORE PUSH1 0x20 DUP4 ADD MLOAD PUSH2 0x2217 PUSH1 0x20 DUP7 ADD DUP3 PUSH1 0x1 PUSH1 0x1 PUSH1 0xA0 SHL SUB AND SWAP1 MSTORE JUMP JUMPDEST POP PUSH1 0x40 DUP4 ADD MLOAD PUSH2 0x2232 PUSH1 0x40 DUP7 ADD DUP3 PUSH1 0x1 PUSH1 0x1 PUSH1 0xA0 SHL SUB AND SWAP1 MSTORE JUMP JUMPDEST POP PUSH1 0x60 DUP4 ADD MLOAD DUP2 PUSH1 0x60 DUP7 ADD MSTORE PUSH2 0x224A DUP3 DUP7 ADD DUP3 PUSH2 0x216F JUMP JUMPDEST SWAP2 POP POP PUSH1 0x80 DUP4 ADD MLOAD DUP5 DUP3 SUB PUSH1 0x80 DUP7 ADD MSTORE PUSH2 0x2264 DUP3 DUP3 PUSH2 0x216F JUMP JUMPDEST SWAP2 POP POP PUSH1 0xA0 DUP4 ADD MLOAD DUP5 DUP3 SUB PUSH1 0xA0 DUP7 ADD MSTORE PUSH2 0x227E DUP3 DUP3 PUSH2 0x216F JUMP JUMPDEST SWAP2 POP POP PUSH1 0xC0 DUP4 ADD MLOAD PUSH1 0xC0 DUP6 ADD MSTORE PUSH1 0xE0 DUP4 ADD MLOAD PUSH1 0xE0 DUP6 ADD MSTORE PUSH2 0x100 DUP1 DUP5 ADD MLOAD DUP2 DUP7 ADD MSTORE POP PUSH2 0x120 DUP1 DUP5 ADD MLOAD DUP2 DUP7 ADD MSTORE POP PUSH2 0x140 DUP1 DUP5 ADD MLOAD DUP2 DUP7 ADD MSTORE POP PUSH2 0x160 DUP1 DUP5 ADD MLOAD PUSH2 0x22CC DUP3 DUP8 ADD DUP3 PUSH2 0x21D2 JUMP JUMPDEST POP SWAP1 SWAP5 SWAP4 POP POP POP POP JUMP JUMPDEST PUSH1 0x0 PUSH1 0x20 DUP1 DUP4 ADD DUP2 DUP5 MSTORE DUP1 DUP6 MLOAD DUP1 DUP4 MSTORE PUSH1 0x40 DUP7 ADD SWAP2 POP PUSH1 0x40 DUP2 PUSH1 0x5 SHL DUP8 ADD ADD SWAP3 POP DUP4 DUP8 ADD PUSH1 0x0 JUMPDEST DUP3 DUP2 LT ISZERO PUSH2 0x232B JUMPI PUSH1 0x3F NOT DUP9 DUP7 SUB ADD DUP5 MSTORE PUSH2 0x2319 DUP6 DUP4 MLOAD PUSH2 0x21F4 JUMP JUMPDEST SWAP5 POP SWAP3 DUP6 ADD SWAP3 SWAP1 DUP6 ADD SWAP1 PUSH1 0x1 ADD PUSH2 0x22FD JUMP JUMPDEST POP SWAP3 SWAP8 SWAP7 POP POP POP POP POP POP POP JUMP JUMPDEST PUSH1 0x20 DUP2 MSTORE PUSH1 0x0 PUSH2 0x2046 PUSH1 0x20 DUP4 ADD DUP5 PUSH2 0x21F4 JUMP JUMPDEST PUSH1 0x20 DUP1 DUP3 MSTORE PUSH1 0x15 SWAP1 DUP3 ADD MSTORE PUSH21 0x43726561746F72207265736572766564206F6E6C79 PUSH1 0x58 SHL PUSH1 0x40 DUP3 ADD MSTORE PUSH1 0x60 ADD SWAP1 JUMP JUMPDEST PUSH4 0x4E487B71 PUSH1 0xE0 SHL PUSH1 0x0 MSTORE PUSH1 0x11 PUSH1 0x4 MSTORE PUSH1 0x24 PUSH1 0x0 REVERT JUMPDEST PUSH1 0x0 DUP3 NOT DUP3 GT ISZERO PUSH2 0x23A3 JUMPI PUSH2 0x23A3 PUSH2 0x237A JUMP JUMPDEST POP ADD SWAP1 JUMP JUMPDEST PUSH1 0x0 PUSH1 0x0 NOT DUP3 EQ ISZERO PUSH2 0x23BC JUMPI PUSH2 0x23BC PUSH2 0x237A JUMP JUMPDEST POP PUSH1 0x1 ADD SWAP1 JUMP JUMPDEST PUSH1 0x20 DUP1 DUP3 MSTORE PUSH1 0x11 SWAP1 DUP3 ADD MSTORE PUSH17 0x141C9BDA9958DD081B9BDD08199BDD5B99 PUSH1 0x7A SHL PUSH1 0x40 DUP3 ADD MSTORE PUSH1 0x60 ADD SWAP1 JUMP JUMPDEST PUSH4 0x4E487B71 PUSH1 0xE0 SHL PUSH1 0x0 MSTORE PUSH1 0x32 PUSH1 0x4 MSTORE PUSH1 0x24 PUSH1 0x0 REVERT JUMPDEST PUSH1 0x20 DUP1 DUP3 MSTORE PUSH1 0x13 SWAP1 DUP3 ADD MSTORE PUSH19 0x556E617574686F72697A656420456E74697479 PUSH1 0x68 SHL PUSH1 0x40 DUP3 ADD MSTORE PUSH1 0x60 ADD SWAP1 JUMP JUMPDEST PUSH1 0x1 DUP2 DUP2 SHR SWAP1 DUP3 AND DUP1 PUSH2 0x2445 JUMPI PUSH1 0x7F DUP3 AND SWAP2 POP JUMPDEST PUSH1 0x20 DUP3 LT DUP2 EQ ISZERO PUSH2 0x2466 JUMPI PUSH4 0x4E487B71 PUSH1 0xE0 SHL PUSH1 0x0 MSTORE PUSH1 0x22 PUSH1 0x4 MSTORE PUSH1 0x24 PUSH1 0x0 REVERT JUMPDEST POP SWAP2 SWAP1 POP JUMP JUMPDEST PUSH1 0x0 DUP3 DUP3 LT ISZERO PUSH2 0x247E JUMPI PUSH2 0x247E PUSH2 0x237A JUMP JUMPDEST POP SUB SWAP1 JUMP JUMPDEST PUSH1 0x0 DUP2 PUSH1 0x0 NOT DIV DUP4 GT DUP3 ISZERO ISZERO AND ISZERO PUSH2 0x249D JUMPI PUSH2 0x249D PUSH2 0x237A JUMP JUMPDEST POP MUL SWAP1 JUMP JUMPDEST PUSH1 0x0 DUP3 PUSH2 0x24BF JUMPI PUSH4 0x4E487B71 PUSH1 0xE0 SHL PUSH1 0x0 MSTORE PUSH1 0x12 PUSH1 0x4 MSTORE PUSH1 0x24 PUSH1 0x0 REVERT JUMPDEST POP DIV SWAP1 JUMP INVALID 0xAE 0xE8 0xE5 0xD3 0xBB 0xB2 0xF7 BYTE SWAP6 SHL JUMP ORIGIN 0xCE 0xE2 0xF PUSH27 0xC487B9F8AB4F66A236F7694B13AF7C6AA264697066735822122070 PUSH29 0xFBA05DF5E789BF3B8C3049170B8B3DB1CDF958903C00843649A5795F88 0x2C PUSH5 0x736F6C6343 STOP ADDMOD SIGNEXTEND STOP CALLER "},"methodIdentifiers":{"addCreator(address)":"3b9dce05","backProject(uint256)":"9f39a194","balance()":"b69ef8a8","changeTax(uint256)":"3e45c8af","createProject(string,string,string,uint256,uint256)":"056c29ee","deleteProject(uint256)":"4cd0cb28","getBackers(uint256)":"c9168b72","getProject(uint256)":"f0f3f2c8","getProjects()":"dcc60128","isAppOwner()":"ca766f64","isAppOwner(address)":"1453d482","isCreator(address)":"efd46065","owner()":"8da5cb5b","payOutProject(uint256)":"b531dcba","projectCount()":"36fbad26","projectExist(uint256)":"8593054b","projectTax()":"d24cd3ec","requestRefund(uint256)":"a4b2409e","stats()":"d80528ae","updateProject(uint256,string,string,string,uint256)":"9a3fa8c7"}}}}}