{"src/contracts/NTPUFund.sol":{"NTPUFund":{"abi":[{"inputs":[{"internalType":"uint256","name":"_projectTax","type":"uint256"},{"internalType":"uint256","name":"_fundingInstallment","type":"uint256"}],"stateMutability":"nonpayable","type":"constructor"},{"inputs":[{"internalType":"address","name":"sender","type":"address"},{"internalType":"uint256","name":"tokenId","type":"uint256"},{"internalType":"address","name":"owner","type":"address"}],"name":"ERC721IncorrectOwner","type":"error"},{"inputs":[{"internalType":"address","name":"operator","type":"address"},{"internalType":"uint256","name":"tokenId","type":"uint256"}],"name":"ERC721InsufficientApproval","type":"error"},{"inputs":[{"internalType":"address","name":"approver","type":"address"}],"name":"ERC721InvalidApprover","type":"error"},{"inputs":[{"internalType":"address","name":"operator","type":"address"}],"name":"ERC721InvalidOperator","type":"error"},{"inputs":[{"internalType":"address","name":"owner","type":"address"}],"name":"ERC721InvalidOwner","type":"error"},{"inputs":[{"internalType":"address","name":"receiver","type":"address"}],"name":"ERC721InvalidReceiver","type":"error"},{"inputs":[{"internalType":"address","name":"sender","type":"address"}],"name":"ERC721InvalidSender","type":"error"},{"inputs":[{"internalType":"uint256","name":"tokenId","type":"uint256"}],"name":"ERC721NonexistentToken","type":"error"},{"anonymous":false,"inputs":[{"indexed":false,"internalType":"uint256","name":"id","type":"uint256"},{"indexed":false,"internalType":"string","name":"actionType","type":"string"},{"indexed":true,"internalType":"address","name":"executor","type":"address"},{"indexed":false,"internalType":"uint256","name":"timestamp","type":"uint256"}],"name":"Action","type":"event"},{"anonymous":false,"inputs":[{"indexed":true,"internalType":"address","name":"owner","type":"address"},{"indexed":true,"internalType":"address","name":"approved","type":"address"},{"indexed":true,"internalType":"uint256","name":"tokenId","type":"uint256"}],"name":"Approval","type":"event"},{"anonymous":false,"inputs":[{"indexed":true,"internalType":"address","name":"owner","type":"address"},{"indexed":true,"internalType":"address","name":"operator","type":"address"},{"indexed":false,"internalType":"bool","name":"approved","type":"bool"}],"name":"ApprovalForAll","type":"event"},{"anonymous":false,"inputs":[{"indexed":false,"internalType":"uint256","name":"_fromTokenId","type":"uint256"},{"indexed":false,"internalType":"uint256","name":"_toTokenId","type":"uint256"}],"name":"BatchMetadataUpdate","type":"event"},{"anonymous":false,"inputs":[{"indexed":false,"internalType":"uint256","name":"_tokenId","type":"uint256"}],"name":"MetadataUpdate","type":"event"},{"anonymous":false,"inputs":[{"indexed":true,"internalType":"address","name":"from","type":"address"},{"indexed":true,"internalType":"address","name":"to","type":"address"},{"indexed":true,"internalType":"uint256","name":"tokenId","type":"uint256"}],"name":"Transfer","type":"event"},{"inputs":[{"internalType":"address","name":"","type":"address"}],"name":"CreatorExist","outputs":[{"internalType":"bool","name":"","type":"bool"}],"stateMutability":"view","type":"function"},{"inputs":[{"internalType":"address","name":"","type":"address"},{"internalType":"uint256","name":"","type":"uint256"}],"name":"UserOfNFTs","outputs":[{"internalType":"uint256","name":"","type":"uint256"}],"stateMutability":"view","type":"function"},{"inputs":[{"internalType":"address","name":"_newCreator","type":"address"}],"name":"addCreator","outputs":[],"stateMutability":"nonpayable","type":"function"},{"inputs":[{"internalType":"address","name":"to","type":"address"},{"internalType":"uint256","name":"tokenId","type":"uint256"}],"name":"approve","outputs":[],"stateMutability":"nonpayable","type":"function"},{"inputs":[{"internalType":"uint256","name":"id","type":"uint256"}],"name":"backProject","outputs":[{"internalType":"bool","name":"","type":"bool"}],"stateMutability":"payable","type":"function"},{"inputs":[{"internalType":"address","name":"owner","type":"address"}],"name":"balanceOf","outputs":[{"internalType":"uint256","name":"","type":"uint256"}],"stateMutability":"view","type":"function"},{"inputs":[{"internalType":"uint256","name":"_taxPct","type":"uint256"}],"name":"changeTax","outputs":[],"stateMutability":"nonpayable","type":"function"},{"inputs":[{"internalType":"string","name":"title","type":"string"},{"internalType":"string","name":"description","type":"string"},{"internalType":"string","name":"imageURL","type":"string"},{"internalType":"uint256","name":"cost","type":"uint256"},{"internalType":"uint256","name":"duration","type":"uint256"},{"internalType":"uint256","name":"expiresAt","type":"uint256"}],"name":"createProject","outputs":[{"internalType":"bool","name":"","type":"bool"}],"stateMutability":"nonpayable","type":"function"},{"inputs":[{"internalType":"uint256","name":"id","type":"uint256"}],"name":"deleteProject","outputs":[{"internalType":"bool","name":"","type":"bool"}],"stateMutability":"nonpayable","type":"function"},{"inputs":[],"name":"fundingInstallment","outputs":[{"internalType":"uint256","name":"","type":"uint256"}],"stateMutability":"view","type":"function"},{"inputs":[{"internalType":"uint256","name":"tokenId","type":"uint256"}],"name":"getApproved","outputs":[{"internalType":"address","name":"","type":"address"}],"stateMutability":"view","type":"function"},{"inputs":[{"internalType":"uint256","name":"id","type":"uint256"}],"name":"getBackers","outputs":[{"components":[{"internalType":"address","name":"owner","type":"address"},{"internalType":"uint256","name":"contributions","type":"uint256"},{"internalType":"uint256","name":"timestamp","type":"uint256"},{"internalType":"bool","name":"refunded","type":"bool"}],"internalType":"struct NTPUFund.backerStruct[]","name":"","type":"tuple[]"}],"stateMutability":"view","type":"function"},{"inputs":[{"internalType":"uint256","name":"id","type":"uint256"}],"name":"getBackersLength","outputs":[{"internalType":"uint256","name":"","type":"uint256"}],"stateMutability":"view","type":"function"},{"inputs":[],"name":"getBlockTime","outputs":[{"internalType":"uint256","name":"","type":"uint256"}],"stateMutability":"view","type":"function"},{"inputs":[],"name":"getFundingInstallment","outputs":[{"internalType":"uint256","name":"","type":"uint256"}],"stateMutability":"view","type":"function"},{"inputs":[{"internalType":"address","name":"_owner","type":"address"}],"name":"getNfts","outputs":[{"internalType":"string[]","name":"","type":"string[]"}],"stateMutability":"view","type":"function"},{"inputs":[{"internalType":"uint256","name":"id","type":"uint256"}],"name":"getProject","outputs":[{"components":[{"internalType":"uint256","name":"id","type":"uint256"},{"internalType":"address","name":"project","type":"address"},{"internalType":"address","name":"owner","type":"address"},{"internalType":"string","name":"title","type":"string"},{"internalType":"string","name":"description","type":"string"},{"internalType":"string","name":"imageURL","type":"string"},{"internalType":"uint256","name":"cost","type":"uint256"},{"internalType":"uint256","name":"raised","type":"uint256"},{"internalType":"uint256","name":"timestamp","type":"uint256"},{"internalType":"uint256","name":"duration","type":"uint256"},{"internalType":"uint256","name":"fundReviewAt","type":"uint256"},{"internalType":"uint256","name":"expiresAt","type":"uint256"},{"internalType":"uint256","name":"backers","type":"uint256"},{"internalType":"enum NTPUFund.statusEnum","name":"status","type":"uint8"}],"internalType":"struct NTPUFund.projectStruct","name":"","type":"tuple"}],"stateMutability":"view","type":"function"},{"inputs":[],"name":"getProjects","outputs":[{"components":[{"internalType":"uint256","name":"id","type":"uint256"},{"internalType":"address","name":"project","type":"address"},{"internalType":"address","name":"owner","type":"address"},{"internalType":"string","name":"title","type":"string"},{"internalType":"string","name":"description","type":"string"},{"internalType":"string","name":"imageURL","type":"string"},{"internalType":"uint256","name":"cost","type":"uint256"},{"internalType":"uint256","name":"raised","type":"uint256"},{"internalType":"uint256","name":"timestamp","type":"uint256"},{"internalType":"uint256","name":"duration","type":"uint256"},{"internalType":"uint256","name":"fundReviewAt","type":"uint256"},{"internalType":"uint256","name":"expiresAt","type":"uint256"},{"internalType":"uint256","name":"backers","type":"uint256"},{"internalType":"enum NTPUFund.statusEnum","name":"status","type":"uint8"}],"internalType":"struct NTPUFund.projectStruct[]","name":"","type":"tuple[]"}],"stateMutability":"view","type":"function"},{"inputs":[{"internalType":"address","name":"addr","type":"address"}],"name":"isAppOwner","outputs":[{"internalType":"bool","name":"","type":"bool"}],"stateMutability":"view","type":"function"},{"inputs":[],"name":"isAppOwner","outputs":[{"internalType":"bool","name":"","type":"bool"}],"stateMutability":"view","type":"function"},{"inputs":[{"internalType":"address","name":"owner","type":"address"},{"internalType":"address","name":"operator","type":"address"}],"name":"isApprovedForAll","outputs":[{"internalType":"bool","name":"","type":"bool"}],"stateMutability":"view","type":"function"},{"inputs":[{"internalType":"address","name":"addr","type":"address"}],"name":"isCreator","outputs":[{"internalType":"bool","name":"","type":"bool"}],"stateMutability":"view","type":"function"},{"inputs":[{"internalType":"uint256","name":"id","type":"uint256"}],"name":"isExpired","outputs":[{"internalType":"bool","name":"","type":"bool"}],"stateMutability":"view","type":"function"},{"inputs":[{"internalType":"uint256","name":"id","type":"uint256"},{"internalType":"address","name":"addr","type":"address"}],"name":"isProjectCreator","outputs":[{"internalType":"bool","name":"","type":"bool"}],"stateMutability":"view","type":"function"},{"inputs":[],"name":"name","outputs":[{"internalType":"string","name":"","type":"string"}],"stateMutability":"view","type":"function"},{"inputs":[],"name":"owner","outputs":[{"internalType":"address","name":"","type":"address"}],"stateMutability":"view","type":"function"},{"inputs":[{"internalType":"uint256","name":"tokenId","type":"uint256"}],"name":"ownerOf","outputs":[{"internalType":"address","name":"","type":"address"}],"stateMutability":"view","type":"function"},{"inputs":[{"internalType":"uint256","name":"id","type":"uint256"},{"internalType":"uint256","name":"installment","type":"uint256"}],"name":"payOutProjectOneUnit","outputs":[{"internalType":"bool","name":"","type":"bool"}],"stateMutability":"nonpayable","type":"function"},{"inputs":[{"internalType":"uint256","name":"id","type":"uint256"}],"name":"performRefund","outputs":[],"stateMutability":"nonpayable","type":"function"},{"inputs":[],"name":"projectCount","outputs":[{"internalType":"uint256","name":"","type":"uint256"}],"stateMutability":"view","type":"function"},{"inputs":[{"internalType":"uint256","name":"","type":"uint256"}],"name":"projectExist","outputs":[{"internalType":"bool","name":"","type":"bool"}],"stateMutability":"view","type":"function"},{"inputs":[{"internalType":"uint256","name":"","type":"uint256"},{"internalType":"uint256","name":"","type":"uint256"}],"name":"projectOfNFTs","outputs":[{"internalType":"uint256","name":"","type":"uint256"}],"stateMutability":"view","type":"function"},{"inputs":[],"name":"projectTax","outputs":[{"internalType":"uint256","name":"","type":"uint256"}],"stateMutability":"view","type":"function"},{"inputs":[{"internalType":"uint256","name":"id","type":"uint256"},{"internalType":"uint256","name":"currentTime","type":"uint256"}],"name":"requestRefund","outputs":[{"internalType":"bool","name":"","type":"bool"}],"stateMutability":"nonpayable","type":"function"},{"inputs":[{"internalType":"address","name":"from","type":"address"},{"internalType":"address","name":"to","type":"address"},{"internalType":"uint256","name":"tokenId","type":"uint256"}],"name":"safeTransferFrom","outputs":[],"stateMutability":"nonpayable","type":"function"},{"inputs":[{"internalType":"address","name":"from","type":"address"},{"internalType":"address","name":"to","type":"address"},{"internalType":"uint256","name":"tokenId","type":"uint256"},{"internalType":"bytes","name":"data","type":"bytes"}],"name":"safeTransferFrom","outputs":[],"stateMutability":"nonpayable","type":"function"},{"inputs":[{"internalType":"address","name":"operator","type":"address"},{"internalType":"bool","name":"approved","type":"bool"}],"name":"setApprovalForAll","outputs":[],"stateMutability":"nonpayable","type":"function"},{"inputs":[{"internalType":"uint256","name":"id","type":"uint256"}],"name":"startProject","outputs":[{"internalType":"bool","name":"","type":"bool"}],"stateMutability":"nonpayable","type":"function"},{"inputs":[],"name":"stats","outputs":[{"internalType":"uint256","name":"totalProject","type":"uint256"},{"internalType":"uint256","name":"totalBacking","type":"uint256"},{"internalType":"uint256","name":"totalDonations","type":"uint256"}],"stateMutability":"view","type":"function"},{"inputs":[{"internalType":"bytes4","name":"interfaceId","type":"bytes4"}],"name":"supportsInterface","outputs":[{"internalType":"bool","name":"","type":"bool"}],"stateMutability":"view","type":"function"},{"inputs":[],"name":"symbol","outputs":[{"internalType":"string","name":"","type":"string"}],"stateMutability":"view","type":"function"},{"inputs":[],"name":"tokenCounter","outputs":[{"internalType":"uint256","name":"","type":"uint256"}],"stateMutability":"view","type":"function"},{"inputs":[{"internalType":"uint256","name":"tokenId","type":"uint256"}],"name":"tokenURI","outputs":[{"internalType":"string","name":"","type":"string"}],"stateMutability":"view","type":"function"},{"inputs":[{"internalType":"address","name":"from","type":"address"},{"internalType":"address","name":"to","type":"address"},{"internalType":"uint256","name":"tokenId","type":"uint256"}],"name":"transferFrom","outputs":[],"stateMutability":"nonpayable","type":"function"}],"evm":{"bytecode":{"linkReferences":{},"object":"608060405234801561001057600080fd5b5060405161438938038061438983398101604081905261002f916100b1565b60405180604001604052806008815260200167139d1c1d519d5b9960c21b815250604051806040016040528060048152602001634e54505560e01b815250816000908161007c9190610174565b5060016100898282610174565b50506000600b5550600780546001600160a01b03191633179055600891909155600955610232565b600080604083850312156100c457600080fd5b505080516020909101519092909150565b634e487b7160e01b600052604160045260246000fd5b600181811c908216806100ff57607f821691505b60208210810361011f57634e487b7160e01b600052602260045260246000fd5b50919050565b601f82111561016f57806000526020600020601f840160051c8101602085101561014c5750805b601f840160051c820191505b8181101561016c5760008155600101610158565b50505b505050565b81516001600160401b0381111561018d5761018d6100d5565b6101a18161019b84546100eb565b84610125565b6020601f8211600181146101d557600083156101bd5750848201515b600019600385901b1c1916600184901b17845561016c565b600084815260208120601f198516915b8281101561020557878501518255602094850194600190920191016101e5565b50848210156102235786840151600019600387901b60f8161c191681555b50505050600190811b01905550565b614148806102416000396000f3fe6080604052600436106102665760003560e01c80638da5cb5b11610144578063d80528ae116100b6578063e985e9c51161007a578063e985e9c514610767578063efd4606514610787578063f0f3f2c8146107c0578063f62bf2de146107ed578063f7767c931461080d578063ff872e4e1461083d57600080fd5b8063d80528ae146106b6578063d9548e53146106f0578063dcc6012814610710578063def756e214610732578063e7c6c1b11461075257600080fd5b8063c1ada37e11610108578063c1ada37e146105fd578063c87b56dd1461061d578063c9168b721461063d578063ca766f641461066a578063d082e3811461068a578063d24cd3ec146106a057600080fd5b80638da5cb5b1461057557806395d89b41146105955780639f39a194146105aa578063a22cb465146105bd578063b88d4fde146105dd57600080fd5b80633d061498116101dd5780635fe68f47116101a15780635fe68f47146104b25780636352211e146104d25780636c57ebdf146104f257806370a08231146105125780638593054b1461053257806387ceff091461056257600080fd5b80633d061498146104055780633e45c8af1461042557806342842e0e1461044557806344cc2afe146104655780634cd0cb281461049257600080fd5b8063099456441161022f578063099456441461033c5780631453d482146103605780631d8394bd1461038f57806323b872dd146103af57806336fbad26146103cf5780633b9dce05146103e557600080fd5b8062e6652a1461026b57806301ffc9a7146102a057806306fdde03146102c0578063081812fc146102e2578063095ea7b31461031a575b600080fd5b34801561027757600080fd5b5061028b6102863660046136e6565b61085d565b60405190151581526020015b60405180910390f35b3480156102ac57600080fd5b5061028b6102bb366004613721565b61096b565b3480156102cc57600080fd5b506102d5610976565b604051610297919061378e565b3480156102ee57600080fd5b506103026102fd3660046137a1565b610a08565b6040516001600160a01b039091168152602001610297565b34801561032657600080fd5b5061033a6103353660046137d1565b610a31565b005b34801561034857600080fd5b5061035260095481565b604051908152602001610297565b34801561036c57600080fd5b5061028b61037b3660046137fb565b6007546001600160a01b0391821691161490565b34801561039b57600080fd5b5061033a6103aa3660046137a1565b610a40565b3480156103bb57600080fd5b5061033a6103ca366004613816565b610e2c565b3480156103db57600080fd5b50610352600a5481565b3480156103f157600080fd5b5061033a6104003660046137fb565b610eb1565b34801561041157600080fd5b506103526104203660046136e6565b610f7d565b34801561043157600080fd5b5061033a6104403660046137a1565b610fae565b34801561045157600080fd5b5061033a610460366004613816565b611003565b34801561047157600080fd5b506104856104803660046137fb565b611023565b6040516102979190613853565b34801561049e57600080fd5b5061028b6104ad3660046137a1565b61111d565b3480156104be57600080fd5b5061028b6104cd366004613968565b6112ac565b3480156104de57600080fd5b506103026104ed3660046137a1565b6117b4565b3480156104fe57600080fd5b5061028b61050d366004613a18565b6117bf565b34801561051e57600080fd5b5061035261052d3660046137fb565b61182f565b34801561053e57600080fd5b5061028b61054d3660046137a1565b60126020526000908152604090205460ff1681565b34801561056e57600080fd5b5042610352565b34801561058157600080fd5b50600754610302906001600160a01b031681565b3480156105a157600080fd5b506102d5611877565b61028b6105b83660046137a1565b611886565b3480156105c957600080fd5b5061033a6105d8366004613a44565b611be6565b3480156105e957600080fd5b5061033a6105f8366004613a80565b611bf1565b34801561060957600080fd5b506103526106183660046137d1565b611c08565b34801561062957600080fd5b506102d56106383660046137a1565b611c24565b34801561064957600080fd5b5061065d6106583660046137a1565b611c2f565b6040516102979190613afc565b34801561067657600080fd5b506007546001600160a01b0316331461028b565b34801561069657600080fd5b50610352600b5481565b3480156106ac57600080fd5b5061035260085481565b3480156106c257600080fd5b50600c54600d54600e546106d592919083565b60408051938452602084019290925290820152606001610297565b3480156106fc57600080fd5b5061028b61070b3660046137a1565b611cf6565b34801561071c57600080fd5b50610725611d53565b6040516102979190613c96565b34801561073e57600080fd5b5061035261074d3660046137a1565b612013565b34801561075e57600080fd5b50600954610352565b34801561077357600080fd5b5061028b610782366004613cef565b612054565b34801561079357600080fd5b5061028b6107a23660046137fb565b6001600160a01b031660009081526013602052604090205460ff1690565b3480156107cc57600080fd5b506107e06107db3660046137a1565b612082565b6040516102979190613d19565b3480156107f957600080fd5b5061028b6108083660046137a1565b61234d565b34801561081957600080fd5b5061028b6108283660046137fb565b60136020526000908152604090205460ff1681565b34801561084957600080fd5b5061028b6108583660046136e6565b612536565b60008281526012602052604081205460ff166108945760405162461bcd60e51b815260040161088b90613d2c565b60405180910390fd5b81600f84815481106108a8576108a8613d57565b90600052602060002090600e0201600b0154106109075760405162461bcd60e51b815260206004820152601a60248201527f50726f6a656374206973206e6f74206578706972656420796574000000000000604482015260640161088b565b61091083610a40565b604080518481526060602082018190526010908201526f141493d29150d508149151955391115160821b60808201524281830152905133916000805160206140f3833981519152919081900360a00190a25060015b92915050565b600061096582612740565b60606000805461098590613d6d565b80601f01602080910402602001604051908101604052809291908181526020018280546109b190613d6d565b80156109fe5780601f106109d3576101008083540402835291602001916109fe565b820191906000526020600020905b8154815290600101906020018083116109e157829003601f168201915b5050505050905090565b6000610a1382612765565b506000828152600460205260409020546001600160a01b0316610965565b610a3c82823361279e565b5050565b6002600f8281548110610a5557610a55613d57565b60009182526020909120600d600e90920201015460ff166005811115610a7d57610a7d613b6d565b14158015610ac657506003600f8281548110610a9b57610a9b613d57565b60009182526020909120600d600e90920201015460ff166005811115610ac357610ac3613b6d565b14155b8015610b0d57506005600f8281548110610ae257610ae2613d57565b60009182526020909120600d600e90920201015460ff166005811115610b0a57610b0a613b6d565b14155b610b515760405162461bcd60e51b8152602060048201526015602482015274141c9bda9958dd0818d85b9b9bdd081c99599d5b99605a1b604482015260640161088b565b6002600f8281548110610b6657610b66613d57565b60009182526020909120600d600e9092020101805460ff19166001836005811115610b9357610b93613b6d565b02179055506000600f8281548110610bad57610bad613d57565b90600052602060002090600e02016007015490506000805b600084815260116020526040902054811015610c22576000848152601160205260409020805482908110610bfb57610bfb613d57565b90600052602060002090600402016001015482610c189190613dbd565b9150600101610bc5565b5060005b600084815260116020526040902054811015610e26576000848152601160205260408120805483908110610c5c57610c5c613d57565b6000918252602080832060049092029091015487835260119091526040822080546001600160a01b0390921693509084908110610c9b57610c9b613d57565b90600052602060002090600402016001015490506001601160008881526020019081526020016000208481548110610cd557610cd5613d57565b906000526020600020906004020160030160006101000a81548160ff02191690831515021790555042601160008881526020019081526020016000208481548110610d2257610d22613d57565b600091825260208083206002600490930201919091019290925587815260119091526040812054610d5590600190613dd0565b8403610d8757600f8781548110610d6e57610d6e613d57565b90600052602060002090600e0201600701549050610d9f565b84610d928388613de3565b610d9c9190613dfa565b90505b610da983826127ab565b80600f8881548110610dbd57610dbd613d57565b90600052602060002090600e02016007016000828254610ddd9190613dd0565b9091555050600d805460019190600090610df8908490613dd0565b9091555050600e8054829190600090610e12908490613dd0565b909155505060019093019250610c26915050565b50505050565b6001600160a01b038216610e5657604051633250574960e11b81526000600482015260240161088b565b6000610e6383833361280b565b9050836001600160a01b0316816001600160a01b031614610e26576040516364283d7b60e01b81526001600160a01b038086166004830152602482018490528216604482015260640161088b565b6007546001600160a01b03163314610f015760405162461bcd60e51b81526020600482015260136024820152724f776e6572207265736572766564206f6e6c7960681b604482015260640161088b565b6001600160a01b038116600090815260136020526040808220805460ff191660011790555133916000805160206140f383398151915291610f7291904290918252606060208301819052600d908301526c10d491505513d4881051111151609a1b6080830152604082015260a00190565b60405180910390a250565b60146020528160005260406000208181548110610f9957600080fd5b90600052602060002001600091509150505481565b6007546001600160a01b03163314610ffe5760405162461bcd60e51b81526020600482015260136024820152724f776e6572207265736572766564206f6e6c7960681b604482015260640161088b565b600855565b61101e83838360405180602001604052806000815250611bf1565b505050565b6001600160a01b0381166000908152601560205260408120546060918167ffffffffffffffff811115611058576110586138b8565b60405190808252806020026020018201604052801561108b57816020015b60608152602001906001900390816110765790505b50905060005b6001600160a01b038516600090815260156020526040902054811015611115576001600160a01b038516600090815260156020526040902080546110f09190839081106110e0576110e0613d57565b9060005260206000200154611c24565b82828151811061110257611102613d57565b6020908102919091010152600101611091565b509392505050565b3360009081526013602052604081205460ff168061114557506007546001600160a01b031633145b6111615760405162461bcd60e51b815260040161088b90613e1c565b60008281526012602052604090205460ff1661118f5760405162461bcd60e51b815260040161088b90613d2c565b600f82815481106111a2576111a2613d57565b60009182526020909120600e90910201600201546001600160a01b031633146112035760405162461bcd60e51b8152602060048201526013602482015272556e617574686f72697a656420456e7469747960681b604482015260640161088b565b61120c82610a40565b6003600f838154811061122157611221613d57565b60009182526020909120600d600e9092020101805460ff1916600183600581111561124e5761124e613b6d565b021790555060408051838152606060208201819052600f908201526e141493d29150d50811115311551151608a1b60808201524281830152905133916000805160206140f3833981519152919081900360a00190a25060015b919050565b3360009081526013602052604081205460ff16806112d457506007546001600160a01b031633145b6112f05760405162461bcd60e51b815260040161088b90613e1c565b60008751116113395760405162461bcd60e51b81526020600482015260156024820152745469746c652063616e6e6f7420626520656d70747960581b604482015260640161088b565b600086511161138a5760405162461bcd60e51b815260206004820152601b60248201527f4465736372697074696f6e2063616e6e6f7420626520656d7074790000000000604482015260640161088b565b60008551116113db5760405162461bcd60e51b815260206004820152601860248201527f496d61676555524c2063616e6e6f7420626520656d7074790000000000000000604482015260640161088b565b600084116114215760405162461bcd60e51b8152602060048201526013602482015272436f73742063616e6e6f74206265207a65726f60681b604482015260640161088b565b611429613655565b600a5481523360408201908152606082018981526080830189905260a0830188905260c08301879052426101008401526101208301869052600061014084018190526101608401869052600f8054600181018255915283517f8d1108e10bcb7c27dddfc02ed9d693a074039d026cf4ea4240b40f7d581ac802600e90920291820190815560208501517f8d1108e10bcb7c27dddfc02ed9d693a074039d026cf4ea4240b40f7d581ac803830180546001600160a01b03199081166001600160a01b039384161790915594517f8d1108e10bcb7c27dddfc02ed9d693a074039d026cf4ea4240b40f7d581ac8048401805490961691161790935590518392917f8d1108e10bcb7c27dddfc02ed9d693a074039d026cf4ea4240b40f7d581ac80501906115549082613e9a565b50608082015160048201906115699082613e9a565b5060a0820151600582019061157e9082613e9a565b5060c0820151600682015560e0820151600782015561010082015160088201556101208201516009820155610140820151600a820155610160820151600b820155610180820151600c8201556101a0820151600d8201805460ff191660018360058111156115ee576115ee613b6d565b021790555050600a546000908152601260209081526040808320805460ff191660019081179091553384526010835281842080548083018255908552938390208651600e909502019384559185015191830180546001600160a01b039384166001600160a01b03199182161790915590850151600284018054919093169116179055606083015183925060038201906116879082613e9a565b506080820151600482019061169c9082613e9a565b5060a082015160058201906116b19082613e9a565b5060c0820151600682015560e0820151600782015561010082015160088201556101208201516009820155610140820151600a820155610160820151600b820155610180820151600c8201556101a0820151600d8201805460ff1916600183600581111561172157611721613b6d565b021790555050506001600c600001600082825461173e9190613dbd565b9091555050600a805433916000805160206140f38339815191529190600061176583613f59565b9091555060408051918252606060208301819052600e908301526d50524f4a4543542043524541544560901b6080830152429082015260a00160405180910390a2506001979650505050505050565b600061096582612765565b60008281526012602052604081205460ff166117ed5760405162461bcd60e51b815260040161088b90613d2c565b816001600160a01b0316600f848154811061180a5761180a613d57565b60009182526020909120600e90910201600201546001600160a01b0316149392505050565b60006001600160a01b03821661185b576040516322718ad960e21b81526000600482015260240161088b565b506001600160a01b031660009081526003602052604090205490565b60606001805461098590613d6d565b60008034116118d75760405162461bcd60e51b815260206004820152601f60248201527f4574686572206d7573742062652067726561746572207468616e207a65726f00604482015260640161088b565b60008281526012602052604090205460ff166119055760405162461bcd60e51b815260040161088b90613d2c565b6000600f838154811061191a5761191a613d57565b60009182526020909120600d600e90920201015460ff16600581111561194257611942613b6d565b146119855760405162461bcd60e51b8152602060048201526013602482015272283937b532b1ba1034b9903737ba1037b832b760691b604482015260640161088b565b6001600c600101600082825461199b9190613dbd565b9091555050600e80543491906000906119b5908490613dbd565b9250508190555034600f83815481106119d0576119d0613d57565b90600052602060002090600e020160070160008282546119f09190613dbd565b925050819055506001600f8381548110611a0c57611a0c613d57565b90600052602060002090600e0201600c016000828254611a2c9190613dbd565b9091555050600082815260116020908152604080832081516080808201845233808352348387019081524284870181815260608087018b8152885460018082018b55998d529b8b902097516004909c0290970180546001600160a01b0319166001600160a01b03909c169b909b178b559251968a01969096559451600289015592516003909701805460ff1916971515979097179096558351888152948501829052600e918501919091526d141493d29150d508109050d2d15160921b90840152908201526000805160206140f38339815191529060a00160405180910390a2600f8281548110611b1f57611b1f613d57565b90600052602060002090600e020160060154600f8381548110611b4457611b44613d57565b90600052602060002090600e02016007015410611baa576001600f8381548110611b7057611b70613d57565b60009182526020909120600d600e9092020101805460ff19166001836005811115611b9d57611b9d613b6d565b0217905550600192915050565b600f8281548110611bbd57611bbd613d57565b90600052602060002090600e0201600b01544210611bde57611bde82610a40565b506001919050565b610a3c338383612904565b611bfc848484610e2c565b610e26848484846129a3565b60156020528160005260406000208181548110610f9957600080fd5b606061096582612acc565b60008181526012602052604090205460609060ff16611c605760405162461bcd60e51b815260040161088b90613d2c565b600082815260116020908152604080832080548251818502810185019093528083529193909284015b82821015611ceb576000848152602090819020604080516080810182526004860290920180546001600160a01b03168352600180820154848601526002820154928401929092526003015460ff16151560608301529083529092019101611c89565b505050509050919050565b60008181526012602052604081205460ff16611d245760405162461bcd60e51b815260040161088b90613d2c565b600f8281548110611d3757611d37613d57565b90600052602060002090600e0201600b01544210159050919050565b6060600f805480602002602001604051908101604052809291908181526020016000905b8282101561200a576000848152602090819020604080516101c081018252600e86029092018054835260018101546001600160a01b0390811694840194909452600281015490931690820152600382018054919291606084019190611ddb90613d6d565b80601f0160208091040260200160405190810160405280929190818152602001828054611e0790613d6d565b8015611e545780601f10611e2957610100808354040283529160200191611e54565b820191906000526020600020905b815481529060010190602001808311611e3757829003601f168201915b50505050508152602001600482018054611e6d90613d6d565b80601f0160208091040260200160405190810160405280929190818152602001828054611e9990613d6d565b8015611ee65780601f10611ebb57610100808354040283529160200191611ee6565b820191906000526020600020905b815481529060010190602001808311611ec957829003601f168201915b50505050508152602001600582018054611eff90613d6d565b80601f0160208091040260200160405190810160405280929190818152602001828054611f2b90613d6d565b8015611f785780601f10611f4d57610100808354040283529160200191611f78565b820191906000526020600020905b815481529060010190602001808311611f5b57829003601f168201915b505050918352505060068201546020820152600782015460408201526008820154606082015260098201546080820152600a82015460a0820152600b82015460c0820152600c82015460e0820152600d8201546101009091019060ff166005811115611fe657611fe6613b6d565b6005811115611ff757611ff7613b6d565b8152505081526020019060010190611d77565b50505050905090565b60008181526012602052604081205460ff166120415760405162461bcd60e51b815260040161088b90613d2c565b5060009081526011602052604090205490565b6001600160a01b03918216600090815260056020908152604080832093909416825291909152205460ff1690565b61208a613655565b60008281526012602052604090205460ff166120b85760405162461bcd60e51b815260040161088b90613d2c565b600f82815481106120cb576120cb613d57565b6000918252602091829020604080516101c081018252600e9093029091018054835260018101546001600160a01b039081169484019490945260028101549093169082015260038201805491929160608401919061212890613d6d565b80601f016020809104026020016040519081016040528092919081815260200182805461215490613d6d565b80156121a15780601f10612176576101008083540402835291602001916121a1565b820191906000526020600020905b81548152906001019060200180831161218457829003601f168201915b505050505081526020016004820180546121ba90613d6d565b80601f01602080910402602001604051908101604052809291908181526020018280546121e690613d6d565b80156122335780601f1061220857610100808354040283529160200191612233565b820191906000526020600020905b81548152906001019060200180831161221657829003601f168201915b5050505050815260200160058201805461224c90613d6d565b80601f016020809104026020016040519081016040528092919081815260200182805461227890613d6d565b80156122c55780601f1061229a576101008083540402835291602001916122c5565b820191906000526020600020905b8154815290600101906020018083116122a857829003601f168201915b505050918352505060068201546020820152600782015460408201526008820154606082015260098201546080820152600a82015460a0820152600b82015460c0820152600c82015460e0820152600d8201546101009091019060ff16600581111561233357612333613b6d565b600581111561234457612344613b6d565b90525092915050565b3360009081526013602052604081205460ff168061237557506007546001600160a01b031633145b6123915760405162461bcd60e51b815260040161088b90613e1c565b60008281526012602052604090205460ff166123bf5760405162461bcd60e51b815260040161088b90613d2c565b6001600f83815481106123d4576123d4613d57565b60009182526020909120600d600e90920201015460ff1660058111156123fc576123fc613b6d565b146124495760405162461bcd60e51b815260206004820152601b60248201527f50726f6a656374206973206e6f7420617070726f766564207965740000000000604482015260640161088b565b600f828154811061245c5761245c613d57565b60009182526020909120600e90910201600201546001600160a01b031633148061249057506007546001600160a01b031633145b6124d25760405162461bcd60e51b8152602060048201526013602482015272556e617574686f72697a656420456e7469747960681b604482015260640161088b565b6124db82612bdd565b6004600f83815481106124f0576124f0613d57565b60009182526020909120600d600e9092020101805460ff1916600183600581111561251d5761251d613b6d565b021790555061252d826000612536565b50600192915050565b60006004600f848154811061254d5761254d613d57565b60009182526020909120600d600e90920201015460ff16600581111561257557612575613b6d565b146125c25760405162461bcd60e51b815260206004820152601e60248201527f50726f6a656374206973206e6f742070726f6772657373696e67207965740000604482015260640161088b565b60016009546125d19190613dd0565b8211156126165760405162461bcd60e51b8152602060048201526013602482015272125b9d985b1a59081a5b9cdd185b1b1b595b9d606a1b604482015260640161088b565b6126208383612e77565b42600f848154811061263457612634613d57565b90600052602060002090600e02016008018190555060016009546126589190613dd0565b600f848154811061266b5761266b613d57565b90600052602060002090600e0201600901546126879190613dfa565b600f848154811061269a5761269a613d57565b90600052602060002090600e0201600801546126b69190613dbd565b600f84815481106126c9576126c9613d57565b90600052602060002090600e0201600a0181905550600f83815481106126f1576126f1613d57565b90600052602060002090600e0201600a015461012c6127109190613dbd565b600f848154811061272357612723613d57565b60009182526020909120600b600e90920201015550600192915050565b60006001600160e01b03198216632483248360e11b1480610965575061096582613138565b6000818152600260205260408120546001600160a01b03168061096557604051637e27328960e01b81526004810184905260240161088b565b61101e8383836001613188565b6000826001600160a01b03168260405160006040518083038185875af1925050503d80600081146127f8576040519150601f19603f3d011682016040523d82523d6000602084013e6127fd565b606091505b505090508061101e57600080fd5b6000828152600260205260408120546001600160a01b03908116908316156128385761283881848661328e565b6001600160a01b0381161561287657612855600085600080613188565b6001600160a01b038116600090815260036020526040902080546000190190555b6001600160a01b038516156128a5576001600160a01b0385166000908152600360205260409020805460010190555b60008481526002602052604080822080546001600160a01b0319166001600160a01b0389811691821790925591518793918516917fddf252ad1be2c89b69c2b068fc378daa952ba7f163c4a11628f55a4df523b3ef91a4949350505050565b6001600160a01b03821661293657604051630b61174360e31b81526001600160a01b038316600482015260240161088b565b6001600160a01b03838116600081815260056020908152604080832094871680845294825291829020805460ff191686151590811790915591519182527f17307eab39ab6107e8899845ad3d59bd9653f200f220920489ca2b5937696c31910160405180910390a3505050565b6001600160a01b0383163b15610e2657604051630a85bd0160e11b81526001600160a01b0384169063150b7a02906129e5903390889087908790600401613f72565b6020604051808303816000875af1925050508015612a20575060408051601f3d908101601f19168201909252612a1d91810190613faf565b60015b612a89573d808015612a4e576040519150601f19603f3d011682016040523d82523d6000602084013e612a53565b606091505b508051600003612a8157604051633250574960e11b81526001600160a01b038516600482015260240161088b565b805181602001fd5b6001600160e01b03198116630a85bd0160e11b14612ac557604051633250574960e11b81526001600160a01b038516600482015260240161088b565b5050505050565b6060612ad782612765565b5060008281526006602052604081208054612af190613d6d565b80601f0160208091040260200160405190810160405280929190818152602001828054612b1d90613d6d565b8015612b6a5780601f10612b3f57610100808354040283529160200191612b6a565b820191906000526020600020905b815481529060010190602001808311612b4d57829003601f168201915b505050505090506000612b8860408051602081019091526000815290565b90508051600003612b9a575092915050565b815115612bcc578082604051602001612bb4929190613fcc565b60405160208183030381529060405292505050919050565b612bd5846132f2565b949350505050565b60008181526012602052604090205460ff16612c0b5760405162461bcd60e51b815260040161088b90613d2c565b6001600f8281548110612c2057612c20613d57565b60009182526020909120600d600e90920201015460ff166005811115612c4857612c48613b6d565b14612c955760405162461bcd60e51b815260206004820152601b60248201527f50726f6a656374206973206e6f7420617070726f766564207965740000000000604482015260640161088b565b600081815260116020908152604080832080548251818502810185019093528083529192909190849084015b82821015612d23576000848152602090819020604080516080810182526004860290920180546001600160a01b03168352600180820154848601526002820154928401929092526003015460ff16151560608301529083529092019101612cc1565b50505050905060005b8151811015612e26576000828281518110612d4957612d49613d57565b60200260200101516000015190506000612d6285613367565b600f8681548110612d7557612d75613d57565b90600052602060002090600e0201600301600f8781548110612d9957612d99613d57565b90600052602060002090600e0201600501604051602001612dbc9392919061406d565b60405160208183030381529060405290506000612dd983836133fa565b6000878152601460209081526040808320805460018181018355918552838520018590556001600160a01b0390971683526015825282208054808801825590835291200155505001612d2c565b5060408051838152606060208201819052600b908201526a1391951cc813525395115160aa1b60808201524281830152905133916000805160206140f3833981519152919081900360a00190a25050565b6000600f8381548110612e8c57612e8c613d57565b90600052602060002090600e02016007015490506000600f8481548110612eb557612eb5613d57565b90600052602060002090600e020160060154905060006009546064612eda9190613de3565b600854612ee79084613de3565b612ef19190613dfa565b90506001600954612f029190613dd0565b8403613035576005600f8681548110612f1d57612f1d613d57565b60009182526020909120600d600e9092020101805460ff19166001836005811115612f4a57612f4a613b6d565b0217905550600754612f65906001600160a01b0316826127ab565b612fa7600f8681548110612f7b57612f7b613d57565b600091825260209091206002600e9092020101546001600160a01b0316612fa28386613dd0565b6127ab565b82600f8681548110612fbb57612fbb613d57565b90600052602060002090600e02016007016000828254612fdb9190613dd0565b909155505060408051868152606060208201819052600f908201526e141493d29150d5081410525113d555608a1b60808201524281830152905133916000805160206140f3833981519152919081900360a00190a2612ac5565b60075461304b906001600160a01b0316826127ab565b61309a600f868154811061306157613061613d57565b600091825260209091206002600e9092020101546009546001600160a01b039091169083906130909086613dfa565b612fa29190613dd0565b6009546130a79083613dfa565b600f86815481106130ba576130ba613d57565b90600052602060002090600e020160070160008282546130da9190613dd0565b90915550506040805186815260606020820181905260119082015270141493d29150d508141052510815539255607a1b60808201524281830152905133916000805160206140f3833981519152919081900360a00190a25050505050565b60006001600160e01b031982166380ac58cd60e01b148061316957506001600160e01b03198216635b5e139f60e01b145b8061096557506301ffc9a760e01b6001600160e01b0319831614610965565b808061319c57506001600160a01b03821615155b1561325e5760006131ac84612765565b90506001600160a01b038316158015906131d85750826001600160a01b0316816001600160a01b031614155b80156131eb57506131e98184612054565b155b156132145760405163a9fbf51f60e01b81526001600160a01b038416600482015260240161088b565b811561325c5783856001600160a01b0316826001600160a01b03167f8c5be1e5ebec7d5bd14f71427d1e84f3dd0314c0f7b2291e5b200ac8c7c3b92560405160405180910390a45b505b5050600090815260046020526040902080546001600160a01b0319166001600160a01b0392909216919091179055565b613299838383613434565b61101e576001600160a01b0383166132c757604051637e27328960e01b81526004810182905260240161088b565b60405163177e802f60e01b81526001600160a01b03831660048201526024810182905260440161088b565b60606132fd82612765565b50600061331560408051602081019091526000815290565b905060008151116133355760405180602001604052806000815250613360565b8061333f84613367565b604051602001613350929190613fcc565b6040516020818303038152906040525b9392505050565b6060600061337483613497565b600101905060008167ffffffffffffffff811115613394576133946138b8565b6040519080825280601f01601f1916602001820160405280156133be576020820181803683370190505b5090508181016020015b600019016f181899199a1a9b1b9c1cb0b131b232b360811b600a86061a8153600a85049450846133c857509392505050565b600b5460009061340a848261356f565b6134148184613589565b6001600b60008282546134279190613dbd565b9091555090949350505050565b60006001600160a01b03831615801590612bd55750826001600160a01b0316846001600160a01b0316148061346e575061346e8484612054565b80612bd55750506000908152600460205260409020546001600160a01b03908116911614919050565b60008072184f03e93ff9f4daa797ed6e38ed64bf6a1f0160401b83106134d65772184f03e93ff9f4daa797ed6e38ed64bf6a1f0160401b830492506040015b6d04ee2d6d415b85acef81000000008310613502576d04ee2d6d415b85acef8100000000830492506020015b662386f26fc10000831061352057662386f26fc10000830492506010015b6305f5e1008310613538576305f5e100830492506008015b612710831061354c57612710830492506004015b6064831061355e576064830492506002015b600a83106109655760010192915050565b610a3c8282604051806020016040528060008152506135d9565b60008281526006602052604090206135a18282613e9a565b506040518281527ff8e1a15aba9398e019f0b49df1a4fde98ee17ae345cb5f6b5e2c27f5033e8ce79060200160405180910390a15050565b6135e383836135f0565b61101e60008484846129a3565b6001600160a01b03821661361a57604051633250574960e11b81526000600482015260240161088b565b60006136288383600061280b565b90506001600160a01b0381161561101e576040516339e3563760e11b81526000600482015260240161088b565b604051806101c001604052806000815260200160006001600160a01b0316815260200160006001600160a01b0316815260200160608152602001606081526020016060815260200160008152602001600081526020016000815260200160008152602001600081526020016000815260200160008152602001600060058111156136e1576136e1613b6d565b905290565b600080604083850312156136f957600080fd5b50508035926020909101359150565b6001600160e01b03198116811461371e57600080fd5b50565b60006020828403121561373357600080fd5b813561336081613708565b60005b83811015613759578181015183820152602001613741565b50506000910152565b6000815180845261377a81602086016020860161373e565b601f01601f19169290920160200192915050565b6020815260006133606020830184613762565b6000602082840312156137b357600080fd5b5035919050565b80356001600160a01b03811681146112a757600080fd5b600080604083850312156137e457600080fd5b6137ed836137ba565b946020939093013593505050565b60006020828403121561380d57600080fd5b613360826137ba565b60008060006060848603121561382b57600080fd5b613834846137ba565b9250613842602085016137ba565b929592945050506040919091013590565b6000602082016020835280845180835260408501915060408160051b86010192506020860160005b828110156138ac57603f19878603018452613897858351613762565b9450602093840193919091019060010161387b565b50929695505050505050565b634e487b7160e01b600052604160045260246000fd5b60008067ffffffffffffffff8411156138e9576138e96138b8565b50604051601f19601f85018116603f0116810181811067ffffffffffffffff82111715613918576139186138b8565b60405283815290508082840185101561393057600080fd5b83836020830137600060208583010152509392505050565b600082601f83011261395957600080fd5b613360838335602085016138ce565b60008060008060008060c0878903121561398157600080fd5b863567ffffffffffffffff81111561399857600080fd5b6139a489828a01613948565b965050602087013567ffffffffffffffff8111156139c157600080fd5b6139cd89828a01613948565b955050604087013567ffffffffffffffff8111156139ea57600080fd5b6139f689828a01613948565b969995985095966060810135965060808101359560a090910135945092505050565b60008060408385031215613a2b57600080fd5b82359150613a3b602084016137ba565b90509250929050565b60008060408385031215613a5757600080fd5b613a60836137ba565b915060208301358015158114613a7557600080fd5b809150509250929050565b60008060008060808587031215613a9657600080fd5b613a9f856137ba565b9350613aad602086016137ba565b925060408501359150606085013567ffffffffffffffff811115613ad057600080fd5b8501601f81018713613ae157600080fd5b613af0878235602084016138ce565b91505092959194509250565b602080825282518282018190526000918401906040840190835b81811015613b6257835180516001600160a01b03168452602080820151818601526040808301519086015260609182015115159185019190915290930192608090920191600101613b16565b509095945050505050565b634e487b7160e01b600052602160045260246000fd5b60068110613ba157634e487b7160e01b600052602160045260246000fd5b9052565b8051825260006020820151613bc560208501826001600160a01b03169052565b506040820151613be060408501826001600160a01b03169052565b5060608201516101c06060850152613bfc6101c0850182613762565b905060808301518482036080860152613c158282613762565b91505060a083015184820360a0860152613c2f8282613762565b91505060c083015160c085015260e083015160e08501526101008301516101008501526101208301516101208501526101408301516101408501526101608301516101608501526101808301516101808501526101a08301516111156101a0860182613b83565b6000602082016020835280845180835260408501915060408160051b86010192506020860160005b828110156138ac57603f19878603018452613cda858351613ba5565b94506020938401939190910190600101613cbe565b60008060408385031215613d0257600080fd5b613d0b836137ba565b9150613a3b602084016137ba565b6020815260006133606020830184613ba5565b602080825260119082015270141c9bda9958dd081b9bdd08199bdd5b99607a1b604082015260600190565b634e487b7160e01b600052603260045260246000fd5b600181811c90821680613d8157607f821691505b602082108103613da157634e487b7160e01b600052602260045260246000fd5b50919050565b634e487b7160e01b600052601160045260246000fd5b8082018082111561096557610965613da7565b8181038181111561096557610965613da7565b808202811582820484141761096557610965613da7565b600082613e1757634e487b7160e01b600052601260045260246000fd5b500490565b6020808252601e908201527f43726561746f72204f72204f776e6572207265736572766564206f6e6c790000604082015260600190565b601f82111561101e57806000526020600020601f840160051c81016020851015613e7a5750805b601f840160051c820191505b81811015612ac55760008155600101613e86565b815167ffffffffffffffff811115613eb457613eb46138b8565b613ec881613ec28454613d6d565b84613e53565b6020601f821160018114613efc5760008315613ee45750848201515b600019600385901b1c1916600184901b178455612ac5565b600084815260208120601f198516915b82811015613f2c5787850151825560209485019460019092019101613f0c565b5084821015613f4a5786840151600019600387901b60f8161c191681555b50505050600190811b01905550565b600060018201613f6b57613f6b613da7565b5060010190565b6001600160a01b0385811682528416602082015260408101839052608060608201819052600090613fa590830184613762565b9695505050505050565b600060208284031215613fc157600080fd5b815161336081613708565b60008351613fde81846020880161373e565b835190830190613ff281836020880161373e565b01949350505050565b6000815461400881613d6d565b60018216801561401f576001811461403457614064565b60ff1983168652811515820286019350614064565b84600052602060002060005b8381101561405c57815488820152600190910190602001614040565b505081860193505b50505092915050565b673d9134b2111d101160c11b8152835160009061409181600885016020890161373e565b6c111610113a34ba3632911d101160991b6008918401918201526140b86015820186613ffb565b6f1116101134b6b0b3b2aaa926111d101160811b815290506140dd6010820185613ffb565b61227d60f01b8152600201969550505050505056feaee8e5d3bbb2f71a951b5632cee20f7ac487b9f8ab4f66a236f7694b13af7c6aa2646970667358221220fc7abb9089b36d19300087115ca390b82916a3351dc15c4a25372e00da8bdf5864736f6c634300081a0033","opcodes":"PUSH1 0x80 PUSH1 0x40 MSTORE CALLVALUE DUP1 ISZERO PUSH2 0x10 JUMPI PUSH1 0x0 DUP1 REVERT JUMPDEST POP PUSH1 0x40 MLOAD PUSH2 0x4389 CODESIZE SUB DUP1 PUSH2 0x4389 DUP4 CODECOPY DUP2 ADD PUSH1 0x40 DUP2 SWAP1 MSTORE PUSH2 0x2F SWAP2 PUSH2 0xB1 JUMP JUMPDEST PUSH1 0x40 MLOAD DUP1 PUSH1 0x40 ADD PUSH1 0x40 MSTORE DUP1 PUSH1 0x8 DUP2 MSTORE PUSH1 0x20 ADD PUSH8 0x139D1C1D519D5B99 PUSH1 0xC2 SHL DUP2 MSTORE POP PUSH1 0x40 MLOAD DUP1 PUSH1 0x40 ADD PUSH1 0x40 MSTORE DUP1 PUSH1 0x4 DUP2 MSTORE PUSH1 0x20 ADD PUSH4 0x4E545055 PUSH1 0xE0 SHL DUP2 MSTORE POP DUP2 PUSH1 0x0 SWAP1 DUP2 PUSH2 0x7C SWAP2 SWAP1 PUSH2 0x174 JUMP JUMPDEST POP PUSH1 0x1 PUSH2 0x89 DUP3 DUP3 PUSH2 0x174 JUMP JUMPDEST POP POP PUSH1 0x0 PUSH1 0xB SSTORE POP PUSH1 0x7 DUP1 SLOAD PUSH1 0x1 PUSH1 0x1 PUSH1 0xA0 SHL SUB NOT AND CALLER OR SWAP1 SSTORE PUSH1 0x8 SWAP2 SWAP1 SWAP2 SSTORE PUSH1 0x9 SSTORE PUSH2 0x232 JUMP JUMPDEST PUSH1 0x0 DUP1 PUSH1 0x40 DUP4 DUP6 SUB SLT ISZERO PUSH2 0xC4 JUMPI PUSH1 0x0 DUP1 REVERT JUMPDEST POP POP DUP1 MLOAD PUSH1 0x20 SWAP1 SWAP2 ADD MLOAD SWAP1 SWAP3 SWAP1 SWAP2 POP JUMP JUMPDEST PUSH4 0x4E487B71 PUSH1 0xE0 SHL PUSH1 0x0 MSTORE PUSH1 0x41 PUSH1 0x4 MSTORE PUSH1 0x24 PUSH1 0x0 REVERT JUMPDEST PUSH1 0x1 DUP2 DUP2 SHR SWAP1 DUP3 AND DUP1 PUSH2 0xFF JUMPI PUSH1 0x7F DUP3 AND SWAP2 POP JUMPDEST PUSH1 0x20 DUP3 LT DUP2 SUB PUSH2 0x11F JUMPI PUSH4 0x4E487B71 PUSH1 0xE0 SHL PUSH1 0x0 MSTORE PUSH1 0x22 PUSH1 0x4 MSTORE PUSH1 0x24 PUSH1 0x0 REVERT JUMPDEST POP SWAP2 SWAP1 POP JUMP JUMPDEST PUSH1 0x1F DUP3 GT ISZERO PUSH2 0x16F JUMPI DUP1 PUSH1 0x0 MSTORE PUSH1 0x20 PUSH1 0x0 KECCAK256 PUSH1 0x1F DUP5 ADD PUSH1 0x5 SHR DUP2 ADD PUSH1 0x20 DUP6 LT ISZERO PUSH2 0x14C JUMPI POP DUP1 JUMPDEST PUSH1 0x1F DUP5 ADD PUSH1 0x5 SHR DUP3 ADD SWAP2 POP JUMPDEST DUP2 DUP2 LT ISZERO PUSH2 0x16C JUMPI PUSH1 0x0 DUP2 SSTORE PUSH1 0x1 ADD PUSH2 0x158 JUMP JUMPDEST POP POP JUMPDEST POP POP POP JUMP JUMPDEST DUP2 MLOAD PUSH1 0x1 PUSH1 0x1 PUSH1 0x40 SHL SUB DUP2 GT ISZERO PUSH2 0x18D JUMPI PUSH2 0x18D PUSH2 0xD5 JUMP JUMPDEST PUSH2 0x1A1 DUP2 PUSH2 0x19B DUP5 SLOAD PUSH2 0xEB JUMP JUMPDEST DUP5 PUSH2 0x125 JUMP JUMPDEST PUSH1 0x20 PUSH1 0x1F DUP3 GT PUSH1 0x1 DUP2 EQ PUSH2 0x1D5 JUMPI PUSH1 0x0 DUP4 ISZERO PUSH2 0x1BD JUMPI POP DUP5 DUP3 ADD MLOAD JUMPDEST PUSH1 0x0 NOT PUSH1 0x3 DUP6 SWAP1 SHL SHR NOT AND PUSH1 0x1 DUP5 SWAP1 SHL OR DUP5 SSTORE PUSH2 0x16C JUMP JUMPDEST PUSH1 0x0 DUP5 DUP2 MSTORE PUSH1 0x20 DUP2 KECCAK256 PUSH1 0x1F NOT DUP6 AND SWAP2 JUMPDEST DUP3 DUP2 LT ISZERO PUSH2 0x205 JUMPI DUP8 DUP6 ADD MLOAD DUP3 SSTORE PUSH1 0x20 SWAP5 DUP6 ADD SWAP5 PUSH1 0x1 SWAP1 SWAP3 ADD SWAP2 ADD PUSH2 0x1E5 JUMP JUMPDEST POP DUP5 DUP3 LT ISZERO PUSH2 0x223 JUMPI DUP7 DUP5 ADD MLOAD PUSH1 0x0 NOT PUSH1 0x3 DUP8 SWAP1 SHL PUSH1 0xF8 AND SHR NOT AND DUP2 SSTORE JUMPDEST POP POP POP POP PUSH1 0x1 SWAP1 DUP2 SHL ADD SWAP1 SSTORE POP JUMP JUMPDEST PUSH2 0x4148 DUP1 PUSH2 0x241 PUSH1 0x0 CODECOPY PUSH1 0x0 RETURN INVALID PUSH1 0x80 PUSH1 0x40 MSTORE PUSH1 0x4 CALLDATASIZE LT PUSH2 0x266 JUMPI PUSH1 0x0 CALLDATALOAD PUSH1 0xE0 SHR DUP1 PUSH4 0x8DA5CB5B GT PUSH2 0x144 JUMPI DUP1 PUSH4 0xD80528AE GT PUSH2 0xB6 JUMPI DUP1 PUSH4 0xE985E9C5 GT PUSH2 0x7A JUMPI DUP1 PUSH4 0xE985E9C5 EQ PUSH2 0x767 JUMPI DUP1 PUSH4 0xEFD46065 EQ PUSH2 0x787 JUMPI DUP1 PUSH4 0xF0F3F2C8 EQ PUSH2 0x7C0 JUMPI DUP1 PUSH4 0xF62BF2DE EQ PUSH2 0x7ED JUMPI DUP1 PUSH4 0xF7767C93 EQ PUSH2 0x80D JUMPI DUP1 PUSH4 0xFF872E4E EQ PUSH2 0x83D JUMPI PUSH1 0x0 DUP1 REVERT JUMPDEST DUP1 PUSH4 0xD80528AE EQ PUSH2 0x6B6 JUMPI DUP1 PUSH4 0xD9548E53 EQ PUSH2 0x6F0 JUMPI DUP1 PUSH4 0xDCC60128 EQ PUSH2 0x710 JUMPI DUP1 PUSH4 0xDEF756E2 EQ PUSH2 0x732 JUMPI DUP1 PUSH4 0xE7C6C1B1 EQ PUSH2 0x752 JUMPI PUSH1 0x0 DUP1 REVERT JUMPDEST DUP1 PUSH4 0xC1ADA37E GT PUSH2 0x108 JUMPI DUP1 PUSH4 0xC1ADA37E EQ PUSH2 0x5FD JUMPI DUP1 PUSH4 0xC87B56DD EQ PUSH2 0x61D JUMPI DUP1 PUSH4 0xC9168B72 EQ PUSH2 0x63D JUMPI DUP1 PUSH4 0xCA766F64 EQ PUSH2 0x66A JUMPI DUP1 PUSH4 0xD082E381 EQ PUSH2 0x68A JUMPI DUP1 PUSH4 0xD24CD3EC EQ PUSH2 0x6A0 JUMPI PUSH1 0x0 DUP1 REVERT JUMPDEST DUP1 PUSH4 0x8DA5CB5B EQ PUSH2 0x575 JUMPI DUP1 PUSH4 0x95D89B41 EQ PUSH2 0x595 JUMPI DUP1 PUSH4 0x9F39A194 EQ PUSH2 0x5AA JUMPI DUP1 PUSH4 0xA22CB465 EQ PUSH2 0x5BD JUMPI DUP1 PUSH4 0xB88D4FDE EQ PUSH2 0x5DD JUMPI PUSH1 0x0 DUP1 REVERT JUMPDEST DUP1 PUSH4 0x3D061498 GT PUSH2 0x1DD JUMPI DUP1 PUSH4 0x5FE68F47 GT PUSH2 0x1A1 JUMPI DUP1 PUSH4 0x5FE68F47 EQ PUSH2 0x4B2 JUMPI DUP1 PUSH4 0x6352211E EQ PUSH2 0x4D2 JUMPI DUP1 PUSH4 0x6C57EBDF EQ PUSH2 0x4F2 JUMPI DUP1 PUSH4 0x70A08231 EQ PUSH2 0x512 JUMPI DUP1 PUSH4 0x8593054B EQ PUSH2 0x532 JUMPI DUP1 PUSH4 0x87CEFF09 EQ PUSH2 0x562 JUMPI PUSH1 0x0 DUP1 REVERT JUMPDEST DUP1 PUSH4 0x3D061498 EQ PUSH2 0x405 JUMPI DUP1 PUSH4 0x3E45C8AF EQ PUSH2 0x425 JUMPI DUP1 PUSH4 0x42842E0E EQ PUSH2 0x445 JUMPI DUP1 PUSH4 0x44CC2AFE EQ PUSH2 0x465 JUMPI DUP1 PUSH4 0x4CD0CB28 EQ PUSH2 0x492 JUMPI PUSH1 0x0 DUP1 REVERT JUMPDEST DUP1 PUSH4 0x9945644 GT PUSH2 0x22F JUMPI DUP1 PUSH4 0x9945644 EQ PUSH2 0x33C JUMPI DUP1 PUSH4 0x1453D482 EQ PUSH2 0x360 JUMPI DUP1 PUSH4 0x1D8394BD EQ PUSH2 0x38F JUMPI DUP1 PUSH4 0x23B872DD EQ PUSH2 0x3AF JUMPI DUP1 PUSH4 0x36FBAD26 EQ PUSH2 0x3CF JUMPI DUP1 PUSH4 0x3B9DCE05 EQ PUSH2 0x3E5 JUMPI PUSH1 0x0 DUP1 REVERT JUMPDEST DUP1 PUSH3 0xE6652A EQ PUSH2 0x26B JUMPI DUP1 PUSH4 0x1FFC9A7 EQ PUSH2 0x2A0 JUMPI DUP1 PUSH4 0x6FDDE03 EQ PUSH2 0x2C0 JUMPI DUP1 PUSH4 0x81812FC EQ PUSH2 0x2E2 JUMPI DUP1 PUSH4 0x95EA7B3 EQ PUSH2 0x31A JUMPI JUMPDEST PUSH1 0x0 DUP1 REVERT JUMPDEST CALLVALUE DUP1 ISZERO PUSH2 0x277 JUMPI PUSH1 0x0 DUP1 REVERT JUMPDEST POP PUSH2 0x28B PUSH2 0x286 CALLDATASIZE PUSH1 0x4 PUSH2 0x36E6 JUMP JUMPDEST PUSH2 0x85D JUMP JUMPDEST PUSH1 0x40 MLOAD SWAP1 ISZERO ISZERO DUP2 MSTORE PUSH1 0x20 ADD JUMPDEST PUSH1 0x40 MLOAD DUP1 SWAP2 SUB SWAP1 RETURN JUMPDEST CALLVALUE DUP1 ISZERO PUSH2 0x2AC JUMPI PUSH1 0x0 DUP1 REVERT JUMPDEST POP PUSH2 0x28B PUSH2 0x2BB CALLDATASIZE PUSH1 0x4 PUSH2 0x3721 JUMP JUMPDEST PUSH2 0x96B JUMP JUMPDEST CALLVALUE DUP1 ISZERO PUSH2 0x2CC JUMPI PUSH1 0x0 DUP1 REVERT JUMPDEST POP PUSH2 0x2D5 PUSH2 0x976 JUMP JUMPDEST PUSH1 0x40 MLOAD PUSH2 0x297 SWAP2 SWAP1 PUSH2 0x378E JUMP JUMPDEST CALLVALUE DUP1 ISZERO PUSH2 0x2EE JUMPI PUSH1 0x0 DUP1 REVERT JUMPDEST POP PUSH2 0x302 PUSH2 0x2FD CALLDATASIZE PUSH1 0x4 PUSH2 0x37A1 JUMP JUMPDEST PUSH2 0xA08 JUMP JUMPDEST PUSH1 0x40 MLOAD PUSH1 0x1 PUSH1 0x1 PUSH1 0xA0 SHL SUB SWAP1 SWAP2 AND DUP2 MSTORE PUSH1 0x20 ADD PUSH2 0x297 JUMP JUMPDEST CALLVALUE DUP1 ISZERO PUSH2 0x326 JUMPI PUSH1 0x0 DUP1 REVERT JUMPDEST POP PUSH2 0x33A PUSH2 0x335 CALLDATASIZE PUSH1 0x4 PUSH2 0x37D1 JUMP JUMPDEST PUSH2 0xA31 JUMP JUMPDEST STOP JUMPDEST CALLVALUE DUP1 ISZERO PUSH2 0x348 JUMPI PUSH1 0x0 DUP1 REVERT JUMPDEST POP PUSH2 0x352 PUSH1 0x9 SLOAD DUP2 JUMP JUMPDEST PUSH1 0x40 MLOAD SWAP1 DUP2 MSTORE PUSH1 0x20 ADD PUSH2 0x297 JUMP JUMPDEST CALLVALUE DUP1 ISZERO PUSH2 0x36C JUMPI PUSH1 0x0 DUP1 REVERT JUMPDEST POP PUSH2 0x28B PUSH2 0x37B CALLDATASIZE PUSH1 0x4 PUSH2 0x37FB JUMP JUMPDEST PUSH1 0x7 SLOAD PUSH1 0x1 PUSH1 0x1 PUSH1 0xA0 SHL SUB SWAP2 DUP3 AND SWAP2 AND EQ SWAP1 JUMP JUMPDEST CALLVALUE DUP1 ISZERO PUSH2 0x39B JUMPI PUSH1 0x0 DUP1 REVERT JUMPDEST POP PUSH2 0x33A PUSH2 0x3AA CALLDATASIZE PUSH1 0x4 PUSH2 0x37A1 JUMP JUMPDEST PUSH2 0xA40 JUMP JUMPDEST CALLVALUE DUP1 ISZERO PUSH2 0x3BB JUMPI PUSH1 0x0 DUP1 REVERT JUMPDEST POP PUSH2 0x33A PUSH2 0x3CA CALLDATASIZE PUSH1 0x4 PUSH2 0x3816 JUMP JUMPDEST PUSH2 0xE2C JUMP JUMPDEST CALLVALUE DUP1 ISZERO PUSH2 0x3DB JUMPI PUSH1 0x0 DUP1 REVERT JUMPDEST POP PUSH2 0x352 PUSH1 0xA SLOAD DUP2 JUMP JUMPDEST CALLVALUE DUP1 ISZERO PUSH2 0x3F1 JUMPI PUSH1 0x0 DUP1 REVERT JUMPDEST POP PUSH2 0x33A PUSH2 0x400 CALLDATASIZE PUSH1 0x4 PUSH2 0x37FB JUMP JUMPDEST PUSH2 0xEB1 JUMP JUMPDEST CALLVALUE DUP1 ISZERO PUSH2 0x411 JUMPI PUSH1 0x0 DUP1 REVERT JUMPDEST POP PUSH2 0x352 PUSH2 0x420 CALLDATASIZE PUSH1 0x4 PUSH2 0x36E6 JUMP JUMPDEST PUSH2 0xF7D JUMP JUMPDEST CALLVALUE DUP1 ISZERO PUSH2 0x431 JUMPI PUSH1 0x0 DUP1 REVERT JUMPDEST POP PUSH2 0x33A PUSH2 0x440 CALLDATASIZE PUSH1 0x4 PUSH2 0x37A1 JUMP JUMPDEST PUSH2 0xFAE JUMP JUMPDEST CALLVALUE DUP1 ISZERO PUSH2 0x451 JUMPI PUSH1 0x0 DUP1 REVERT JUMPDEST POP PUSH2 0x33A PUSH2 0x460 CALLDATASIZE PUSH1 0x4 PUSH2 0x3816 JUMP JUMPDEST PUSH2 0x1003 JUMP JUMPDEST CALLVALUE DUP1 ISZERO PUSH2 0x471 JUMPI PUSH1 0x0 DUP1 REVERT JUMPDEST POP PUSH2 0x485 PUSH2 0x480 CALLDATASIZE PUSH1 0x4 PUSH2 0x37FB JUMP JUMPDEST PUSH2 0x1023 JUMP JUMPDEST PUSH1 0x40 MLOAD PUSH2 0x297 SWAP2 SWAP1 PUSH2 0x3853 JUMP JUMPDEST CALLVALUE DUP1 ISZERO PUSH2 0x49E JUMPI PUSH1 0x0 DUP1 REVERT JUMPDEST POP PUSH2 0x28B PUSH2 0x4AD CALLDATASIZE PUSH1 0x4 PUSH2 0x37A1 JUMP JUMPDEST PUSH2 0x111D JUMP JUMPDEST CALLVALUE DUP1 ISZERO PUSH2 0x4BE JUMPI PUSH1 0x0 DUP1 REVERT JUMPDEST POP PUSH2 0x28B PUSH2 0x4CD CALLDATASIZE PUSH1 0x4 PUSH2 0x3968 JUMP JUMPDEST PUSH2 0x12AC JUMP JUMPDEST CALLVALUE DUP1 ISZERO PUSH2 0x4DE JUMPI PUSH1 0x0 DUP1 REVERT JUMPDEST POP PUSH2 0x302 PUSH2 0x4ED CALLDATASIZE PUSH1 0x4 PUSH2 0x37A1 JUMP JUMPDEST PUSH2 0x17B4 JUMP JUMPDEST CALLVALUE DUP1 ISZERO PUSH2 0x4FE JUMPI PUSH1 0x0 DUP1 REVERT JUMPDEST POP PUSH2 0x28B PUSH2 0x50D CALLDATASIZE PUSH1 0x4 PUSH2 0x3A18 JUMP JUMPDEST PUSH2 0x17BF JUMP JUMPDEST CALLVALUE DUP1 ISZERO PUSH2 0x51E JUMPI PUSH1 0x0 DUP1 REVERT JUMPDEST POP PUSH2 0x352 PUSH2 0x52D CALLDATASIZE PUSH1 0x4 PUSH2 0x37FB JUMP JUMPDEST PUSH2 0x182F JUMP JUMPDEST CALLVALUE DUP1 ISZERO PUSH2 0x53E JUMPI PUSH1 0x0 DUP1 REVERT JUMPDEST POP PUSH2 0x28B PUSH2 0x54D CALLDATASIZE PUSH1 0x4 PUSH2 0x37A1 JUMP JUMPDEST PUSH1 0x12 PUSH1 0x20 MSTORE PUSH1 0x0 SWAP1 DUP2 MSTORE PUSH1 0x40 SWAP1 KECCAK256 SLOAD PUSH1 0xFF AND DUP2 JUMP JUMPDEST CALLVALUE DUP1 ISZERO PUSH2 0x56E JUMPI PUSH1 0x0 DUP1 REVERT JUMPDEST POP TIMESTAMP PUSH2 0x352 JUMP JUMPDEST CALLVALUE DUP1 ISZERO PUSH2 0x581 JUMPI PUSH1 0x0 DUP1 REVERT JUMPDEST POP PUSH1 0x7 SLOAD PUSH2 0x302 SWAP1 PUSH1 0x1 PUSH1 0x1 PUSH1 0xA0 SHL SUB AND DUP2 JUMP JUMPDEST CALLVALUE DUP1 ISZERO PUSH2 0x5A1 JUMPI PUSH1 0x0 DUP1 REVERT JUMPDEST POP PUSH2 0x2D5 PUSH2 0x1877 JUMP JUMPDEST PUSH2 0x28B PUSH2 0x5B8 CALLDATASIZE PUSH1 0x4 PUSH2 0x37A1 JUMP JUMPDEST PUSH2 0x1886 JUMP JUMPDEST CALLVALUE DUP1 ISZERO PUSH2 0x5C9 JUMPI PUSH1 0x0 DUP1 REVERT JUMPDEST POP PUSH2 0x33A PUSH2 0x5D8 CALLDATASIZE PUSH1 0x4 PUSH2 0x3A44 JUMP JUMPDEST PUSH2 0x1BE6 JUMP JUMPDEST CALLVALUE DUP1 ISZERO PUSH2 0x5E9 JUMPI PUSH1 0x0 DUP1 REVERT JUMPDEST POP PUSH2 0x33A PUSH2 0x5F8 CALLDATASIZE PUSH1 0x4 PUSH2 0x3A80 JUMP JUMPDEST PUSH2 0x1BF1 JUMP JUMPDEST CALLVALUE DUP1 ISZERO PUSH2 0x609 JUMPI PUSH1 0x0 DUP1 REVERT JUMPDEST POP PUSH2 0x352 PUSH2 0x618 CALLDATASIZE PUSH1 0x4 PUSH2 0x37D1 JUMP JUMPDEST PUSH2 0x1C08 JUMP JUMPDEST CALLVALUE DUP1 ISZERO PUSH2 0x629 JUMPI PUSH1 0x0 DUP1 REVERT JUMPDEST POP PUSH2 0x2D5 PUSH2 0x638 CALLDATASIZE PUSH1 0x4 PUSH2 0x37A1 JUMP JUMPDEST PUSH2 0x1C24 JUMP JUMPDEST CALLVALUE DUP1 ISZERO PUSH2 0x649 JUMPI PUSH1 0x0 DUP1 REVERT JUMPDEST POP PUSH2 0x65D PUSH2 0x658 CALLDATASIZE PUSH1 0x4 PUSH2 0x37A1 JUMP JUMPDEST PUSH2 0x1C2F JUMP JUMPDEST PUSH1 0x40 MLOAD PUSH2 0x297 SWAP2 SWAP1 PUSH2 0x3AFC JUMP JUMPDEST CALLVALUE DUP1 ISZERO PUSH2 0x676 JUMPI PUSH1 0x0 DUP1 REVERT JUMPDEST POP PUSH1 0x7 SLOAD PUSH1 0x1 PUSH1 0x1 PUSH1 0xA0 SHL SUB AND CALLER EQ PUSH2 0x28B JUMP JUMPDEST CALLVALUE DUP1 ISZERO PUSH2 0x696 JUMPI PUSH1 0x0 DUP1 REVERT JUMPDEST POP PUSH2 0x352 PUSH1 0xB SLOAD DUP2 JUMP JUMPDEST CALLVALUE DUP1 ISZERO PUSH2 0x6AC JUMPI PUSH1 0x0 DUP1 REVERT JUMPDEST POP PUSH2 0x352 PUSH1 0x8 SLOAD DUP2 JUMP JUMPDEST CALLVALUE DUP1 ISZERO PUSH2 0x6C2 JUMPI PUSH1 0x0 DUP1 REVERT JUMPDEST POP PUSH1 0xC SLOAD PUSH1 0xD SLOAD PUSH1 0xE SLOAD PUSH2 0x6D5 SWAP3 SWAP2 SWAP1 DUP4 JUMP JUMPDEST PUSH1 0x40 DUP1 MLOAD SWAP4 DUP5 MSTORE PUSH1 0x20 DUP5 ADD SWAP3 SWAP1 SWAP3 MSTORE SWAP1 DUP3 ADD MSTORE PUSH1 0x60 ADD PUSH2 0x297 JUMP JUMPDEST CALLVALUE DUP1 ISZERO PUSH2 0x6FC JUMPI PUSH1 0x0 DUP1 REVERT JUMPDEST POP PUSH2 0x28B PUSH2 0x70B CALLDATASIZE PUSH1 0x4 PUSH2 0x37A1 JUMP JUMPDEST PUSH2 0x1CF6 JUMP JUMPDEST CALLVALUE DUP1 ISZERO PUSH2 0x71C JUMPI PUSH1 0x0 DUP1 REVERT JUMPDEST POP PUSH2 0x725 PUSH2 0x1D53 JUMP JUMPDEST PUSH1 0x40 MLOAD PUSH2 0x297 SWAP2 SWAP1 PUSH2 0x3C96 JUMP JUMPDEST CALLVALUE DUP1 ISZERO PUSH2 0x73E JUMPI PUSH1 0x0 DUP1 REVERT JUMPDEST POP PUSH2 0x352 PUSH2 0x74D CALLDATASIZE PUSH1 0x4 PUSH2 0x37A1 JUMP JUMPDEST PUSH2 0x2013 JUMP JUMPDEST CALLVALUE DUP1 ISZERO PUSH2 0x75E JUMPI PUSH1 0x0 DUP1 REVERT JUMPDEST POP PUSH1 0x9 SLOAD PUSH2 0x352 JUMP JUMPDEST CALLVALUE DUP1 ISZERO PUSH2 0x773 JUMPI PUSH1 0x0 DUP1 REVERT JUMPDEST POP PUSH2 0x28B PUSH2 0x782 CALLDATASIZE PUSH1 0x4 PUSH2 0x3CEF JUMP JUMPDEST PUSH2 0x2054 JUMP JUMPDEST CALLVALUE DUP1 ISZERO PUSH2 0x793 JUMPI PUSH1 0x0 DUP1 REVERT JUMPDEST POP PUSH2 0x28B PUSH2 0x7A2 CALLDATASIZE PUSH1 0x4 PUSH2 0x37FB JUMP JUMPDEST PUSH1 0x1 PUSH1 0x1 PUSH1 0xA0 SHL SUB AND PUSH1 0x0 SWAP1 DUP2 MSTORE PUSH1 0x13 PUSH1 0x20 MSTORE PUSH1 0x40 SWAP1 KECCAK256 SLOAD PUSH1 0xFF AND SWAP1 JUMP JUMPDEST CALLVALUE DUP1 ISZERO PUSH2 0x7CC JUMPI PUSH1 0x0 DUP1 REVERT JUMPDEST POP PUSH2 0x7E0 PUSH2 0x7DB CALLDATASIZE PUSH1 0x4 PUSH2 0x37A1 JUMP JUMPDEST PUSH2 0x2082 JUMP JUMPDEST PUSH1 0x40 MLOAD PUSH2 0x297 SWAP2 SWAP1 PUSH2 0x3D19 JUMP JUMPDEST CALLVALUE DUP1 ISZERO PUSH2 0x7F9 JUMPI PUSH1 0x0 DUP1 REVERT JUMPDEST POP PUSH2 0x28B PUSH2 0x808 CALLDATASIZE PUSH1 0x4 PUSH2 0x37A1 JUMP JUMPDEST PUSH2 0x234D JUMP JUMPDEST CALLVALUE DUP1 ISZERO PUSH2 0x819 JUMPI PUSH1 0x0 DUP1 REVERT JUMPDEST POP PUSH2 0x28B PUSH2 0x828 CALLDATASIZE PUSH1 0x4 PUSH2 0x37FB JUMP JUMPDEST PUSH1 0x13 PUSH1 0x20 MSTORE PUSH1 0x0 SWAP1 DUP2 MSTORE PUSH1 0x40 SWAP1 KECCAK256 SLOAD PUSH1 0xFF AND DUP2 JUMP JUMPDEST CALLVALUE DUP1 ISZERO PUSH2 0x849 JUMPI PUSH1 0x0 DUP1 REVERT JUMPDEST POP PUSH2 0x28B PUSH2 0x858 CALLDATASIZE PUSH1 0x4 PUSH2 0x36E6 JUMP JUMPDEST PUSH2 0x2536 JUMP JUMPDEST PUSH1 0x0 DUP3 DUP2 MSTORE PUSH1 0x12 PUSH1 0x20 MSTORE PUSH1 0x40 DUP2 KECCAK256 SLOAD PUSH1 0xFF AND PUSH2 0x894 JUMPI PUSH1 0x40 MLOAD PUSH3 0x461BCD PUSH1 0xE5 SHL DUP2 MSTORE PUSH1 0x4 ADD PUSH2 0x88B SWAP1 PUSH2 0x3D2C JUMP JUMPDEST PUSH1 0x40 MLOAD DUP1 SWAP2 SUB SWAP1 REVERT JUMPDEST DUP2 PUSH1 0xF DUP5 DUP2 SLOAD DUP2 LT PUSH2 0x8A8 JUMPI PUSH2 0x8A8 PUSH2 0x3D57 JUMP JUMPDEST SWAP1 PUSH1 0x0 MSTORE PUSH1 0x20 PUSH1 0x0 KECCAK256 SWAP1 PUSH1 0xE MUL ADD PUSH1 0xB ADD SLOAD LT PUSH2 0x907 JUMPI PUSH1 0x40 MLOAD PUSH3 0x461BCD PUSH1 0xE5 SHL DUP2 MSTORE PUSH1 0x20 PUSH1 0x4 DUP3 ADD MSTORE PUSH1 0x1A PUSH1 0x24 DUP3 ADD MSTORE PUSH32 0x50726F6A656374206973206E6F74206578706972656420796574000000000000 PUSH1 0x44 DUP3 ADD MSTORE PUSH1 0x64 ADD PUSH2 0x88B JUMP JUMPDEST PUSH2 0x910 DUP4 PUSH2 0xA40 JUMP JUMPDEST PUSH1 0x40 DUP1 MLOAD DUP5 DUP2 MSTORE PUSH1 0x60 PUSH1 0x20 DUP3 ADD DUP2 SWAP1 MSTORE PUSH1 0x10 SWAP1 DUP3 ADD MSTORE PUSH16 0x141493D29150D5081491519553911151 PUSH1 0x82 SHL PUSH1 0x80 DUP3 ADD MSTORE TIMESTAMP DUP2 DUP4 ADD MSTORE SWAP1 MLOAD CALLER SWAP2 PUSH1 0x0 DUP1 MLOAD PUSH1 0x20 PUSH2 0x40F3 DUP4 CODECOPY DUP2 MLOAD SWAP2 MSTORE SWAP2 SWAP1 DUP2 SWAP1 SUB PUSH1 0xA0 ADD SWAP1 LOG2 POP PUSH1 0x1 JUMPDEST SWAP3 SWAP2 POP POP JUMP JUMPDEST PUSH1 0x0 PUSH2 0x965 DUP3 PUSH2 0x2740 JUMP JUMPDEST PUSH1 0x60 PUSH1 0x0 DUP1 SLOAD PUSH2 0x985 SWAP1 PUSH2 0x3D6D JUMP JUMPDEST DUP1 PUSH1 0x1F ADD PUSH1 0x20 DUP1 SWAP2 DIV MUL PUSH1 0x20 ADD PUSH1 0x40 MLOAD SWAP1 DUP2 ADD PUSH1 0x40 MSTORE DUP1 SWAP3 SWAP2 SWAP1 DUP2 DUP2 MSTORE PUSH1 0x20 ADD DUP3 DUP1 SLOAD PUSH2 0x9B1 SWAP1 PUSH2 0x3D6D JUMP JUMPDEST DUP1 ISZERO PUSH2 0x9FE JUMPI DUP1 PUSH1 0x1F LT PUSH2 0x9D3 JUMPI PUSH2 0x100 DUP1 DUP4 SLOAD DIV MUL DUP4 MSTORE SWAP2 PUSH1 0x20 ADD SWAP2 PUSH2 0x9FE JUMP JUMPDEST DUP3 ADD SWAP2 SWAP1 PUSH1 0x0 MSTORE PUSH1 0x20 PUSH1 0x0 KECCAK256 SWAP1 JUMPDEST DUP2 SLOAD DUP2 MSTORE SWAP1 PUSH1 0x1 ADD SWAP1 PUSH1 0x20 ADD DUP1 DUP4 GT PUSH2 0x9E1 JUMPI DUP3 SWAP1 SUB PUSH1 0x1F AND DUP3 ADD SWAP2 JUMPDEST POP POP POP POP POP SWAP1 POP SWAP1 JUMP JUMPDEST PUSH1 0x0 PUSH2 0xA13 DUP3 PUSH2 0x2765 JUMP JUMPDEST POP PUSH1 0x0 DUP3 DUP2 MSTORE PUSH1 0x4 PUSH1 0x20 MSTORE PUSH1 0x40 SWAP1 KECCAK256 SLOAD PUSH1 0x1 PUSH1 0x1 PUSH1 0xA0 SHL SUB AND PUSH2 0x965 JUMP JUMPDEST PUSH2 0xA3C DUP3 DUP3 CALLER PUSH2 0x279E JUMP JUMPDEST POP POP JUMP JUMPDEST PUSH1 0x2 PUSH1 0xF DUP3 DUP2 SLOAD DUP2 LT PUSH2 0xA55 JUMPI PUSH2 0xA55 PUSH2 0x3D57 JUMP JUMPDEST PUSH1 0x0 SWAP2 DUP3 MSTORE PUSH1 0x20 SWAP1 SWAP2 KECCAK256 PUSH1 0xD PUSH1 0xE SWAP1 SWAP3 MUL ADD ADD SLOAD PUSH1 0xFF AND PUSH1 0x5 DUP2 GT ISZERO PUSH2 0xA7D JUMPI PUSH2 0xA7D PUSH2 0x3B6D JUMP JUMPDEST EQ ISZERO DUP1 ISZERO PUSH2 0xAC6 JUMPI POP PUSH1 0x3 PUSH1 0xF DUP3 DUP2 SLOAD DUP2 LT PUSH2 0xA9B JUMPI PUSH2 0xA9B PUSH2 0x3D57 JUMP JUMPDEST PUSH1 0x0 SWAP2 DUP3 MSTORE PUSH1 0x20 SWAP1 SWAP2 KECCAK256 PUSH1 0xD PUSH1 0xE SWAP1 SWAP3 MUL ADD ADD SLOAD PUSH1 0xFF AND PUSH1 0x5 DUP2 GT ISZERO PUSH2 0xAC3 JUMPI PUSH2 0xAC3 PUSH2 0x3B6D JUMP JUMPDEST EQ ISZERO JUMPDEST DUP1 ISZERO PUSH2 0xB0D JUMPI POP PUSH1 0x5 PUSH1 0xF DUP3 DUP2 SLOAD DUP2 LT PUSH2 0xAE2 JUMPI PUSH2 0xAE2 PUSH2 0x3D57 JUMP JUMPDEST PUSH1 0x0 SWAP2 DUP3 MSTORE PUSH1 0x20 SWAP1 SWAP2 KECCAK256 PUSH1 0xD PUSH1 0xE SWAP1 SWAP3 MUL ADD ADD SLOAD PUSH1 0xFF AND PUSH1 0x5 DUP2 GT ISZERO PUSH2 0xB0A JUMPI PUSH2 0xB0A PUSH2 0x3B6D JUMP JUMPDEST EQ ISZERO JUMPDEST PUSH2 0xB51 JUMPI PUSH1 0x40 MLOAD PUSH3 0x461BCD PUSH1 0xE5 SHL DUP2 MSTORE PUSH1 0x20 PUSH1 0x4 DUP3 ADD MSTORE PUSH1 0x15 PUSH1 0x24 DUP3 ADD MSTORE PUSH21 0x141C9BDA9958DD0818D85B9B9BDD081C99599D5B99 PUSH1 0x5A SHL PUSH1 0x44 DUP3 ADD MSTORE PUSH1 0x64 ADD PUSH2 0x88B JUMP JUMPDEST PUSH1 0x2 PUSH1 0xF DUP3 DUP2 SLOAD DUP2 LT PUSH2 0xB66 JUMPI PUSH2 0xB66 PUSH2 0x3D57 JUMP JUMPDEST PUSH1 0x0 SWAP2 DUP3 MSTORE PUSH1 0x20 SWAP1 SWAP2 KECCAK256 PUSH1 0xD PUSH1 0xE SWAP1 SWAP3 MUL ADD ADD DUP1 SLOAD PUSH1 0xFF NOT AND PUSH1 0x1 DUP4 PUSH1 0x5 DUP2 GT ISZERO PUSH2 0xB93 JUMPI PUSH2 0xB93 PUSH2 0x3B6D JUMP JUMPDEST MUL OR SWAP1 SSTORE POP PUSH1 0x0 PUSH1 0xF DUP3 DUP2 SLOAD DUP2 LT PUSH2 0xBAD JUMPI PUSH2 0xBAD PUSH2 0x3D57 JUMP JUMPDEST SWAP1 PUSH1 0x0 MSTORE PUSH1 0x20 PUSH1 0x0 KECCAK256 SWAP1 PUSH1 0xE MUL ADD PUSH1 0x7 ADD SLOAD SWAP1 POP PUSH1 0x0 DUP1 JUMPDEST PUSH1 0x0 DUP5 DUP2 MSTORE PUSH1 0x11 PUSH1 0x20 MSTORE PUSH1 0x40 SWAP1 KECCAK256 SLOAD DUP2 LT ISZERO PUSH2 0xC22 JUMPI PUSH1 0x0 DUP5 DUP2 MSTORE PUSH1 0x11 PUSH1 0x20 MSTORE PUSH1 0x40 SWAP1 KECCAK256 DUP1 SLOAD DUP3 SWAP1 DUP2 LT PUSH2 0xBFB JUMPI PUSH2 0xBFB PUSH2 0x3D57 JUMP JUMPDEST SWAP1 PUSH1 0x0 MSTORE PUSH1 0x20 PUSH1 0x0 KECCAK256 SWAP1 PUSH1 0x4 MUL ADD PUSH1 0x1 ADD SLOAD DUP3 PUSH2 0xC18 SWAP2 SWAP1 PUSH2 0x3DBD JUMP JUMPDEST SWAP2 POP PUSH1 0x1 ADD PUSH2 0xBC5 JUMP JUMPDEST POP PUSH1 0x0 JUMPDEST PUSH1 0x0 DUP5 DUP2 MSTORE PUSH1 0x11 PUSH1 0x20 MSTORE PUSH1 0x40 SWAP1 KECCAK256 SLOAD DUP2 LT ISZERO PUSH2 0xE26 JUMPI PUSH1 0x0 DUP5 DUP2 MSTORE PUSH1 0x11 PUSH1 0x20 MSTORE PUSH1 0x40 DUP2 KECCAK256 DUP1 SLOAD DUP4 SWAP1 DUP2 LT PUSH2 0xC5C JUMPI PUSH2 0xC5C PUSH2 0x3D57 JUMP JUMPDEST PUSH1 0x0 SWAP2 DUP3 MSTORE PUSH1 0x20 DUP1 DUP4 KECCAK256 PUSH1 0x4 SWAP1 SWAP3 MUL SWAP1 SWAP2 ADD SLOAD DUP8 DUP4 MSTORE PUSH1 0x11 SWAP1 SWAP2 MSTORE PUSH1 0x40 DUP3 KECCAK256 DUP1 SLOAD PUSH1 0x1 PUSH1 0x1 PUSH1 0xA0 SHL SUB SWAP1 SWAP3 AND SWAP4 POP SWAP1 DUP5 SWAP1 DUP2 LT PUSH2 0xC9B JUMPI PUSH2 0xC9B PUSH2 0x3D57 JUMP JUMPDEST SWAP1 PUSH1 0x0 MSTORE PUSH1 0x20 PUSH1 0x0 KECCAK256 SWAP1 PUSH1 0x4 MUL ADD PUSH1 0x1 ADD SLOAD SWAP1 POP PUSH1 0x1 PUSH1 0x11 PUSH1 0x0 DUP9 DUP2 MSTORE PUSH1 0x20 ADD SWAP1 DUP2 MSTORE PUSH1 0x20 ADD PUSH1 0x0 KECCAK256 DUP5 DUP2 SLOAD DUP2 LT PUSH2 0xCD5 JUMPI PUSH2 0xCD5 PUSH2 0x3D57 JUMP JUMPDEST SWAP1 PUSH1 0x0 MSTORE PUSH1 0x20 PUSH1 0x0 KECCAK256 SWAP1 PUSH1 0x4 MUL ADD PUSH1 0x3 ADD PUSH1 0x0 PUSH2 0x100 EXP DUP2 SLOAD DUP2 PUSH1 0xFF MUL NOT AND SWAP1 DUP4 ISZERO ISZERO MUL OR SWAP1 SSTORE POP TIMESTAMP PUSH1 0x11 PUSH1 0x0 DUP9 DUP2 MSTORE PUSH1 0x20 ADD SWAP1 DUP2 MSTORE PUSH1 0x20 ADD PUSH1 0x0 KECCAK256 DUP5 DUP2 SLOAD DUP2 LT PUSH2 0xD22 JUMPI PUSH2 0xD22 PUSH2 0x3D57 JUMP JUMPDEST PUSH1 0x0 SWAP2 DUP3 MSTORE PUSH1 0x20 DUP1 DUP4 KECCAK256 PUSH1 0x2 PUSH1 0x4 SWAP1 SWAP4 MUL ADD SWAP2 SWAP1 SWAP2 ADD SWAP3 SWAP1 SWAP3 SSTORE DUP8 DUP2 MSTORE PUSH1 0x11 SWAP1 SWAP2 MSTORE PUSH1 0x40 DUP2 KECCAK256 SLOAD PUSH2 0xD55 SWAP1 PUSH1 0x1 SWAP1 PUSH2 0x3DD0 JUMP JUMPDEST DUP5 SUB PUSH2 0xD87 JUMPI PUSH1 0xF DUP8 DUP2 SLOAD DUP2 LT PUSH2 0xD6E JUMPI PUSH2 0xD6E PUSH2 0x3D57 JUMP JUMPDEST SWAP1 PUSH1 0x0 MSTORE PUSH1 0x20 PUSH1 0x0 KECCAK256 SWAP1 PUSH1 0xE MUL ADD PUSH1 0x7 ADD SLOAD SWAP1 POP PUSH2 0xD9F JUMP JUMPDEST DUP5 PUSH2 0xD92 DUP4 DUP9 PUSH2 0x3DE3 JUMP JUMPDEST PUSH2 0xD9C SWAP2 SWAP1 PUSH2 0x3DFA JUMP JUMPDEST SWAP1 POP JUMPDEST PUSH2 0xDA9 DUP4 DUP3 PUSH2 0x27AB JUMP JUMPDEST DUP1 PUSH1 0xF DUP9 DUP2 SLOAD DUP2 LT PUSH2 0xDBD JUMPI PUSH2 0xDBD PUSH2 0x3D57 JUMP JUMPDEST SWAP1 PUSH1 0x0 MSTORE PUSH1 0x20 PUSH1 0x0 KECCAK256 SWAP1 PUSH1 0xE MUL ADD PUSH1 0x7 ADD PUSH1 0x0 DUP3 DUP3 SLOAD PUSH2 0xDDD SWAP2 SWAP1 PUSH2 0x3DD0 JUMP JUMPDEST SWAP1 SWAP2 SSTORE POP POP PUSH1 0xD DUP1 SLOAD PUSH1 0x1 SWAP2 SWAP1 PUSH1 0x0 SWAP1 PUSH2 0xDF8 SWAP1 DUP5 SWAP1 PUSH2 0x3DD0 JUMP JUMPDEST SWAP1 SWAP2 SSTORE POP POP PUSH1 0xE DUP1 SLOAD DUP3 SWAP2 SWAP1 PUSH1 0x0 SWAP1 PUSH2 0xE12 SWAP1 DUP5 SWAP1 PUSH2 0x3DD0 JUMP JUMPDEST SWAP1 SWAP2 SSTORE POP POP PUSH1 0x1 SWAP1 SWAP4 ADD SWAP3 POP PUSH2 0xC26 SWAP2 POP POP JUMP JUMPDEST POP POP POP POP JUMP JUMPDEST PUSH1 0x1 PUSH1 0x1 PUSH1 0xA0 SHL SUB DUP3 AND PUSH2 0xE56 JUMPI PUSH1 0x40 MLOAD PUSH4 0x32505749 PUSH1 0xE1 SHL DUP2 MSTORE PUSH1 0x0 PUSH1 0x4 DUP3 ADD MSTORE PUSH1 0x24 ADD PUSH2 0x88B JUMP JUMPDEST PUSH1 0x0 PUSH2 0xE63 DUP4 DUP4 CALLER PUSH2 0x280B JUMP JUMPDEST SWAP1 POP DUP4 PUSH1 0x1 PUSH1 0x1 PUSH1 0xA0 SHL SUB AND DUP2 PUSH1 0x1 PUSH1 0x1 PUSH1 0xA0 SHL SUB AND EQ PUSH2 0xE26 JUMPI PUSH1 0x40 MLOAD PUSH4 0x64283D7B PUSH1 0xE0 SHL DUP2 MSTORE PUSH1 0x1 PUSH1 0x1 PUSH1 0xA0 SHL SUB DUP1 DUP7 AND PUSH1 0x4 DUP4 ADD MSTORE PUSH1 0x24 DUP3 ADD DUP5 SWAP1 MSTORE DUP3 AND PUSH1 0x44 DUP3 ADD MSTORE PUSH1 0x64 ADD PUSH2 0x88B JUMP JUMPDEST PUSH1 0x7 SLOAD PUSH1 0x1 PUSH1 0x1 PUSH1 0xA0 SHL SUB AND CALLER EQ PUSH2 0xF01 JUMPI PUSH1 0x40 MLOAD PUSH3 0x461BCD PUSH1 0xE5 SHL DUP2 MSTORE PUSH1 0x20 PUSH1 0x4 DUP3 ADD MSTORE PUSH1 0x13 PUSH1 0x24 DUP3 ADD MSTORE PUSH19 0x4F776E6572207265736572766564206F6E6C79 PUSH1 0x68 SHL PUSH1 0x44 DUP3 ADD MSTORE PUSH1 0x64 ADD PUSH2 0x88B JUMP JUMPDEST PUSH1 0x1 PUSH1 0x1 PUSH1 0xA0 SHL SUB DUP2 AND PUSH1 0x0 SWAP1 DUP2 MSTORE PUSH1 0x13 PUSH1 0x20 MSTORE PUSH1 0x40 DUP1 DUP3 KECCAK256 DUP1 SLOAD PUSH1 0xFF NOT AND PUSH1 0x1 OR SWAP1 SSTORE MLOAD CALLER SWAP2 PUSH1 0x0 DUP1 MLOAD PUSH1 0x20 PUSH2 0x40F3 DUP4 CODECOPY DUP2 MLOAD SWAP2 MSTORE SWAP2 PUSH2 0xF72 SWAP2 SWAP1 TIMESTAMP SWAP1 SWAP2 DUP3 MSTORE PUSH1 0x60 PUSH1 0x20 DUP4 ADD DUP2 SWAP1 MSTORE PUSH1 0xD SWAP1 DUP4 ADD MSTORE PUSH13 0x10D491505513D4881051111151 PUSH1 0x9A SHL PUSH1 0x80 DUP4 ADD MSTORE PUSH1 0x40 DUP3 ADD MSTORE PUSH1 0xA0 ADD SWAP1 JUMP JUMPDEST PUSH1 0x40 MLOAD DUP1 SWAP2 SUB SWAP1 LOG2 POP JUMP JUMPDEST PUSH1 0x14 PUSH1 0x20 MSTORE DUP2 PUSH1 0x0 MSTORE PUSH1 0x40 PUSH1 0x0 KECCAK256 DUP2 DUP2 SLOAD DUP2 LT PUSH2 0xF99 JUMPI PUSH1 0x0 DUP1 REVERT JUMPDEST SWAP1 PUSH1 0x0 MSTORE PUSH1 0x20 PUSH1 0x0 KECCAK256 ADD PUSH1 0x0 SWAP2 POP SWAP2 POP POP SLOAD DUP2 JUMP JUMPDEST PUSH1 0x7 SLOAD PUSH1 0x1 PUSH1 0x1 PUSH1 0xA0 SHL SUB AND CALLER EQ PUSH2 0xFFE JUMPI PUSH1 0x40 MLOAD PUSH3 0x461BCD PUSH1 0xE5 SHL DUP2 MSTORE PUSH1 0x20 PUSH1 0x4 DUP3 ADD MSTORE PUSH1 0x13 PUSH1 0x24 DUP3 ADD MSTORE PUSH19 0x4F776E6572207265736572766564206F6E6C79 PUSH1 0x68 SHL PUSH1 0x44 DUP3 ADD MSTORE PUSH1 0x64 ADD PUSH2 0x88B JUMP JUMPDEST PUSH1 0x8 SSTORE JUMP JUMPDEST PUSH2 0x101E DUP4 DUP4 DUP4 PUSH1 0x40 MLOAD DUP1 PUSH1 0x20 ADD PUSH1 0x40 MSTORE DUP1 PUSH1 0x0 DUP2 MSTORE POP PUSH2 0x1BF1 JUMP JUMPDEST POP POP POP JUMP JUMPDEST PUSH1 0x1 PUSH1 0x1 PUSH1 0xA0 SHL SUB DUP2 AND PUSH1 0x0 SWAP1 DUP2 MSTORE PUSH1 0x15 PUSH1 0x20 MSTORE PUSH1 0x40 DUP2 KECCAK256 SLOAD PUSH1 0x60 SWAP2 DUP2 PUSH8 0xFFFFFFFFFFFFFFFF DUP2 GT ISZERO PUSH2 0x1058 JUMPI PUSH2 0x1058 PUSH2 0x38B8 JUMP JUMPDEST PUSH1 0x40 MLOAD SWAP1 DUP1 DUP3 MSTORE DUP1 PUSH1 0x20 MUL PUSH1 0x20 ADD DUP3 ADD PUSH1 0x40 MSTORE DUP1 ISZERO PUSH2 0x108B JUMPI DUP2 PUSH1 0x20 ADD JUMPDEST PUSH1 0x60 DUP2 MSTORE PUSH1 0x20 ADD SWAP1 PUSH1 0x1 SWAP1 SUB SWAP1 DUP2 PUSH2 0x1076 JUMPI SWAP1 POP JUMPDEST POP SWAP1 POP PUSH1 0x0 JUMPDEST PUSH1 0x1 PUSH1 0x1 PUSH1 0xA0 SHL SUB DUP6 AND PUSH1 0x0 SWAP1 DUP2 MSTORE PUSH1 0x15 PUSH1 0x20 MSTORE PUSH1 0x40 SWAP1 KECCAK256 SLOAD DUP2 LT ISZERO PUSH2 0x1115 JUMPI PUSH1 0x1 PUSH1 0x1 PUSH1 0xA0 SHL SUB DUP6 AND PUSH1 0x0 SWAP1 DUP2 MSTORE PUSH1 0x15 PUSH1 0x20 MSTORE PUSH1 0x40 SWAP1 KECCAK256 DUP1 SLOAD PUSH2 0x10F0 SWAP2 SWAP1 DUP4 SWAP1 DUP2 LT PUSH2 0x10E0 JUMPI PUSH2 0x10E0 PUSH2 0x3D57 JUMP JUMPDEST SWAP1 PUSH1 0x0 MSTORE PUSH1 0x20 PUSH1 0x0 KECCAK256 ADD SLOAD PUSH2 0x1C24 JUMP JUMPDEST DUP3 DUP3 DUP2 MLOAD DUP2 LT PUSH2 0x1102 JUMPI PUSH2 0x1102 PUSH2 0x3D57 JUMP JUMPDEST PUSH1 0x20 SWAP1 DUP2 MUL SWAP2 SWAP1 SWAP2 ADD ADD MSTORE PUSH1 0x1 ADD PUSH2 0x1091 JUMP JUMPDEST POP SWAP4 SWAP3 POP POP POP JUMP JUMPDEST CALLER PUSH1 0x0 SWAP1 DUP2 MSTORE PUSH1 0x13 PUSH1 0x20 MSTORE PUSH1 0x40 DUP2 KECCAK256 SLOAD PUSH1 0xFF AND DUP1 PUSH2 0x1145 JUMPI POP PUSH1 0x7 SLOAD PUSH1 0x1 PUSH1 0x1 PUSH1 0xA0 SHL SUB AND CALLER EQ JUMPDEST PUSH2 0x1161 JUMPI PUSH1 0x40 MLOAD PUSH3 0x461BCD PUSH1 0xE5 SHL DUP2 MSTORE PUSH1 0x4 ADD PUSH2 0x88B SWAP1 PUSH2 0x3E1C JUMP JUMPDEST PUSH1 0x0 DUP3 DUP2 MSTORE PUSH1 0x12 PUSH1 0x20 MSTORE PUSH1 0x40 SWAP1 KECCAK256 SLOAD PUSH1 0xFF AND PUSH2 0x118F JUMPI PUSH1 0x40 MLOAD PUSH3 0x461BCD PUSH1 0xE5 SHL DUP2 MSTORE PUSH1 0x4 ADD PUSH2 0x88B SWAP1 PUSH2 0x3D2C JUMP JUMPDEST PUSH1 0xF DUP3 DUP2 SLOAD DUP2 LT PUSH2 0x11A2 JUMPI PUSH2 0x11A2 PUSH2 0x3D57 JUMP JUMPDEST PUSH1 0x0 SWAP2 DUP3 MSTORE PUSH1 0x20 SWAP1 SWAP2 KECCAK256 PUSH1 0xE SWAP1 SWAP2 MUL ADD PUSH1 0x2 ADD SLOAD PUSH1 0x1 PUSH1 0x1 PUSH1 0xA0 SHL SUB AND CALLER EQ PUSH2 0x1203 JUMPI PUSH1 0x40 MLOAD PUSH3 0x461BCD PUSH1 0xE5 SHL DUP2 MSTORE PUSH1 0x20 PUSH1 0x4 DUP3 ADD MSTORE PUSH1 0x13 PUSH1 0x24 DUP3 ADD MSTORE PUSH19 0x556E617574686F72697A656420456E74697479 PUSH1 0x68 SHL PUSH1 0x44 DUP3 ADD MSTORE PUSH1 0x64 ADD PUSH2 0x88B JUMP JUMPDEST PUSH2 0x120C DUP3 PUSH2 0xA40 JUMP JUMPDEST PUSH1 0x3 PUSH1 0xF DUP4 DUP2 SLOAD DUP2 LT PUSH2 0x1221 JUMPI PUSH2 0x1221 PUSH2 0x3D57 JUMP JUMPDEST PUSH1 0x0 SWAP2 DUP3 MSTORE PUSH1 0x20 SWAP1 SWAP2 KECCAK256 PUSH1 0xD PUSH1 0xE SWAP1 SWAP3 MUL ADD ADD DUP1 SLOAD PUSH1 0xFF NOT AND PUSH1 0x1 DUP4 PUSH1 0x5 DUP2 GT ISZERO PUSH2 0x124E JUMPI PUSH2 0x124E PUSH2 0x3B6D JUMP JUMPDEST MUL OR SWAP1 SSTORE POP PUSH1 0x40 DUP1 MLOAD DUP4 DUP2 MSTORE PUSH1 0x60 PUSH1 0x20 DUP3 ADD DUP2 SWAP1 MSTORE PUSH1 0xF SWAP1 DUP3 ADD MSTORE PUSH15 0x141493D29150D50811115311551151 PUSH1 0x8A SHL PUSH1 0x80 DUP3 ADD MSTORE TIMESTAMP DUP2 DUP4 ADD MSTORE SWAP1 MLOAD CALLER SWAP2 PUSH1 0x0 DUP1 MLOAD PUSH1 0x20 PUSH2 0x40F3 DUP4 CODECOPY DUP2 MLOAD SWAP2 MSTORE SWAP2 SWAP1 DUP2 SWAP1 SUB PUSH1 0xA0 ADD SWAP1 LOG2 POP PUSH1 0x1 JUMPDEST SWAP2 SWAP1 POP JUMP JUMPDEST CALLER PUSH1 0x0 SWAP1 DUP2 MSTORE PUSH1 0x13 PUSH1 0x20 MSTORE PUSH1 0x40 DUP2 KECCAK256 SLOAD PUSH1 0xFF AND DUP1 PUSH2 0x12D4 JUMPI POP PUSH1 0x7 SLOAD PUSH1 0x1 PUSH1 0x1 PUSH1 0xA0 SHL SUB AND CALLER EQ JUMPDEST PUSH2 0x12F0 JUMPI PUSH1 0x40 MLOAD PUSH3 0x461BCD PUSH1 0xE5 SHL DUP2 MSTORE PUSH1 0x4 ADD PUSH2 0x88B SWAP1 PUSH2 0x3E1C JUMP JUMPDEST PUSH1 0x0 DUP8 MLOAD GT PUSH2 0x1339 JUMPI PUSH1 0x40 MLOAD PUSH3 0x461BCD PUSH1 0xE5 SHL DUP2 MSTORE PUSH1 0x20 PUSH1 0x4 DUP3 ADD MSTORE PUSH1 0x15 PUSH1 0x24 DUP3 ADD MSTORE PUSH21 0x5469746C652063616E6E6F7420626520656D707479 PUSH1 0x58 SHL PUSH1 0x44 DUP3 ADD MSTORE PUSH1 0x64 ADD PUSH2 0x88B JUMP JUMPDEST PUSH1 0x0 DUP7 MLOAD GT PUSH2 0x138A JUMPI PUSH1 0x40 MLOAD PUSH3 0x461BCD PUSH1 0xE5 SHL DUP2 MSTORE PUSH1 0x20 PUSH1 0x4 DUP3 ADD MSTORE PUSH1 0x1B PUSH1 0x24 DUP3 ADD MSTORE PUSH32 0x4465736372697074696F6E2063616E6E6F7420626520656D7074790000000000 PUSH1 0x44 DUP3 ADD MSTORE PUSH1 0x64 ADD PUSH2 0x88B JUMP JUMPDEST PUSH1 0x0 DUP6 MLOAD GT PUSH2 0x13DB JUMPI PUSH1 0x40 MLOAD PUSH3 0x461BCD PUSH1 0xE5 SHL DUP2 MSTORE PUSH1 0x20 PUSH1 0x4 DUP3 ADD MSTORE PUSH1 0x18 PUSH1 0x24 DUP3 ADD MSTORE PUSH32 0x496D61676555524C2063616E6E6F7420626520656D7074790000000000000000 PUSH1 0x44 DUP3 ADD MSTORE PUSH1 0x64 ADD PUSH2 0x88B JUMP JUMPDEST PUSH1 0x0 DUP5 GT PUSH2 0x1421 JUMPI PUSH1 0x40 MLOAD PUSH3 0x461BCD PUSH1 0xE5 SHL DUP2 MSTORE PUSH1 0x20 PUSH1 0x4 DUP3 ADD MSTORE PUSH1 0x13 PUSH1 0x24 DUP3 ADD MSTORE PUSH19 0x436F73742063616E6E6F74206265207A65726F PUSH1 0x68 SHL PUSH1 0x44 DUP3 ADD MSTORE PUSH1 0x64 ADD PUSH2 0x88B JUMP JUMPDEST PUSH2 0x1429 PUSH2 0x3655 JUMP JUMPDEST PUSH1 0xA SLOAD DUP2 MSTORE CALLER PUSH1 0x40 DUP3 ADD SWAP1 DUP2 MSTORE PUSH1 0x60 DUP3 ADD DUP10 DUP2 MSTORE PUSH1 0x80 DUP4 ADD DUP10 SWAP1 MSTORE PUSH1 0xA0 DUP4 ADD DUP9 SWAP1 MSTORE PUSH1 0xC0 DUP4 ADD DUP8 SWAP1 MSTORE TIMESTAMP PUSH2 0x100 DUP5 ADD MSTORE PUSH2 0x120 DUP4 ADD DUP7 SWAP1 MSTORE PUSH1 0x0 PUSH2 0x140 DUP5 ADD DUP2 SWAP1 MSTORE PUSH2 0x160 DUP5 ADD DUP7 SWAP1 MSTORE PUSH1 0xF DUP1 SLOAD PUSH1 0x1 DUP2 ADD DUP3 SSTORE SWAP2 MSTORE DUP4 MLOAD PUSH32 0x8D1108E10BCB7C27DDDFC02ED9D693A074039D026CF4EA4240B40F7D581AC802 PUSH1 0xE SWAP1 SWAP3 MUL SWAP2 DUP3 ADD SWAP1 DUP2 SSTORE PUSH1 0x20 DUP6 ADD MLOAD PUSH32 0x8D1108E10BCB7C27DDDFC02ED9D693A074039D026CF4EA4240B40F7D581AC803 DUP4 ADD DUP1 SLOAD PUSH1 0x1 PUSH1 0x1 PUSH1 0xA0 SHL SUB NOT SWAP1 DUP2 AND PUSH1 0x1 PUSH1 0x1 PUSH1 0xA0 SHL SUB SWAP4 DUP5 AND OR SWAP1 SWAP2 SSTORE SWAP5 MLOAD PUSH32 0x8D1108E10BCB7C27DDDFC02ED9D693A074039D026CF4EA4240B40F7D581AC804 DUP5 ADD DUP1 SLOAD SWAP1 SWAP7 AND SWAP2 AND OR SWAP1 SWAP4 SSTORE SWAP1 MLOAD DUP4 SWAP3 SWAP2 PUSH32 0x8D1108E10BCB7C27DDDFC02ED9D693A074039D026CF4EA4240B40F7D581AC805 ADD SWAP1 PUSH2 0x1554 SWAP1 DUP3 PUSH2 0x3E9A JUMP JUMPDEST POP PUSH1 0x80 DUP3 ADD MLOAD PUSH1 0x4 DUP3 ADD SWAP1 PUSH2 0x1569 SWAP1 DUP3 PUSH2 0x3E9A JUMP JUMPDEST POP PUSH1 0xA0 DUP3 ADD MLOAD PUSH1 0x5 DUP3 ADD SWAP1 PUSH2 0x157E SWAP1 DUP3 PUSH2 0x3E9A JUMP JUMPDEST POP PUSH1 0xC0 DUP3 ADD MLOAD PUSH1 0x6 DUP3 ADD SSTORE PUSH1 0xE0 DUP3 ADD MLOAD PUSH1 0x7 DUP3 ADD SSTORE PUSH2 0x100 DUP3 ADD MLOAD PUSH1 0x8 DUP3 ADD SSTORE PUSH2 0x120 DUP3 ADD MLOAD PUSH1 0x9 DUP3 ADD SSTORE PUSH2 0x140 DUP3 ADD MLOAD PUSH1 0xA DUP3 ADD SSTORE PUSH2 0x160 DUP3 ADD MLOAD PUSH1 0xB DUP3 ADD SSTORE PUSH2 0x180 DUP3 ADD MLOAD PUSH1 0xC DUP3 ADD SSTORE PUSH2 0x1A0 DUP3 ADD MLOAD PUSH1 0xD DUP3 ADD DUP1 SLOAD PUSH1 0xFF NOT AND PUSH1 0x1 DUP4 PUSH1 0x5 DUP2 GT ISZERO PUSH2 0x15EE JUMPI PUSH2 0x15EE PUSH2 0x3B6D JUMP JUMPDEST MUL OR SWAP1 SSTORE POP POP PUSH1 0xA SLOAD PUSH1 0x0 SWAP1 DUP2 MSTORE PUSH1 0x12 PUSH1 0x20 SWAP1 DUP2 MSTORE PUSH1 0x40 DUP1 DUP4 KECCAK256 DUP1 SLOAD PUSH1 0xFF NOT AND PUSH1 0x1 SWAP1 DUP2 OR SWAP1 SWAP2 SSTORE CALLER DUP5 MSTORE PUSH1 0x10 DUP4 MSTORE DUP2 DUP5 KECCAK256 DUP1 SLOAD DUP1 DUP4 ADD DUP3 SSTORE SWAP1 DUP6 MSTORE SWAP4 DUP4 SWAP1 KECCAK256 DUP7 MLOAD PUSH1 0xE SWAP1 SWAP6 MUL ADD SWAP4 DUP5 SSTORE SWAP2 DUP6 ADD MLOAD SWAP2 DUP4 ADD DUP1 SLOAD PUSH1 0x1 PUSH1 0x1 PUSH1 0xA0 SHL SUB SWAP4 DUP5 AND PUSH1 0x1 PUSH1 0x1 PUSH1 0xA0 SHL SUB NOT SWAP2 DUP3 AND OR SWAP1 SWAP2 SSTORE SWAP1 DUP6 ADD MLOAD PUSH1 0x2 DUP5 ADD DUP1 SLOAD SWAP2 SWAP1 SWAP4 AND SWAP2 AND OR SWAP1 SSTORE PUSH1 0x60 DUP4 ADD MLOAD DUP4 SWAP3 POP PUSH1 0x3 DUP3 ADD SWAP1 PUSH2 0x1687 SWAP1 DUP3 PUSH2 0x3E9A JUMP JUMPDEST POP PUSH1 0x80 DUP3 ADD MLOAD PUSH1 0x4 DUP3 ADD SWAP1 PUSH2 0x169C SWAP1 DUP3 PUSH2 0x3E9A JUMP JUMPDEST POP PUSH1 0xA0 DUP3 ADD MLOAD PUSH1 0x5 DUP3 ADD SWAP1 PUSH2 0x16B1 SWAP1 DUP3 PUSH2 0x3E9A JUMP JUMPDEST POP PUSH1 0xC0 DUP3 ADD MLOAD PUSH1 0x6 DUP3 ADD SSTORE PUSH1 0xE0 DUP3 ADD MLOAD PUSH1 0x7 DUP3 ADD SSTORE PUSH2 0x100 DUP3 ADD MLOAD PUSH1 0x8 DUP3 ADD SSTORE PUSH2 0x120 DUP3 ADD MLOAD PUSH1 0x9 DUP3 ADD SSTORE PUSH2 0x140 DUP3 ADD MLOAD PUSH1 0xA DUP3 ADD SSTORE PUSH2 0x160 DUP3 ADD MLOAD PUSH1 0xB DUP3 ADD SSTORE PUSH2 0x180 DUP3 ADD MLOAD PUSH1 0xC DUP3 ADD SSTORE PUSH2 0x1A0 DUP3 ADD MLOAD PUSH1 0xD DUP3 ADD DUP1 SLOAD PUSH1 0xFF NOT AND PUSH1 0x1 DUP4 PUSH1 0x5 DUP2 GT ISZERO PUSH2 0x1721 JUMPI PUSH2 0x1721 PUSH2 0x3B6D JUMP JUMPDEST MUL OR SWAP1 SSTORE POP POP POP PUSH1 0x1 PUSH1 0xC PUSH1 0x0 ADD PUSH1 0x0 DUP3 DUP3 SLOAD PUSH2 0x173E SWAP2 SWAP1 PUSH2 0x3DBD JUMP JUMPDEST SWAP1 SWAP2 SSTORE POP POP PUSH1 0xA DUP1 SLOAD CALLER SWAP2 PUSH1 0x0 DUP1 MLOAD PUSH1 0x20 PUSH2 0x40F3 DUP4 CODECOPY DUP2 MLOAD SWAP2 MSTORE SWAP2 SWAP1 PUSH1 0x0 PUSH2 0x1765 DUP4 PUSH2 0x3F59 JUMP JUMPDEST SWAP1 SWAP2 SSTORE POP PUSH1 0x40 DUP1 MLOAD SWAP2 DUP3 MSTORE PUSH1 0x60 PUSH1 0x20 DUP4 ADD DUP2 SWAP1 MSTORE PUSH1 0xE SWAP1 DUP4 ADD MSTORE PUSH14 0x50524F4A45435420435245415445 PUSH1 0x90 SHL PUSH1 0x80 DUP4 ADD MSTORE TIMESTAMP SWAP1 DUP3 ADD MSTORE PUSH1 0xA0 ADD PUSH1 0x40 MLOAD DUP1 SWAP2 SUB SWAP1 LOG2 POP PUSH1 0x1 SWAP8 SWAP7 POP POP POP POP POP POP POP JUMP JUMPDEST PUSH1 0x0 PUSH2 0x965 DUP3 PUSH2 0x2765 JUMP JUMPDEST PUSH1 0x0 DUP3 DUP2 MSTORE PUSH1 0x12 PUSH1 0x20 MSTORE PUSH1 0x40 DUP2 KECCAK256 SLOAD PUSH1 0xFF AND PUSH2 0x17ED JUMPI PUSH1 0x40 MLOAD PUSH3 0x461BCD PUSH1 0xE5 SHL DUP2 MSTORE PUSH1 0x4 ADD PUSH2 0x88B SWAP1 PUSH2 0x3D2C JUMP JUMPDEST DUP2 PUSH1 0x1 PUSH1 0x1 PUSH1 0xA0 SHL SUB AND PUSH1 0xF DUP5 DUP2 SLOAD DUP2 LT PUSH2 0x180A JUMPI PUSH2 0x180A PUSH2 0x3D57 JUMP JUMPDEST PUSH1 0x0 SWAP2 DUP3 MSTORE PUSH1 0x20 SWAP1 SWAP2 KECCAK256 PUSH1 0xE SWAP1 SWAP2 MUL ADD PUSH1 0x2 ADD SLOAD PUSH1 0x1 PUSH1 0x1 PUSH1 0xA0 SHL SUB AND EQ SWAP4 SWAP3 POP POP POP JUMP JUMPDEST PUSH1 0x0 PUSH1 0x1 PUSH1 0x1 PUSH1 0xA0 SHL SUB DUP3 AND PUSH2 0x185B JUMPI PUSH1 0x40 MLOAD PUSH4 0x22718AD9 PUSH1 0xE2 SHL DUP2 MSTORE PUSH1 0x0 PUSH1 0x4 DUP3 ADD MSTORE PUSH1 0x24 ADD PUSH2 0x88B JUMP JUMPDEST POP PUSH1 0x1 PUSH1 0x1 PUSH1 0xA0 SHL SUB AND PUSH1 0x0 SWAP1 DUP2 MSTORE PUSH1 0x3 PUSH1 0x20 MSTORE PUSH1 0x40 SWAP1 KECCAK256 SLOAD SWAP1 JUMP JUMPDEST PUSH1 0x60 PUSH1 0x1 DUP1 SLOAD PUSH2 0x985 SWAP1 PUSH2 0x3D6D JUMP JUMPDEST PUSH1 0x0 DUP1 CALLVALUE GT PUSH2 0x18D7 JUMPI PUSH1 0x40 MLOAD PUSH3 0x461BCD PUSH1 0xE5 SHL DUP2 MSTORE PUSH1 0x20 PUSH1 0x4 DUP3 ADD MSTORE PUSH1 0x1F PUSH1 0x24 DUP3 ADD MSTORE PUSH32 0x4574686572206D7573742062652067726561746572207468616E207A65726F00 PUSH1 0x44 DUP3 ADD MSTORE PUSH1 0x64 ADD PUSH2 0x88B JUMP JUMPDEST PUSH1 0x0 DUP3 DUP2 MSTORE PUSH1 0x12 PUSH1 0x20 MSTORE PUSH1 0x40 SWAP1 KECCAK256 SLOAD PUSH1 0xFF AND PUSH2 0x1905 JUMPI PUSH1 0x40 MLOAD PUSH3 0x461BCD PUSH1 0xE5 SHL DUP2 MSTORE PUSH1 0x4 ADD PUSH2 0x88B SWAP1 PUSH2 0x3D2C JUMP JUMPDEST PUSH1 0x0 PUSH1 0xF DUP4 DUP2 SLOAD DUP2 LT PUSH2 0x191A JUMPI PUSH2 0x191A PUSH2 0x3D57 JUMP JUMPDEST PUSH1 0x0 SWAP2 DUP3 MSTORE PUSH1 0x20 SWAP1 SWAP2 KECCAK256 PUSH1 0xD PUSH1 0xE SWAP1 SWAP3 MUL ADD ADD SLOAD PUSH1 0xFF AND PUSH1 0x5 DUP2 GT ISZERO PUSH2 0x1942 JUMPI PUSH2 0x1942 PUSH2 0x3B6D JUMP JUMPDEST EQ PUSH2 0x1985 JUMPI PUSH1 0x40 MLOAD PUSH3 0x461BCD PUSH1 0xE5 SHL DUP2 MSTORE PUSH1 0x20 PUSH1 0x4 DUP3 ADD MSTORE PUSH1 0x13 PUSH1 0x24 DUP3 ADD MSTORE PUSH19 0x283937B532B1BA1034B9903737BA1037B832B7 PUSH1 0x69 SHL PUSH1 0x44 DUP3 ADD MSTORE PUSH1 0x64 ADD PUSH2 0x88B JUMP JUMPDEST PUSH1 0x1 PUSH1 0xC PUSH1 0x1 ADD PUSH1 0x0 DUP3 DUP3 SLOAD PUSH2 0x199B SWAP2 SWAP1 PUSH2 0x3DBD JUMP JUMPDEST SWAP1 SWAP2 SSTORE POP POP PUSH1 0xE DUP1 SLOAD CALLVALUE SWAP2 SWAP1 PUSH1 0x0 SWAP1 PUSH2 0x19B5 SWAP1 DUP5 SWAP1 PUSH2 0x3DBD JUMP JUMPDEST SWAP3 POP POP DUP2 SWAP1 SSTORE POP CALLVALUE PUSH1 0xF DUP4 DUP2 SLOAD DUP2 LT PUSH2 0x19D0 JUMPI PUSH2 0x19D0 PUSH2 0x3D57 JUMP JUMPDEST SWAP1 PUSH1 0x0 MSTORE PUSH1 0x20 PUSH1 0x0 KECCAK256 SWAP1 PUSH1 0xE MUL ADD PUSH1 0x7 ADD PUSH1 0x0 DUP3 DUP3 SLOAD PUSH2 0x19F0 SWAP2 SWAP1 PUSH2 0x3DBD JUMP JUMPDEST SWAP3 POP POP DUP2 SWAP1 SSTORE POP PUSH1 0x1 PUSH1 0xF DUP4 DUP2 SLOAD DUP2 LT PUSH2 0x1A0C JUMPI PUSH2 0x1A0C PUSH2 0x3D57 JUMP JUMPDEST SWAP1 PUSH1 0x0 MSTORE PUSH1 0x20 PUSH1 0x0 KECCAK256 SWAP1 PUSH1 0xE MUL ADD PUSH1 0xC ADD PUSH1 0x0 DUP3 DUP3 SLOAD PUSH2 0x1A2C SWAP2 SWAP1 PUSH2 0x3DBD JUMP JUMPDEST SWAP1 SWAP2 SSTORE POP POP PUSH1 0x0 DUP3 DUP2 MSTORE PUSH1 0x11 PUSH1 0x20 SWAP1 DUP2 MSTORE PUSH1 0x40 DUP1 DUP4 KECCAK256 DUP2 MLOAD PUSH1 0x80 DUP1 DUP3 ADD DUP5 MSTORE CALLER DUP1 DUP4 MSTORE CALLVALUE DUP4 DUP8 ADD SWAP1 DUP2 MSTORE TIMESTAMP DUP5 DUP8 ADD DUP2 DUP2 MSTORE PUSH1 0x60 DUP1 DUP8 ADD DUP12 DUP2 MSTORE DUP9 SLOAD PUSH1 0x1 DUP1 DUP3 ADD DUP12 SSTORE SWAP10 DUP14 MSTORE SWAP12 DUP12 SWAP1 KECCAK256 SWAP8 MLOAD PUSH1 0x4 SWAP1 SWAP13 MUL SWAP1 SWAP8 ADD DUP1 SLOAD PUSH1 0x1 PUSH1 0x1 PUSH1 0xA0 SHL SUB NOT AND PUSH1 0x1 PUSH1 0x1 PUSH1 0xA0 SHL SUB SWAP1 SWAP13 AND SWAP12 SWAP1 SWAP12 OR DUP12 SSTORE SWAP3 MLOAD SWAP7 DUP11 ADD SWAP7 SWAP1 SWAP7 SSTORE SWAP5 MLOAD PUSH1 0x2 DUP10 ADD SSTORE SWAP3 MLOAD PUSH1 0x3 SWAP1 SWAP8 ADD DUP1 SLOAD PUSH1 0xFF NOT AND SWAP8 ISZERO ISZERO SWAP8 SWAP1 SWAP8 OR SWAP1 SWAP7 SSTORE DUP4 MLOAD DUP9 DUP2 MSTORE SWAP5 DUP6 ADD DUP3 SWAP1 MSTORE PUSH1 0xE SWAP2 DUP6 ADD SWAP2 SWAP1 SWAP2 MSTORE PUSH14 0x141493D29150D508109050D2D151 PUSH1 0x92 SHL SWAP1 DUP5 ADD MSTORE SWAP1 DUP3 ADD MSTORE PUSH1 0x0 DUP1 MLOAD PUSH1 0x20 PUSH2 0x40F3 DUP4 CODECOPY DUP2 MLOAD SWAP2 MSTORE SWAP1 PUSH1 0xA0 ADD PUSH1 0x40 MLOAD DUP1 SWAP2 SUB SWAP1 LOG2 PUSH1 0xF DUP3 DUP2 SLOAD DUP2 LT PUSH2 0x1B1F JUMPI PUSH2 0x1B1F PUSH2 0x3D57 JUMP JUMPDEST SWAP1 PUSH1 0x0 MSTORE PUSH1 0x20 PUSH1 0x0 KECCAK256 SWAP1 PUSH1 0xE MUL ADD PUSH1 0x6 ADD SLOAD PUSH1 0xF DUP4 DUP2 SLOAD DUP2 LT PUSH2 0x1B44 JUMPI PUSH2 0x1B44 PUSH2 0x3D57 JUMP JUMPDEST SWAP1 PUSH1 0x0 MSTORE PUSH1 0x20 PUSH1 0x0 KECCAK256 SWAP1 PUSH1 0xE MUL ADD PUSH1 0x7 ADD SLOAD LT PUSH2 0x1BAA JUMPI PUSH1 0x1 PUSH1 0xF DUP4 DUP2 SLOAD DUP2 LT PUSH2 0x1B70 JUMPI PUSH2 0x1B70 PUSH2 0x3D57 JUMP JUMPDEST PUSH1 0x0 SWAP2 DUP3 MSTORE PUSH1 0x20 SWAP1 SWAP2 KECCAK256 PUSH1 0xD PUSH1 0xE SWAP1 SWAP3 MUL ADD ADD DUP1 SLOAD PUSH1 0xFF NOT AND PUSH1 0x1 DUP4 PUSH1 0x5 DUP2 GT ISZERO PUSH2 0x1B9D JUMPI PUSH2 0x1B9D PUSH2 0x3B6D JUMP JUMPDEST MUL OR SWAP1 SSTORE POP PUSH1 0x1 SWAP3 SWAP2 POP POP JUMP JUMPDEST PUSH1 0xF DUP3 DUP2 SLOAD DUP2 LT PUSH2 0x1BBD JUMPI PUSH2 0x1BBD PUSH2 0x3D57 JUMP JUMPDEST SWAP1 PUSH1 0x0 MSTORE PUSH1 0x20 PUSH1 0x0 KECCAK256 SWAP1 PUSH1 0xE MUL ADD PUSH1 0xB ADD SLOAD TIMESTAMP LT PUSH2 0x1BDE JUMPI PUSH2 0x1BDE DUP3 PUSH2 0xA40 JUMP JUMPDEST POP PUSH1 0x1 SWAP2 SWAP1 POP JUMP JUMPDEST PUSH2 0xA3C CALLER DUP4 DUP4 PUSH2 0x2904 JUMP JUMPDEST PUSH2 0x1BFC DUP5 DUP5 DUP5 PUSH2 0xE2C JUMP JUMPDEST PUSH2 0xE26 DUP5 DUP5 DUP5 DUP5 PUSH2 0x29A3 JUMP JUMPDEST PUSH1 0x15 PUSH1 0x20 MSTORE DUP2 PUSH1 0x0 MSTORE PUSH1 0x40 PUSH1 0x0 KECCAK256 DUP2 DUP2 SLOAD DUP2 LT PUSH2 0xF99 JUMPI PUSH1 0x0 DUP1 REVERT JUMPDEST PUSH1 0x60 PUSH2 0x965 DUP3 PUSH2 0x2ACC JUMP JUMPDEST PUSH1 0x0 DUP2 DUP2 MSTORE PUSH1 0x12 PUSH1 0x20 MSTORE PUSH1 0x40 SWAP1 KECCAK256 SLOAD PUSH1 0x60 SWAP1 PUSH1 0xFF AND PUSH2 0x1C60 JUMPI PUSH1 0x40 MLOAD PUSH3 0x461BCD PUSH1 0xE5 SHL DUP2 MSTORE PUSH1 0x4 ADD PUSH2 0x88B SWAP1 PUSH2 0x3D2C JUMP JUMPDEST PUSH1 0x0 DUP3 DUP2 MSTORE PUSH1 0x11 PUSH1 0x20 SWAP1 DUP2 MSTORE PUSH1 0x40 DUP1 DUP4 KECCAK256 DUP1 SLOAD DUP3 MLOAD DUP2 DUP6 MUL DUP2 ADD DUP6 ADD SWAP1 SWAP4 MSTORE DUP1 DUP4 MSTORE SWAP2 SWAP4 SWAP1 SWAP3 DUP5 ADD JUMPDEST DUP3 DUP3 LT ISZERO PUSH2 0x1CEB JUMPI PUSH1 0x0 DUP5 DUP2 MSTORE PUSH1 0x20 SWAP1 DUP2 SWAP1 KECCAK256 PUSH1 0x40 DUP1 MLOAD PUSH1 0x80 DUP2 ADD DUP3 MSTORE PUSH1 0x4 DUP7 MUL SWAP1 SWAP3 ADD DUP1 SLOAD PUSH1 0x1 PUSH1 0x1 PUSH1 0xA0 SHL SUB AND DUP4 MSTORE PUSH1 0x1 DUP1 DUP3 ADD SLOAD DUP5 DUP7 ADD MSTORE PUSH1 0x2 DUP3 ADD SLOAD SWAP3 DUP5 ADD SWAP3 SWAP1 SWAP3 MSTORE PUSH1 0x3 ADD SLOAD PUSH1 0xFF AND ISZERO ISZERO PUSH1 0x60 DUP4 ADD MSTORE SWAP1 DUP4 MSTORE SWAP1 SWAP3 ADD SWAP2 ADD PUSH2 0x1C89 JUMP JUMPDEST POP POP POP POP SWAP1 POP SWAP2 SWAP1 POP JUMP JUMPDEST PUSH1 0x0 DUP2 DUP2 MSTORE PUSH1 0x12 PUSH1 0x20 MSTORE PUSH1 0x40 DUP2 KECCAK256 SLOAD PUSH1 0xFF AND PUSH2 0x1D24 JUMPI PUSH1 0x40 MLOAD PUSH3 0x461BCD PUSH1 0xE5 SHL DUP2 MSTORE PUSH1 0x4 ADD PUSH2 0x88B SWAP1 PUSH2 0x3D2C JUMP JUMPDEST PUSH1 0xF DUP3 DUP2 SLOAD DUP2 LT PUSH2 0x1D37 JUMPI PUSH2 0x1D37 PUSH2 0x3D57 JUMP JUMPDEST SWAP1 PUSH1 0x0 MSTORE PUSH1 0x20 PUSH1 0x0 KECCAK256 SWAP1 PUSH1 0xE MUL ADD PUSH1 0xB ADD SLOAD TIMESTAMP LT ISZERO SWAP1 POP SWAP2 SWAP1 POP JUMP JUMPDEST PUSH1 0x60 PUSH1 0xF DUP1 SLOAD DUP1 PUSH1 0x20 MUL PUSH1 0x20 ADD PUSH1 0x40 MLOAD SWAP1 DUP2 ADD PUSH1 0x40 MSTORE DUP1 SWAP3 SWAP2 SWAP1 DUP2 DUP2 MSTORE PUSH1 0x20 ADD PUSH1 0x0 SWAP1 JUMPDEST DUP3 DUP3 LT ISZERO PUSH2 0x200A JUMPI PUSH1 0x0 DUP5 DUP2 MSTORE PUSH1 0x20 SWAP1 DUP2 SWAP1 KECCAK256 PUSH1 0x40 DUP1 MLOAD PUSH2 0x1C0 DUP2 ADD DUP3 MSTORE PUSH1 0xE DUP7 MUL SWAP1 SWAP3 ADD DUP1 SLOAD DUP4 MSTORE PUSH1 0x1 DUP2 ADD SLOAD PUSH1 0x1 PUSH1 0x1 PUSH1 0xA0 SHL SUB SWAP1 DUP2 AND SWAP5 DUP5 ADD SWAP5 SWAP1 SWAP5 MSTORE PUSH1 0x2 DUP2 ADD SLOAD SWAP1 SWAP4 AND SWAP1 DUP3 ADD MSTORE PUSH1 0x3 DUP3 ADD DUP1 SLOAD SWAP2 SWAP3 SWAP2 PUSH1 0x60 DUP5 ADD SWAP2 SWAP1 PUSH2 0x1DDB SWAP1 PUSH2 0x3D6D JUMP JUMPDEST DUP1 PUSH1 0x1F ADD PUSH1 0x20 DUP1 SWAP2 DIV MUL PUSH1 0x20 ADD PUSH1 0x40 MLOAD SWAP1 DUP2 ADD PUSH1 0x40 MSTORE DUP1 SWAP3 SWAP2 SWAP1 DUP2 DUP2 MSTORE PUSH1 0x20 ADD DUP3 DUP1 SLOAD PUSH2 0x1E07 SWAP1 PUSH2 0x3D6D JUMP JUMPDEST DUP1 ISZERO PUSH2 0x1E54 JUMPI DUP1 PUSH1 0x1F LT PUSH2 0x1E29 JUMPI PUSH2 0x100 DUP1 DUP4 SLOAD DIV MUL DUP4 MSTORE SWAP2 PUSH1 0x20 ADD SWAP2 PUSH2 0x1E54 JUMP JUMPDEST DUP3 ADD SWAP2 SWAP1 PUSH1 0x0 MSTORE PUSH1 0x20 PUSH1 0x0 KECCAK256 SWAP1 JUMPDEST DUP2 SLOAD DUP2 MSTORE SWAP1 PUSH1 0x1 ADD SWAP1 PUSH1 0x20 ADD DUP1 DUP4 GT PUSH2 0x1E37 JUMPI DUP3 SWAP1 SUB PUSH1 0x1F AND DUP3 ADD SWAP2 JUMPDEST POP POP POP POP POP DUP2 MSTORE PUSH1 0x20 ADD PUSH1 0x4 DUP3 ADD DUP1 SLOAD PUSH2 0x1E6D SWAP1 PUSH2 0x3D6D JUMP JUMPDEST DUP1 PUSH1 0x1F ADD PUSH1 0x20 DUP1 SWAP2 DIV MUL PUSH1 0x20 ADD PUSH1 0x40 MLOAD SWAP1 DUP2 ADD PUSH1 0x40 MSTORE DUP1 SWAP3 SWAP2 SWAP1 DUP2 DUP2 MSTORE PUSH1 0x20 ADD DUP3 DUP1 SLOAD PUSH2 0x1E99 SWAP1 PUSH2 0x3D6D JUMP JUMPDEST DUP1 ISZERO PUSH2 0x1EE6 JUMPI DUP1 PUSH1 0x1F LT PUSH2 0x1EBB JUMPI PUSH2 0x100 DUP1 DUP4 SLOAD DIV MUL DUP4 MSTORE SWAP2 PUSH1 0x20 ADD SWAP2 PUSH2 0x1EE6 JUMP JUMPDEST DUP3 ADD SWAP2 SWAP1 PUSH1 0x0 MSTORE PUSH1 0x20 PUSH1 0x0 KECCAK256 SWAP1 JUMPDEST DUP2 SLOAD DUP2 MSTORE SWAP1 PUSH1 0x1 ADD SWAP1 PUSH1 0x20 ADD DUP1 DUP4 GT PUSH2 0x1EC9 JUMPI DUP3 SWAP1 SUB PUSH1 0x1F AND DUP3 ADD SWAP2 JUMPDEST POP POP POP POP POP DUP2 MSTORE PUSH1 0x20 ADD PUSH1 0x5 DUP3 ADD DUP1 SLOAD PUSH2 0x1EFF SWAP1 PUSH2 0x3D6D JUMP JUMPDEST DUP1 PUSH1 0x1F ADD PUSH1 0x20 DUP1 SWAP2 DIV MUL PUSH1 0x20 ADD PUSH1 0x40 MLOAD SWAP1 DUP2 ADD PUSH1 0x40 MSTORE DUP1 SWAP3 SWAP2 SWAP1 DUP2 DUP2 MSTORE PUSH1 0x20 ADD DUP3 DUP1 SLOAD PUSH2 0x1F2B SWAP1 PUSH2 0x3D6D JUMP JUMPDEST DUP1 ISZERO PUSH2 0x1F78 JUMPI DUP1 PUSH1 0x1F LT PUSH2 0x1F4D JUMPI PUSH2 0x100 DUP1 DUP4 SLOAD DIV MUL DUP4 MSTORE SWAP2 PUSH1 0x20 ADD SWAP2 PUSH2 0x1F78 JUMP JUMPDEST DUP3 ADD SWAP2 SWAP1 PUSH1 0x0 MSTORE PUSH1 0x20 PUSH1 0x0 KECCAK256 SWAP1 JUMPDEST DUP2 SLOAD DUP2 MSTORE SWAP1 PUSH1 0x1 ADD SWAP1 PUSH1 0x20 ADD DUP1 DUP4 GT PUSH2 0x1F5B JUMPI DUP3 SWAP1 SUB PUSH1 0x1F AND DUP3 ADD SWAP2 JUMPDEST POP POP POP SWAP2 DUP4 MSTORE POP POP PUSH1 0x6 DUP3 ADD SLOAD PUSH1 0x20 DUP3 ADD MSTORE PUSH1 0x7 DUP3 ADD SLOAD PUSH1 0x40 DUP3 ADD MSTORE PUSH1 0x8 DUP3 ADD SLOAD PUSH1 0x60 DUP3 ADD MSTORE PUSH1 0x9 DUP3 ADD SLOAD PUSH1 0x80 DUP3 ADD MSTORE PUSH1 0xA DUP3 ADD SLOAD PUSH1 0xA0 DUP3 ADD MSTORE PUSH1 0xB DUP3 ADD SLOAD PUSH1 0xC0 DUP3 ADD MSTORE PUSH1 0xC DUP3 ADD SLOAD PUSH1 0xE0 DUP3 ADD MSTORE PUSH1 0xD DUP3 ADD SLOAD PUSH2 0x100 SWAP1 SWAP2 ADD SWAP1 PUSH1 0xFF AND PUSH1 0x5 DUP2 GT ISZERO PUSH2 0x1FE6 JUMPI PUSH2 0x1FE6 PUSH2 0x3B6D JUMP JUMPDEST PUSH1 0x5 DUP2 GT ISZERO PUSH2 0x1FF7 JUMPI PUSH2 0x1FF7 PUSH2 0x3B6D JUMP JUMPDEST DUP2 MSTORE POP POP DUP2 MSTORE PUSH1 0x20 ADD SWAP1 PUSH1 0x1 ADD SWAP1 PUSH2 0x1D77 JUMP JUMPDEST POP POP POP POP SWAP1 POP SWAP1 JUMP JUMPDEST PUSH1 0x0 DUP2 DUP2 MSTORE PUSH1 0x12 PUSH1 0x20 MSTORE PUSH1 0x40 DUP2 KECCAK256 SLOAD PUSH1 0xFF AND PUSH2 0x2041 JUMPI PUSH1 0x40 MLOAD PUSH3 0x461BCD PUSH1 0xE5 SHL DUP2 MSTORE PUSH1 0x4 ADD PUSH2 0x88B SWAP1 PUSH2 0x3D2C JUMP JUMPDEST POP PUSH1 0x0 SWAP1 DUP2 MSTORE PUSH1 0x11 PUSH1 0x20 MSTORE PUSH1 0x40 SWAP1 KECCAK256 SLOAD SWAP1 JUMP JUMPDEST PUSH1 0x1 PUSH1 0x1 PUSH1 0xA0 SHL SUB SWAP2 DUP3 AND PUSH1 0x0 SWAP1 DUP2 MSTORE PUSH1 0x5 PUSH1 0x20 SWAP1 DUP2 MSTORE PUSH1 0x40 DUP1 DUP4 KECCAK256 SWAP4 SWAP1 SWAP5 AND DUP3 MSTORE SWAP2 SWAP1 SWAP2 MSTORE KECCAK256 SLOAD PUSH1 0xFF AND SWAP1 JUMP JUMPDEST PUSH2 0x208A PUSH2 0x3655 JUMP JUMPDEST PUSH1 0x0 DUP3 DUP2 MSTORE PUSH1 0x12 PUSH1 0x20 MSTORE PUSH1 0x40 SWAP1 KECCAK256 SLOAD PUSH1 0xFF AND PUSH2 0x20B8 JUMPI PUSH1 0x40 MLOAD PUSH3 0x461BCD PUSH1 0xE5 SHL DUP2 MSTORE PUSH1 0x4 ADD PUSH2 0x88B SWAP1 PUSH2 0x3D2C JUMP JUMPDEST PUSH1 0xF DUP3 DUP2 SLOAD DUP2 LT PUSH2 0x20CB JUMPI PUSH2 0x20CB PUSH2 0x3D57 JUMP JUMPDEST PUSH1 0x0 SWAP2 DUP3 MSTORE PUSH1 0x20 SWAP2 DUP3 SWAP1 KECCAK256 PUSH1 0x40 DUP1 MLOAD PUSH2 0x1C0 DUP2 ADD DUP3 MSTORE PUSH1 0xE SWAP1 SWAP4 MUL SWAP1 SWAP2 ADD DUP1 SLOAD DUP4 MSTORE PUSH1 0x1 DUP2 ADD SLOAD PUSH1 0x1 PUSH1 0x1 PUSH1 0xA0 SHL SUB SWAP1 DUP2 AND SWAP5 DUP5 ADD SWAP5 SWAP1 SWAP5 MSTORE PUSH1 0x2 DUP2 ADD SLOAD SWAP1 SWAP4 AND SWAP1 DUP3 ADD MSTORE PUSH1 0x3 DUP3 ADD DUP1 SLOAD SWAP2 SWAP3 SWAP2 PUSH1 0x60 DUP5 ADD SWAP2 SWAP1 PUSH2 0x2128 SWAP1 PUSH2 0x3D6D JUMP JUMPDEST DUP1 PUSH1 0x1F ADD PUSH1 0x20 DUP1 SWAP2 DIV MUL PUSH1 0x20 ADD PUSH1 0x40 MLOAD SWAP1 DUP2 ADD PUSH1 0x40 MSTORE DUP1 SWAP3 SWAP2 SWAP1 DUP2 DUP2 MSTORE PUSH1 0x20 ADD DUP3 DUP1 SLOAD PUSH2 0x2154 SWAP1 PUSH2 0x3D6D JUMP JUMPDEST DUP1 ISZERO PUSH2 0x21A1 JUMPI DUP1 PUSH1 0x1F LT PUSH2 0x2176 JUMPI PUSH2 0x100 DUP1 DUP4 SLOAD DIV MUL DUP4 MSTORE SWAP2 PUSH1 0x20 ADD SWAP2 PUSH2 0x21A1 JUMP JUMPDEST DUP3 ADD SWAP2 SWAP1 PUSH1 0x0 MSTORE PUSH1 0x20 PUSH1 0x0 KECCAK256 SWAP1 JUMPDEST DUP2 SLOAD DUP2 MSTORE SWAP1 PUSH1 0x1 ADD SWAP1 PUSH1 0x20 ADD DUP1 DUP4 GT PUSH2 0x2184 JUMPI DUP3 SWAP1 SUB PUSH1 0x1F AND DUP3 ADD SWAP2 JUMPDEST POP POP POP POP POP DUP2 MSTORE PUSH1 0x20 ADD PUSH1 0x4 DUP3 ADD DUP1 SLOAD PUSH2 0x21BA SWAP1 PUSH2 0x3D6D JUMP JUMPDEST DUP1 PUSH1 0x1F ADD PUSH1 0x20 DUP1 SWAP2 DIV MUL PUSH1 0x20 ADD PUSH1 0x40 MLOAD SWAP1 DUP2 ADD PUSH1 0x40 MSTORE DUP1 SWAP3 SWAP2 SWAP1 DUP2 DUP2 MSTORE PUSH1 0x20 ADD DUP3 DUP1 SLOAD PUSH2 0x21E6 SWAP1 PUSH2 0x3D6D JUMP JUMPDEST DUP1 ISZERO PUSH2 0x2233 JUMPI DUP1 PUSH1 0x1F LT PUSH2 0x2208 JUMPI PUSH2 0x100 DUP1 DUP4 SLOAD DIV MUL DUP4 MSTORE SWAP2 PUSH1 0x20 ADD SWAP2 PUSH2 0x2233 JUMP JUMPDEST DUP3 ADD SWAP2 SWAP1 PUSH1 0x0 MSTORE PUSH1 0x20 PUSH1 0x0 KECCAK256 SWAP1 JUMPDEST DUP2 SLOAD DUP2 MSTORE SWAP1 PUSH1 0x1 ADD SWAP1 PUSH1 0x20 ADD DUP1 DUP4 GT PUSH2 0x2216 JUMPI DUP3 SWAP1 SUB PUSH1 0x1F AND DUP3 ADD SWAP2 JUMPDEST POP POP POP POP POP DUP2 MSTORE PUSH1 0x20 ADD PUSH1 0x5 DUP3 ADD DUP1 SLOAD PUSH2 0x224C SWAP1 PUSH2 0x3D6D JUMP JUMPDEST DUP1 PUSH1 0x1F ADD PUSH1 0x20 DUP1 SWAP2 DIV MUL PUSH1 0x20 ADD PUSH1 0x40 MLOAD SWAP1 DUP2 ADD PUSH1 0x40 MSTORE DUP1 SWAP3 SWAP2 SWAP1 DUP2 DUP2 MSTORE PUSH1 0x20 ADD DUP3 DUP1 SLOAD PUSH2 0x2278 SWAP1 PUSH2 0x3D6D JUMP JUMPDEST DUP1 ISZERO PUSH2 0x22C5 JUMPI DUP1 PUSH1 0x1F LT PUSH2 0x229A JUMPI PUSH2 0x100 DUP1 DUP4 SLOAD DIV MUL DUP4 MSTORE SWAP2 PUSH1 0x20 ADD SWAP2 PUSH2 0x22C5 JUMP JUMPDEST DUP3 ADD SWAP2 SWAP1 PUSH1 0x0 MSTORE PUSH1 0x20 PUSH1 0x0 KECCAK256 SWAP1 JUMPDEST DUP2 SLOAD DUP2 MSTORE SWAP1 PUSH1 0x1 ADD SWAP1 PUSH1 0x20 ADD DUP1 DUP4 GT PUSH2 0x22A8 JUMPI DUP3 SWAP1 SUB PUSH1 0x1F AND DUP3 ADD SWAP2 JUMPDEST POP POP POP SWAP2 DUP4 MSTORE POP POP PUSH1 0x6 DUP3 ADD SLOAD PUSH1 0x20 DUP3 ADD MSTORE PUSH1 0x7 DUP3 ADD SLOAD PUSH1 0x40 DUP3 ADD MSTORE PUSH1 0x8 DUP3 ADD SLOAD PUSH1 0x60 DUP3 ADD MSTORE PUSH1 0x9 DUP3 ADD SLOAD PUSH1 0x80 DUP3 ADD MSTORE PUSH1 0xA DUP3 ADD SLOAD PUSH1 0xA0 DUP3 ADD MSTORE PUSH1 0xB DUP3 ADD SLOAD PUSH1 0xC0 DUP3 ADD MSTORE PUSH1 0xC DUP3 ADD SLOAD PUSH1 0xE0 DUP3 ADD MSTORE PUSH1 0xD DUP3 ADD SLOAD PUSH2 0x100 SWAP1 SWAP2 ADD SWAP1 PUSH1 0xFF AND PUSH1 0x5 DUP2 GT ISZERO PUSH2 0x2333 JUMPI PUSH2 0x2333 PUSH2 0x3B6D JUMP JUMPDEST PUSH1 0x5 DUP2 GT ISZERO PUSH2 0x2344 JUMPI PUSH2 0x2344 PUSH2 0x3B6D JUMP JUMPDEST SWAP1 MSTORE POP SWAP3 SWAP2 POP POP JUMP JUMPDEST CALLER PUSH1 0x0 SWAP1 DUP2 MSTORE PUSH1 0x13 PUSH1 0x20 MSTORE PUSH1 0x40 DUP2 KECCAK256 SLOAD PUSH1 0xFF AND DUP1 PUSH2 0x2375 JUMPI POP PUSH1 0x7 SLOAD PUSH1 0x1 PUSH1 0x1 PUSH1 0xA0 SHL SUB AND CALLER EQ JUMPDEST PUSH2 0x2391 JUMPI PUSH1 0x40 MLOAD PUSH3 0x461BCD PUSH1 0xE5 SHL DUP2 MSTORE PUSH1 0x4 ADD PUSH2 0x88B SWAP1 PUSH2 0x3E1C JUMP JUMPDEST PUSH1 0x0 DUP3 DUP2 MSTORE PUSH1 0x12 PUSH1 0x20 MSTORE PUSH1 0x40 SWAP1 KECCAK256 SLOAD PUSH1 0xFF AND PUSH2 0x23BF JUMPI PUSH1 0x40 MLOAD PUSH3 0x461BCD PUSH1 0xE5 SHL DUP2 MSTORE PUSH1 0x4 ADD PUSH2 0x88B SWAP1 PUSH2 0x3D2C JUMP JUMPDEST PUSH1 0x1 PUSH1 0xF DUP4 DUP2 SLOAD DUP2 LT PUSH2 0x23D4 JUMPI PUSH2 0x23D4 PUSH2 0x3D57 JUMP JUMPDEST PUSH1 0x0 SWAP2 DUP3 MSTORE PUSH1 0x20 SWAP1 SWAP2 KECCAK256 PUSH1 0xD PUSH1 0xE SWAP1 SWAP3 MUL ADD ADD SLOAD PUSH1 0xFF AND PUSH1 0x5 DUP2 GT ISZERO PUSH2 0x23FC JUMPI PUSH2 0x23FC PUSH2 0x3B6D JUMP JUMPDEST EQ PUSH2 0x2449 JUMPI PUSH1 0x40 MLOAD PUSH3 0x461BCD PUSH1 0xE5 SHL DUP2 MSTORE PUSH1 0x20 PUSH1 0x4 DUP3 ADD MSTORE PUSH1 0x1B PUSH1 0x24 DUP3 ADD MSTORE PUSH32 0x50726F6A656374206973206E6F7420617070726F766564207965740000000000 PUSH1 0x44 DUP3 ADD MSTORE PUSH1 0x64 ADD PUSH2 0x88B JUMP JUMPDEST PUSH1 0xF DUP3 DUP2 SLOAD DUP2 LT PUSH2 0x245C JUMPI PUSH2 0x245C PUSH2 0x3D57 JUMP JUMPDEST PUSH1 0x0 SWAP2 DUP3 MSTORE PUSH1 0x20 SWAP1 SWAP2 KECCAK256 PUSH1 0xE SWAP1 SWAP2 MUL ADD PUSH1 0x2 ADD SLOAD PUSH1 0x1 PUSH1 0x1 PUSH1 0xA0 SHL SUB AND CALLER EQ DUP1 PUSH2 0x2490 JUMPI POP PUSH1 0x7 SLOAD PUSH1 0x1 PUSH1 0x1 PUSH1 0xA0 SHL SUB AND CALLER EQ JUMPDEST PUSH2 0x24D2 JUMPI PUSH1 0x40 MLOAD PUSH3 0x461BCD PUSH1 0xE5 SHL DUP2 MSTORE PUSH1 0x20 PUSH1 0x4 DUP3 ADD MSTORE PUSH1 0x13 PUSH1 0x24 DUP3 ADD MSTORE PUSH19 0x556E617574686F72697A656420456E74697479 PUSH1 0x68 SHL PUSH1 0x44 DUP3 ADD MSTORE PUSH1 0x64 ADD PUSH2 0x88B JUMP JUMPDEST PUSH2 0x24DB DUP3 PUSH2 0x2BDD JUMP JUMPDEST PUSH1 0x4 PUSH1 0xF DUP4 DUP2 SLOAD DUP2 LT PUSH2 0x24F0 JUMPI PUSH2 0x24F0 PUSH2 0x3D57 JUMP JUMPDEST PUSH1 0x0 SWAP2 DUP3 MSTORE PUSH1 0x20 SWAP1 SWAP2 KECCAK256 PUSH1 0xD PUSH1 0xE SWAP1 SWAP3 MUL ADD ADD DUP1 SLOAD PUSH1 0xFF NOT AND PUSH1 0x1 DUP4 PUSH1 0x5 DUP2 GT ISZERO PUSH2 0x251D JUMPI PUSH2 0x251D PUSH2 0x3B6D JUMP JUMPDEST MUL OR SWAP1 SSTORE POP PUSH2 0x252D DUP3 PUSH1 0x0 PUSH2 0x2536 JUMP JUMPDEST POP PUSH1 0x1 SWAP3 SWAP2 POP POP JUMP JUMPDEST PUSH1 0x0 PUSH1 0x4 PUSH1 0xF DUP5 DUP2 SLOAD DUP2 LT PUSH2 0x254D JUMPI PUSH2 0x254D PUSH2 0x3D57 JUMP JUMPDEST PUSH1 0x0 SWAP2 DUP3 MSTORE PUSH1 0x20 SWAP1 SWAP2 KECCAK256 PUSH1 0xD PUSH1 0xE SWAP1 SWAP3 MUL ADD ADD SLOAD PUSH1 0xFF AND PUSH1 0x5 DUP2 GT ISZERO PUSH2 0x2575 JUMPI PUSH2 0x2575 PUSH2 0x3B6D JUMP JUMPDEST EQ PUSH2 0x25C2 JUMPI PUSH1 0x40 MLOAD PUSH3 0x461BCD PUSH1 0xE5 SHL DUP2 MSTORE PUSH1 0x20 PUSH1 0x4 DUP3 ADD MSTORE PUSH1 0x1E PUSH1 0x24 DUP3 ADD MSTORE PUSH32 0x50726F6A656374206973206E6F742070726F6772657373696E67207965740000 PUSH1 0x44 DUP3 ADD MSTORE PUSH1 0x64 ADD PUSH2 0x88B JUMP JUMPDEST PUSH1 0x1 PUSH1 0x9 SLOAD PUSH2 0x25D1 SWAP2 SWAP1 PUSH2 0x3DD0 JUMP JUMPDEST DUP3 GT ISZERO PUSH2 0x2616 JUMPI PUSH1 0x40 MLOAD PUSH3 0x461BCD PUSH1 0xE5 SHL DUP2 MSTORE PUSH1 0x20 PUSH1 0x4 DUP3 ADD MSTORE PUSH1 0x13 PUSH1 0x24 DUP3 ADD MSTORE PUSH19 0x125B9D985B1A59081A5B9CDD185B1B1B595B9D PUSH1 0x6A SHL PUSH1 0x44 DUP3 ADD MSTORE PUSH1 0x64 ADD PUSH2 0x88B JUMP JUMPDEST PUSH2 0x2620 DUP4 DUP4 PUSH2 0x2E77 JUMP JUMPDEST TIMESTAMP PUSH1 0xF DUP5 DUP2 SLOAD DUP2 LT PUSH2 0x2634 JUMPI PUSH2 0x2634 PUSH2 0x3D57 JUMP JUMPDEST SWAP1 PUSH1 0x0 MSTORE PUSH1 0x20 PUSH1 0x0 KECCAK256 SWAP1 PUSH1 0xE MUL ADD PUSH1 0x8 ADD DUP2 SWAP1 SSTORE POP PUSH1 0x1 PUSH1 0x9 SLOAD PUSH2 0x2658 SWAP2 SWAP1 PUSH2 0x3DD0 JUMP JUMPDEST PUSH1 0xF DUP5 DUP2 SLOAD DUP2 LT PUSH2 0x266B JUMPI PUSH2 0x266B PUSH2 0x3D57 JUMP JUMPDEST SWAP1 PUSH1 0x0 MSTORE PUSH1 0x20 PUSH1 0x0 KECCAK256 SWAP1 PUSH1 0xE MUL ADD PUSH1 0x9 ADD SLOAD PUSH2 0x2687 SWAP2 SWAP1 PUSH2 0x3DFA JUMP JUMPDEST PUSH1 0xF DUP5 DUP2 SLOAD DUP2 LT PUSH2 0x269A JUMPI PUSH2 0x269A PUSH2 0x3D57 JUMP JUMPDEST SWAP1 PUSH1 0x0 MSTORE PUSH1 0x20 PUSH1 0x0 KECCAK256 SWAP1 PUSH1 0xE MUL ADD PUSH1 0x8 ADD SLOAD PUSH2 0x26B6 SWAP2 SWAP1 PUSH2 0x3DBD JUMP JUMPDEST PUSH1 0xF DUP5 DUP2 SLOAD DUP2 LT PUSH2 0x26C9 JUMPI PUSH2 0x26C9 PUSH2 0x3D57 JUMP JUMPDEST SWAP1 PUSH1 0x0 MSTORE PUSH1 0x20 PUSH1 0x0 KECCAK256 SWAP1 PUSH1 0xE MUL ADD PUSH1 0xA ADD DUP2 SWAP1 SSTORE POP PUSH1 0xF DUP4 DUP2 SLOAD DUP2 LT PUSH2 0x26F1 JUMPI PUSH2 0x26F1 PUSH2 0x3D57 JUMP JUMPDEST SWAP1 PUSH1 0x0 MSTORE PUSH1 0x20 PUSH1 0x0 KECCAK256 SWAP1 PUSH1 0xE MUL ADD PUSH1 0xA ADD SLOAD PUSH2 0x12C PUSH2 0x2710 SWAP2 SWAP1 PUSH2 0x3DBD JUMP JUMPDEST PUSH1 0xF DUP5 DUP2 SLOAD DUP2 LT PUSH2 0x2723 JUMPI PUSH2 0x2723 PUSH2 0x3D57 JUMP JUMPDEST PUSH1 0x0 SWAP2 DUP3 MSTORE PUSH1 0x20 SWAP1 SWAP2 KECCAK256 PUSH1 0xB PUSH1 0xE SWAP1 SWAP3 MUL ADD ADD SSTORE POP PUSH1 0x1 SWAP3 SWAP2 POP POP JUMP JUMPDEST PUSH1 0x0 PUSH1 0x1 PUSH1 0x1 PUSH1 0xE0 SHL SUB NOT DUP3 AND PUSH4 0x24832483 PUSH1 0xE1 SHL EQ DUP1 PUSH2 0x965 JUMPI POP PUSH2 0x965 DUP3 PUSH2 0x3138 JUMP JUMPDEST PUSH1 0x0 DUP2 DUP2 MSTORE PUSH1 0x2 PUSH1 0x20 MSTORE PUSH1 0x40 DUP2 KECCAK256 SLOAD PUSH1 0x1 PUSH1 0x1 PUSH1 0xA0 SHL SUB AND DUP1 PUSH2 0x965 JUMPI PUSH1 0x40 MLOAD PUSH4 0x7E273289 PUSH1 0xE0 SHL DUP2 MSTORE PUSH1 0x4 DUP2 ADD DUP5 SWAP1 MSTORE PUSH1 0x24 ADD PUSH2 0x88B JUMP JUMPDEST PUSH2 0x101E DUP4 DUP4 DUP4 PUSH1 0x1 PUSH2 0x3188 JUMP JUMPDEST PUSH1 0x0 DUP3 PUSH1 0x1 PUSH1 0x1 PUSH1 0xA0 SHL SUB AND DUP3 PUSH1 0x40 MLOAD PUSH1 0x0 PUSH1 0x40 MLOAD DUP1 DUP4 SUB DUP2 DUP6 DUP8 GAS CALL SWAP3 POP POP POP RETURNDATASIZE DUP1 PUSH1 0x0 DUP2 EQ PUSH2 0x27F8 JUMPI PUSH1 0x40 MLOAD SWAP2 POP PUSH1 0x1F NOT PUSH1 0x3F RETURNDATASIZE ADD AND DUP3 ADD PUSH1 0x40 MSTORE RETURNDATASIZE DUP3 MSTORE RETURNDATASIZE PUSH1 0x0 PUSH1 0x20 DUP5 ADD RETURNDATACOPY PUSH2 0x27FD JUMP JUMPDEST PUSH1 0x60 SWAP2 POP JUMPDEST POP POP SWAP1 POP DUP1 PUSH2 0x101E JUMPI PUSH1 0x0 DUP1 REVERT JUMPDEST PUSH1 0x0 DUP3 DUP2 MSTORE PUSH1 0x2 PUSH1 0x20 MSTORE PUSH1 0x40 DUP2 KECCAK256 SLOAD PUSH1 0x1 PUSH1 0x1 PUSH1 0xA0 SHL SUB SWAP1 DUP2 AND SWAP1 DUP4 AND ISZERO PUSH2 0x2838 JUMPI PUSH2 0x2838 DUP2 DUP5 DUP7 PUSH2 0x328E JUMP JUMPDEST PUSH1 0x1 PUSH1 0x1 PUSH1 0xA0 SHL SUB DUP2 AND ISZERO PUSH2 0x2876 JUMPI PUSH2 0x2855 PUSH1 0x0 DUP6 PUSH1 0x0 DUP1 PUSH2 0x3188 JUMP JUMPDEST PUSH1 0x1 PUSH1 0x1 PUSH1 0xA0 SHL SUB DUP2 AND PUSH1 0x0 SWAP1 DUP2 MSTORE PUSH1 0x3 PUSH1 0x20 MSTORE PUSH1 0x40 SWAP1 KECCAK256 DUP1 SLOAD PUSH1 0x0 NOT ADD SWAP1 SSTORE JUMPDEST PUSH1 0x1 PUSH1 0x1 PUSH1 0xA0 SHL SUB DUP6 AND ISZERO PUSH2 0x28A5 JUMPI PUSH1 0x1 PUSH1 0x1 PUSH1 0xA0 SHL SUB DUP6 AND PUSH1 0x0 SWAP1 DUP2 MSTORE PUSH1 0x3 PUSH1 0x20 MSTORE PUSH1 0x40 SWAP1 KECCAK256 DUP1 SLOAD PUSH1 0x1 ADD SWAP1 SSTORE JUMPDEST PUSH1 0x0 DUP5 DUP2 MSTORE PUSH1 0x2 PUSH1 0x20 MSTORE PUSH1 0x40 DUP1 DUP3 KECCAK256 DUP1 SLOAD PUSH1 0x1 PUSH1 0x1 PUSH1 0xA0 SHL SUB NOT AND PUSH1 0x1 PUSH1 0x1 PUSH1 0xA0 SHL SUB DUP10 DUP2 AND SWAP2 DUP3 OR SWAP1 SWAP3 SSTORE SWAP2 MLOAD DUP8 SWAP4 SWAP2 DUP6 AND SWAP2 PUSH32 0xDDF252AD1BE2C89B69C2B068FC378DAA952BA7F163C4A11628F55A4DF523B3EF SWAP2 LOG4 SWAP5 SWAP4 POP POP POP POP JUMP JUMPDEST PUSH1 0x1 PUSH1 0x1 PUSH1 0xA0 SHL SUB DUP3 AND PUSH2 0x2936 JUMPI PUSH1 0x40 MLOAD PUSH4 0xB611743 PUSH1 0xE3 SHL DUP2 MSTORE PUSH1 0x1 PUSH1 0x1 PUSH1 0xA0 SHL SUB DUP4 AND PUSH1 0x4 DUP3 ADD MSTORE PUSH1 0x24 ADD PUSH2 0x88B JUMP JUMPDEST PUSH1 0x1 PUSH1 0x1 PUSH1 0xA0 SHL SUB DUP4 DUP2 AND PUSH1 0x0 DUP2 DUP2 MSTORE PUSH1 0x5 PUSH1 0x20 SWAP1 DUP2 MSTORE PUSH1 0x40 DUP1 DUP4 KECCAK256 SWAP5 DUP8 AND DUP1 DUP5 MSTORE SWAP5 DUP3 MSTORE SWAP2 DUP3 SWAP1 KECCAK256 DUP1 SLOAD PUSH1 0xFF NOT AND DUP7 ISZERO ISZERO SWAP1 DUP2 OR SWAP1 SWAP2 SSTORE SWAP2 MLOAD SWAP2 DUP3 MSTORE PUSH32 0x17307EAB39AB6107E8899845AD3D59BD9653F200F220920489CA2B5937696C31 SWAP2 ADD PUSH1 0x40 MLOAD DUP1 SWAP2 SUB SWAP1 LOG3 POP POP POP JUMP JUMPDEST PUSH1 0x1 PUSH1 0x1 PUSH1 0xA0 SHL SUB DUP4 AND EXTCODESIZE ISZERO PUSH2 0xE26 JUMPI PUSH1 0x40 MLOAD PUSH4 0xA85BD01 PUSH1 0xE1 SHL DUP2 MSTORE PUSH1 0x1 PUSH1 0x1 PUSH1 0xA0 SHL SUB DUP5 AND SWAP1 PUSH4 0x150B7A02 SWAP1 PUSH2 0x29E5 SWAP1 CALLER SWAP1 DUP9 SWAP1 DUP8 SWAP1 DUP8 SWAP1 PUSH1 0x4 ADD PUSH2 0x3F72 JUMP JUMPDEST PUSH1 0x20 PUSH1 0x40 MLOAD DUP1 DUP4 SUB DUP2 PUSH1 0x0 DUP8 GAS CALL SWAP3 POP POP POP DUP1 ISZERO PUSH2 0x2A20 JUMPI POP PUSH1 0x40 DUP1 MLOAD PUSH1 0x1F RETURNDATASIZE SWAP1 DUP2 ADD PUSH1 0x1F NOT AND DUP3 ADD SWAP1 SWAP3 MSTORE PUSH2 0x2A1D SWAP2 DUP2 ADD SWAP1 PUSH2 0x3FAF JUMP JUMPDEST PUSH1 0x1 JUMPDEST PUSH2 0x2A89 JUMPI RETURNDATASIZE DUP1 DUP1 ISZERO PUSH2 0x2A4E JUMPI PUSH1 0x40 MLOAD SWAP2 POP PUSH1 0x1F NOT PUSH1 0x3F RETURNDATASIZE ADD AND DUP3 ADD PUSH1 0x40 MSTORE RETURNDATASIZE DUP3 MSTORE RETURNDATASIZE PUSH1 0x0 PUSH1 0x20 DUP5 ADD RETURNDATACOPY PUSH2 0x2A53 JUMP JUMPDEST PUSH1 0x60 SWAP2 POP JUMPDEST POP DUP1 MLOAD PUSH1 0x0 SUB PUSH2 0x2A81 JUMPI PUSH1 0x40 MLOAD PUSH4 0x32505749 PUSH1 0xE1 SHL DUP2 MSTORE PUSH1 0x1 PUSH1 0x1 PUSH1 0xA0 SHL SUB DUP6 AND PUSH1 0x4 DUP3 ADD MSTORE PUSH1 0x24 ADD PUSH2 0x88B JUMP JUMPDEST DUP1 MLOAD DUP2 PUSH1 0x20 ADD REVERT JUMPDEST PUSH1 0x1 PUSH1 0x1 PUSH1 0xE0 SHL SUB NOT DUP2 AND PUSH4 0xA85BD01 PUSH1 0xE1 SHL EQ PUSH2 0x2AC5 JUMPI PUSH1 0x40 MLOAD PUSH4 0x32505749 PUSH1 0xE1 SHL DUP2 MSTORE PUSH1 0x1 PUSH1 0x1 PUSH1 0xA0 SHL SUB DUP6 AND PUSH1 0x4 DUP3 ADD MSTORE PUSH1 0x24 ADD PUSH2 0x88B JUMP JUMPDEST POP POP POP POP POP JUMP JUMPDEST PUSH1 0x60 PUSH2 0x2AD7 DUP3 PUSH2 0x2765 JUMP JUMPDEST POP PUSH1 0x0 DUP3 DUP2 MSTORE PUSH1 0x6 PUSH1 0x20 MSTORE PUSH1 0x40 DUP2 KECCAK256 DUP1 SLOAD PUSH2 0x2AF1 SWAP1 PUSH2 0x3D6D JUMP JUMPDEST DUP1 PUSH1 0x1F ADD PUSH1 0x20 DUP1 SWAP2 DIV MUL PUSH1 0x20 ADD PUSH1 0x40 MLOAD SWAP1 DUP2 ADD PUSH1 0x40 MSTORE DUP1 SWAP3 SWAP2 SWAP1 DUP2 DUP2 MSTORE PUSH1 0x20 ADD DUP3 DUP1 SLOAD PUSH2 0x2B1D SWAP1 PUSH2 0x3D6D JUMP JUMPDEST DUP1 ISZERO PUSH2 0x2B6A JUMPI DUP1 PUSH1 0x1F LT PUSH2 0x2B3F JUMPI PUSH2 0x100 DUP1 DUP4 SLOAD DIV MUL DUP4 MSTORE SWAP2 PUSH1 0x20 ADD SWAP2 PUSH2 0x2B6A JUMP JUMPDEST DUP3 ADD SWAP2 SWAP1 PUSH1 0x0 MSTORE PUSH1 0x20 PUSH1 0x0 KECCAK256 SWAP1 JUMPDEST DUP2 SLOAD DUP2 MSTORE SWAP1 PUSH1 0x1 ADD SWAP1 PUSH1 0x20 ADD DUP1 DUP4 GT PUSH2 0x2B4D JUMPI DUP3 SWAP1 SUB PUSH1 0x1F AND DUP3 ADD SWAP2 JUMPDEST POP POP POP POP POP SWAP1 POP PUSH1 0x0 PUSH2 0x2B88 PUSH1 0x40 DUP1 MLOAD PUSH1 0x20 DUP2 ADD SWAP1 SWAP2 MSTORE PUSH1 0x0 DUP2 MSTORE SWAP1 JUMP JUMPDEST SWAP1 POP DUP1 MLOAD PUSH1 0x0 SUB PUSH2 0x2B9A JUMPI POP SWAP3 SWAP2 POP POP JUMP JUMPDEST DUP2 MLOAD ISZERO PUSH2 0x2BCC JUMPI DUP1 DUP3 PUSH1 0x40 MLOAD PUSH1 0x20 ADD PUSH2 0x2BB4 SWAP3 SWAP2 SWAP1 PUSH2 0x3FCC JUMP JUMPDEST PUSH1 0x40 MLOAD PUSH1 0x20 DUP2 DUP4 SUB SUB DUP2 MSTORE SWAP1 PUSH1 0x40 MSTORE SWAP3 POP POP POP SWAP2 SWAP1 POP JUMP JUMPDEST PUSH2 0x2BD5 DUP5 PUSH2 0x32F2 JUMP JUMPDEST SWAP5 SWAP4 POP POP POP POP JUMP JUMPDEST PUSH1 0x0 DUP2 DUP2 MSTORE PUSH1 0x12 PUSH1 0x20 MSTORE PUSH1 0x40 SWAP1 KECCAK256 SLOAD PUSH1 0xFF AND PUSH2 0x2C0B JUMPI PUSH1 0x40 MLOAD PUSH3 0x461BCD PUSH1 0xE5 SHL DUP2 MSTORE PUSH1 0x4 ADD PUSH2 0x88B SWAP1 PUSH2 0x3D2C JUMP JUMPDEST PUSH1 0x1 PUSH1 0xF DUP3 DUP2 SLOAD DUP2 LT PUSH2 0x2C20 JUMPI PUSH2 0x2C20 PUSH2 0x3D57 JUMP JUMPDEST PUSH1 0x0 SWAP2 DUP3 MSTORE PUSH1 0x20 SWAP1 SWAP2 KECCAK256 PUSH1 0xD PUSH1 0xE SWAP1 SWAP3 MUL ADD ADD SLOAD PUSH1 0xFF AND PUSH1 0x5 DUP2 GT ISZERO PUSH2 0x2C48 JUMPI PUSH2 0x2C48 PUSH2 0x3B6D JUMP JUMPDEST EQ PUSH2 0x2C95 JUMPI PUSH1 0x40 MLOAD PUSH3 0x461BCD PUSH1 0xE5 SHL DUP2 MSTORE PUSH1 0x20 PUSH1 0x4 DUP3 ADD MSTORE PUSH1 0x1B PUSH1 0x24 DUP3 ADD MSTORE PUSH32 0x50726F6A656374206973206E6F7420617070726F766564207965740000000000 PUSH1 0x44 DUP3 ADD MSTORE PUSH1 0x64 ADD PUSH2 0x88B JUMP JUMPDEST PUSH1 0x0 DUP2 DUP2 MSTORE PUSH1 0x11 PUSH1 0x20 SWAP1 DUP2 MSTORE PUSH1 0x40 DUP1 DUP4 KECCAK256 DUP1 SLOAD DUP3 MLOAD DUP2 DUP6 MUL DUP2 ADD DUP6 ADD SWAP1 SWAP4 MSTORE DUP1 DUP4 MSTORE SWAP2 SWAP3 SWAP1 SWAP2 SWAP1 DUP5 SWAP1 DUP5 ADD JUMPDEST DUP3 DUP3 LT ISZERO PUSH2 0x2D23 JUMPI PUSH1 0x0 DUP5 DUP2 MSTORE PUSH1 0x20 SWAP1 DUP2 SWAP1 KECCAK256 PUSH1 0x40 DUP1 MLOAD PUSH1 0x80 DUP2 ADD DUP3 MSTORE PUSH1 0x4 DUP7 MUL SWAP1 SWAP3 ADD DUP1 SLOAD PUSH1 0x1 PUSH1 0x1 PUSH1 0xA0 SHL SUB AND DUP4 MSTORE PUSH1 0x1 DUP1 DUP3 ADD SLOAD DUP5 DUP7 ADD MSTORE PUSH1 0x2 DUP3 ADD SLOAD SWAP3 DUP5 ADD SWAP3 SWAP1 SWAP3 MSTORE PUSH1 0x3 ADD SLOAD PUSH1 0xFF AND ISZERO ISZERO PUSH1 0x60 DUP4 ADD MSTORE SWAP1 DUP4 MSTORE SWAP1 SWAP3 ADD SWAP2 ADD PUSH2 0x2CC1 JUMP JUMPDEST POP POP POP POP SWAP1 POP PUSH1 0x0 JUMPDEST DUP2 MLOAD DUP2 LT ISZERO PUSH2 0x2E26 JUMPI PUSH1 0x0 DUP3 DUP3 DUP2 MLOAD DUP2 LT PUSH2 0x2D49 JUMPI PUSH2 0x2D49 PUSH2 0x3D57 JUMP JUMPDEST PUSH1 0x20 MUL PUSH1 0x20 ADD ADD MLOAD PUSH1 0x0 ADD MLOAD SWAP1 POP PUSH1 0x0 PUSH2 0x2D62 DUP6 PUSH2 0x3367 JUMP JUMPDEST PUSH1 0xF DUP7 DUP2 SLOAD DUP2 LT PUSH2 0x2D75 JUMPI PUSH2 0x2D75 PUSH2 0x3D57 JUMP JUMPDEST SWAP1 PUSH1 0x0 MSTORE PUSH1 0x20 PUSH1 0x0 KECCAK256 SWAP1 PUSH1 0xE MUL ADD PUSH1 0x3 ADD PUSH1 0xF DUP8 DUP2 SLOAD DUP2 LT PUSH2 0x2D99 JUMPI PUSH2 0x2D99 PUSH2 0x3D57 JUMP JUMPDEST SWAP1 PUSH1 0x0 MSTORE PUSH1 0x20 PUSH1 0x0 KECCAK256 SWAP1 PUSH1 0xE MUL ADD PUSH1 0x5 ADD PUSH1 0x40 MLOAD PUSH1 0x20 ADD PUSH2 0x2DBC SWAP4 SWAP3 SWAP2 SWAP1 PUSH2 0x406D JUMP JUMPDEST PUSH1 0x40 MLOAD PUSH1 0x20 DUP2 DUP4 SUB SUB DUP2 MSTORE SWAP1 PUSH1 0x40 MSTORE SWAP1 POP PUSH1 0x0 PUSH2 0x2DD9 DUP4 DUP4 PUSH2 0x33FA JUMP JUMPDEST PUSH1 0x0 DUP8 DUP2 MSTORE PUSH1 0x14 PUSH1 0x20 SWAP1 DUP2 MSTORE PUSH1 0x40 DUP1 DUP4 KECCAK256 DUP1 SLOAD PUSH1 0x1 DUP2 DUP2 ADD DUP4 SSTORE SWAP2 DUP6 MSTORE DUP4 DUP6 KECCAK256 ADD DUP6 SWAP1 SSTORE PUSH1 0x1 PUSH1 0x1 PUSH1 0xA0 SHL SUB SWAP1 SWAP8 AND DUP4 MSTORE PUSH1 0x15 DUP3 MSTORE DUP3 KECCAK256 DUP1 SLOAD DUP1 DUP9 ADD DUP3 SSTORE SWAP1 DUP4 MSTORE SWAP2 KECCAK256 ADD SSTORE POP POP ADD PUSH2 0x2D2C JUMP JUMPDEST POP PUSH1 0x40 DUP1 MLOAD DUP4 DUP2 MSTORE PUSH1 0x60 PUSH1 0x20 DUP3 ADD DUP2 SWAP1 MSTORE PUSH1 0xB SWAP1 DUP3 ADD MSTORE PUSH11 0x1391951CC8135253951151 PUSH1 0xAA SHL PUSH1 0x80 DUP3 ADD MSTORE TIMESTAMP DUP2 DUP4 ADD MSTORE SWAP1 MLOAD CALLER SWAP2 PUSH1 0x0 DUP1 MLOAD PUSH1 0x20 PUSH2 0x40F3 DUP4 CODECOPY DUP2 MLOAD SWAP2 MSTORE SWAP2 SWAP1 DUP2 SWAP1 SUB PUSH1 0xA0 ADD SWAP1 LOG2 POP POP JUMP JUMPDEST PUSH1 0x0 PUSH1 0xF DUP4 DUP2 SLOAD DUP2 LT PUSH2 0x2E8C JUMPI PUSH2 0x2E8C PUSH2 0x3D57 JUMP JUMPDEST SWAP1 PUSH1 0x0 MSTORE PUSH1 0x20 PUSH1 0x0 KECCAK256 SWAP1 PUSH1 0xE MUL ADD PUSH1 0x7 ADD SLOAD SWAP1 POP PUSH1 0x0 PUSH1 0xF DUP5 DUP2 SLOAD DUP2 LT PUSH2 0x2EB5 JUMPI PUSH2 0x2EB5 PUSH2 0x3D57 JUMP JUMPDEST SWAP1 PUSH1 0x0 MSTORE PUSH1 0x20 PUSH1 0x0 KECCAK256 SWAP1 PUSH1 0xE MUL ADD PUSH1 0x6 ADD SLOAD SWAP1 POP PUSH1 0x0 PUSH1 0x9 SLOAD PUSH1 0x64 PUSH2 0x2EDA SWAP2 SWAP1 PUSH2 0x3DE3 JUMP JUMPDEST PUSH1 0x8 SLOAD PUSH2 0x2EE7 SWAP1 DUP5 PUSH2 0x3DE3 JUMP JUMPDEST PUSH2 0x2EF1 SWAP2 SWAP1 PUSH2 0x3DFA JUMP JUMPDEST SWAP1 POP PUSH1 0x1 PUSH1 0x9 SLOAD PUSH2 0x2F02 SWAP2 SWAP1 PUSH2 0x3DD0 JUMP JUMPDEST DUP5 SUB PUSH2 0x3035 JUMPI PUSH1 0x5 PUSH1 0xF DUP7 DUP2 SLOAD DUP2 LT PUSH2 0x2F1D JUMPI PUSH2 0x2F1D PUSH2 0x3D57 JUMP JUMPDEST PUSH1 0x0 SWAP2 DUP3 MSTORE PUSH1 0x20 SWAP1 SWAP2 KECCAK256 PUSH1 0xD PUSH1 0xE SWAP1 SWAP3 MUL ADD ADD DUP1 SLOAD PUSH1 0xFF NOT AND PUSH1 0x1 DUP4 PUSH1 0x5 DUP2 GT ISZERO PUSH2 0x2F4A JUMPI PUSH2 0x2F4A PUSH2 0x3B6D JUMP JUMPDEST MUL OR SWAP1 SSTORE POP PUSH1 0x7 SLOAD PUSH2 0x2F65 SWAP1 PUSH1 0x1 PUSH1 0x1 PUSH1 0xA0 SHL SUB AND DUP3 PUSH2 0x27AB JUMP JUMPDEST PUSH2 0x2FA7 PUSH1 0xF DUP7 DUP2 SLOAD DUP2 LT PUSH2 0x2F7B JUMPI PUSH2 0x2F7B PUSH2 0x3D57 JUMP JUMPDEST PUSH1 0x0 SWAP2 DUP3 MSTORE PUSH1 0x20 SWAP1 SWAP2 KECCAK256 PUSH1 0x2 PUSH1 0xE SWAP1 SWAP3 MUL ADD ADD SLOAD PUSH1 0x1 PUSH1 0x1 PUSH1 0xA0 SHL SUB AND PUSH2 0x2FA2 DUP4 DUP7 PUSH2 0x3DD0 JUMP JUMPDEST PUSH2 0x27AB JUMP JUMPDEST DUP3 PUSH1 0xF DUP7 DUP2 SLOAD DUP2 LT PUSH2 0x2FBB JUMPI PUSH2 0x2FBB PUSH2 0x3D57 JUMP JUMPDEST SWAP1 PUSH1 0x0 MSTORE PUSH1 0x20 PUSH1 0x0 KECCAK256 SWAP1 PUSH1 0xE MUL ADD PUSH1 0x7 ADD PUSH1 0x0 DUP3 DUP3 SLOAD PUSH2 0x2FDB SWAP2 SWAP1 PUSH2 0x3DD0 JUMP JUMPDEST SWAP1 SWAP2 SSTORE POP POP PUSH1 0x40 DUP1 MLOAD DUP7 DUP2 MSTORE PUSH1 0x60 PUSH1 0x20 DUP3 ADD DUP2 SWAP1 MSTORE PUSH1 0xF SWAP1 DUP3 ADD MSTORE PUSH15 0x141493D29150D5081410525113D555 PUSH1 0x8A SHL PUSH1 0x80 DUP3 ADD MSTORE TIMESTAMP DUP2 DUP4 ADD MSTORE SWAP1 MLOAD CALLER SWAP2 PUSH1 0x0 DUP1 MLOAD PUSH1 0x20 PUSH2 0x40F3 DUP4 CODECOPY DUP2 MLOAD SWAP2 MSTORE SWAP2 SWAP1 DUP2 SWAP1 SUB PUSH1 0xA0 ADD SWAP1 LOG2 PUSH2 0x2AC5 JUMP JUMPDEST PUSH1 0x7 SLOAD PUSH2 0x304B SWAP1 PUSH1 0x1 PUSH1 0x1 PUSH1 0xA0 SHL SUB AND DUP3 PUSH2 0x27AB JUMP JUMPDEST PUSH2 0x309A PUSH1 0xF DUP7 DUP2 SLOAD DUP2 LT PUSH2 0x3061 JUMPI PUSH2 0x3061 PUSH2 0x3D57 JUMP JUMPDEST PUSH1 0x0 SWAP2 DUP3 MSTORE PUSH1 0x20 SWAP1 SWAP2 KECCAK256 PUSH1 0x2 PUSH1 0xE SWAP1 SWAP3 MUL ADD ADD SLOAD PUSH1 0x9 SLOAD PUSH1 0x1 PUSH1 0x1 PUSH1 0xA0 SHL SUB SWAP1 SWAP2 AND SWAP1 DUP4 SWAP1 PUSH2 0x3090 SWAP1 DUP7 PUSH2 0x3DFA JUMP JUMPDEST PUSH2 0x2FA2 SWAP2 SWAP1 PUSH2 0x3DD0 JUMP JUMPDEST PUSH1 0x9 SLOAD PUSH2 0x30A7 SWAP1 DUP4 PUSH2 0x3DFA JUMP JUMPDEST PUSH1 0xF DUP7 DUP2 SLOAD DUP2 LT PUSH2 0x30BA JUMPI PUSH2 0x30BA PUSH2 0x3D57 JUMP JUMPDEST SWAP1 PUSH1 0x0 MSTORE PUSH1 0x20 PUSH1 0x0 KECCAK256 SWAP1 PUSH1 0xE MUL ADD PUSH1 0x7 ADD PUSH1 0x0 DUP3 DUP3 SLOAD PUSH2 0x30DA SWAP2 SWAP1 PUSH2 0x3DD0 JUMP JUMPDEST SWAP1 SWAP2 SSTORE POP POP PUSH1 0x40 DUP1 MLOAD DUP7 DUP2 MSTORE PUSH1 0x60 PUSH1 0x20 DUP3 ADD DUP2 SWAP1 MSTORE PUSH1 0x11 SWAP1 DUP3 ADD MSTORE PUSH17 0x141493D29150D508141052510815539255 PUSH1 0x7A SHL PUSH1 0x80 DUP3 ADD MSTORE TIMESTAMP DUP2 DUP4 ADD MSTORE SWAP1 MLOAD CALLER SWAP2 PUSH1 0x0 DUP1 MLOAD PUSH1 0x20 PUSH2 0x40F3 DUP4 CODECOPY DUP2 MLOAD SWAP2 MSTORE SWAP2 SWAP1 DUP2 SWAP1 SUB PUSH1 0xA0 ADD SWAP1 LOG2 POP POP POP POP POP JUMP JUMPDEST PUSH1 0x0 PUSH1 0x1 PUSH1 0x1 PUSH1 0xE0 SHL SUB NOT DUP3 AND PUSH4 0x80AC58CD PUSH1 0xE0 SHL EQ DUP1 PUSH2 0x3169 JUMPI POP PUSH1 0x1 PUSH1 0x1 PUSH1 0xE0 SHL SUB NOT DUP3 AND PUSH4 0x5B5E139F PUSH1 0xE0 SHL EQ JUMPDEST DUP1 PUSH2 0x965 JUMPI POP PUSH4 0x1FFC9A7 PUSH1 0xE0 SHL PUSH1 0x1 PUSH1 0x1 PUSH1 0xE0 SHL SUB NOT DUP4 AND EQ PUSH2 0x965 JUMP JUMPDEST DUP1 DUP1 PUSH2 0x319C JUMPI POP PUSH1 0x1 PUSH1 0x1 PUSH1 0xA0 SHL SUB DUP3 AND ISZERO ISZERO JUMPDEST ISZERO PUSH2 0x325E JUMPI PUSH1 0x0 PUSH2 0x31AC DUP5 PUSH2 0x2765 JUMP JUMPDEST SWAP1 POP PUSH1 0x1 PUSH1 0x1 PUSH1 0xA0 SHL SUB DUP4 AND ISZERO DUP1 ISZERO SWAP1 PUSH2 0x31D8 JUMPI POP DUP3 PUSH1 0x1 PUSH1 0x1 PUSH1 0xA0 SHL SUB AND DUP2 PUSH1 0x1 PUSH1 0x1 PUSH1 0xA0 SHL SUB AND EQ ISZERO JUMPDEST DUP1 ISZERO PUSH2 0x31EB JUMPI POP PUSH2 0x31E9 DUP2 DUP5 PUSH2 0x2054 JUMP JUMPDEST ISZERO JUMPDEST ISZERO PUSH2 0x3214 JUMPI PUSH1 0x40 MLOAD PUSH4 0xA9FBF51F PUSH1 0xE0 SHL DUP2 MSTORE PUSH1 0x1 PUSH1 0x1 PUSH1 0xA0 SHL SUB DUP5 AND PUSH1 0x4 DUP3 ADD MSTORE PUSH1 0x24 ADD PUSH2 0x88B JUMP JUMPDEST DUP2 ISZERO PUSH2 0x325C JUMPI DUP4 DUP6 PUSH1 0x1 PUSH1 0x1 PUSH1 0xA0 SHL SUB AND DUP3 PUSH1 0x1 PUSH1 0x1 PUSH1 0xA0 SHL SUB AND PUSH32 0x8C5BE1E5EBEC7D5BD14F71427D1E84F3DD0314C0F7B2291E5B200AC8C7C3B925 PUSH1 0x40 MLOAD PUSH1 0x40 MLOAD DUP1 SWAP2 SUB SWAP1 LOG4 JUMPDEST POP JUMPDEST POP POP PUSH1 0x0 SWAP1 DUP2 MSTORE PUSH1 0x4 PUSH1 0x20 MSTORE PUSH1 0x40 SWAP1 KECCAK256 DUP1 SLOAD PUSH1 0x1 PUSH1 0x1 PUSH1 0xA0 SHL SUB NOT AND PUSH1 0x1 PUSH1 0x1 PUSH1 0xA0 SHL SUB SWAP3 SWAP1 SWAP3 AND SWAP2 SWAP1 SWAP2 OR SWAP1 SSTORE JUMP JUMPDEST PUSH2 0x3299 DUP4 DUP4 DUP4 PUSH2 0x3434 JUMP JUMPDEST PUSH2 0x101E JUMPI PUSH1 0x1 PUSH1 0x1 PUSH1 0xA0 SHL SUB DUP4 AND PUSH2 0x32C7 JUMPI PUSH1 0x40 MLOAD PUSH4 0x7E273289 PUSH1 0xE0 SHL DUP2 MSTORE PUSH1 0x4 DUP2 ADD DUP3 SWAP1 MSTORE PUSH1 0x24 ADD PUSH2 0x88B JUMP JUMPDEST PUSH1 0x40 MLOAD PUSH4 0x177E802F PUSH1 0xE0 SHL DUP2 MSTORE PUSH1 0x1 PUSH1 0x1 PUSH1 0xA0 SHL SUB DUP4 AND PUSH1 0x4 DUP3 ADD MSTORE PUSH1 0x24 DUP2 ADD DUP3 SWAP1 MSTORE PUSH1 0x44 ADD PUSH2 0x88B JUMP JUMPDEST PUSH1 0x60 PUSH2 0x32FD DUP3 PUSH2 0x2765 JUMP JUMPDEST POP PUSH1 0x0 PUSH2 0x3315 PUSH1 0x40 DUP1 MLOAD PUSH1 0x20 DUP2 ADD SWAP1 SWAP2 MSTORE PUSH1 0x0 DUP2 MSTORE SWAP1 JUMP JUMPDEST SWAP1 POP PUSH1 0x0 DUP2 MLOAD GT PUSH2 0x3335 JUMPI PUSH1 0x40 MLOAD DUP1 PUSH1 0x20 ADD PUSH1 0x40 MSTORE DUP1 PUSH1 0x0 DUP2 MSTORE POP PUSH2 0x3360 JUMP JUMPDEST DUP1 PUSH2 0x333F DUP5 PUSH2 0x3367 JUMP JUMPDEST PUSH1 0x40 MLOAD PUSH1 0x20 ADD PUSH2 0x3350 SWAP3 SWAP2 SWAP1 PUSH2 0x3FCC JUMP JUMPDEST PUSH1 0x40 MLOAD PUSH1 0x20 DUP2 DUP4 SUB SUB DUP2 MSTORE SWAP1 PUSH1 0x40 MSTORE JUMPDEST SWAP4 SWAP3 POP POP POP JUMP JUMPDEST PUSH1 0x60 PUSH1 0x0 PUSH2 0x3374 DUP4 PUSH2 0x3497 JUMP JUMPDEST PUSH1 0x1 ADD SWAP1 POP PUSH1 0x0 DUP2 PUSH8 0xFFFFFFFFFFFFFFFF DUP2 GT ISZERO PUSH2 0x3394 JUMPI PUSH2 0x3394 PUSH2 0x38B8 JUMP JUMPDEST PUSH1 0x40 MLOAD SWAP1 DUP1 DUP3 MSTORE DUP1 PUSH1 0x1F ADD PUSH1 0x1F NOT AND PUSH1 0x20 ADD DUP3 ADD PUSH1 0x40 MSTORE DUP1 ISZERO PUSH2 0x33BE JUMPI PUSH1 0x20 DUP3 ADD DUP2 DUP1 CALLDATASIZE DUP4 CALLDATACOPY ADD SWAP1 POP JUMPDEST POP SWAP1 POP DUP2 DUP2 ADD PUSH1 0x20 ADD JUMPDEST PUSH1 0x0 NOT ADD PUSH16 0x181899199A1A9B1B9C1CB0B131B232B3 PUSH1 0x81 SHL PUSH1 0xA DUP7 MOD BYTE DUP2 MSTORE8 PUSH1 0xA DUP6 DIV SWAP5 POP DUP5 PUSH2 0x33C8 JUMPI POP SWAP4 SWAP3 POP POP POP JUMP JUMPDEST PUSH1 0xB SLOAD PUSH1 0x0 SWAP1 PUSH2 0x340A DUP5 DUP3 PUSH2 0x356F JUMP JUMPDEST PUSH2 0x3414 DUP2 DUP5 PUSH2 0x3589 JUMP JUMPDEST PUSH1 0x1 PUSH1 0xB PUSH1 0x0 DUP3 DUP3 SLOAD PUSH2 0x3427 SWAP2 SWAP1 PUSH2 0x3DBD JUMP JUMPDEST SWAP1 SWAP2 SSTORE POP SWAP1 SWAP5 SWAP4 POP POP POP POP JUMP JUMPDEST PUSH1 0x0 PUSH1 0x1 PUSH1 0x1 PUSH1 0xA0 SHL SUB DUP4 AND ISZERO DUP1 ISZERO SWAP1 PUSH2 0x2BD5 JUMPI POP DUP3 PUSH1 0x1 PUSH1 0x1 PUSH1 0xA0 SHL SUB AND DUP5 PUSH1 0x1 PUSH1 0x1 PUSH1 0xA0 SHL SUB AND EQ DUP1 PUSH2 0x346E JUMPI POP PUSH2 0x346E DUP5 DUP5 PUSH2 0x2054 JUMP JUMPDEST DUP1 PUSH2 0x2BD5 JUMPI POP POP PUSH1 0x0 SWAP1 DUP2 MSTORE PUSH1 0x4 PUSH1 0x20 MSTORE PUSH1 0x40 SWAP1 KECCAK256 SLOAD PUSH1 0x1 PUSH1 0x1 PUSH1 0xA0 SHL SUB SWAP1 DUP2 AND SWAP2 AND EQ SWAP2 SWAP1 POP JUMP JUMPDEST PUSH1 0x0 DUP1 PUSH19 0x184F03E93FF9F4DAA797ED6E38ED64BF6A1F01 PUSH1 0x40 SHL DUP4 LT PUSH2 0x34D6 JUMPI PUSH19 0x184F03E93FF9F4DAA797ED6E38ED64BF6A1F01 PUSH1 0x40 SHL DUP4 DIV SWAP3 POP PUSH1 0x40 ADD JUMPDEST PUSH14 0x4EE2D6D415B85ACEF8100000000 DUP4 LT PUSH2 0x3502 JUMPI PUSH14 0x4EE2D6D415B85ACEF8100000000 DUP4 DIV SWAP3 POP PUSH1 0x20 ADD JUMPDEST PUSH7 0x2386F26FC10000 DUP4 LT PUSH2 0x3520 JUMPI PUSH7 0x2386F26FC10000 DUP4 DIV SWAP3 POP PUSH1 0x10 ADD JUMPDEST PUSH4 0x5F5E100 DUP4 LT PUSH2 0x3538 JUMPI PUSH4 0x5F5E100 DUP4 DIV SWAP3 POP PUSH1 0x8 ADD JUMPDEST PUSH2 0x2710 DUP4 LT PUSH2 0x354C JUMPI PUSH2 0x2710 DUP4 DIV SWAP3 POP PUSH1 0x4 ADD JUMPDEST PUSH1 0x64 DUP4 LT PUSH2 0x355E JUMPI PUSH1 0x64 DUP4 DIV SWAP3 POP PUSH1 0x2 ADD JUMPDEST PUSH1 0xA DUP4 LT PUSH2 0x965 JUMPI PUSH1 0x1 ADD SWAP3 SWAP2 POP POP JUMP JUMPDEST PUSH2 0xA3C DUP3 DUP3 PUSH1 0x40 MLOAD DUP1 PUSH1 0x20 ADD PUSH1 0x40 MSTORE DUP1 PUSH1 0x0 DUP2 MSTORE POP PUSH2 0x35D9 JUMP JUMPDEST PUSH1 0x0 DUP3 DUP2 MSTORE PUSH1 0x6 PUSH1 0x20 MSTORE PUSH1 0x40 SWAP1 KECCAK256 PUSH2 0x35A1 DUP3 DUP3 PUSH2 0x3E9A JUMP JUMPDEST POP PUSH1 0x40 MLOAD DUP3 DUP2 MSTORE PUSH32 0xF8E1A15ABA9398E019F0B49DF1A4FDE98EE17AE345CB5F6B5E2C27F5033E8CE7 SWAP1 PUSH1 0x20 ADD PUSH1 0x40 MLOAD DUP1 SWAP2 SUB SWAP1 LOG1 POP POP JUMP JUMPDEST PUSH2 0x35E3 DUP4 DUP4 PUSH2 0x35F0 JUMP JUMPDEST PUSH2 0x101E PUSH1 0x0 DUP5 DUP5 DUP5 PUSH2 0x29A3 JUMP JUMPDEST PUSH1 0x1 PUSH1 0x1 PUSH1 0xA0 SHL SUB DUP3 AND PUSH2 0x361A JUMPI PUSH1 0x40 MLOAD PUSH4 0x32505749 PUSH1 0xE1 SHL DUP2 MSTORE PUSH1 0x0 PUSH1 0x4 DUP3 ADD MSTORE PUSH1 0x24 ADD PUSH2 0x88B JUMP JUMPDEST PUSH1 0x0 PUSH2 0x3628 DUP4 DUP4 PUSH1 0x0 PUSH2 0x280B JUMP JUMPDEST SWAP1 POP PUSH1 0x1 PUSH1 0x1 PUSH1 0xA0 SHL SUB DUP2 AND ISZERO PUSH2 0x101E JUMPI PUSH1 0x40 MLOAD PUSH4 0x39E35637 PUSH1 0xE1 SHL DUP2 MSTORE PUSH1 0x0 PUSH1 0x4 DUP3 ADD MSTORE PUSH1 0x24 ADD PUSH2 0x88B JUMP JUMPDEST PUSH1 0x40 MLOAD DUP1 PUSH2 0x1C0 ADD PUSH1 0x40 MSTORE DUP1 PUSH1 0x0 DUP2 MSTORE PUSH1 0x20 ADD PUSH1 0x0 PUSH1 0x1 PUSH1 0x1 PUSH1 0xA0 SHL SUB AND DUP2 MSTORE PUSH1 0x20 ADD PUSH1 0x0 PUSH1 0x1 PUSH1 0x1 PUSH1 0xA0 SHL SUB AND DUP2 MSTORE PUSH1 0x20 ADD PUSH1 0x60 DUP2 MSTORE PUSH1 0x20 ADD PUSH1 0x60 DUP2 MSTORE PUSH1 0x20 ADD PUSH1 0x60 DUP2 MSTORE PUSH1 0x20 ADD PUSH1 0x0 DUP2 MSTORE PUSH1 0x20 ADD PUSH1 0x0 DUP2 MSTORE PUSH1 0x20 ADD PUSH1 0x0 DUP2 MSTORE PUSH1 0x20 ADD PUSH1 0x0 DUP2 MSTORE PUSH1 0x20 ADD PUSH1 0x0 DUP2 MSTORE PUSH1 0x20 ADD PUSH1 0x0 DUP2 MSTORE PUSH1 0x20 ADD PUSH1 0x0 DUP2 MSTORE PUSH1 0x20 ADD PUSH1 0x0 PUSH1 0x5 DUP2 GT ISZERO PUSH2 0x36E1 JUMPI PUSH2 0x36E1 PUSH2 0x3B6D JUMP JUMPDEST SWAP1 MSTORE SWAP1 JUMP JUMPDEST PUSH1 0x0 DUP1 PUSH1 0x40 DUP4 DUP6 SUB SLT ISZERO PUSH2 0x36F9 JUMPI PUSH1 0x0 DUP1 REVERT JUMPDEST POP POP DUP1 CALLDATALOAD SWAP3 PUSH1 0x20 SWAP1 SWAP2 ADD CALLDATALOAD SWAP2 POP JUMP JUMPDEST PUSH1 0x1 PUSH1 0x1 PUSH1 0xE0 SHL SUB NOT DUP2 AND DUP2 EQ PUSH2 0x371E JUMPI PUSH1 0x0 DUP1 REVERT JUMPDEST POP JUMP JUMPDEST PUSH1 0x0 PUSH1 0x20 DUP3 DUP5 SUB SLT ISZERO PUSH2 0x3733 JUMPI PUSH1 0x0 DUP1 REVERT JUMPDEST DUP2 CALLDATALOAD PUSH2 0x3360 DUP2 PUSH2 0x3708 JUMP JUMPDEST PUSH1 0x0 JUMPDEST DUP4 DUP2 LT ISZERO PUSH2 0x3759 JUMPI DUP2 DUP2 ADD MLOAD DUP4 DUP3 ADD MSTORE PUSH1 0x20 ADD PUSH2 0x3741 JUMP JUMPDEST POP POP PUSH1 0x0 SWAP2 ADD MSTORE JUMP JUMPDEST PUSH1 0x0 DUP2 MLOAD DUP1 DUP5 MSTORE PUSH2 0x377A DUP2 PUSH1 0x20 DUP7 ADD PUSH1 0x20 DUP7 ADD PUSH2 0x373E JUMP JUMPDEST PUSH1 0x1F ADD PUSH1 0x1F NOT AND SWAP3 SWAP1 SWAP3 ADD PUSH1 0x20 ADD SWAP3 SWAP2 POP POP JUMP JUMPDEST PUSH1 0x20 DUP2 MSTORE PUSH1 0x0 PUSH2 0x3360 PUSH1 0x20 DUP4 ADD DUP5 PUSH2 0x3762 JUMP JUMPDEST PUSH1 0x0 PUSH1 0x20 DUP3 DUP5 SUB SLT ISZERO PUSH2 0x37B3 JUMPI PUSH1 0x0 DUP1 REVERT JUMPDEST POP CALLDATALOAD SWAP2 SWAP1 POP JUMP JUMPDEST DUP1 CALLDATALOAD PUSH1 0x1 PUSH1 0x1 PUSH1 0xA0 SHL SUB DUP2 AND DUP2 EQ PUSH2 0x12A7 JUMPI PUSH1 0x0 DUP1 REVERT JUMPDEST PUSH1 0x0 DUP1 PUSH1 0x40 DUP4 DUP6 SUB SLT ISZERO PUSH2 0x37E4 JUMPI PUSH1 0x0 DUP1 REVERT JUMPDEST PUSH2 0x37ED DUP4 PUSH2 0x37BA JUMP JUMPDEST SWAP5 PUSH1 0x20 SWAP4 SWAP1 SWAP4 ADD CALLDATALOAD SWAP4 POP POP POP JUMP JUMPDEST PUSH1 0x0 PUSH1 0x20 DUP3 DUP5 SUB SLT ISZERO PUSH2 0x380D JUMPI PUSH1 0x0 DUP1 REVERT JUMPDEST PUSH2 0x3360 DUP3 PUSH2 0x37BA JUMP JUMPDEST PUSH1 0x0 DUP1 PUSH1 0x0 PUSH1 0x60 DUP5 DUP7 SUB SLT ISZERO PUSH2 0x382B JUMPI PUSH1 0x0 DUP1 REVERT JUMPDEST PUSH2 0x3834 DUP5 PUSH2 0x37BA JUMP JUMPDEST SWAP3 POP PUSH2 0x3842 PUSH1 0x20 DUP6 ADD PUSH2 0x37BA JUMP JUMPDEST SWAP3 SWAP6 SWAP3 SWAP5 POP POP POP PUSH1 0x40 SWAP2 SWAP1 SWAP2 ADD CALLDATALOAD SWAP1 JUMP JUMPDEST PUSH1 0x0 PUSH1 0x20 DUP3 ADD PUSH1 0x20 DUP4 MSTORE DUP1 DUP5 MLOAD DUP1 DUP4 MSTORE PUSH1 0x40 DUP6 ADD SWAP2 POP PUSH1 0x40 DUP2 PUSH1 0x5 SHL DUP7 ADD ADD SWAP3 POP PUSH1 0x20 DUP7 ADD PUSH1 0x0 JUMPDEST DUP3 DUP2 LT ISZERO PUSH2 0x38AC JUMPI PUSH1 0x3F NOT DUP8 DUP7 SUB ADD DUP5 MSTORE PUSH2 0x3897 DUP6 DUP4 MLOAD PUSH2 0x3762 JUMP JUMPDEST SWAP5 POP PUSH1 0x20 SWAP4 DUP5 ADD SWAP4 SWAP2 SWAP1 SWAP2 ADD SWAP1 PUSH1 0x1 ADD PUSH2 0x387B JUMP JUMPDEST POP SWAP3 SWAP7 SWAP6 POP POP POP POP POP POP JUMP JUMPDEST PUSH4 0x4E487B71 PUSH1 0xE0 SHL PUSH1 0x0 MSTORE PUSH1 0x41 PUSH1 0x4 MSTORE PUSH1 0x24 PUSH1 0x0 REVERT JUMPDEST PUSH1 0x0 DUP1 PUSH8 0xFFFFFFFFFFFFFFFF DUP5 GT ISZERO PUSH2 0x38E9 JUMPI PUSH2 0x38E9 PUSH2 0x38B8 JUMP JUMPDEST POP PUSH1 0x40 MLOAD PUSH1 0x1F NOT PUSH1 0x1F DUP6 ADD DUP2 AND PUSH1 0x3F ADD AND DUP2 ADD DUP2 DUP2 LT PUSH8 0xFFFFFFFFFFFFFFFF DUP3 GT OR ISZERO PUSH2 0x3918 JUMPI PUSH2 0x3918 PUSH2 0x38B8 JUMP JUMPDEST PUSH1 0x40 MSTORE DUP4 DUP2 MSTORE SWAP1 POP DUP1 DUP3 DUP5 ADD DUP6 LT ISZERO PUSH2 0x3930 JUMPI PUSH1 0x0 DUP1 REVERT JUMPDEST DUP4 DUP4 PUSH1 0x20 DUP4 ADD CALLDATACOPY PUSH1 0x0 PUSH1 0x20 DUP6 DUP4 ADD ADD MSTORE POP SWAP4 SWAP3 POP POP POP JUMP JUMPDEST PUSH1 0x0 DUP3 PUSH1 0x1F DUP4 ADD SLT PUSH2 0x3959 JUMPI PUSH1 0x0 DUP1 REVERT JUMPDEST PUSH2 0x3360 DUP4 DUP4 CALLDATALOAD PUSH1 0x20 DUP6 ADD PUSH2 0x38CE JUMP JUMPDEST PUSH1 0x0 DUP1 PUSH1 0x0 DUP1 PUSH1 0x0 DUP1 PUSH1 0xC0 DUP8 DUP10 SUB SLT ISZERO PUSH2 0x3981 JUMPI PUSH1 0x0 DUP1 REVERT JUMPDEST DUP7 CALLDATALOAD PUSH8 0xFFFFFFFFFFFFFFFF DUP2 GT ISZERO PUSH2 0x3998 JUMPI PUSH1 0x0 DUP1 REVERT JUMPDEST PUSH2 0x39A4 DUP10 DUP3 DUP11 ADD PUSH2 0x3948 JUMP JUMPDEST SWAP7 POP POP PUSH1 0x20 DUP8 ADD CALLDATALOAD PUSH8 0xFFFFFFFFFFFFFFFF DUP2 GT ISZERO PUSH2 0x39C1 JUMPI PUSH1 0x0 DUP1 REVERT JUMPDEST PUSH2 0x39CD DUP10 DUP3 DUP11 ADD PUSH2 0x3948 JUMP JUMPDEST SWAP6 POP POP PUSH1 0x40 DUP8 ADD CALLDATALOAD PUSH8 0xFFFFFFFFFFFFFFFF DUP2 GT ISZERO PUSH2 0x39EA JUMPI PUSH1 0x0 DUP1 REVERT JUMPDEST PUSH2 0x39F6 DUP10 DUP3 DUP11 ADD PUSH2 0x3948 JUMP JUMPDEST SWAP7 SWAP10 SWAP6 SWAP9 POP SWAP6 SWAP7 PUSH1 0x60 DUP2 ADD CALLDATALOAD SWAP7 POP PUSH1 0x80 DUP2 ADD CALLDATALOAD SWAP6 PUSH1 0xA0 SWAP1 SWAP2 ADD CALLDATALOAD SWAP5 POP SWAP3 POP POP POP JUMP JUMPDEST PUSH1 0x0 DUP1 PUSH1 0x40 DUP4 DUP6 SUB SLT ISZERO PUSH2 0x3A2B JUMPI PUSH1 0x0 DUP1 REVERT JUMPDEST DUP3 CALLDATALOAD SWAP2 POP PUSH2 0x3A3B PUSH1 0x20 DUP5 ADD PUSH2 0x37BA JUMP JUMPDEST SWAP1 POP SWAP3 POP SWAP3 SWAP1 POP JUMP JUMPDEST PUSH1 0x0 DUP1 PUSH1 0x40 DUP4 DUP6 SUB SLT ISZERO PUSH2 0x3A57 JUMPI PUSH1 0x0 DUP1 REVERT JUMPDEST PUSH2 0x3A60 DUP4 PUSH2 0x37BA JUMP JUMPDEST SWAP2 POP PUSH1 0x20 DUP4 ADD CALLDATALOAD DUP1 ISZERO ISZERO DUP2 EQ PUSH2 0x3A75 JUMPI PUSH1 0x0 DUP1 REVERT JUMPDEST DUP1 SWAP2 POP POP SWAP3 POP SWAP3 SWAP1 POP JUMP JUMPDEST PUSH1 0x0 DUP1 PUSH1 0x0 DUP1 PUSH1 0x80 DUP6 DUP8 SUB SLT ISZERO PUSH2 0x3A96 JUMPI PUSH1 0x0 DUP1 REVERT JUMPDEST PUSH2 0x3A9F DUP6 PUSH2 0x37BA JUMP JUMPDEST SWAP4 POP PUSH2 0x3AAD PUSH1 0x20 DUP7 ADD PUSH2 0x37BA JUMP JUMPDEST SWAP3 POP PUSH1 0x40 DUP6 ADD CALLDATALOAD SWAP2 POP PUSH1 0x60 DUP6 ADD CALLDATALOAD PUSH8 0xFFFFFFFFFFFFFFFF DUP2 GT ISZERO PUSH2 0x3AD0 JUMPI PUSH1 0x0 DUP1 REVERT JUMPDEST DUP6 ADD PUSH1 0x1F DUP2 ADD DUP8 SGT PUSH2 0x3AE1 JUMPI PUSH1 0x0 DUP1 REVERT JUMPDEST PUSH2 0x3AF0 DUP8 DUP3 CALLDATALOAD PUSH1 0x20 DUP5 ADD PUSH2 0x38CE JUMP JUMPDEST SWAP2 POP POP SWAP3 SWAP6 SWAP2 SWAP5 POP SWAP3 POP JUMP JUMPDEST PUSH1 0x20 DUP1 DUP3 MSTORE DUP3 MLOAD DUP3 DUP3 ADD DUP2 SWAP1 MSTORE PUSH1 0x0 SWAP2 DUP5 ADD SWAP1 PUSH1 0x40 DUP5 ADD SWAP1 DUP4 JUMPDEST DUP2 DUP2 LT ISZERO PUSH2 0x3B62 JUMPI DUP4 MLOAD DUP1 MLOAD PUSH1 0x1 PUSH1 0x1 PUSH1 0xA0 SHL SUB AND DUP5 MSTORE PUSH1 0x20 DUP1 DUP3 ADD MLOAD DUP2 DUP7 ADD MSTORE PUSH1 0x40 DUP1 DUP4 ADD MLOAD SWAP1 DUP7 ADD MSTORE PUSH1 0x60 SWAP2 DUP3 ADD MLOAD ISZERO ISZERO SWAP2 DUP6 ADD SWAP2 SWAP1 SWAP2 MSTORE SWAP1 SWAP4 ADD SWAP3 PUSH1 0x80 SWAP1 SWAP3 ADD SWAP2 PUSH1 0x1 ADD PUSH2 0x3B16 JUMP JUMPDEST POP SWAP1 SWAP6 SWAP5 POP POP POP POP POP JUMP JUMPDEST PUSH4 0x4E487B71 PUSH1 0xE0 SHL PUSH1 0x0 MSTORE PUSH1 0x21 PUSH1 0x4 MSTORE PUSH1 0x24 PUSH1 0x0 REVERT JUMPDEST PUSH1 0x6 DUP2 LT PUSH2 0x3BA1 JUMPI PUSH4 0x4E487B71 PUSH1 0xE0 SHL PUSH1 0x0 MSTORE PUSH1 0x21 PUSH1 0x4 MSTORE PUSH1 0x24 PUSH1 0x0 REVERT JUMPDEST SWAP1 MSTORE JUMP JUMPDEST DUP1 MLOAD DUP3 MSTORE PUSH1 0x0 PUSH1 0x20 DUP3 ADD MLOAD PUSH2 0x3BC5 PUSH1 0x20 DUP6 ADD DUP3 PUSH1 0x1 PUSH1 0x1 PUSH1 0xA0 SHL SUB AND SWAP1 MSTORE JUMP JUMPDEST POP PUSH1 0x40 DUP3 ADD MLOAD PUSH2 0x3BE0 PUSH1 0x40 DUP6 ADD DUP3 PUSH1 0x1 PUSH1 0x1 PUSH1 0xA0 SHL SUB AND SWAP1 MSTORE JUMP JUMPDEST POP PUSH1 0x60 DUP3 ADD MLOAD PUSH2 0x1C0 PUSH1 0x60 DUP6 ADD MSTORE PUSH2 0x3BFC PUSH2 0x1C0 DUP6 ADD DUP3 PUSH2 0x3762 JUMP JUMPDEST SWAP1 POP PUSH1 0x80 DUP4 ADD MLOAD DUP5 DUP3 SUB PUSH1 0x80 DUP7 ADD MSTORE PUSH2 0x3C15 DUP3 DUP3 PUSH2 0x3762 JUMP JUMPDEST SWAP2 POP POP PUSH1 0xA0 DUP4 ADD MLOAD DUP5 DUP3 SUB PUSH1 0xA0 DUP7 ADD MSTORE PUSH2 0x3C2F DUP3 DUP3 PUSH2 0x3762 JUMP JUMPDEST SWAP2 POP POP PUSH1 0xC0 DUP4 ADD MLOAD PUSH1 0xC0 DUP6 ADD MSTORE PUSH1 0xE0 DUP4 ADD MLOAD PUSH1 0xE0 DUP6 ADD MSTORE PUSH2 0x100 DUP4 ADD MLOAD PUSH2 0x100 DUP6 ADD MSTORE PUSH2 0x120 DUP4 ADD MLOAD PUSH2 0x120 DUP6 ADD MSTORE PUSH2 0x140 DUP4 ADD MLOAD PUSH2 0x140 DUP6 ADD MSTORE PUSH2 0x160 DUP4 ADD MLOAD PUSH2 0x160 DUP6 ADD MSTORE PUSH2 0x180 DUP4 ADD MLOAD PUSH2 0x180 DUP6 ADD MSTORE PUSH2 0x1A0 DUP4 ADD MLOAD PUSH2 0x1115 PUSH2 0x1A0 DUP7 ADD DUP3 PUSH2 0x3B83 JUMP JUMPDEST PUSH1 0x0 PUSH1 0x20 DUP3 ADD PUSH1 0x20 DUP4 MSTORE DUP1 DUP5 MLOAD DUP1 DUP4 MSTORE PUSH1 0x40 DUP6 ADD SWAP2 POP PUSH1 0x40 DUP2 PUSH1 0x5 SHL DUP7 ADD ADD SWAP3 POP PUSH1 0x20 DUP7 ADD PUSH1 0x0 JUMPDEST DUP3 DUP2 LT ISZERO PUSH2 0x38AC JUMPI PUSH1 0x3F NOT DUP8 DUP7 SUB ADD DUP5 MSTORE PUSH2 0x3CDA DUP6 DUP4 MLOAD PUSH2 0x3BA5 JUMP JUMPDEST SWAP5 POP PUSH1 0x20 SWAP4 DUP5 ADD SWAP4 SWAP2 SWAP1 SWAP2 ADD SWAP1 PUSH1 0x1 ADD PUSH2 0x3CBE JUMP JUMPDEST PUSH1 0x0 DUP1 PUSH1 0x40 DUP4 DUP6 SUB SLT ISZERO PUSH2 0x3D02 JUMPI PUSH1 0x0 DUP1 REVERT JUMPDEST PUSH2 0x3D0B DUP4 PUSH2 0x37BA JUMP JUMPDEST SWAP2 POP PUSH2 0x3A3B PUSH1 0x20 DUP5 ADD PUSH2 0x37BA JUMP JUMPDEST PUSH1 0x20 DUP2 MSTORE PUSH1 0x0 PUSH2 0x3360 PUSH1 0x20 DUP4 ADD DUP5 PUSH2 0x3BA5 JUMP JUMPDEST PUSH1 0x20 DUP1 DUP3 MSTORE PUSH1 0x11 SWAP1 DUP3 ADD MSTORE PUSH17 0x141C9BDA9958DD081B9BDD08199BDD5B99 PUSH1 0x7A SHL PUSH1 0x40 DUP3 ADD MSTORE PUSH1 0x60 ADD SWAP1 JUMP JUMPDEST PUSH4 0x4E487B71 PUSH1 0xE0 SHL PUSH1 0x0 MSTORE PUSH1 0x32 PUSH1 0x4 MSTORE PUSH1 0x24 PUSH1 0x0 REVERT JUMPDEST PUSH1 0x1 DUP2 DUP2 SHR SWAP1 DUP3 AND DUP1 PUSH2 0x3D81 JUMPI PUSH1 0x7F DUP3 AND SWAP2 POP JUMPDEST PUSH1 0x20 DUP3 LT DUP2 SUB PUSH2 0x3DA1 JUMPI PUSH4 0x4E487B71 PUSH1 0xE0 SHL PUSH1 0x0 MSTORE PUSH1 0x22 PUSH1 0x4 MSTORE PUSH1 0x24 PUSH1 0x0 REVERT JUMPDEST POP SWAP2 SWAP1 POP JUMP JUMPDEST PUSH4 0x4E487B71 PUSH1 0xE0 SHL PUSH1 0x0 MSTORE PUSH1 0x11 PUSH1 0x4 MSTORE PUSH1 0x24 PUSH1 0x0 REVERT JUMPDEST DUP1 DUP3 ADD DUP1 DUP3 GT ISZERO PUSH2 0x965 JUMPI PUSH2 0x965 PUSH2 0x3DA7 JUMP JUMPDEST DUP2 DUP2 SUB DUP2 DUP2 GT ISZERO PUSH2 0x965 JUMPI PUSH2 0x965 PUSH2 0x3DA7 JUMP JUMPDEST DUP1 DUP3 MUL DUP2 ISZERO DUP3 DUP3 DIV DUP5 EQ OR PUSH2 0x965 JUMPI PUSH2 0x965 PUSH2 0x3DA7 JUMP JUMPDEST PUSH1 0x0 DUP3 PUSH2 0x3E17 JUMPI PUSH4 0x4E487B71 PUSH1 0xE0 SHL PUSH1 0x0 MSTORE PUSH1 0x12 PUSH1 0x4 MSTORE PUSH1 0x24 PUSH1 0x0 REVERT JUMPDEST POP DIV SWAP1 JUMP JUMPDEST PUSH1 0x20 DUP1 DUP3 MSTORE PUSH1 0x1E SWAP1 DUP3 ADD MSTORE PUSH32 0x43726561746F72204F72204F776E6572207265736572766564206F6E6C790000 PUSH1 0x40 DUP3 ADD MSTORE PUSH1 0x60 ADD SWAP1 JUMP JUMPDEST PUSH1 0x1F DUP3 GT ISZERO PUSH2 0x101E JUMPI DUP1 PUSH1 0x0 MSTORE PUSH1 0x20 PUSH1 0x0 KECCAK256 PUSH1 0x1F DUP5 ADD PUSH1 0x5 SHR DUP2 ADD PUSH1 0x20 DUP6 LT ISZERO PUSH2 0x3E7A JUMPI POP DUP1 JUMPDEST PUSH1 0x1F DUP5 ADD PUSH1 0x5 SHR DUP3 ADD SWAP2 POP JUMPDEST DUP2 DUP2 LT ISZERO PUSH2 0x2AC5 JUMPI PUSH1 0x0 DUP2 SSTORE PUSH1 0x1 ADD PUSH2 0x3E86 JUMP JUMPDEST DUP2 MLOAD PUSH8 0xFFFFFFFFFFFFFFFF DUP2 GT ISZERO PUSH2 0x3EB4 JUMPI PUSH2 0x3EB4 PUSH2 0x38B8 JUMP JUMPDEST PUSH2 0x3EC8 DUP2 PUSH2 0x3EC2 DUP5 SLOAD PUSH2 0x3D6D JUMP JUMPDEST DUP5 PUSH2 0x3E53 JUMP JUMPDEST PUSH1 0x20 PUSH1 0x1F DUP3 GT PUSH1 0x1 DUP2 EQ PUSH2 0x3EFC JUMPI PUSH1 0x0 DUP4 ISZERO PUSH2 0x3EE4 JUMPI POP DUP5 DUP3 ADD MLOAD JUMPDEST PUSH1 0x0 NOT PUSH1 0x3 DUP6 SWAP1 SHL SHR NOT AND PUSH1 0x1 DUP5 SWAP1 SHL OR DUP5 SSTORE PUSH2 0x2AC5 JUMP JUMPDEST PUSH1 0x0 DUP5 DUP2 MSTORE PUSH1 0x20 DUP2 KECCAK256 PUSH1 0x1F NOT DUP6 AND SWAP2 JUMPDEST DUP3 DUP2 LT ISZERO PUSH2 0x3F2C JUMPI DUP8 DUP6 ADD MLOAD DUP3 SSTORE PUSH1 0x20 SWAP5 DUP6 ADD SWAP5 PUSH1 0x1 SWAP1 SWAP3 ADD SWAP2 ADD PUSH2 0x3F0C JUMP JUMPDEST POP DUP5 DUP3 LT ISZERO PUSH2 0x3F4A JUMPI DUP7 DUP5 ADD MLOAD PUSH1 0x0 NOT PUSH1 0x3 DUP8 SWAP1 SHL PUSH1 0xF8 AND SHR NOT AND DUP2 SSTORE JUMPDEST POP POP POP POP PUSH1 0x1 SWAP1 DUP2 SHL ADD SWAP1 SSTORE POP JUMP JUMPDEST PUSH1 0x0 PUSH1 0x1 DUP3 ADD PUSH2 0x3F6B JUMPI PUSH2 0x3F6B PUSH2 0x3DA7 JUMP JUMPDEST POP PUSH1 0x1 ADD SWAP1 JUMP JUMPDEST PUSH1 0x1 PUSH1 0x1 PUSH1 0xA0 SHL SUB DUP6 DUP2 AND DUP3 MSTORE DUP5 AND PUSH1 0x20 DUP3 ADD MSTORE PUSH1 0x40 DUP2 ADD DUP4 SWAP1 MSTORE PUSH1 0x80 PUSH1 0x60 DUP3 ADD DUP2 SWAP1 MSTORE PUSH1 0x0 SWAP1 PUSH2 0x3FA5 SWAP1 DUP4 ADD DUP5 PUSH2 0x3762 JUMP JUMPDEST SWAP7 SWAP6 POP POP POP POP POP POP JUMP JUMPDEST PUSH1 0x0 PUSH1 0x20 DUP3 DUP5 SUB SLT ISZERO PUSH2 0x3FC1 JUMPI PUSH1 0x0 DUP1 REVERT JUMPDEST DUP2 MLOAD PUSH2 0x3360 DUP2 PUSH2 0x3708 JUMP JUMPDEST PUSH1 0x0 DUP4 MLOAD PUSH2 0x3FDE DUP2 DUP5 PUSH1 0x20 DUP9 ADD PUSH2 0x373E JUMP JUMPDEST DUP4 MLOAD SWAP1 DUP4 ADD SWAP1 PUSH2 0x3FF2 DUP2 DUP4 PUSH1 0x20 DUP9 ADD PUSH2 0x373E JUMP JUMPDEST ADD SWAP5 SWAP4 POP POP POP POP JUMP JUMPDEST PUSH1 0x0 DUP2 SLOAD PUSH2 0x4008 DUP2 PUSH2 0x3D6D JUMP JUMPDEST PUSH1 0x1 DUP3 AND DUP1 ISZERO PUSH2 0x401F JUMPI PUSH1 0x1 DUP2 EQ PUSH2 0x4034 JUMPI PUSH2 0x4064 JUMP JUMPDEST PUSH1 0xFF NOT DUP4 AND DUP7 MSTORE DUP2 ISZERO ISZERO DUP3 MUL DUP7 ADD SWAP4 POP PUSH2 0x4064 JUMP JUMPDEST DUP5 PUSH1 0x0 MSTORE PUSH1 0x20 PUSH1 0x0 KECCAK256 PUSH1 0x0 JUMPDEST DUP4 DUP2 LT ISZERO PUSH2 0x405C JUMPI DUP2 SLOAD DUP9 DUP3 ADD MSTORE PUSH1 0x1 SWAP1 SWAP2 ADD SWAP1 PUSH1 0x20 ADD PUSH2 0x4040 JUMP JUMPDEST POP POP DUP2 DUP7 ADD SWAP4 POP JUMPDEST POP POP POP SWAP3 SWAP2 POP POP JUMP JUMPDEST PUSH8 0x3D9134B2111D1011 PUSH1 0xC1 SHL DUP2 MSTORE DUP4 MLOAD PUSH1 0x0 SWAP1 PUSH2 0x4091 DUP2 PUSH1 0x8 DUP6 ADD PUSH1 0x20 DUP10 ADD PUSH2 0x373E JUMP JUMPDEST PUSH13 0x111610113A34BA3632911D1011 PUSH1 0x99 SHL PUSH1 0x8 SWAP2 DUP5 ADD SWAP2 DUP3 ADD MSTORE PUSH2 0x40B8 PUSH1 0x15 DUP3 ADD DUP7 PUSH2 0x3FFB JUMP JUMPDEST PUSH16 0x1116101134B6B0B3B2AAA926111D1011 PUSH1 0x81 SHL DUP2 MSTORE SWAP1 POP PUSH2 0x40DD PUSH1 0x10 DUP3 ADD DUP6 PUSH2 0x3FFB JUMP JUMPDEST PUSH2 0x227D PUSH1 0xF0 SHL DUP2 MSTORE PUSH1 0x2 ADD SWAP7 SWAP6 POP POP POP POP POP POP JUMP INVALID 0xAE 0xE8 0xE5 0xD3 0xBB 0xB2 0xF7 BYTE SWAP6 SHL JUMP ORIGIN 0xCE 0xE2 0xF PUSH27 0xC487B9F8AB4F66A236F7694B13AF7C6AA2646970667358221220FC PUSH27 0xBB9089B36D19300087115CA390B82916A3351DC15C4A25372E00DA DUP12 0xDF PC PUSH5 0x736F6C6343 STOP ADDMOD BYTE STOP CALLER "},"methodIdentifiers":{"CreatorExist(address)":"f7767c93","UserOfNFTs(address,uint256)":"c1ada37e","addCreator(address)":"3b9dce05","approve(address,uint256)":"095ea7b3","backProject(uint256)":"9f39a194","balanceOf(address)":"70a08231","changeTax(uint256)":"3e45c8af","createProject(string,string,string,uint256,uint256,uint256)":"5fe68f47","deleteProject(uint256)":"4cd0cb28","fundingInstallment()":"09945644","getApproved(uint256)":"081812fc","getBackers(uint256)":"c9168b72","getBackersLength(uint256)":"def756e2","getBlockTime()":"87ceff09","getFundingInstallment()":"e7c6c1b1","getNfts(address)":"44cc2afe","getProject(uint256)":"f0f3f2c8","getProjects()":"dcc60128","isAppOwner()":"ca766f64","isAppOwner(address)":"1453d482","isApprovedForAll(address,address)":"e985e9c5","isCreator(address)":"efd46065","isExpired(uint256)":"d9548e53","isProjectCreator(uint256,address)":"6c57ebdf","name()":"06fdde03","owner()":"8da5cb5b","ownerOf(uint256)":"6352211e","payOutProjectOneUnit(uint256,uint256)":"ff872e4e","performRefund(uint256)":"1d8394bd","projectCount()":"36fbad26","projectExist(uint256)":"8593054b","projectOfNFTs(uint256,uint256)":"3d061498","projectTax()":"d24cd3ec","requestRefund(uint256,uint256)":"00e6652a","safeTransferFrom(address,address,uint256)":"42842e0e","safeTransferFrom(address,address,uint256,bytes)":"b88d4fde","setApprovalForAll(address,bool)":"a22cb465","startProject(uint256)":"f62bf2de","stats()":"d80528ae","supportsInterface(bytes4)":"01ffc9a7","symbol()":"95d89b41","tokenCounter()":"d082e381","tokenURI(uint256)":"c87b56dd","transferFrom(address,address,uint256)":"23b872dd"}}}}}