{"src/contracts/Genesis.sol":{"Genesis":{"abi":[{"inputs":[{"internalType":"uint256","name":"_projectTax","type":"uint256"}],"stateMutability":"nonpayable","type":"constructor"},{"inputs":[{"internalType":"address","name":"sender","type":"address"},{"internalType":"uint256","name":"tokenId","type":"uint256"},{"internalType":"address","name":"owner","type":"address"}],"name":"ERC721IncorrectOwner","type":"error"},{"inputs":[{"internalType":"address","name":"operator","type":"address"},{"internalType":"uint256","name":"tokenId","type":"uint256"}],"name":"ERC721InsufficientApproval","type":"error"},{"inputs":[{"internalType":"address","name":"approver","type":"address"}],"name":"ERC721InvalidApprover","type":"error"},{"inputs":[{"internalType":"address","name":"operator","type":"address"}],"name":"ERC721InvalidOperator","type":"error"},{"inputs":[{"internalType":"address","name":"owner","type":"address"}],"name":"ERC721InvalidOwner","type":"error"},{"inputs":[{"internalType":"address","name":"receiver","type":"address"}],"name":"ERC721InvalidReceiver","type":"error"},{"inputs":[{"internalType":"address","name":"sender","type":"address"}],"name":"ERC721InvalidSender","type":"error"},{"inputs":[{"internalType":"uint256","name":"tokenId","type":"uint256"}],"name":"ERC721NonexistentToken","type":"error"},{"anonymous":false,"inputs":[{"indexed":false,"internalType":"uint256","name":"id","type":"uint256"},{"indexed":false,"internalType":"string","name":"actionType","type":"string"},{"indexed":true,"internalType":"address","name":"executor","type":"address"},{"indexed":false,"internalType":"uint256","name":"timestamp","type":"uint256"}],"name":"Action","type":"event"},{"anonymous":false,"inputs":[{"indexed":true,"internalType":"address","name":"owner","type":"address"},{"indexed":true,"internalType":"address","name":"approved","type":"address"},{"indexed":true,"internalType":"uint256","name":"tokenId","type":"uint256"}],"name":"Approval","type":"event"},{"anonymous":false,"inputs":[{"indexed":true,"internalType":"address","name":"owner","type":"address"},{"indexed":true,"internalType":"address","name":"operator","type":"address"},{"indexed":false,"internalType":"bool","name":"approved","type":"bool"}],"name":"ApprovalForAll","type":"event"},{"anonymous":false,"inputs":[{"indexed":false,"internalType":"uint256","name":"_fromTokenId","type":"uint256"},{"indexed":false,"internalType":"uint256","name":"_toTokenId","type":"uint256"}],"name":"BatchMetadataUpdate","type":"event"},{"anonymous":false,"inputs":[{"indexed":false,"internalType":"uint256","name":"_tokenId","type":"uint256"}],"name":"MetadataUpdate","type":"event"},{"anonymous":false,"inputs":[{"indexed":true,"internalType":"address","name":"from","type":"address"},{"indexed":true,"internalType":"address","name":"to","type":"address"},{"indexed":true,"internalType":"uint256","name":"tokenId","type":"uint256"}],"name":"Transfer","type":"event"},{"inputs":[{"internalType":"address","name":"","type":"address"}],"name":"CreatorExist","outputs":[{"internalType":"bool","name":"","type":"bool"}],"stateMutability":"view","type":"function"},{"inputs":[{"internalType":"address","name":"","type":"address"},{"internalType":"uint256","name":"","type":"uint256"}],"name":"UserOfNFTs","outputs":[{"internalType":"uint256","name":"","type":"uint256"}],"stateMutability":"view","type":"function"},{"inputs":[{"internalType":"address","name":"_newCreator","type":"address"}],"name":"addCreator","outputs":[],"stateMutability":"nonpayable","type":"function"},{"inputs":[{"internalType":"address","name":"to","type":"address"},{"internalType":"uint256","name":"tokenId","type":"uint256"}],"name":"approve","outputs":[],"stateMutability":"nonpayable","type":"function"},{"inputs":[{"internalType":"uint256","name":"id","type":"uint256"}],"name":"backProject","outputs":[{"internalType":"bool","name":"","type":"bool"}],"stateMutability":"payable","type":"function"},{"inputs":[],"name":"balance","outputs":[{"internalType":"uint256","name":"","type":"uint256"}],"stateMutability":"view","type":"function"},{"inputs":[{"internalType":"address","name":"owner","type":"address"}],"name":"balanceOf","outputs":[{"internalType":"uint256","name":"","type":"uint256"}],"stateMutability":"view","type":"function"},{"inputs":[{"internalType":"uint256","name":"_taxPct","type":"uint256"}],"name":"changeTax","outputs":[],"stateMutability":"nonpayable","type":"function"},{"inputs":[{"internalType":"string","name":"title","type":"string"},{"internalType":"string","name":"description","type":"string"},{"internalType":"string","name":"imageURL","type":"string"},{"internalType":"uint256","name":"cost","type":"uint256"},{"internalType":"uint256","name":"expiresAt","type":"uint256"}],"name":"createProject","outputs":[{"internalType":"bool","name":"","type":"bool"}],"stateMutability":"nonpayable","type":"function"},{"inputs":[{"internalType":"uint256","name":"id","type":"uint256"}],"name":"deleteProject","outputs":[{"internalType":"bool","name":"","type":"bool"}],"stateMutability":"nonpayable","type":"function"},{"inputs":[{"internalType":"uint256","name":"tokenId","type":"uint256"}],"name":"getApproved","outputs":[{"internalType":"address","name":"","type":"address"}],"stateMutability":"view","type":"function"},{"inputs":[{"internalType":"uint256","name":"id","type":"uint256"}],"name":"getBackers","outputs":[{"components":[{"internalType":"address","name":"owner","type":"address"},{"internalType":"uint256","name":"contributions","type":"uint256"},{"internalType":"uint256","name":"timestamp","type":"uint256"},{"internalType":"bool","name":"refunded","type":"bool"}],"internalType":"struct Genesis.backerStruct[]","name":"","type":"tuple[]"}],"stateMutability":"view","type":"function"},{"inputs":[{"internalType":"address","name":"_owner","type":"address"}],"name":"getNfts","outputs":[{"internalType":"string[]","name":"","type":"string[]"}],"stateMutability":"view","type":"function"},{"inputs":[{"internalType":"uint256","name":"id","type":"uint256"}],"name":"getProject","outputs":[{"components":[{"internalType":"uint256","name":"id","type":"uint256"},{"internalType":"address","name":"project","type":"address"},{"internalType":"address","name":"owner","type":"address"},{"internalType":"string","name":"title","type":"string"},{"internalType":"string","name":"description","type":"string"},{"internalType":"string","name":"imageURL","type":"string"},{"internalType":"uint256","name":"cost","type":"uint256"},{"internalType":"uint256","name":"raised","type":"uint256"},{"internalType":"uint256","name":"timestamp","type":"uint256"},{"internalType":"uint256","name":"expiresAt","type":"uint256"},{"internalType":"uint256","name":"backers","type":"uint256"},{"internalType":"enum Genesis.statusEnum","name":"status","type":"uint8"}],"internalType":"struct Genesis.projectStruct","name":"","type":"tuple"}],"stateMutability":"view","type":"function"},{"inputs":[],"name":"getProjects","outputs":[{"components":[{"internalType":"uint256","name":"id","type":"uint256"},{"internalType":"address","name":"project","type":"address"},{"internalType":"address","name":"owner","type":"address"},{"internalType":"string","name":"title","type":"string"},{"internalType":"string","name":"description","type":"string"},{"internalType":"string","name":"imageURL","type":"string"},{"internalType":"uint256","name":"cost","type":"uint256"},{"internalType":"uint256","name":"raised","type":"uint256"},{"internalType":"uint256","name":"timestamp","type":"uint256"},{"internalType":"uint256","name":"expiresAt","type":"uint256"},{"internalType":"uint256","name":"backers","type":"uint256"},{"internalType":"enum Genesis.statusEnum","name":"status","type":"uint8"}],"internalType":"struct Genesis.projectStruct[]","name":"","type":"tuple[]"}],"stateMutability":"view","type":"function"},{"inputs":[{"internalType":"address","name":"addr","type":"address"}],"name":"isAppOwner","outputs":[{"internalType":"bool","name":"","type":"bool"}],"stateMutability":"view","type":"function"},{"inputs":[],"name":"isAppOwner","outputs":[{"internalType":"bool","name":"","type":"bool"}],"stateMutability":"view","type":"function"},{"inputs":[{"internalType":"address","name":"owner","type":"address"},{"internalType":"address","name":"operator","type":"address"}],"name":"isApprovedForAll","outputs":[{"internalType":"bool","name":"","type":"bool"}],"stateMutability":"view","type":"function"},{"inputs":[{"internalType":"address","name":"addr","type":"address"}],"name":"isCreator","outputs":[{"internalType":"bool","name":"","type":"bool"}],"stateMutability":"view","type":"function"},{"inputs":[],"name":"name","outputs":[{"internalType":"string","name":"","type":"string"}],"stateMutability":"view","type":"function"},{"inputs":[],"name":"owner","outputs":[{"internalType":"address","name":"","type":"address"}],"stateMutability":"view","type":"function"},{"inputs":[{"internalType":"uint256","name":"tokenId","type":"uint256"}],"name":"ownerOf","outputs":[{"internalType":"address","name":"","type":"address"}],"stateMutability":"view","type":"function"},{"inputs":[{"internalType":"uint256","name":"id","type":"uint256"}],"name":"payOutProject","outputs":[{"internalType":"bool","name":"","type":"bool"}],"stateMutability":"nonpayable","type":"function"},{"inputs":[],"name":"projectCount","outputs":[{"internalType":"uint256","name":"","type":"uint256"}],"stateMutability":"view","type":"function"},{"inputs":[{"internalType":"uint256","name":"","type":"uint256"}],"name":"projectExist","outputs":[{"internalType":"bool","name":"","type":"bool"}],"stateMutability":"view","type":"function"},{"inputs":[{"internalType":"uint256","name":"","type":"uint256"},{"internalType":"uint256","name":"","type":"uint256"}],"name":"projectOfNFTs","outputs":[{"internalType":"uint256","name":"","type":"uint256"}],"stateMutability":"view","type":"function"},{"inputs":[],"name":"projectTax","outputs":[{"internalType":"uint256","name":"","type":"uint256"}],"stateMutability":"view","type":"function"},{"inputs":[{"internalType":"uint256","name":"id","type":"uint256"}],"name":"requestRefund","outputs":[{"internalType":"bool","name":"","type":"bool"}],"stateMutability":"nonpayable","type":"function"},{"inputs":[{"internalType":"address","name":"from","type":"address"},{"internalType":"address","name":"to","type":"address"},{"internalType":"uint256","name":"tokenId","type":"uint256"}],"name":"safeTransferFrom","outputs":[],"stateMutability":"nonpayable","type":"function"},{"inputs":[{"internalType":"address","name":"from","type":"address"},{"internalType":"address","name":"to","type":"address"},{"internalType":"uint256","name":"tokenId","type":"uint256"},{"internalType":"bytes","name":"data","type":"bytes"}],"name":"safeTransferFrom","outputs":[],"stateMutability":"nonpayable","type":"function"},{"inputs":[{"internalType":"address","name":"operator","type":"address"},{"internalType":"bool","name":"approved","type":"bool"}],"name":"setApprovalForAll","outputs":[],"stateMutability":"nonpayable","type":"function"},{"inputs":[{"internalType":"uint256","name":"id","type":"uint256"}],"name":"startProject","outputs":[{"internalType":"bool","name":"","type":"bool"}],"stateMutability":"nonpayable","type":"function"},{"inputs":[],"name":"stats","outputs":[{"internalType":"uint256","name":"totalProject","type":"uint256"},{"internalType":"uint256","name":"totalBacking","type":"uint256"},{"internalType":"uint256","name":"totalDonations","type":"uint256"}],"stateMutability":"view","type":"function"},{"inputs":[{"internalType":"bytes4","name":"interfaceId","type":"bytes4"}],"name":"supportsInterface","outputs":[{"internalType":"bool","name":"","type":"bool"}],"stateMutability":"view","type":"function"},{"inputs":[],"name":"symbol","outputs":[{"internalType":"string","name":"","type":"string"}],"stateMutability":"view","type":"function"},{"inputs":[],"name":"tokenCounter","outputs":[{"internalType":"uint256","name":"","type":"uint256"}],"stateMutability":"view","type":"function"},{"inputs":[{"internalType":"uint256","name":"tokenId","type":"uint256"}],"name":"tokenURI","outputs":[{"internalType":"string","name":"","type":"string"}],"stateMutability":"view","type":"function"},{"inputs":[{"internalType":"address","name":"from","type":"address"},{"internalType":"address","name":"to","type":"address"},{"internalType":"uint256","name":"tokenId","type":"uint256"}],"name":"transferFrom","outputs":[],"stateMutability":"nonpayable","type":"function"},{"inputs":[{"internalType":"uint256","name":"id","type":"uint256"},{"internalType":"string","name":"title","type":"string"},{"internalType":"string","name":"description","type":"string"},{"internalType":"string","name":"imageURL","type":"string"},{"internalType":"uint256","name":"expiresAt","type":"uint256"}],"name":"updateProject","outputs":[{"internalType":"bool","name":"","type":"bool"}],"stateMutability":"nonpayable","type":"function"}],"evm":{"bytecode":{"linkReferences":{},"object":"608060405234801561001057600080fd5b50604051613f07380380613f0783398101604081905261002f916100ab565b60405180604001604052806008815260200167139d1c1d519d5b9960c21b815250604051806040016040528060048152602001634e54505560e01b815250816000908161007c9190610163565b5060016100898282610163565b50506000600b5550600780546001600160a01b03191633179055600855610221565b6000602082840312156100bd57600080fd5b5051919050565b634e487b7160e01b600052604160045260246000fd5b600181811c908216806100ee57607f821691505b60208210810361010e57634e487b7160e01b600052602260045260246000fd5b50919050565b601f82111561015e57806000526020600020601f840160051c8101602085101561013b5750805b601f840160051c820191505b8181101561015b5760008155600101610147565b50505b505050565b81516001600160401b0381111561017c5761017c6100c4565b6101908161018a84546100da565b84610114565b6020601f8211600181146101c457600083156101ac5750848201515b600019600385901b1c1916600184901b17845561015b565b600084815260208120601f198516915b828110156101f457878501518255602094850194600190920191016101d4565b50848210156102125786840151600019600387901b60f8161c191681555b50505050600190811b01905550565b613cd7806102306000396000f3fe6080604052600436106102305760003560e01c80639a3fa8c71161012e578063ca766f64116100ab578063e985e9c51161006f578063e985e9c5146106c9578063efd46065146106e9578063f0f3f2c814610722578063f62bf2de1461074f578063f7767c931461076f57600080fd5b8063ca766f6414610621578063d082e38114610641578063d24cd3ec14610657578063d80528ae1461066d578063dcc60128146106a757600080fd5b8063b69ef8a8116100f2578063b69ef8a81461057e578063b88d4fde14610594578063c1ada37e146105b4578063c87b56dd146105d4578063c9168b72146105f457600080fd5b80639a3fa8c7146104eb5780639f39a1941461050b578063a22cb4651461051e578063a4b2409e1461053e578063b531dcba1461055e57600080fd5b80633d061498116101bc5780636352211e116101805780636352211e1461044657806370a08231146104665780638593054b146104865780638da5cb5b146104b657806395d89b41146104d657600080fd5b80633d061498146103995780633e45c8af146103b957806342842e0e146103d957806344cc2afe146103f95780634cd0cb281461042657600080fd5b8063095ea7b311610203578063095ea7b3146102e45780631453d4821461030657806323b872dd1461033557806336fbad26146103555780633b9dce051461037957600080fd5b806301ffc9a714610235578063056c29ee1461026a57806306fdde031461028a578063081812fc146102ac575b600080fd5b34801561024157600080fd5b506102556102503660046131f7565b61079f565b60405190151581526020015b60405180910390f35b34801561027657600080fd5b506102556102853660046132c4565b6107b0565b34801561029657600080fd5b5061029f610c81565b60405161026191906133ba565b3480156102b857600080fd5b506102cc6102c73660046133cd565b610d13565b6040516001600160a01b039091168152602001610261565b3480156102f057600080fd5b506103046102ff3660046133fd565b610d3c565b005b34801561031257600080fd5b50610255610321366004613427565b6007546001600160a01b0391821691161490565b34801561034157600080fd5b50610304610350366004613442565b610d4b565b34801561036157600080fd5b5061036b60095481565b604051908152602001610261565b34801561038557600080fd5b50610304610394366004613427565b610dd6565b3480156103a557600080fd5b5061036b6103b436600461347f565b610ea2565b3480156103c557600080fd5b506103046103d43660046133cd565b610ed3565b3480156103e557600080fd5b506103046103f4366004613442565b610f28565b34801561040557600080fd5b50610419610414366004613427565b610f48565b60405161026191906134a1565b34801561043257600080fd5b506102556104413660046133cd565b611042565b34801561045257600080fd5b506102cc6104613660046133cd565b6111ab565b34801561047257600080fd5b5061036b610481366004613427565b6111b6565b34801561049257600080fd5b506102556104a13660046133cd565b60126020526000908152604090205460ff1681565b3480156104c257600080fd5b506007546102cc906001600160a01b031681565b3480156104e257600080fd5b5061029f6111fe565b3480156104f757600080fd5b50610255610506366004613506565b61120d565b6102556105193660046133cd565b6114df565b34801561052a57600080fd5b506103046105393660046135ac565b611886565b34801561054a57600080fd5b506102556105593660046133cd565b611891565b34801561056a57600080fd5b506102556105793660046133cd565b611988565b34801561058a57600080fd5b5061036b600a5481565b3480156105a057600080fd5b506103046105af3660046135e8565b611a50565b3480156105c057600080fd5b5061036b6105cf3660046133fd565b611a67565b3480156105e057600080fd5b5061029f6105ef3660046133cd565b611a83565b34801561060057600080fd5b5061061461060f3660046133cd565b611a8e565b6040516102619190613664565b34801561062d57600080fd5b506007546001600160a01b03163314610255565b34801561064d57600080fd5b5061036b600b5481565b34801561066357600080fd5b5061036b60085481565b34801561067957600080fd5b50600c54600d54600e5461068c92919083565b60408051938452602084019290925290820152606001610261565b3480156106b357600080fd5b506106bc611b55565b60405161026191906137e6565b3480156106d557600080fd5b506102556106e436600461383f565b611e00565b3480156106f557600080fd5b50610255610704366004613427565b6001600160a01b031660009081526013602052604090205460ff1690565b34801561072e57600080fd5b5061074261073d3660046133cd565b611e2e565b6040516102619190613872565b34801561075b57600080fd5b5061025561076a3660046133cd565b6120e4565b34801561077b57600080fd5b5061025561078a366004613427565b60136020526000908152604090205460ff1681565b60006107aa82612231565b92915050565b3360009081526013602052604081205460ff16806107d857506007546001600160a01b031633145b6107fd5760405162461bcd60e51b81526004016107f490613885565b60405180910390fd5b60008651116108465760405162461bcd60e51b81526020600482015260156024820152745469746c652063616e6e6f7420626520656d70747960581b60448201526064016107f4565b60008551116108975760405162461bcd60e51b815260206004820152601b60248201527f4465736372697074696f6e2063616e6e6f7420626520656d707479000000000060448201526064016107f4565b60008451116108e35760405162461bcd60e51b8152602060048201526018602482015277496d61676555524c2063616e6e6f7420626520656d70747960401b60448201526064016107f4565b600083116109295760405162461bcd60e51b8152602060048201526013602482015272436f73742063616e6e6f74206265207a65726f60681b60448201526064016107f4565b61093161315b565b60095481523360408201908152606082018881526080830188905260a0830187905260c08301869052426101008401526101208301859052600f805460018101825560009190915283517f8d1108e10bcb7c27dddfc02ed9d693a074039d026cf4ea4240b40f7d581ac802600c90920291820190815560208501517f8d1108e10bcb7c27dddfc02ed9d693a074039d026cf4ea4240b40f7d581ac803830180546001600160a01b03199081166001600160a01b039384161790915594517f8d1108e10bcb7c27dddfc02ed9d693a074039d026cf4ea4240b40f7d581ac8048401805490961691161790935590518392917f8d1108e10bcb7c27dddfc02ed9d693a074039d026cf4ea4240b40f7d581ac8050190610a4e908261393d565b5060808201516004820190610a63908261393d565b5060a08201516005820190610a78908261393d565b5060c0820151600682015560e0820151600782015561010082015160088201556101208201516009820155610140820151600a820155610160820151600b8201805460ff19166001836005811115610ad257610ad26136d5565b0217905550506009546000908152601260209081526040808320805460ff191660019081179091553384526010835281842080548083018255908552938390208651600c909502019384559185015191830180546001600160a01b039384166001600160a01b0319918216179091559085015160028401805491909316911617905560608301518392506003820190610b6b908261393d565b5060808201516004820190610b80908261393d565b5060a08201516005820190610b95908261393d565b5060c0820151600682015560e0820151600782015561010082015160088201556101208201516009820155610140820151600a820155610160820151600b8201805460ff19166001836005811115610bef57610bef6136d5565b021790555050506001600c6000016000828254610c0c9190613a12565b9091555050600980543391600080516020613c8283398151915291906000610c3383613a25565b9091555060408051918252606060208301819052600e908301526d50524f4a4543542043524541544560901b6080830152429082015260a00160405180910390a25060019695505050505050565b606060008054610c90906138bc565b80601f0160208091040260200160405190810160405280929190818152602001828054610cbc906138bc565b8015610d095780601f10610cde57610100808354040283529160200191610d09565b820191906000526020600020905b815481529060010190602001808311610cec57829003601f168201915b5050505050905090565b6000610d1e82612256565b506000828152600460205260409020546001600160a01b03166107aa565b610d4782823361228f565b5050565b6001600160a01b038216610d7557604051633250574960e11b8152600060048201526024016107f4565b6000610d8283833361229c565b9050836001600160a01b0316816001600160a01b031614610dd0576040516364283d7b60e01b81526001600160a01b03808616600483015260248201849052821660448201526064016107f4565b50505050565b6007546001600160a01b03163314610e265760405162461bcd60e51b81526020600482015260136024820152724f776e6572207265736572766564206f6e6c7960681b60448201526064016107f4565b6001600160a01b038116600090815260136020526040808220805460ff19166001179055513391600080516020613c8283398151915291610e9791904290918252606060208301819052600d908301526c10d491505513d4881051111151609a1b6080830152604082015260a00190565b60405180910390a250565b60146020528160005260406000208181548110610ebe57600080fd5b90600052602060002001600091509150505481565b6007546001600160a01b03163314610f235760405162461bcd60e51b81526020600482015260136024820152724f776e6572207265736572766564206f6e6c7960681b60448201526064016107f4565b600855565b610f4383838360405180602001604052806000815250611a50565b505050565b6001600160a01b0381166000908152601560205260408120546060918167ffffffffffffffff811115610f7d57610f7d613214565b604051908082528060200260200182016040528015610fb057816020015b6060815260200190600190039081610f9b5790505b50905060005b6001600160a01b03851660009081526015602052604090205481101561103a576001600160a01b0385166000908152601560205260409020805461101591908390811061100557611005613a3e565b9060005260206000200154611a83565b82828151811061102757611027613a3e565b6020908102919091010152600101610fb6565b509392505050565b3360009081526013602052604081205460ff168061106a57506007546001600160a01b031633145b6110865760405162461bcd60e51b81526004016107f490613885565b60008281526012602052604090205460ff166110b45760405162461bcd60e51b81526004016107f490613a54565b600f82815481106110c7576110c7613a3e565b60009182526020909120600c90910201600201546001600160a01b031633146111025760405162461bcd60e51b81526004016107f490613a7f565b6003600f838154811061111757611117613a3e565b60009182526020909120600b600c9092020101805460ff19166001836005811115611144576111446136d5565b021790555061115282612395565b60408051838152606060208201819052600f908201526e141493d29150d50811115311551151608a1b6080820152428183015290513391600080516020613c82833981519152919081900360a00190a25060015b919050565b60006107aa82612256565b60006001600160a01b0382166111e2576040516322718ad960e21b8152600060048201526024016107f4565b506001600160a01b031660009081526003602052604090205490565b606060018054610c90906138bc565b3360009081526013602052604081205460ff168061123557506007546001600160a01b031633145b6112515760405162461bcd60e51b81526004016107f490613885565b60008681526012602052604090205460ff1661127f5760405162461bcd60e51b81526004016107f490613a54565b600f868154811061129257611292613a3e565b60009182526020909120600c90910201600201546001600160a01b031633146112cd5760405162461bcd60e51b81526004016107f490613a7f565b60008551116113165760405162461bcd60e51b81526020600482015260156024820152745469746c652063616e6e6f7420626520656d70747960581b60448201526064016107f4565b60008451116113675760405162461bcd60e51b815260206004820152601b60248201527f4465736372697074696f6e2063616e6e6f7420626520656d707479000000000060448201526064016107f4565b60008351116113b35760405162461bcd60e51b8152602060048201526018602482015277496d61676555524c2063616e6e6f7420626520656d70747960401b60448201526064016107f4565b84600f87815481106113c7576113c7613a3e565b90600052602060002090600c020160030190816113e4919061393d565b5083600f87815481106113f9576113f9613a3e565b90600052602060002090600c02016004019081611416919061393d565b5082600f878154811061142b5761142b613a3e565b90600052602060002090600c02016005019081611448919061393d565b5081600f878154811061145d5761145d613a3e565b90600052602060002090600c020160090181905550336001600160a01b0316600080516020613c8283398151915287426040516114cb929190918252606060208301819052600f908301526e141493d29150d50815541110551151608a1b6080830152604082015260a00190565b60405180910390a250600195945050505050565b60008034116115305760405162461bcd60e51b815260206004820152601f60248201527f4574686572206d7573742062652067726561746572207468616e207a65726f0060448201526064016107f4565b60008281526012602052604090205460ff1661155e5760405162461bcd60e51b81526004016107f490613a54565b6000600f838154811061157357611573613a3e565b60009182526020909120600b600c90920201015460ff16600581111561159b5761159b6136d5565b146115de5760405162461bcd60e51b8152602060048201526013602482015272283937b532b1ba1034b9903737ba1037b832b760691b60448201526064016107f4565b6001600c60010160008282546115f49190613a12565b9091555050600e805434919060009061160e908490613a12565b9250508190555034600f838154811061162957611629613a3e565b90600052602060002090600c020160070160008282546116499190613a12565b925050819055506001600f838154811061166557611665613a3e565b90600052602060002090600c0201600a0160008282546116859190613a12565b9091555050600082815260116020908152604080832081516080808201845233808352348387019081524284870181815260608087018b8152885460018082018b55998d529b8b902097516004909c0290970180546001600160a01b0319166001600160a01b03909c169b909b178b559251968a01969096559451600289015592516003909701805460ff1916971515979097179096558351888152948501829052600e918501919091526d141493d29150d508109050d2d15160921b9084015290820152600080516020613c828339815191529060a00160405180910390a2600f828154811061177857611778613a3e565b90600052602060002090600c020160060154600f838154811061179d5761179d613a3e565b90600052602060002090600c02016007015410611803576001600f83815481106117c9576117c9613a3e565b60009182526020909120600b600c9092020101805460ff191660018360058111156117f6576117f66136d5565b0217905550600192915050565b600f828154811061181657611816613a3e565b90600052602060002090600c020160090154421061187e576002600f838154811061184357611843613a3e565b60009182526020909120600b600c9092020101805460ff19166001836005811115611870576118706136d5565b021790555061187e82612395565b506001919050565b610d4733838361252f565b60006002600f83815481106118a8576118a8613a3e565b60009182526020909120600b600c90920201015460ff1660058111156118d0576118d06136d5565b14158061191857506003600f83815481106118ed576118ed613a3e565b60009182526020909120600b600c90920201015460ff166005811115611915576119156136d5565b14155b6119735760405162461bcd60e51b815260206004820152602660248201527f50726f6a65637420686173206d61726b656420617320726576657274206f722060448201526564656c65746560d01b60648201526084016107f4565b6002600f838154811061184357611843613a3e565b60006001600f838154811061199f5761199f613a3e565b60009182526020909120600b600c90920201015460ff1660058111156119c7576119c76136d5565b146119e45760405162461bcd60e51b81526004016107f490613aac565b600f82815481106119f7576119f7613a3e565b60009182526020909120600c90910201600201546001600160a01b0316331480611a2b57506007546001600160a01b031633145b611a475760405162461bcd60e51b81526004016107f490613a7f565b61187e826125ce565b611a5b848484610d4b565b610dd084848484612744565b60156020528160005260406000208181548110610ebe57600080fd5b60606107aa8261286d565b60008181526012602052604090205460609060ff16611abf5760405162461bcd60e51b81526004016107f490613a54565b600082815260116020908152604080832080548251818502810185019093528083529193909284015b82821015611b4a576000848152602090819020604080516080810182526004860290920180546001600160a01b03168352600180820154848601526002820154928401929092526003015460ff16151560608301529083529092019101611ae8565b505050509050919050565b6060600f805480602002602001604051908101604052809291908181526020016000905b82821015611df75760008481526020908190206040805161018081018252600c86029092018054835260018101546001600160a01b0390811694840194909452600281015490931690820152600382018054919291606084019190611bdd906138bc565b80601f0160208091040260200160405190810160405280929190818152602001828054611c09906138bc565b8015611c565780601f10611c2b57610100808354040283529160200191611c56565b820191906000526020600020905b815481529060010190602001808311611c3957829003601f168201915b50505050508152602001600482018054611c6f906138bc565b80601f0160208091040260200160405190810160405280929190818152602001828054611c9b906138bc565b8015611ce85780601f10611cbd57610100808354040283529160200191611ce8565b820191906000526020600020905b815481529060010190602001808311611ccb57829003601f168201915b50505050508152602001600582018054611d01906138bc565b80601f0160208091040260200160405190810160405280929190818152602001828054611d2d906138bc565b8015611d7a5780601f10611d4f57610100808354040283529160200191611d7a565b820191906000526020600020905b815481529060010190602001808311611d5d57829003601f168201915b505050918352505060068201546020820152600782015460408201526008820154606082015260098201546080820152600a82015460a0820152600b82015460c09091019060ff166005811115611dd357611dd36136d5565b6005811115611de457611de46136d5565b8152505081526020019060010190611b79565b50505050905090565b6001600160a01b03918216600090815260056020908152604080832093909416825291909152205460ff1690565b611e3661315b565b60008281526012602052604090205460ff16611e645760405162461bcd60e51b81526004016107f490613a54565b600f8281548110611e7757611e77613a3e565b60009182526020918290206040805161018081018252600c9093029091018054835260018101546001600160a01b0390811694840194909452600281015490931690820152600382018054919291606084019190611ed4906138bc565b80601f0160208091040260200160405190810160405280929190818152602001828054611f00906138bc565b8015611f4d5780601f10611f2257610100808354040283529160200191611f4d565b820191906000526020600020905b815481529060010190602001808311611f3057829003601f168201915b50505050508152602001600482018054611f66906138bc565b80601f0160208091040260200160405190810160405280929190818152602001828054611f92906138bc565b8015611fdf5780601f10611fb457610100808354040283529160200191611fdf565b820191906000526020600020905b815481529060010190602001808311611fc257829003601f168201915b50505050508152602001600582018054611ff8906138bc565b80601f0160208091040260200160405190810160405280929190818152602001828054612024906138bc565b80156120715780601f1061204657610100808354040283529160200191612071565b820191906000526020600020905b81548152906001019060200180831161205457829003601f168201915b505050918352505060068201546020820152600782015460408201526008820154606082015260098201546080820152600a82015460a0820152600b82015460c09091019060ff1660058111156120ca576120ca6136d5565b60058111156120db576120db6136d5565b90525092915050565b3360009081526013602052604081205460ff168061210c57506007546001600160a01b031633145b6121285760405162461bcd60e51b81526004016107f490613885565b60008281526012602052604090205460ff166121565760405162461bcd60e51b81526004016107f490613a54565b6001600f838154811061216b5761216b613a3e565b60009182526020909120600b600c90920201015460ff166005811115612193576121936136d5565b146121b05760405162461bcd60e51b81526004016107f490613aac565b600f82815481106121c3576121c3613a3e565b60009182526020909120600c90910201600201546001600160a01b03163314806121f757506007546001600160a01b031633145b6122135760405162461bcd60e51b81526004016107f490613a7f565b61221c8261297e565b6004600f83815481106117c9576117c9613a3e565b60006001600160e01b03198216632483248360e11b14806107aa57506107aa82612bde565b6000818152600260205260408120546001600160a01b0316806107aa57604051637e27328960e01b8152600481018490526024016107f4565b610f438383836001612c2e565b6000828152600260205260408120546001600160a01b03908116908316156122c9576122c9818486612d34565b6001600160a01b03811615612307576122e6600085600080612c2e565b6001600160a01b038116600090815260036020526040902080546000190190555b6001600160a01b03851615612336576001600160a01b0385166000908152600360205260409020805460010190555b60008481526002602052604080822080546001600160a01b0319166001600160a01b0389811691821790925591518793918516917fddf252ad1be2c89b69c2b068fc378daa952ba7f163c4a11628f55a4df523b3ef91a4949350505050565b60005b600082815260116020526040902054811015610d475760008281526011602052604081208054839081106123ce576123ce613a3e565b6000918252602080832060049092029091015485835260119091526040822080546001600160a01b039092169350908490811061240d5761240d613a3e565b9060005260206000209060040201600101549050600160116000868152602001908152602001600020848154811061244757612447613a3e565b906000526020600020906004020160030160006101000a81548160ff0219169083151502179055504260116000868152602001908152602001600020848154811061249457612494613a3e565b9060005260206000209060040201600201819055506124b38282612d98565b80600f85815481106124c7576124c7613a3e565b90600052602060002090600c020160070160008282546124e79190613ae3565b9091555050600d805460019190600090612502908490613ae3565b9091555050600e805482919060009061251c908490613ae3565b9091555050600190920191506123989050565b6001600160a01b03821661256157604051630b61174360e31b81526001600160a01b03831660048201526024016107f4565b6001600160a01b03838116600081815260056020908152604080832094871680845294825291829020805460ff191686151590811790915591519182527f17307eab39ab6107e8899845ad3d59bd9653f200f220920489ca2b5937696c31910160405180910390a3505050565b6000600f82815481106125e3576125e3613a3e565b90600052602060002090600c020160070154905060006064600854836126099190613af6565b6126139190613b0d565b90506005600f848154811061262a5761262a613a3e565b60009182526020909120600b600c9092020101805460ff19166001836005811115612657576126576136d5565b0217905550600754612672906001600160a01b031682612d98565b6126b4600f848154811061268857612688613a3e565b600091825260209091206002600c9092020101546001600160a01b03166126af8385613ae3565b612d98565b600f83815481106126c7576126c7613a3e565b90600052602060002090600c020160070154600a60008282546126ea9190613ae3565b909155505060408051848152606060208201819052600f908201526e141493d29150d5081410525113d555608a1b6080820152428183015290513391600080516020613c82833981519152919081900360a00190a2505050565b6001600160a01b0383163b15610dd057604051630a85bd0160e11b81526001600160a01b0384169063150b7a0290612786903390889087908790600401613b2f565b6020604051808303816000875af19250505080156127c1575060408051601f3d908101601f191682019092526127be91810190613b6c565b60015b61282a573d8080156127ef576040519150601f19603f3d011682016040523d82523d6000602084013e6127f4565b606091505b50805160000361282257604051633250574960e11b81526001600160a01b03851660048201526024016107f4565b805181602001fd5b6001600160e01b03198116630a85bd0160e11b1461286657604051633250574960e11b81526001600160a01b03851660048201526024016107f4565b5050505050565b606061287882612256565b5060008281526006602052604081208054612892906138bc565b80601f01602080910402602001604051908101604052809291908181526020018280546128be906138bc565b801561290b5780601f106128e05761010080835404028352916020019161290b565b820191906000526020600020905b8154815290600101906020018083116128ee57829003601f168201915b50505050509050600061292960408051602081019091526000815290565b9050805160000361293b575092915050565b81511561296d578082604051602001612955929190613b89565b60405160208183030381529060405292505050919050565b61297684612df8565b949350505050565b60008181526012602052604090205460ff166129ac5760405162461bcd60e51b81526004016107f490613a54565b6001600f82815481106129c1576129c1613a3e565b60009182526020909120600b600c90920201015460ff1660058111156129e9576129e96136d5565b14612a065760405162461bcd60e51b81526004016107f490613aac565b600081815260116020908152604080832080548251818502810185019093528083529192909190849084015b82821015612a94576000848152602090819020604080516080810182526004860290920180546001600160a01b03168352600180820154848601526002820154928401929092526003015460ff16151560608301529083529092019101612a32565b50505050905060005b8151811015612b8d576000828281518110612aba57612aba613a3e565b60200260200101516000015190506000600f8581548110612add57612add613a3e565b90600052602060002090600c0201600301600f8681548110612b0157612b01613a3e565b90600052602060002090600c0201600501604051602001612b23929190613c2a565b60405160208183030381529060405290506000612b408383612e6d565b6000878152601460209081526040808320805460018181018355918552838520018590556001600160a01b0390971683526015825282208054808801825590835291200155505001612a9d565b5060408051838152606060208201819052600b908201526a1391951cc813525395115160aa1b6080820152428183015290513391600080516020613c82833981519152919081900360a00190a25050565b60006001600160e01b031982166380ac58cd60e01b1480612c0f57506001600160e01b03198216635b5e139f60e01b145b806107aa57506301ffc9a760e01b6001600160e01b03198316146107aa565b8080612c4257506001600160a01b03821615155b15612d04576000612c5284612256565b90506001600160a01b03831615801590612c7e5750826001600160a01b0316816001600160a01b031614155b8015612c915750612c8f8184611e00565b155b15612cba5760405163a9fbf51f60e01b81526001600160a01b03841660048201526024016107f4565b8115612d025783856001600160a01b0316826001600160a01b03167f8c5be1e5ebec7d5bd14f71427d1e84f3dd0314c0f7b2291e5b200ac8c7c3b92560405160405180910390a45b505b5050600090815260046020526040902080546001600160a01b0319166001600160a01b0392909216919091179055565b612d3f838383612ea7565b610f43576001600160a01b038316612d6d57604051637e27328960e01b8152600481018290526024016107f4565b60405163177e802f60e01b81526001600160a01b0383166004820152602481018290526044016107f4565b6000826001600160a01b03168260405160006040518083038185875af1925050503d8060008114612de5576040519150601f19603f3d011682016040523d82523d6000602084013e612dea565b606091505b5050905080610f4357600080fd5b6060612e0382612256565b506000612e1b60408051602081019091526000815290565b90506000815111612e3b5760405180602001604052806000815250612e66565b80612e4584612f0a565b604051602001612e56929190613b89565b6040516020818303038152906040525b9392505050565b600b54600090612e7d8482612f9d565b612e878184612fb7565b6001600b6000828254612e9a9190613a12565b9091555090949350505050565b60006001600160a01b038316158015906129765750826001600160a01b0316846001600160a01b03161480612ee15750612ee18484611e00565b806129765750506000908152600460205260409020546001600160a01b03908116911614919050565b60606000612f1783613007565b600101905060008167ffffffffffffffff811115612f3757612f37613214565b6040519080825280601f01601f191660200182016040528015612f61576020820181803683370190505b5090508181016020015b600019016f181899199a1a9b1b9c1cb0b131b232b360811b600a86061a8153600a8504945084612f6b57509392505050565b610d478282604051806020016040528060008152506130df565b6000828152600660205260409020612fcf828261393d565b506040518281527ff8e1a15aba9398e019f0b49df1a4fde98ee17ae345cb5f6b5e2c27f5033e8ce79060200160405180910390a15050565b60008072184f03e93ff9f4daa797ed6e38ed64bf6a1f0160401b83106130465772184f03e93ff9f4daa797ed6e38ed64bf6a1f0160401b830492506040015b6d04ee2d6d415b85acef81000000008310613072576d04ee2d6d415b85acef8100000000830492506020015b662386f26fc10000831061309057662386f26fc10000830492506010015b6305f5e10083106130a8576305f5e100830492506008015b61271083106130bc57612710830492506004015b606483106130ce576064830492506002015b600a83106107aa5760010192915050565b6130e983836130f6565b610f436000848484612744565b6001600160a01b03821661312057604051633250574960e11b8152600060048201526024016107f4565b600061312e8383600061229c565b90506001600160a01b03811615610f43576040516339e3563760e11b8152600060048201526024016107f4565b6040518061018001604052806000815260200160006001600160a01b0316815260200160006001600160a01b031681526020016060815260200160608152602001606081526020016000815260200160008152602001600081526020016000815260200160008152602001600060058111156131d9576131d96136d5565b905290565b6001600160e01b0319811681146131f457600080fd5b50565b60006020828403121561320957600080fd5b8135612e66816131de565b634e487b7160e01b600052604160045260246000fd5b60008067ffffffffffffffff84111561324557613245613214565b50604051601f19601f85018116603f0116810181811067ffffffffffffffff8211171561327457613274613214565b60405283815290508082840185101561328c57600080fd5b83836020830137600060208583010152509392505050565b600082601f8301126132b557600080fd5b612e668383356020850161322a565b600080600080600060a086880312156132dc57600080fd5b853567ffffffffffffffff8111156132f357600080fd5b6132ff888289016132a4565b955050602086013567ffffffffffffffff81111561331c57600080fd5b613328888289016132a4565b945050604086013567ffffffffffffffff81111561334557600080fd5b613351888289016132a4565b9598949750949560608101359550608001359392505050565b60005b8381101561338557818101518382015260200161336d565b50506000910152565b600081518084526133a681602086016020860161336a565b601f01601f19169290920160200192915050565b602081526000612e66602083018461338e565b6000602082840312156133df57600080fd5b5035919050565b80356001600160a01b03811681146111a657600080fd5b6000806040838503121561341057600080fd5b613419836133e6565b946020939093013593505050565b60006020828403121561343957600080fd5b612e66826133e6565b60008060006060848603121561345757600080fd5b613460846133e6565b925061346e602085016133e6565b929592945050506040919091013590565b6000806040838503121561349257600080fd5b50508035926020909101359150565b6000602082016020835280845180835260408501915060408160051b86010192506020860160005b828110156134fa57603f198786030184526134e585835161338e565b945060209384019391909101906001016134c9565b50929695505050505050565b600080600080600060a0868803121561351e57600080fd5b85359450602086013567ffffffffffffffff81111561353c57600080fd5b613548888289016132a4565b945050604086013567ffffffffffffffff81111561356557600080fd5b613571888289016132a4565b935050606086013567ffffffffffffffff81111561358e57600080fd5b61359a888289016132a4565b95989497509295608001359392505050565b600080604083850312156135bf57600080fd5b6135c8836133e6565b9150602083013580151581146135dd57600080fd5b809150509250929050565b600080600080608085870312156135fe57600080fd5b613607856133e6565b9350613615602086016133e6565b925060408501359150606085013567ffffffffffffffff81111561363857600080fd5b8501601f8101871361364957600080fd5b6136588782356020840161322a565b91505092959194509250565b602080825282518282018190526000918401906040840190835b818110156136ca57835180516001600160a01b0316845260208082015181860152604080830151908601526060918201511515918501919091529093019260809092019160010161367e565b509095945050505050565b634e487b7160e01b600052602160045260246000fd5b6006811061370957634e487b7160e01b600052602160045260246000fd5b9052565b805182526000602082015161372d60208501826001600160a01b03169052565b50604082015161374860408501826001600160a01b03169052565b506060820151610180606085015261376461018085018261338e565b90506080830151848203608086015261377d828261338e565b91505060a083015184820360a0860152613797828261338e565b91505060c083015160c085015260e083015160e085015261010083015161010085015261012083015161012085015261014083015161014085015261016083015161103a6101608601826136eb565b6000602082016020835280845180835260408501915060408160051b86010192506020860160005b828110156134fa57603f1987860301845261382a85835161370d565b9450602093840193919091019060010161380e565b6000806040838503121561385257600080fd5b61385b836133e6565b9150613869602084016133e6565b90509250929050565b602081526000612e66602083018461370d565b6020808252601e908201527f43726561746f72204f72204f776e6572207265736572766564206f6e6c790000604082015260600190565b600181811c908216806138d057607f821691505b6020821081036138f057634e487b7160e01b600052602260045260246000fd5b50919050565b601f821115610f4357806000526020600020601f840160051c8101602085101561391d5750805b601f840160051c820191505b818110156128665760008155600101613929565b815167ffffffffffffffff81111561395757613957613214565b61396b8161396584546138bc565b846138f6565b6020601f82116001811461399f57600083156139875750848201515b600019600385901b1c1916600184901b178455612866565b600084815260208120601f198516915b828110156139cf57878501518255602094850194600190920191016139af565b50848210156139ed5786840151600019600387901b60f8161c191681555b50505050600190811b01905550565b634e487b7160e01b600052601160045260246000fd5b808201808211156107aa576107aa6139fc565b600060018201613a3757613a376139fc565b5060010190565b634e487b7160e01b600052603260045260246000fd5b602080825260119082015270141c9bda9958dd081b9bdd08199bdd5b99607a1b604082015260600190565b602080825260139082015272556e617574686f72697a656420456e7469747960681b604082015260600190565b6020808252601b908201527f50726f6a656374206973206e6f7420617070726f766564207965740000000000604082015260600190565b818103818111156107aa576107aa6139fc565b80820281158282048414176107aa576107aa6139fc565b600082613b2a57634e487b7160e01b600052601260045260246000fd5b500490565b6001600160a01b0385811682528416602082015260408101839052608060608201819052600090613b629083018461338e565b9695505050505050565b600060208284031215613b7e57600080fd5b8151612e66816131de565b60008351613b9b81846020880161336a565b835190830190613baf81836020880161336a565b01949350505050565b60008154613bc5816138bc565b600182168015613bdc5760018114613bf157613c21565b60ff1983168652811515820286019350613c21565b84600052602060002060005b83811015613c1957815488820152600190910190602001613bfd565b505081860193505b50505092915050565b6a3d913a34ba3632911d101160a91b81526000613c4a600b830185613bb8565b6f1116101134b6b0b3b2aaa926111d101160811b8152613c6d6010820185613bb8565b61227d60f01b81526002019594505050505056feaee8e5d3bbb2f71a951b5632cee20f7ac487b9f8ab4f66a236f7694b13af7c6aa2646970667358221220b6b1daaa3706420f7a9908a21e809de38fa4dd4b71c5aa04ae79d12fbf57f35b64736f6c634300081a0033","opcodes":"PUSH1 0x80 PUSH1 0x40 MSTORE CALLVALUE DUP1 ISZERO PUSH2 0x10 JUMPI PUSH1 0x0 DUP1 REVERT JUMPDEST POP PUSH1 0x40 MLOAD PUSH2 0x3F07 CODESIZE SUB DUP1 PUSH2 0x3F07 DUP4 CODECOPY DUP2 ADD PUSH1 0x40 DUP2 SWAP1 MSTORE PUSH2 0x2F SWAP2 PUSH2 0xAB JUMP JUMPDEST PUSH1 0x40 MLOAD DUP1 PUSH1 0x40 ADD PUSH1 0x40 MSTORE DUP1 PUSH1 0x8 DUP2 MSTORE PUSH1 0x20 ADD PUSH8 0x139D1C1D519D5B99 PUSH1 0xC2 SHL DUP2 MSTORE POP PUSH1 0x40 MLOAD DUP1 PUSH1 0x40 ADD PUSH1 0x40 MSTORE DUP1 PUSH1 0x4 DUP2 MSTORE PUSH1 0x20 ADD PUSH4 0x4E545055 PUSH1 0xE0 SHL DUP2 MSTORE POP DUP2 PUSH1 0x0 SWAP1 DUP2 PUSH2 0x7C SWAP2 SWAP1 PUSH2 0x163 JUMP JUMPDEST POP PUSH1 0x1 PUSH2 0x89 DUP3 DUP3 PUSH2 0x163 JUMP JUMPDEST POP POP PUSH1 0x0 PUSH1 0xB SSTORE POP PUSH1 0x7 DUP1 SLOAD PUSH1 0x1 PUSH1 0x1 PUSH1 0xA0 SHL SUB NOT AND CALLER OR SWAP1 SSTORE PUSH1 0x8 SSTORE PUSH2 0x221 JUMP JUMPDEST PUSH1 0x0 PUSH1 0x20 DUP3 DUP5 SUB SLT ISZERO PUSH2 0xBD JUMPI PUSH1 0x0 DUP1 REVERT JUMPDEST POP MLOAD SWAP2 SWAP1 POP JUMP JUMPDEST PUSH4 0x4E487B71 PUSH1 0xE0 SHL PUSH1 0x0 MSTORE PUSH1 0x41 PUSH1 0x4 MSTORE PUSH1 0x24 PUSH1 0x0 REVERT JUMPDEST PUSH1 0x1 DUP2 DUP2 SHR SWAP1 DUP3 AND DUP1 PUSH2 0xEE JUMPI PUSH1 0x7F DUP3 AND SWAP2 POP JUMPDEST PUSH1 0x20 DUP3 LT DUP2 SUB PUSH2 0x10E JUMPI PUSH4 0x4E487B71 PUSH1 0xE0 SHL PUSH1 0x0 MSTORE PUSH1 0x22 PUSH1 0x4 MSTORE PUSH1 0x24 PUSH1 0x0 REVERT JUMPDEST POP SWAP2 SWAP1 POP JUMP JUMPDEST PUSH1 0x1F DUP3 GT ISZERO PUSH2 0x15E JUMPI DUP1 PUSH1 0x0 MSTORE PUSH1 0x20 PUSH1 0x0 KECCAK256 PUSH1 0x1F DUP5 ADD PUSH1 0x5 SHR DUP2 ADD PUSH1 0x20 DUP6 LT ISZERO PUSH2 0x13B JUMPI POP DUP1 JUMPDEST PUSH1 0x1F DUP5 ADD PUSH1 0x5 SHR DUP3 ADD SWAP2 POP JUMPDEST DUP2 DUP2 LT ISZERO PUSH2 0x15B JUMPI PUSH1 0x0 DUP2 SSTORE PUSH1 0x1 ADD PUSH2 0x147 JUMP JUMPDEST POP POP JUMPDEST POP POP POP JUMP JUMPDEST DUP2 MLOAD PUSH1 0x1 PUSH1 0x1 PUSH1 0x40 SHL SUB DUP2 GT ISZERO PUSH2 0x17C JUMPI PUSH2 0x17C PUSH2 0xC4 JUMP JUMPDEST PUSH2 0x190 DUP2 PUSH2 0x18A DUP5 SLOAD PUSH2 0xDA JUMP JUMPDEST DUP5 PUSH2 0x114 JUMP JUMPDEST PUSH1 0x20 PUSH1 0x1F DUP3 GT PUSH1 0x1 DUP2 EQ PUSH2 0x1C4 JUMPI PUSH1 0x0 DUP4 ISZERO PUSH2 0x1AC JUMPI POP DUP5 DUP3 ADD MLOAD JUMPDEST PUSH1 0x0 NOT PUSH1 0x3 DUP6 SWAP1 SHL SHR NOT AND PUSH1 0x1 DUP5 SWAP1 SHL OR DUP5 SSTORE PUSH2 0x15B JUMP JUMPDEST PUSH1 0x0 DUP5 DUP2 MSTORE PUSH1 0x20 DUP2 KECCAK256 PUSH1 0x1F NOT DUP6 AND SWAP2 JUMPDEST DUP3 DUP2 LT ISZERO PUSH2 0x1F4 JUMPI DUP8 DUP6 ADD MLOAD DUP3 SSTORE PUSH1 0x20 SWAP5 DUP6 ADD SWAP5 PUSH1 0x1 SWAP1 SWAP3 ADD SWAP2 ADD PUSH2 0x1D4 JUMP JUMPDEST POP DUP5 DUP3 LT ISZERO PUSH2 0x212 JUMPI DUP7 DUP5 ADD MLOAD PUSH1 0x0 NOT PUSH1 0x3 DUP8 SWAP1 SHL PUSH1 0xF8 AND SHR NOT AND DUP2 SSTORE JUMPDEST POP POP POP POP PUSH1 0x1 SWAP1 DUP2 SHL ADD SWAP1 SSTORE POP JUMP JUMPDEST PUSH2 0x3CD7 DUP1 PUSH2 0x230 PUSH1 0x0 CODECOPY PUSH1 0x0 RETURN INVALID PUSH1 0x80 PUSH1 0x40 MSTORE PUSH1 0x4 CALLDATASIZE LT PUSH2 0x230 JUMPI PUSH1 0x0 CALLDATALOAD PUSH1 0xE0 SHR DUP1 PUSH4 0x9A3FA8C7 GT PUSH2 0x12E JUMPI DUP1 PUSH4 0xCA766F64 GT PUSH2 0xAB JUMPI DUP1 PUSH4 0xE985E9C5 GT PUSH2 0x6F JUMPI DUP1 PUSH4 0xE985E9C5 EQ PUSH2 0x6C9 JUMPI DUP1 PUSH4 0xEFD46065 EQ PUSH2 0x6E9 JUMPI DUP1 PUSH4 0xF0F3F2C8 EQ PUSH2 0x722 JUMPI DUP1 PUSH4 0xF62BF2DE EQ PUSH2 0x74F JUMPI DUP1 PUSH4 0xF7767C93 EQ PUSH2 0x76F JUMPI PUSH1 0x0 DUP1 REVERT JUMPDEST DUP1 PUSH4 0xCA766F64 EQ PUSH2 0x621 JUMPI DUP1 PUSH4 0xD082E381 EQ PUSH2 0x641 JUMPI DUP1 PUSH4 0xD24CD3EC EQ PUSH2 0x657 JUMPI DUP1 PUSH4 0xD80528AE EQ PUSH2 0x66D JUMPI DUP1 PUSH4 0xDCC60128 EQ PUSH2 0x6A7 JUMPI PUSH1 0x0 DUP1 REVERT JUMPDEST DUP1 PUSH4 0xB69EF8A8 GT PUSH2 0xF2 JUMPI DUP1 PUSH4 0xB69EF8A8 EQ PUSH2 0x57E JUMPI DUP1 PUSH4 0xB88D4FDE EQ PUSH2 0x594 JUMPI DUP1 PUSH4 0xC1ADA37E EQ PUSH2 0x5B4 JUMPI DUP1 PUSH4 0xC87B56DD EQ PUSH2 0x5D4 JUMPI DUP1 PUSH4 0xC9168B72 EQ PUSH2 0x5F4 JUMPI PUSH1 0x0 DUP1 REVERT JUMPDEST DUP1 PUSH4 0x9A3FA8C7 EQ PUSH2 0x4EB JUMPI DUP1 PUSH4 0x9F39A194 EQ PUSH2 0x50B JUMPI DUP1 PUSH4 0xA22CB465 EQ PUSH2 0x51E JUMPI DUP1 PUSH4 0xA4B2409E EQ PUSH2 0x53E JUMPI DUP1 PUSH4 0xB531DCBA EQ PUSH2 0x55E JUMPI PUSH1 0x0 DUP1 REVERT JUMPDEST DUP1 PUSH4 0x3D061498 GT PUSH2 0x1BC JUMPI DUP1 PUSH4 0x6352211E GT PUSH2 0x180 JUMPI DUP1 PUSH4 0x6352211E EQ PUSH2 0x446 JUMPI DUP1 PUSH4 0x70A08231 EQ PUSH2 0x466 JUMPI DUP1 PUSH4 0x8593054B EQ PUSH2 0x486 JUMPI DUP1 PUSH4 0x8DA5CB5B EQ PUSH2 0x4B6 JUMPI DUP1 PUSH4 0x95D89B41 EQ PUSH2 0x4D6 JUMPI PUSH1 0x0 DUP1 REVERT JUMPDEST DUP1 PUSH4 0x3D061498 EQ PUSH2 0x399 JUMPI DUP1 PUSH4 0x3E45C8AF EQ PUSH2 0x3B9 JUMPI DUP1 PUSH4 0x42842E0E EQ PUSH2 0x3D9 JUMPI DUP1 PUSH4 0x44CC2AFE EQ PUSH2 0x3F9 JUMPI DUP1 PUSH4 0x4CD0CB28 EQ PUSH2 0x426 JUMPI PUSH1 0x0 DUP1 REVERT JUMPDEST DUP1 PUSH4 0x95EA7B3 GT PUSH2 0x203 JUMPI DUP1 PUSH4 0x95EA7B3 EQ PUSH2 0x2E4 JUMPI DUP1 PUSH4 0x1453D482 EQ PUSH2 0x306 JUMPI DUP1 PUSH4 0x23B872DD EQ PUSH2 0x335 JUMPI DUP1 PUSH4 0x36FBAD26 EQ PUSH2 0x355 JUMPI DUP1 PUSH4 0x3B9DCE05 EQ PUSH2 0x379 JUMPI PUSH1 0x0 DUP1 REVERT JUMPDEST DUP1 PUSH4 0x1FFC9A7 EQ PUSH2 0x235 JUMPI DUP1 PUSH4 0x56C29EE EQ PUSH2 0x26A JUMPI DUP1 PUSH4 0x6FDDE03 EQ PUSH2 0x28A JUMPI DUP1 PUSH4 0x81812FC EQ PUSH2 0x2AC JUMPI JUMPDEST PUSH1 0x0 DUP1 REVERT JUMPDEST CALLVALUE DUP1 ISZERO PUSH2 0x241 JUMPI PUSH1 0x0 DUP1 REVERT JUMPDEST POP PUSH2 0x255 PUSH2 0x250 CALLDATASIZE PUSH1 0x4 PUSH2 0x31F7 JUMP JUMPDEST PUSH2 0x79F JUMP JUMPDEST PUSH1 0x40 MLOAD SWAP1 ISZERO ISZERO DUP2 MSTORE PUSH1 0x20 ADD JUMPDEST PUSH1 0x40 MLOAD DUP1 SWAP2 SUB SWAP1 RETURN JUMPDEST CALLVALUE DUP1 ISZERO PUSH2 0x276 JUMPI PUSH1 0x0 DUP1 REVERT JUMPDEST POP PUSH2 0x255 PUSH2 0x285 CALLDATASIZE PUSH1 0x4 PUSH2 0x32C4 JUMP JUMPDEST PUSH2 0x7B0 JUMP JUMPDEST CALLVALUE DUP1 ISZERO PUSH2 0x296 JUMPI PUSH1 0x0 DUP1 REVERT JUMPDEST POP PUSH2 0x29F PUSH2 0xC81 JUMP JUMPDEST PUSH1 0x40 MLOAD PUSH2 0x261 SWAP2 SWAP1 PUSH2 0x33BA JUMP JUMPDEST CALLVALUE DUP1 ISZERO PUSH2 0x2B8 JUMPI PUSH1 0x0 DUP1 REVERT JUMPDEST POP PUSH2 0x2CC PUSH2 0x2C7 CALLDATASIZE PUSH1 0x4 PUSH2 0x33CD JUMP JUMPDEST PUSH2 0xD13 JUMP JUMPDEST PUSH1 0x40 MLOAD PUSH1 0x1 PUSH1 0x1 PUSH1 0xA0 SHL SUB SWAP1 SWAP2 AND DUP2 MSTORE PUSH1 0x20 ADD PUSH2 0x261 JUMP JUMPDEST CALLVALUE DUP1 ISZERO PUSH2 0x2F0 JUMPI PUSH1 0x0 DUP1 REVERT JUMPDEST POP PUSH2 0x304 PUSH2 0x2FF CALLDATASIZE PUSH1 0x4 PUSH2 0x33FD JUMP JUMPDEST PUSH2 0xD3C JUMP JUMPDEST STOP JUMPDEST CALLVALUE DUP1 ISZERO PUSH2 0x312 JUMPI PUSH1 0x0 DUP1 REVERT JUMPDEST POP PUSH2 0x255 PUSH2 0x321 CALLDATASIZE PUSH1 0x4 PUSH2 0x3427 JUMP JUMPDEST PUSH1 0x7 SLOAD PUSH1 0x1 PUSH1 0x1 PUSH1 0xA0 SHL SUB SWAP2 DUP3 AND SWAP2 AND EQ SWAP1 JUMP JUMPDEST CALLVALUE DUP1 ISZERO PUSH2 0x341 JUMPI PUSH1 0x0 DUP1 REVERT JUMPDEST POP PUSH2 0x304 PUSH2 0x350 CALLDATASIZE PUSH1 0x4 PUSH2 0x3442 JUMP JUMPDEST PUSH2 0xD4B JUMP JUMPDEST CALLVALUE DUP1 ISZERO PUSH2 0x361 JUMPI PUSH1 0x0 DUP1 REVERT JUMPDEST POP PUSH2 0x36B PUSH1 0x9 SLOAD DUP2 JUMP JUMPDEST PUSH1 0x40 MLOAD SWAP1 DUP2 MSTORE PUSH1 0x20 ADD PUSH2 0x261 JUMP JUMPDEST CALLVALUE DUP1 ISZERO PUSH2 0x385 JUMPI PUSH1 0x0 DUP1 REVERT JUMPDEST POP PUSH2 0x304 PUSH2 0x394 CALLDATASIZE PUSH1 0x4 PUSH2 0x3427 JUMP JUMPDEST PUSH2 0xDD6 JUMP JUMPDEST CALLVALUE DUP1 ISZERO PUSH2 0x3A5 JUMPI PUSH1 0x0 DUP1 REVERT JUMPDEST POP PUSH2 0x36B PUSH2 0x3B4 CALLDATASIZE PUSH1 0x4 PUSH2 0x347F JUMP JUMPDEST PUSH2 0xEA2 JUMP JUMPDEST CALLVALUE DUP1 ISZERO PUSH2 0x3C5 JUMPI PUSH1 0x0 DUP1 REVERT JUMPDEST POP PUSH2 0x304 PUSH2 0x3D4 CALLDATASIZE PUSH1 0x4 PUSH2 0x33CD JUMP JUMPDEST PUSH2 0xED3 JUMP JUMPDEST CALLVALUE DUP1 ISZERO PUSH2 0x3E5 JUMPI PUSH1 0x0 DUP1 REVERT JUMPDEST POP PUSH2 0x304 PUSH2 0x3F4 CALLDATASIZE PUSH1 0x4 PUSH2 0x3442 JUMP JUMPDEST PUSH2 0xF28 JUMP JUMPDEST CALLVALUE DUP1 ISZERO PUSH2 0x405 JUMPI PUSH1 0x0 DUP1 REVERT JUMPDEST POP PUSH2 0x419 PUSH2 0x414 CALLDATASIZE PUSH1 0x4 PUSH2 0x3427 JUMP JUMPDEST PUSH2 0xF48 JUMP JUMPDEST PUSH1 0x40 MLOAD PUSH2 0x261 SWAP2 SWAP1 PUSH2 0x34A1 JUMP JUMPDEST CALLVALUE DUP1 ISZERO PUSH2 0x432 JUMPI PUSH1 0x0 DUP1 REVERT JUMPDEST POP PUSH2 0x255 PUSH2 0x441 CALLDATASIZE PUSH1 0x4 PUSH2 0x33CD JUMP JUMPDEST PUSH2 0x1042 JUMP JUMPDEST CALLVALUE DUP1 ISZERO PUSH2 0x452 JUMPI PUSH1 0x0 DUP1 REVERT JUMPDEST POP PUSH2 0x2CC PUSH2 0x461 CALLDATASIZE PUSH1 0x4 PUSH2 0x33CD JUMP JUMPDEST PUSH2 0x11AB JUMP JUMPDEST CALLVALUE DUP1 ISZERO PUSH2 0x472 JUMPI PUSH1 0x0 DUP1 REVERT JUMPDEST POP PUSH2 0x36B PUSH2 0x481 CALLDATASIZE PUSH1 0x4 PUSH2 0x3427 JUMP JUMPDEST PUSH2 0x11B6 JUMP JUMPDEST CALLVALUE DUP1 ISZERO PUSH2 0x492 JUMPI PUSH1 0x0 DUP1 REVERT JUMPDEST POP PUSH2 0x255 PUSH2 0x4A1 CALLDATASIZE PUSH1 0x4 PUSH2 0x33CD JUMP JUMPDEST PUSH1 0x12 PUSH1 0x20 MSTORE PUSH1 0x0 SWAP1 DUP2 MSTORE PUSH1 0x40 SWAP1 KECCAK256 SLOAD PUSH1 0xFF AND DUP2 JUMP JUMPDEST CALLVALUE DUP1 ISZERO PUSH2 0x4C2 JUMPI PUSH1 0x0 DUP1 REVERT JUMPDEST POP PUSH1 0x7 SLOAD PUSH2 0x2CC SWAP1 PUSH1 0x1 PUSH1 0x1 PUSH1 0xA0 SHL SUB AND DUP2 JUMP JUMPDEST CALLVALUE DUP1 ISZERO PUSH2 0x4E2 JUMPI PUSH1 0x0 DUP1 REVERT JUMPDEST POP PUSH2 0x29F PUSH2 0x11FE JUMP JUMPDEST CALLVALUE DUP1 ISZERO PUSH2 0x4F7 JUMPI PUSH1 0x0 DUP1 REVERT JUMPDEST POP PUSH2 0x255 PUSH2 0x506 CALLDATASIZE PUSH1 0x4 PUSH2 0x3506 JUMP JUMPDEST PUSH2 0x120D JUMP JUMPDEST PUSH2 0x255 PUSH2 0x519 CALLDATASIZE PUSH1 0x4 PUSH2 0x33CD JUMP JUMPDEST PUSH2 0x14DF JUMP JUMPDEST CALLVALUE DUP1 ISZERO PUSH2 0x52A JUMPI PUSH1 0x0 DUP1 REVERT JUMPDEST POP PUSH2 0x304 PUSH2 0x539 CALLDATASIZE PUSH1 0x4 PUSH2 0x35AC JUMP JUMPDEST PUSH2 0x1886 JUMP JUMPDEST CALLVALUE DUP1 ISZERO PUSH2 0x54A JUMPI PUSH1 0x0 DUP1 REVERT JUMPDEST POP PUSH2 0x255 PUSH2 0x559 CALLDATASIZE PUSH1 0x4 PUSH2 0x33CD JUMP JUMPDEST PUSH2 0x1891 JUMP JUMPDEST CALLVALUE DUP1 ISZERO PUSH2 0x56A JUMPI PUSH1 0x0 DUP1 REVERT JUMPDEST POP PUSH2 0x255 PUSH2 0x579 CALLDATASIZE PUSH1 0x4 PUSH2 0x33CD JUMP JUMPDEST PUSH2 0x1988 JUMP JUMPDEST CALLVALUE DUP1 ISZERO PUSH2 0x58A JUMPI PUSH1 0x0 DUP1 REVERT JUMPDEST POP PUSH2 0x36B PUSH1 0xA SLOAD DUP2 JUMP JUMPDEST CALLVALUE DUP1 ISZERO PUSH2 0x5A0 JUMPI PUSH1 0x0 DUP1 REVERT JUMPDEST POP PUSH2 0x304 PUSH2 0x5AF CALLDATASIZE PUSH1 0x4 PUSH2 0x35E8 JUMP JUMPDEST PUSH2 0x1A50 JUMP JUMPDEST CALLVALUE DUP1 ISZERO PUSH2 0x5C0 JUMPI PUSH1 0x0 DUP1 REVERT JUMPDEST POP PUSH2 0x36B PUSH2 0x5CF CALLDATASIZE PUSH1 0x4 PUSH2 0x33FD JUMP JUMPDEST PUSH2 0x1A67 JUMP JUMPDEST CALLVALUE DUP1 ISZERO PUSH2 0x5E0 JUMPI PUSH1 0x0 DUP1 REVERT JUMPDEST POP PUSH2 0x29F PUSH2 0x5EF CALLDATASIZE PUSH1 0x4 PUSH2 0x33CD JUMP JUMPDEST PUSH2 0x1A83 JUMP JUMPDEST CALLVALUE DUP1 ISZERO PUSH2 0x600 JUMPI PUSH1 0x0 DUP1 REVERT JUMPDEST POP PUSH2 0x614 PUSH2 0x60F CALLDATASIZE PUSH1 0x4 PUSH2 0x33CD JUMP JUMPDEST PUSH2 0x1A8E JUMP JUMPDEST PUSH1 0x40 MLOAD PUSH2 0x261 SWAP2 SWAP1 PUSH2 0x3664 JUMP JUMPDEST CALLVALUE DUP1 ISZERO PUSH2 0x62D JUMPI PUSH1 0x0 DUP1 REVERT JUMPDEST POP PUSH1 0x7 SLOAD PUSH1 0x1 PUSH1 0x1 PUSH1 0xA0 SHL SUB AND CALLER EQ PUSH2 0x255 JUMP JUMPDEST CALLVALUE DUP1 ISZERO PUSH2 0x64D JUMPI PUSH1 0x0 DUP1 REVERT JUMPDEST POP PUSH2 0x36B PUSH1 0xB SLOAD DUP2 JUMP JUMPDEST CALLVALUE DUP1 ISZERO PUSH2 0x663 JUMPI PUSH1 0x0 DUP1 REVERT JUMPDEST POP PUSH2 0x36B PUSH1 0x8 SLOAD DUP2 JUMP JUMPDEST CALLVALUE DUP1 ISZERO PUSH2 0x679 JUMPI PUSH1 0x0 DUP1 REVERT JUMPDEST POP PUSH1 0xC SLOAD PUSH1 0xD SLOAD PUSH1 0xE SLOAD PUSH2 0x68C SWAP3 SWAP2 SWAP1 DUP4 JUMP JUMPDEST PUSH1 0x40 DUP1 MLOAD SWAP4 DUP5 MSTORE PUSH1 0x20 DUP5 ADD SWAP3 SWAP1 SWAP3 MSTORE SWAP1 DUP3 ADD MSTORE PUSH1 0x60 ADD PUSH2 0x261 JUMP JUMPDEST CALLVALUE DUP1 ISZERO PUSH2 0x6B3 JUMPI PUSH1 0x0 DUP1 REVERT JUMPDEST POP PUSH2 0x6BC PUSH2 0x1B55 JUMP JUMPDEST PUSH1 0x40 MLOAD PUSH2 0x261 SWAP2 SWAP1 PUSH2 0x37E6 JUMP JUMPDEST CALLVALUE DUP1 ISZERO PUSH2 0x6D5 JUMPI PUSH1 0x0 DUP1 REVERT JUMPDEST POP PUSH2 0x255 PUSH2 0x6E4 CALLDATASIZE PUSH1 0x4 PUSH2 0x383F JUMP JUMPDEST PUSH2 0x1E00 JUMP JUMPDEST CALLVALUE DUP1 ISZERO PUSH2 0x6F5 JUMPI PUSH1 0x0 DUP1 REVERT JUMPDEST POP PUSH2 0x255 PUSH2 0x704 CALLDATASIZE PUSH1 0x4 PUSH2 0x3427 JUMP JUMPDEST PUSH1 0x1 PUSH1 0x1 PUSH1 0xA0 SHL SUB AND PUSH1 0x0 SWAP1 DUP2 MSTORE PUSH1 0x13 PUSH1 0x20 MSTORE PUSH1 0x40 SWAP1 KECCAK256 SLOAD PUSH1 0xFF AND SWAP1 JUMP JUMPDEST CALLVALUE DUP1 ISZERO PUSH2 0x72E JUMPI PUSH1 0x0 DUP1 REVERT JUMPDEST POP PUSH2 0x742 PUSH2 0x73D CALLDATASIZE PUSH1 0x4 PUSH2 0x33CD JUMP JUMPDEST PUSH2 0x1E2E JUMP JUMPDEST PUSH1 0x40 MLOAD PUSH2 0x261 SWAP2 SWAP1 PUSH2 0x3872 JUMP JUMPDEST CALLVALUE DUP1 ISZERO PUSH2 0x75B JUMPI PUSH1 0x0 DUP1 REVERT JUMPDEST POP PUSH2 0x255 PUSH2 0x76A CALLDATASIZE PUSH1 0x4 PUSH2 0x33CD JUMP JUMPDEST PUSH2 0x20E4 JUMP JUMPDEST CALLVALUE DUP1 ISZERO PUSH2 0x77B JUMPI PUSH1 0x0 DUP1 REVERT JUMPDEST POP PUSH2 0x255 PUSH2 0x78A CALLDATASIZE PUSH1 0x4 PUSH2 0x3427 JUMP JUMPDEST PUSH1 0x13 PUSH1 0x20 MSTORE PUSH1 0x0 SWAP1 DUP2 MSTORE PUSH1 0x40 SWAP1 KECCAK256 SLOAD PUSH1 0xFF AND DUP2 JUMP JUMPDEST PUSH1 0x0 PUSH2 0x7AA DUP3 PUSH2 0x2231 JUMP JUMPDEST SWAP3 SWAP2 POP POP JUMP JUMPDEST CALLER PUSH1 0x0 SWAP1 DUP2 MSTORE PUSH1 0x13 PUSH1 0x20 MSTORE PUSH1 0x40 DUP2 KECCAK256 SLOAD PUSH1 0xFF AND DUP1 PUSH2 0x7D8 JUMPI POP PUSH1 0x7 SLOAD PUSH1 0x1 PUSH1 0x1 PUSH1 0xA0 SHL SUB AND CALLER EQ JUMPDEST PUSH2 0x7FD JUMPI PUSH1 0x40 MLOAD PUSH3 0x461BCD PUSH1 0xE5 SHL DUP2 MSTORE PUSH1 0x4 ADD PUSH2 0x7F4 SWAP1 PUSH2 0x3885 JUMP JUMPDEST PUSH1 0x40 MLOAD DUP1 SWAP2 SUB SWAP1 REVERT JUMPDEST PUSH1 0x0 DUP7 MLOAD GT PUSH2 0x846 JUMPI PUSH1 0x40 MLOAD PUSH3 0x461BCD PUSH1 0xE5 SHL DUP2 MSTORE PUSH1 0x20 PUSH1 0x4 DUP3 ADD MSTORE PUSH1 0x15 PUSH1 0x24 DUP3 ADD MSTORE PUSH21 0x5469746C652063616E6E6F7420626520656D707479 PUSH1 0x58 SHL PUSH1 0x44 DUP3 ADD MSTORE PUSH1 0x64 ADD PUSH2 0x7F4 JUMP JUMPDEST PUSH1 0x0 DUP6 MLOAD GT PUSH2 0x897 JUMPI PUSH1 0x40 MLOAD PUSH3 0x461BCD PUSH1 0xE5 SHL DUP2 MSTORE PUSH1 0x20 PUSH1 0x4 DUP3 ADD MSTORE PUSH1 0x1B PUSH1 0x24 DUP3 ADD MSTORE PUSH32 0x4465736372697074696F6E2063616E6E6F7420626520656D7074790000000000 PUSH1 0x44 DUP3 ADD MSTORE PUSH1 0x64 ADD PUSH2 0x7F4 JUMP JUMPDEST PUSH1 0x0 DUP5 MLOAD GT PUSH2 0x8E3 JUMPI PUSH1 0x40 MLOAD PUSH3 0x461BCD PUSH1 0xE5 SHL DUP2 MSTORE PUSH1 0x20 PUSH1 0x4 DUP3 ADD MSTORE PUSH1 0x18 PUSH1 0x24 DUP3 ADD MSTORE PUSH24 0x496D61676555524C2063616E6E6F7420626520656D707479 PUSH1 0x40 SHL PUSH1 0x44 DUP3 ADD MSTORE PUSH1 0x64 ADD PUSH2 0x7F4 JUMP JUMPDEST PUSH1 0x0 DUP4 GT PUSH2 0x929 JUMPI PUSH1 0x40 MLOAD PUSH3 0x461BCD PUSH1 0xE5 SHL DUP2 MSTORE PUSH1 0x20 PUSH1 0x4 DUP3 ADD MSTORE PUSH1 0x13 PUSH1 0x24 DUP3 ADD MSTORE PUSH19 0x436F73742063616E6E6F74206265207A65726F PUSH1 0x68 SHL PUSH1 0x44 DUP3 ADD MSTORE PUSH1 0x64 ADD PUSH2 0x7F4 JUMP JUMPDEST PUSH2 0x931 PUSH2 0x315B JUMP JUMPDEST PUSH1 0x9 SLOAD DUP2 MSTORE CALLER PUSH1 0x40 DUP3 ADD SWAP1 DUP2 MSTORE PUSH1 0x60 DUP3 ADD DUP9 DUP2 MSTORE PUSH1 0x80 DUP4 ADD DUP9 SWAP1 MSTORE PUSH1 0xA0 DUP4 ADD DUP8 SWAP1 MSTORE PUSH1 0xC0 DUP4 ADD DUP7 SWAP1 MSTORE TIMESTAMP PUSH2 0x100 DUP5 ADD MSTORE PUSH2 0x120 DUP4 ADD DUP6 SWAP1 MSTORE PUSH1 0xF DUP1 SLOAD PUSH1 0x1 DUP2 ADD DUP3 SSTORE PUSH1 0x0 SWAP2 SWAP1 SWAP2 MSTORE DUP4 MLOAD PUSH32 0x8D1108E10BCB7C27DDDFC02ED9D693A074039D026CF4EA4240B40F7D581AC802 PUSH1 0xC SWAP1 SWAP3 MUL SWAP2 DUP3 ADD SWAP1 DUP2 SSTORE PUSH1 0x20 DUP6 ADD MLOAD PUSH32 0x8D1108E10BCB7C27DDDFC02ED9D693A074039D026CF4EA4240B40F7D581AC803 DUP4 ADD DUP1 SLOAD PUSH1 0x1 PUSH1 0x1 PUSH1 0xA0 SHL SUB NOT SWAP1 DUP2 AND PUSH1 0x1 PUSH1 0x1 PUSH1 0xA0 SHL SUB SWAP4 DUP5 AND OR SWAP1 SWAP2 SSTORE SWAP5 MLOAD PUSH32 0x8D1108E10BCB7C27DDDFC02ED9D693A074039D026CF4EA4240B40F7D581AC804 DUP5 ADD DUP1 SLOAD SWAP1 SWAP7 AND SWAP2 AND OR SWAP1 SWAP4 SSTORE SWAP1 MLOAD DUP4 SWAP3 SWAP2 PUSH32 0x8D1108E10BCB7C27DDDFC02ED9D693A074039D026CF4EA4240B40F7D581AC805 ADD SWAP1 PUSH2 0xA4E SWAP1 DUP3 PUSH2 0x393D JUMP JUMPDEST POP PUSH1 0x80 DUP3 ADD MLOAD PUSH1 0x4 DUP3 ADD SWAP1 PUSH2 0xA63 SWAP1 DUP3 PUSH2 0x393D JUMP JUMPDEST POP PUSH1 0xA0 DUP3 ADD MLOAD PUSH1 0x5 DUP3 ADD SWAP1 PUSH2 0xA78 SWAP1 DUP3 PUSH2 0x393D JUMP JUMPDEST POP PUSH1 0xC0 DUP3 ADD MLOAD PUSH1 0x6 DUP3 ADD SSTORE PUSH1 0xE0 DUP3 ADD MLOAD PUSH1 0x7 DUP3 ADD SSTORE PUSH2 0x100 DUP3 ADD MLOAD PUSH1 0x8 DUP3 ADD SSTORE PUSH2 0x120 DUP3 ADD MLOAD PUSH1 0x9 DUP3 ADD SSTORE PUSH2 0x140 DUP3 ADD MLOAD PUSH1 0xA DUP3 ADD SSTORE PUSH2 0x160 DUP3 ADD MLOAD PUSH1 0xB DUP3 ADD DUP1 SLOAD PUSH1 0xFF NOT AND PUSH1 0x1 DUP4 PUSH1 0x5 DUP2 GT ISZERO PUSH2 0xAD2 JUMPI PUSH2 0xAD2 PUSH2 0x36D5 JUMP JUMPDEST MUL OR SWAP1 SSTORE POP POP PUSH1 0x9 SLOAD PUSH1 0x0 SWAP1 DUP2 MSTORE PUSH1 0x12 PUSH1 0x20 SWAP1 DUP2 MSTORE PUSH1 0x40 DUP1 DUP4 KECCAK256 DUP1 SLOAD PUSH1 0xFF NOT AND PUSH1 0x1 SWAP1 DUP2 OR SWAP1 SWAP2 SSTORE CALLER DUP5 MSTORE PUSH1 0x10 DUP4 MSTORE DUP2 DUP5 KECCAK256 DUP1 SLOAD DUP1 DUP4 ADD DUP3 SSTORE SWAP1 DUP6 MSTORE SWAP4 DUP4 SWAP1 KECCAK256 DUP7 MLOAD PUSH1 0xC SWAP1 SWAP6 MUL ADD SWAP4 DUP5 SSTORE SWAP2 DUP6 ADD MLOAD SWAP2 DUP4 ADD DUP1 SLOAD PUSH1 0x1 PUSH1 0x1 PUSH1 0xA0 SHL SUB SWAP4 DUP5 AND PUSH1 0x1 PUSH1 0x1 PUSH1 0xA0 SHL SUB NOT SWAP2 DUP3 AND OR SWAP1 SWAP2 SSTORE SWAP1 DUP6 ADD MLOAD PUSH1 0x2 DUP5 ADD DUP1 SLOAD SWAP2 SWAP1 SWAP4 AND SWAP2 AND OR SWAP1 SSTORE PUSH1 0x60 DUP4 ADD MLOAD DUP4 SWAP3 POP PUSH1 0x3 DUP3 ADD SWAP1 PUSH2 0xB6B SWAP1 DUP3 PUSH2 0x393D JUMP JUMPDEST POP PUSH1 0x80 DUP3 ADD MLOAD PUSH1 0x4 DUP3 ADD SWAP1 PUSH2 0xB80 SWAP1 DUP3 PUSH2 0x393D JUMP JUMPDEST POP PUSH1 0xA0 DUP3 ADD MLOAD PUSH1 0x5 DUP3 ADD SWAP1 PUSH2 0xB95 SWAP1 DUP3 PUSH2 0x393D JUMP JUMPDEST POP PUSH1 0xC0 DUP3 ADD MLOAD PUSH1 0x6 DUP3 ADD SSTORE PUSH1 0xE0 DUP3 ADD MLOAD PUSH1 0x7 DUP3 ADD SSTORE PUSH2 0x100 DUP3 ADD MLOAD PUSH1 0x8 DUP3 ADD SSTORE PUSH2 0x120 DUP3 ADD MLOAD PUSH1 0x9 DUP3 ADD SSTORE PUSH2 0x140 DUP3 ADD MLOAD PUSH1 0xA DUP3 ADD SSTORE PUSH2 0x160 DUP3 ADD MLOAD PUSH1 0xB DUP3 ADD DUP1 SLOAD PUSH1 0xFF NOT AND PUSH1 0x1 DUP4 PUSH1 0x5 DUP2 GT ISZERO PUSH2 0xBEF JUMPI PUSH2 0xBEF PUSH2 0x36D5 JUMP JUMPDEST MUL OR SWAP1 SSTORE POP POP POP PUSH1 0x1 PUSH1 0xC PUSH1 0x0 ADD PUSH1 0x0 DUP3 DUP3 SLOAD PUSH2 0xC0C SWAP2 SWAP1 PUSH2 0x3A12 JUMP JUMPDEST SWAP1 SWAP2 SSTORE POP POP PUSH1 0x9 DUP1 SLOAD CALLER SWAP2 PUSH1 0x0 DUP1 MLOAD PUSH1 0x20 PUSH2 0x3C82 DUP4 CODECOPY DUP2 MLOAD SWAP2 MSTORE SWAP2 SWAP1 PUSH1 0x0 PUSH2 0xC33 DUP4 PUSH2 0x3A25 JUMP JUMPDEST SWAP1 SWAP2 SSTORE POP PUSH1 0x40 DUP1 MLOAD SWAP2 DUP3 MSTORE PUSH1 0x60 PUSH1 0x20 DUP4 ADD DUP2 SWAP1 MSTORE PUSH1 0xE SWAP1 DUP4 ADD MSTORE PUSH14 0x50524F4A45435420435245415445 PUSH1 0x90 SHL PUSH1 0x80 DUP4 ADD MSTORE TIMESTAMP SWAP1 DUP3 ADD MSTORE PUSH1 0xA0 ADD PUSH1 0x40 MLOAD DUP1 SWAP2 SUB SWAP1 LOG2 POP PUSH1 0x1 SWAP7 SWAP6 POP POP POP POP POP POP JUMP JUMPDEST PUSH1 0x60 PUSH1 0x0 DUP1 SLOAD PUSH2 0xC90 SWAP1 PUSH2 0x38BC JUMP JUMPDEST DUP1 PUSH1 0x1F ADD PUSH1 0x20 DUP1 SWAP2 DIV MUL PUSH1 0x20 ADD PUSH1 0x40 MLOAD SWAP1 DUP2 ADD PUSH1 0x40 MSTORE DUP1 SWAP3 SWAP2 SWAP1 DUP2 DUP2 MSTORE PUSH1 0x20 ADD DUP3 DUP1 SLOAD PUSH2 0xCBC SWAP1 PUSH2 0x38BC JUMP JUMPDEST DUP1 ISZERO PUSH2 0xD09 JUMPI DUP1 PUSH1 0x1F LT PUSH2 0xCDE JUMPI PUSH2 0x100 DUP1 DUP4 SLOAD DIV MUL DUP4 MSTORE SWAP2 PUSH1 0x20 ADD SWAP2 PUSH2 0xD09 JUMP JUMPDEST DUP3 ADD SWAP2 SWAP1 PUSH1 0x0 MSTORE PUSH1 0x20 PUSH1 0x0 KECCAK256 SWAP1 JUMPDEST DUP2 SLOAD DUP2 MSTORE SWAP1 PUSH1 0x1 ADD SWAP1 PUSH1 0x20 ADD DUP1 DUP4 GT PUSH2 0xCEC JUMPI DUP3 SWAP1 SUB PUSH1 0x1F AND DUP3 ADD SWAP2 JUMPDEST POP POP POP POP POP SWAP1 POP SWAP1 JUMP JUMPDEST PUSH1 0x0 PUSH2 0xD1E DUP3 PUSH2 0x2256 JUMP JUMPDEST POP PUSH1 0x0 DUP3 DUP2 MSTORE PUSH1 0x4 PUSH1 0x20 MSTORE PUSH1 0x40 SWAP1 KECCAK256 SLOAD PUSH1 0x1 PUSH1 0x1 PUSH1 0xA0 SHL SUB AND PUSH2 0x7AA JUMP JUMPDEST PUSH2 0xD47 DUP3 DUP3 CALLER PUSH2 0x228F JUMP JUMPDEST POP POP JUMP JUMPDEST PUSH1 0x1 PUSH1 0x1 PUSH1 0xA0 SHL SUB DUP3 AND PUSH2 0xD75 JUMPI PUSH1 0x40 MLOAD PUSH4 0x32505749 PUSH1 0xE1 SHL DUP2 MSTORE PUSH1 0x0 PUSH1 0x4 DUP3 ADD MSTORE PUSH1 0x24 ADD PUSH2 0x7F4 JUMP JUMPDEST PUSH1 0x0 PUSH2 0xD82 DUP4 DUP4 CALLER PUSH2 0x229C JUMP JUMPDEST SWAP1 POP DUP4 PUSH1 0x1 PUSH1 0x1 PUSH1 0xA0 SHL SUB AND DUP2 PUSH1 0x1 PUSH1 0x1 PUSH1 0xA0 SHL SUB AND EQ PUSH2 0xDD0 JUMPI PUSH1 0x40 MLOAD PUSH4 0x64283D7B PUSH1 0xE0 SHL DUP2 MSTORE PUSH1 0x1 PUSH1 0x1 PUSH1 0xA0 SHL SUB DUP1 DUP7 AND PUSH1 0x4 DUP4 ADD MSTORE PUSH1 0x24 DUP3 ADD DUP5 SWAP1 MSTORE DUP3 AND PUSH1 0x44 DUP3 ADD MSTORE PUSH1 0x64 ADD PUSH2 0x7F4 JUMP JUMPDEST POP POP POP POP JUMP JUMPDEST PUSH1 0x7 SLOAD PUSH1 0x1 PUSH1 0x1 PUSH1 0xA0 SHL SUB AND CALLER EQ PUSH2 0xE26 JUMPI PUSH1 0x40 MLOAD PUSH3 0x461BCD PUSH1 0xE5 SHL DUP2 MSTORE PUSH1 0x20 PUSH1 0x4 DUP3 ADD MSTORE PUSH1 0x13 PUSH1 0x24 DUP3 ADD MSTORE PUSH19 0x4F776E6572207265736572766564206F6E6C79 PUSH1 0x68 SHL PUSH1 0x44 DUP3 ADD MSTORE PUSH1 0x64 ADD PUSH2 0x7F4 JUMP JUMPDEST PUSH1 0x1 PUSH1 0x1 PUSH1 0xA0 SHL SUB DUP2 AND PUSH1 0x0 SWAP1 DUP2 MSTORE PUSH1 0x13 PUSH1 0x20 MSTORE PUSH1 0x40 DUP1 DUP3 KECCAK256 DUP1 SLOAD PUSH1 0xFF NOT AND PUSH1 0x1 OR SWAP1 SSTORE MLOAD CALLER SWAP2 PUSH1 0x0 DUP1 MLOAD PUSH1 0x20 PUSH2 0x3C82 DUP4 CODECOPY DUP2 MLOAD SWAP2 MSTORE SWAP2 PUSH2 0xE97 SWAP2 SWAP1 TIMESTAMP SWAP1 SWAP2 DUP3 MSTORE PUSH1 0x60 PUSH1 0x20 DUP4 ADD DUP2 SWAP1 MSTORE PUSH1 0xD SWAP1 DUP4 ADD MSTORE PUSH13 0x10D491505513D4881051111151 PUSH1 0x9A SHL PUSH1 0x80 DUP4 ADD MSTORE PUSH1 0x40 DUP3 ADD MSTORE PUSH1 0xA0 ADD SWAP1 JUMP JUMPDEST PUSH1 0x40 MLOAD DUP1 SWAP2 SUB SWAP1 LOG2 POP JUMP JUMPDEST PUSH1 0x14 PUSH1 0x20 MSTORE DUP2 PUSH1 0x0 MSTORE PUSH1 0x40 PUSH1 0x0 KECCAK256 DUP2 DUP2 SLOAD DUP2 LT PUSH2 0xEBE JUMPI PUSH1 0x0 DUP1 REVERT JUMPDEST SWAP1 PUSH1 0x0 MSTORE PUSH1 0x20 PUSH1 0x0 KECCAK256 ADD PUSH1 0x0 SWAP2 POP SWAP2 POP POP SLOAD DUP2 JUMP JUMPDEST PUSH1 0x7 SLOAD PUSH1 0x1 PUSH1 0x1 PUSH1 0xA0 SHL SUB AND CALLER EQ PUSH2 0xF23 JUMPI PUSH1 0x40 MLOAD PUSH3 0x461BCD PUSH1 0xE5 SHL DUP2 MSTORE PUSH1 0x20 PUSH1 0x4 DUP3 ADD MSTORE PUSH1 0x13 PUSH1 0x24 DUP3 ADD MSTORE PUSH19 0x4F776E6572207265736572766564206F6E6C79 PUSH1 0x68 SHL PUSH1 0x44 DUP3 ADD MSTORE PUSH1 0x64 ADD PUSH2 0x7F4 JUMP JUMPDEST PUSH1 0x8 SSTORE JUMP JUMPDEST PUSH2 0xF43 DUP4 DUP4 DUP4 PUSH1 0x40 MLOAD DUP1 PUSH1 0x20 ADD PUSH1 0x40 MSTORE DUP1 PUSH1 0x0 DUP2 MSTORE POP PUSH2 0x1A50 JUMP JUMPDEST POP POP POP JUMP JUMPDEST PUSH1 0x1 PUSH1 0x1 PUSH1 0xA0 SHL SUB DUP2 AND PUSH1 0x0 SWAP1 DUP2 MSTORE PUSH1 0x15 PUSH1 0x20 MSTORE PUSH1 0x40 DUP2 KECCAK256 SLOAD PUSH1 0x60 SWAP2 DUP2 PUSH8 0xFFFFFFFFFFFFFFFF DUP2 GT ISZERO PUSH2 0xF7D JUMPI PUSH2 0xF7D PUSH2 0x3214 JUMP JUMPDEST PUSH1 0x40 MLOAD SWAP1 DUP1 DUP3 MSTORE DUP1 PUSH1 0x20 MUL PUSH1 0x20 ADD DUP3 ADD PUSH1 0x40 MSTORE DUP1 ISZERO PUSH2 0xFB0 JUMPI DUP2 PUSH1 0x20 ADD JUMPDEST PUSH1 0x60 DUP2 MSTORE PUSH1 0x20 ADD SWAP1 PUSH1 0x1 SWAP1 SUB SWAP1 DUP2 PUSH2 0xF9B JUMPI SWAP1 POP JUMPDEST POP SWAP1 POP PUSH1 0x0 JUMPDEST PUSH1 0x1 PUSH1 0x1 PUSH1 0xA0 SHL SUB DUP6 AND PUSH1 0x0 SWAP1 DUP2 MSTORE PUSH1 0x15 PUSH1 0x20 MSTORE PUSH1 0x40 SWAP1 KECCAK256 SLOAD DUP2 LT ISZERO PUSH2 0x103A JUMPI PUSH1 0x1 PUSH1 0x1 PUSH1 0xA0 SHL SUB DUP6 AND PUSH1 0x0 SWAP1 DUP2 MSTORE PUSH1 0x15 PUSH1 0x20 MSTORE PUSH1 0x40 SWAP1 KECCAK256 DUP1 SLOAD PUSH2 0x1015 SWAP2 SWAP1 DUP4 SWAP1 DUP2 LT PUSH2 0x1005 JUMPI PUSH2 0x1005 PUSH2 0x3A3E JUMP JUMPDEST SWAP1 PUSH1 0x0 MSTORE PUSH1 0x20 PUSH1 0x0 KECCAK256 ADD SLOAD PUSH2 0x1A83 JUMP JUMPDEST DUP3 DUP3 DUP2 MLOAD DUP2 LT PUSH2 0x1027 JUMPI PUSH2 0x1027 PUSH2 0x3A3E JUMP JUMPDEST PUSH1 0x20 SWAP1 DUP2 MUL SWAP2 SWAP1 SWAP2 ADD ADD MSTORE PUSH1 0x1 ADD PUSH2 0xFB6 JUMP JUMPDEST POP SWAP4 SWAP3 POP POP POP JUMP JUMPDEST CALLER PUSH1 0x0 SWAP1 DUP2 MSTORE PUSH1 0x13 PUSH1 0x20 MSTORE PUSH1 0x40 DUP2 KECCAK256 SLOAD PUSH1 0xFF AND DUP1 PUSH2 0x106A JUMPI POP PUSH1 0x7 SLOAD PUSH1 0x1 PUSH1 0x1 PUSH1 0xA0 SHL SUB AND CALLER EQ JUMPDEST PUSH2 0x1086 JUMPI PUSH1 0x40 MLOAD PUSH3 0x461BCD PUSH1 0xE5 SHL DUP2 MSTORE PUSH1 0x4 ADD PUSH2 0x7F4 SWAP1 PUSH2 0x3885 JUMP JUMPDEST PUSH1 0x0 DUP3 DUP2 MSTORE PUSH1 0x12 PUSH1 0x20 MSTORE PUSH1 0x40 SWAP1 KECCAK256 SLOAD PUSH1 0xFF AND PUSH2 0x10B4 JUMPI PUSH1 0x40 MLOAD PUSH3 0x461BCD PUSH1 0xE5 SHL DUP2 MSTORE PUSH1 0x4 ADD PUSH2 0x7F4 SWAP1 PUSH2 0x3A54 JUMP JUMPDEST PUSH1 0xF DUP3 DUP2 SLOAD DUP2 LT PUSH2 0x10C7 JUMPI PUSH2 0x10C7 PUSH2 0x3A3E JUMP JUMPDEST PUSH1 0x0 SWAP2 DUP3 MSTORE PUSH1 0x20 SWAP1 SWAP2 KECCAK256 PUSH1 0xC SWAP1 SWAP2 MUL ADD PUSH1 0x2 ADD SLOAD PUSH1 0x1 PUSH1 0x1 PUSH1 0xA0 SHL SUB AND CALLER EQ PUSH2 0x1102 JUMPI PUSH1 0x40 MLOAD PUSH3 0x461BCD PUSH1 0xE5 SHL DUP2 MSTORE PUSH1 0x4 ADD PUSH2 0x7F4 SWAP1 PUSH2 0x3A7F JUMP JUMPDEST PUSH1 0x3 PUSH1 0xF DUP4 DUP2 SLOAD DUP2 LT PUSH2 0x1117 JUMPI PUSH2 0x1117 PUSH2 0x3A3E JUMP JUMPDEST PUSH1 0x0 SWAP2 DUP3 MSTORE PUSH1 0x20 SWAP1 SWAP2 KECCAK256 PUSH1 0xB PUSH1 0xC SWAP1 SWAP3 MUL ADD ADD DUP1 SLOAD PUSH1 0xFF NOT AND PUSH1 0x1 DUP4 PUSH1 0x5 DUP2 GT ISZERO PUSH2 0x1144 JUMPI PUSH2 0x1144 PUSH2 0x36D5 JUMP JUMPDEST MUL OR SWAP1 SSTORE POP PUSH2 0x1152 DUP3 PUSH2 0x2395 JUMP JUMPDEST PUSH1 0x40 DUP1 MLOAD DUP4 DUP2 MSTORE PUSH1 0x60 PUSH1 0x20 DUP3 ADD DUP2 SWAP1 MSTORE PUSH1 0xF SWAP1 DUP3 ADD MSTORE PUSH15 0x141493D29150D50811115311551151 PUSH1 0x8A SHL PUSH1 0x80 DUP3 ADD MSTORE TIMESTAMP DUP2 DUP4 ADD MSTORE SWAP1 MLOAD CALLER SWAP2 PUSH1 0x0 DUP1 MLOAD PUSH1 0x20 PUSH2 0x3C82 DUP4 CODECOPY DUP2 MLOAD SWAP2 MSTORE SWAP2 SWAP1 DUP2 SWAP1 SUB PUSH1 0xA0 ADD SWAP1 LOG2 POP PUSH1 0x1 JUMPDEST SWAP2 SWAP1 POP JUMP JUMPDEST PUSH1 0x0 PUSH2 0x7AA DUP3 PUSH2 0x2256 JUMP JUMPDEST PUSH1 0x0 PUSH1 0x1 PUSH1 0x1 PUSH1 0xA0 SHL SUB DUP3 AND PUSH2 0x11E2 JUMPI PUSH1 0x40 MLOAD PUSH4 0x22718AD9 PUSH1 0xE2 SHL DUP2 MSTORE PUSH1 0x0 PUSH1 0x4 DUP3 ADD MSTORE PUSH1 0x24 ADD PUSH2 0x7F4 JUMP JUMPDEST POP PUSH1 0x1 PUSH1 0x1 PUSH1 0xA0 SHL SUB AND PUSH1 0x0 SWAP1 DUP2 MSTORE PUSH1 0x3 PUSH1 0x20 MSTORE PUSH1 0x40 SWAP1 KECCAK256 SLOAD SWAP1 JUMP JUMPDEST PUSH1 0x60 PUSH1 0x1 DUP1 SLOAD PUSH2 0xC90 SWAP1 PUSH2 0x38BC JUMP JUMPDEST CALLER PUSH1 0x0 SWAP1 DUP2 MSTORE PUSH1 0x13 PUSH1 0x20 MSTORE PUSH1 0x40 DUP2 KECCAK256 SLOAD PUSH1 0xFF AND DUP1 PUSH2 0x1235 JUMPI POP PUSH1 0x7 SLOAD PUSH1 0x1 PUSH1 0x1 PUSH1 0xA0 SHL SUB AND CALLER EQ JUMPDEST PUSH2 0x1251 JUMPI PUSH1 0x40 MLOAD PUSH3 0x461BCD PUSH1 0xE5 SHL DUP2 MSTORE PUSH1 0x4 ADD PUSH2 0x7F4 SWAP1 PUSH2 0x3885 JUMP JUMPDEST PUSH1 0x0 DUP7 DUP2 MSTORE PUSH1 0x12 PUSH1 0x20 MSTORE PUSH1 0x40 SWAP1 KECCAK256 SLOAD PUSH1 0xFF AND PUSH2 0x127F JUMPI PUSH1 0x40 MLOAD PUSH3 0x461BCD PUSH1 0xE5 SHL DUP2 MSTORE PUSH1 0x4 ADD PUSH2 0x7F4 SWAP1 PUSH2 0x3A54 JUMP JUMPDEST PUSH1 0xF DUP7 DUP2 SLOAD DUP2 LT PUSH2 0x1292 JUMPI PUSH2 0x1292 PUSH2 0x3A3E JUMP JUMPDEST PUSH1 0x0 SWAP2 DUP3 MSTORE PUSH1 0x20 SWAP1 SWAP2 KECCAK256 PUSH1 0xC SWAP1 SWAP2 MUL ADD PUSH1 0x2 ADD SLOAD PUSH1 0x1 PUSH1 0x1 PUSH1 0xA0 SHL SUB AND CALLER EQ PUSH2 0x12CD JUMPI PUSH1 0x40 MLOAD PUSH3 0x461BCD PUSH1 0xE5 SHL DUP2 MSTORE PUSH1 0x4 ADD PUSH2 0x7F4 SWAP1 PUSH2 0x3A7F JUMP JUMPDEST PUSH1 0x0 DUP6 MLOAD GT PUSH2 0x1316 JUMPI PUSH1 0x40 MLOAD PUSH3 0x461BCD PUSH1 0xE5 SHL DUP2 MSTORE PUSH1 0x20 PUSH1 0x4 DUP3 ADD MSTORE PUSH1 0x15 PUSH1 0x24 DUP3 ADD MSTORE PUSH21 0x5469746C652063616E6E6F7420626520656D707479 PUSH1 0x58 SHL PUSH1 0x44 DUP3 ADD MSTORE PUSH1 0x64 ADD PUSH2 0x7F4 JUMP JUMPDEST PUSH1 0x0 DUP5 MLOAD GT PUSH2 0x1367 JUMPI PUSH1 0x40 MLOAD PUSH3 0x461BCD PUSH1 0xE5 SHL DUP2 MSTORE PUSH1 0x20 PUSH1 0x4 DUP3 ADD MSTORE PUSH1 0x1B PUSH1 0x24 DUP3 ADD MSTORE PUSH32 0x4465736372697074696F6E2063616E6E6F7420626520656D7074790000000000 PUSH1 0x44 DUP3 ADD MSTORE PUSH1 0x64 ADD PUSH2 0x7F4 JUMP JUMPDEST PUSH1 0x0 DUP4 MLOAD GT PUSH2 0x13B3 JUMPI PUSH1 0x40 MLOAD PUSH3 0x461BCD PUSH1 0xE5 SHL DUP2 MSTORE PUSH1 0x20 PUSH1 0x4 DUP3 ADD MSTORE PUSH1 0x18 PUSH1 0x24 DUP3 ADD MSTORE PUSH24 0x496D61676555524C2063616E6E6F7420626520656D707479 PUSH1 0x40 SHL PUSH1 0x44 DUP3 ADD MSTORE PUSH1 0x64 ADD PUSH2 0x7F4 JUMP JUMPDEST DUP5 PUSH1 0xF DUP8 DUP2 SLOAD DUP2 LT PUSH2 0x13C7 JUMPI PUSH2 0x13C7 PUSH2 0x3A3E JUMP JUMPDEST SWAP1 PUSH1 0x0 MSTORE PUSH1 0x20 PUSH1 0x0 KECCAK256 SWAP1 PUSH1 0xC MUL ADD PUSH1 0x3 ADD SWAP1 DUP2 PUSH2 0x13E4 SWAP2 SWAP1 PUSH2 0x393D JUMP JUMPDEST POP DUP4 PUSH1 0xF DUP8 DUP2 SLOAD DUP2 LT PUSH2 0x13F9 JUMPI PUSH2 0x13F9 PUSH2 0x3A3E JUMP JUMPDEST SWAP1 PUSH1 0x0 MSTORE PUSH1 0x20 PUSH1 0x0 KECCAK256 SWAP1 PUSH1 0xC MUL ADD PUSH1 0x4 ADD SWAP1 DUP2 PUSH2 0x1416 SWAP2 SWAP1 PUSH2 0x393D JUMP JUMPDEST POP DUP3 PUSH1 0xF DUP8 DUP2 SLOAD DUP2 LT PUSH2 0x142B JUMPI PUSH2 0x142B PUSH2 0x3A3E JUMP JUMPDEST SWAP1 PUSH1 0x0 MSTORE PUSH1 0x20 PUSH1 0x0 KECCAK256 SWAP1 PUSH1 0xC MUL ADD PUSH1 0x5 ADD SWAP1 DUP2 PUSH2 0x1448 SWAP2 SWAP1 PUSH2 0x393D JUMP JUMPDEST POP DUP2 PUSH1 0xF DUP8 DUP2 SLOAD DUP2 LT PUSH2 0x145D JUMPI PUSH2 0x145D PUSH2 0x3A3E JUMP JUMPDEST SWAP1 PUSH1 0x0 MSTORE PUSH1 0x20 PUSH1 0x0 KECCAK256 SWAP1 PUSH1 0xC MUL ADD PUSH1 0x9 ADD DUP2 SWAP1 SSTORE POP CALLER PUSH1 0x1 PUSH1 0x1 PUSH1 0xA0 SHL SUB AND PUSH1 0x0 DUP1 MLOAD PUSH1 0x20 PUSH2 0x3C82 DUP4 CODECOPY DUP2 MLOAD SWAP2 MSTORE DUP8 TIMESTAMP PUSH1 0x40 MLOAD PUSH2 0x14CB SWAP3 SWAP2 SWAP1 SWAP2 DUP3 MSTORE PUSH1 0x60 PUSH1 0x20 DUP4 ADD DUP2 SWAP1 MSTORE PUSH1 0xF SWAP1 DUP4 ADD MSTORE PUSH15 0x141493D29150D50815541110551151 PUSH1 0x8A SHL PUSH1 0x80 DUP4 ADD MSTORE PUSH1 0x40 DUP3 ADD MSTORE PUSH1 0xA0 ADD SWAP1 JUMP JUMPDEST PUSH1 0x40 MLOAD DUP1 SWAP2 SUB SWAP1 LOG2 POP PUSH1 0x1 SWAP6 SWAP5 POP POP POP POP POP JUMP JUMPDEST PUSH1 0x0 DUP1 CALLVALUE GT PUSH2 0x1530 JUMPI PUSH1 0x40 MLOAD PUSH3 0x461BCD PUSH1 0xE5 SHL DUP2 MSTORE PUSH1 0x20 PUSH1 0x4 DUP3 ADD MSTORE PUSH1 0x1F PUSH1 0x24 DUP3 ADD MSTORE PUSH32 0x4574686572206D7573742062652067726561746572207468616E207A65726F00 PUSH1 0x44 DUP3 ADD MSTORE PUSH1 0x64 ADD PUSH2 0x7F4 JUMP JUMPDEST PUSH1 0x0 DUP3 DUP2 MSTORE PUSH1 0x12 PUSH1 0x20 MSTORE PUSH1 0x40 SWAP1 KECCAK256 SLOAD PUSH1 0xFF AND PUSH2 0x155E JUMPI PUSH1 0x40 MLOAD PUSH3 0x461BCD PUSH1 0xE5 SHL DUP2 MSTORE PUSH1 0x4 ADD PUSH2 0x7F4 SWAP1 PUSH2 0x3A54 JUMP JUMPDEST PUSH1 0x0 PUSH1 0xF DUP4 DUP2 SLOAD DUP2 LT PUSH2 0x1573 JUMPI PUSH2 0x1573 PUSH2 0x3A3E JUMP JUMPDEST PUSH1 0x0 SWAP2 DUP3 MSTORE PUSH1 0x20 SWAP1 SWAP2 KECCAK256 PUSH1 0xB PUSH1 0xC SWAP1 SWAP3 MUL ADD ADD SLOAD PUSH1 0xFF AND PUSH1 0x5 DUP2 GT ISZERO PUSH2 0x159B JUMPI PUSH2 0x159B PUSH2 0x36D5 JUMP JUMPDEST EQ PUSH2 0x15DE JUMPI PUSH1 0x40 MLOAD PUSH3 0x461BCD PUSH1 0xE5 SHL DUP2 MSTORE PUSH1 0x20 PUSH1 0x4 DUP3 ADD MSTORE PUSH1 0x13 PUSH1 0x24 DUP3 ADD MSTORE PUSH19 0x283937B532B1BA1034B9903737BA1037B832B7 PUSH1 0x69 SHL PUSH1 0x44 DUP3 ADD MSTORE PUSH1 0x64 ADD PUSH2 0x7F4 JUMP JUMPDEST PUSH1 0x1 PUSH1 0xC PUSH1 0x1 ADD PUSH1 0x0 DUP3 DUP3 SLOAD PUSH2 0x15F4 SWAP2 SWAP1 PUSH2 0x3A12 JUMP JUMPDEST SWAP1 SWAP2 SSTORE POP POP PUSH1 0xE DUP1 SLOAD CALLVALUE SWAP2 SWAP1 PUSH1 0x0 SWAP1 PUSH2 0x160E SWAP1 DUP5 SWAP1 PUSH2 0x3A12 JUMP JUMPDEST SWAP3 POP POP DUP2 SWAP1 SSTORE POP CALLVALUE PUSH1 0xF DUP4 DUP2 SLOAD DUP2 LT PUSH2 0x1629 JUMPI PUSH2 0x1629 PUSH2 0x3A3E JUMP JUMPDEST SWAP1 PUSH1 0x0 MSTORE PUSH1 0x20 PUSH1 0x0 KECCAK256 SWAP1 PUSH1 0xC MUL ADD PUSH1 0x7 ADD PUSH1 0x0 DUP3 DUP3 SLOAD PUSH2 0x1649 SWAP2 SWAP1 PUSH2 0x3A12 JUMP JUMPDEST SWAP3 POP POP DUP2 SWAP1 SSTORE POP PUSH1 0x1 PUSH1 0xF DUP4 DUP2 SLOAD DUP2 LT PUSH2 0x1665 JUMPI PUSH2 0x1665 PUSH2 0x3A3E JUMP JUMPDEST SWAP1 PUSH1 0x0 MSTORE PUSH1 0x20 PUSH1 0x0 KECCAK256 SWAP1 PUSH1 0xC MUL ADD PUSH1 0xA ADD PUSH1 0x0 DUP3 DUP3 SLOAD PUSH2 0x1685 SWAP2 SWAP1 PUSH2 0x3A12 JUMP JUMPDEST SWAP1 SWAP2 SSTORE POP POP PUSH1 0x0 DUP3 DUP2 MSTORE PUSH1 0x11 PUSH1 0x20 SWAP1 DUP2 MSTORE PUSH1 0x40 DUP1 DUP4 KECCAK256 DUP2 MLOAD PUSH1 0x80 DUP1 DUP3 ADD DUP5 MSTORE CALLER DUP1 DUP4 MSTORE CALLVALUE DUP4 DUP8 ADD SWAP1 DUP2 MSTORE TIMESTAMP DUP5 DUP8 ADD DUP2 DUP2 MSTORE PUSH1 0x60 DUP1 DUP8 ADD DUP12 DUP2 MSTORE DUP9 SLOAD PUSH1 0x1 DUP1 DUP3 ADD DUP12 SSTORE SWAP10 DUP14 MSTORE SWAP12 DUP12 SWAP1 KECCAK256 SWAP8 MLOAD PUSH1 0x4 SWAP1 SWAP13 MUL SWAP1 SWAP8 ADD DUP1 SLOAD PUSH1 0x1 PUSH1 0x1 PUSH1 0xA0 SHL SUB NOT AND PUSH1 0x1 PUSH1 0x1 PUSH1 0xA0 SHL SUB SWAP1 SWAP13 AND SWAP12 SWAP1 SWAP12 OR DUP12 SSTORE SWAP3 MLOAD SWAP7 DUP11 ADD SWAP7 SWAP1 SWAP7 SSTORE SWAP5 MLOAD PUSH1 0x2 DUP10 ADD SSTORE SWAP3 MLOAD PUSH1 0x3 SWAP1 SWAP8 ADD DUP1 SLOAD PUSH1 0xFF NOT AND SWAP8 ISZERO ISZERO SWAP8 SWAP1 SWAP8 OR SWAP1 SWAP7 SSTORE DUP4 MLOAD DUP9 DUP2 MSTORE SWAP5 DUP6 ADD DUP3 SWAP1 MSTORE PUSH1 0xE SWAP2 DUP6 ADD SWAP2 SWAP1 SWAP2 MSTORE PUSH14 0x141493D29150D508109050D2D151 PUSH1 0x92 SHL SWAP1 DUP5 ADD MSTORE SWAP1 DUP3 ADD MSTORE PUSH1 0x0 DUP1 MLOAD PUSH1 0x20 PUSH2 0x3C82 DUP4 CODECOPY DUP2 MLOAD SWAP2 MSTORE SWAP1 PUSH1 0xA0 ADD PUSH1 0x40 MLOAD DUP1 SWAP2 SUB SWAP1 LOG2 PUSH1 0xF DUP3 DUP2 SLOAD DUP2 LT PUSH2 0x1778 JUMPI PUSH2 0x1778 PUSH2 0x3A3E JUMP JUMPDEST SWAP1 PUSH1 0x0 MSTORE PUSH1 0x20 PUSH1 0x0 KECCAK256 SWAP1 PUSH1 0xC MUL ADD PUSH1 0x6 ADD SLOAD PUSH1 0xF DUP4 DUP2 SLOAD DUP2 LT PUSH2 0x179D JUMPI PUSH2 0x179D PUSH2 0x3A3E JUMP JUMPDEST SWAP1 PUSH1 0x0 MSTORE PUSH1 0x20 PUSH1 0x0 KECCAK256 SWAP1 PUSH1 0xC MUL ADD PUSH1 0x7 ADD SLOAD LT PUSH2 0x1803 JUMPI PUSH1 0x1 PUSH1 0xF DUP4 DUP2 SLOAD DUP2 LT PUSH2 0x17C9 JUMPI PUSH2 0x17C9 PUSH2 0x3A3E JUMP JUMPDEST PUSH1 0x0 SWAP2 DUP3 MSTORE PUSH1 0x20 SWAP1 SWAP2 KECCAK256 PUSH1 0xB PUSH1 0xC SWAP1 SWAP3 MUL ADD ADD DUP1 SLOAD PUSH1 0xFF NOT AND PUSH1 0x1 DUP4 PUSH1 0x5 DUP2 GT ISZERO PUSH2 0x17F6 JUMPI PUSH2 0x17F6 PUSH2 0x36D5 JUMP JUMPDEST MUL OR SWAP1 SSTORE POP PUSH1 0x1 SWAP3 SWAP2 POP POP JUMP JUMPDEST PUSH1 0xF DUP3 DUP2 SLOAD DUP2 LT PUSH2 0x1816 JUMPI PUSH2 0x1816 PUSH2 0x3A3E JUMP JUMPDEST SWAP1 PUSH1 0x0 MSTORE PUSH1 0x20 PUSH1 0x0 KECCAK256 SWAP1 PUSH1 0xC MUL ADD PUSH1 0x9 ADD SLOAD TIMESTAMP LT PUSH2 0x187E JUMPI PUSH1 0x2 PUSH1 0xF DUP4 DUP2 SLOAD DUP2 LT PUSH2 0x1843 JUMPI PUSH2 0x1843 PUSH2 0x3A3E JUMP JUMPDEST PUSH1 0x0 SWAP2 DUP3 MSTORE PUSH1 0x20 SWAP1 SWAP2 KECCAK256 PUSH1 0xB PUSH1 0xC SWAP1 SWAP3 MUL ADD ADD DUP1 SLOAD PUSH1 0xFF NOT AND PUSH1 0x1 DUP4 PUSH1 0x5 DUP2 GT ISZERO PUSH2 0x1870 JUMPI PUSH2 0x1870 PUSH2 0x36D5 JUMP JUMPDEST MUL OR SWAP1 SSTORE POP PUSH2 0x187E DUP3 PUSH2 0x2395 JUMP JUMPDEST POP PUSH1 0x1 SWAP2 SWAP1 POP JUMP JUMPDEST PUSH2 0xD47 CALLER DUP4 DUP4 PUSH2 0x252F JUMP JUMPDEST PUSH1 0x0 PUSH1 0x2 PUSH1 0xF DUP4 DUP2 SLOAD DUP2 LT PUSH2 0x18A8 JUMPI PUSH2 0x18A8 PUSH2 0x3A3E JUMP JUMPDEST PUSH1 0x0 SWAP2 DUP3 MSTORE PUSH1 0x20 SWAP1 SWAP2 KECCAK256 PUSH1 0xB PUSH1 0xC SWAP1 SWAP3 MUL ADD ADD SLOAD PUSH1 0xFF AND PUSH1 0x5 DUP2 GT ISZERO PUSH2 0x18D0 JUMPI PUSH2 0x18D0 PUSH2 0x36D5 JUMP JUMPDEST EQ ISZERO DUP1 PUSH2 0x1918 JUMPI POP PUSH1 0x3 PUSH1 0xF DUP4 DUP2 SLOAD DUP2 LT PUSH2 0x18ED JUMPI PUSH2 0x18ED PUSH2 0x3A3E JUMP JUMPDEST PUSH1 0x0 SWAP2 DUP3 MSTORE PUSH1 0x20 SWAP1 SWAP2 KECCAK256 PUSH1 0xB PUSH1 0xC SWAP1 SWAP3 MUL ADD ADD SLOAD PUSH1 0xFF AND PUSH1 0x5 DUP2 GT ISZERO PUSH2 0x1915 JUMPI PUSH2 0x1915 PUSH2 0x36D5 JUMP JUMPDEST EQ ISZERO JUMPDEST PUSH2 0x1973 JUMPI PUSH1 0x40 MLOAD PUSH3 0x461BCD PUSH1 0xE5 SHL DUP2 MSTORE PUSH1 0x20 PUSH1 0x4 DUP3 ADD MSTORE PUSH1 0x26 PUSH1 0x24 DUP3 ADD MSTORE PUSH32 0x50726F6A65637420686173206D61726B656420617320726576657274206F7220 PUSH1 0x44 DUP3 ADD MSTORE PUSH6 0x64656C657465 PUSH1 0xD0 SHL PUSH1 0x64 DUP3 ADD MSTORE PUSH1 0x84 ADD PUSH2 0x7F4 JUMP JUMPDEST PUSH1 0x2 PUSH1 0xF DUP4 DUP2 SLOAD DUP2 LT PUSH2 0x1843 JUMPI PUSH2 0x1843 PUSH2 0x3A3E JUMP JUMPDEST PUSH1 0x0 PUSH1 0x1 PUSH1 0xF DUP4 DUP2 SLOAD DUP2 LT PUSH2 0x199F JUMPI PUSH2 0x199F PUSH2 0x3A3E JUMP JUMPDEST PUSH1 0x0 SWAP2 DUP3 MSTORE PUSH1 0x20 SWAP1 SWAP2 KECCAK256 PUSH1 0xB PUSH1 0xC SWAP1 SWAP3 MUL ADD ADD SLOAD PUSH1 0xFF AND PUSH1 0x5 DUP2 GT ISZERO PUSH2 0x19C7 JUMPI PUSH2 0x19C7 PUSH2 0x36D5 JUMP JUMPDEST EQ PUSH2 0x19E4 JUMPI PUSH1 0x40 MLOAD PUSH3 0x461BCD PUSH1 0xE5 SHL DUP2 MSTORE PUSH1 0x4 ADD PUSH2 0x7F4 SWAP1 PUSH2 0x3AAC JUMP JUMPDEST PUSH1 0xF DUP3 DUP2 SLOAD DUP2 LT PUSH2 0x19F7 JUMPI PUSH2 0x19F7 PUSH2 0x3A3E JUMP JUMPDEST PUSH1 0x0 SWAP2 DUP3 MSTORE PUSH1 0x20 SWAP1 SWAP2 KECCAK256 PUSH1 0xC SWAP1 SWAP2 MUL ADD PUSH1 0x2 ADD SLOAD PUSH1 0x1 PUSH1 0x1 PUSH1 0xA0 SHL SUB AND CALLER EQ DUP1 PUSH2 0x1A2B JUMPI POP PUSH1 0x7 SLOAD PUSH1 0x1 PUSH1 0x1 PUSH1 0xA0 SHL SUB AND CALLER EQ JUMPDEST PUSH2 0x1A47 JUMPI PUSH1 0x40 MLOAD PUSH3 0x461BCD PUSH1 0xE5 SHL DUP2 MSTORE PUSH1 0x4 ADD PUSH2 0x7F4 SWAP1 PUSH2 0x3A7F JUMP JUMPDEST PUSH2 0x187E DUP3 PUSH2 0x25CE JUMP JUMPDEST PUSH2 0x1A5B DUP5 DUP5 DUP5 PUSH2 0xD4B JUMP JUMPDEST PUSH2 0xDD0 DUP5 DUP5 DUP5 DUP5 PUSH2 0x2744 JUMP JUMPDEST PUSH1 0x15 PUSH1 0x20 MSTORE DUP2 PUSH1 0x0 MSTORE PUSH1 0x40 PUSH1 0x0 KECCAK256 DUP2 DUP2 SLOAD DUP2 LT PUSH2 0xEBE JUMPI PUSH1 0x0 DUP1 REVERT JUMPDEST PUSH1 0x60 PUSH2 0x7AA DUP3 PUSH2 0x286D JUMP JUMPDEST PUSH1 0x0 DUP2 DUP2 MSTORE PUSH1 0x12 PUSH1 0x20 MSTORE PUSH1 0x40 SWAP1 KECCAK256 SLOAD PUSH1 0x60 SWAP1 PUSH1 0xFF AND PUSH2 0x1ABF JUMPI PUSH1 0x40 MLOAD PUSH3 0x461BCD PUSH1 0xE5 SHL DUP2 MSTORE PUSH1 0x4 ADD PUSH2 0x7F4 SWAP1 PUSH2 0x3A54 JUMP JUMPDEST PUSH1 0x0 DUP3 DUP2 MSTORE PUSH1 0x11 PUSH1 0x20 SWAP1 DUP2 MSTORE PUSH1 0x40 DUP1 DUP4 KECCAK256 DUP1 SLOAD DUP3 MLOAD DUP2 DUP6 MUL DUP2 ADD DUP6 ADD SWAP1 SWAP4 MSTORE DUP1 DUP4 MSTORE SWAP2 SWAP4 SWAP1 SWAP3 DUP5 ADD JUMPDEST DUP3 DUP3 LT ISZERO PUSH2 0x1B4A JUMPI PUSH1 0x0 DUP5 DUP2 MSTORE PUSH1 0x20 SWAP1 DUP2 SWAP1 KECCAK256 PUSH1 0x40 DUP1 MLOAD PUSH1 0x80 DUP2 ADD DUP3 MSTORE PUSH1 0x4 DUP7 MUL SWAP1 SWAP3 ADD DUP1 SLOAD PUSH1 0x1 PUSH1 0x1 PUSH1 0xA0 SHL SUB AND DUP4 MSTORE PUSH1 0x1 DUP1 DUP3 ADD SLOAD DUP5 DUP7 ADD MSTORE PUSH1 0x2 DUP3 ADD SLOAD SWAP3 DUP5 ADD SWAP3 SWAP1 SWAP3 MSTORE PUSH1 0x3 ADD SLOAD PUSH1 0xFF AND ISZERO ISZERO PUSH1 0x60 DUP4 ADD MSTORE SWAP1 DUP4 MSTORE SWAP1 SWAP3 ADD SWAP2 ADD PUSH2 0x1AE8 JUMP JUMPDEST POP POP POP POP SWAP1 POP SWAP2 SWAP1 POP JUMP JUMPDEST PUSH1 0x60 PUSH1 0xF DUP1 SLOAD DUP1 PUSH1 0x20 MUL PUSH1 0x20 ADD PUSH1 0x40 MLOAD SWAP1 DUP2 ADD PUSH1 0x40 MSTORE DUP1 SWAP3 SWAP2 SWAP1 DUP2 DUP2 MSTORE PUSH1 0x20 ADD PUSH1 0x0 SWAP1 JUMPDEST DUP3 DUP3 LT ISZERO PUSH2 0x1DF7 JUMPI PUSH1 0x0 DUP5 DUP2 MSTORE PUSH1 0x20 SWAP1 DUP2 SWAP1 KECCAK256 PUSH1 0x40 DUP1 MLOAD PUSH2 0x180 DUP2 ADD DUP3 MSTORE PUSH1 0xC DUP7 MUL SWAP1 SWAP3 ADD DUP1 SLOAD DUP4 MSTORE PUSH1 0x1 DUP2 ADD SLOAD PUSH1 0x1 PUSH1 0x1 PUSH1 0xA0 SHL SUB SWAP1 DUP2 AND SWAP5 DUP5 ADD SWAP5 SWAP1 SWAP5 MSTORE PUSH1 0x2 DUP2 ADD SLOAD SWAP1 SWAP4 AND SWAP1 DUP3 ADD MSTORE PUSH1 0x3 DUP3 ADD DUP1 SLOAD SWAP2 SWAP3 SWAP2 PUSH1 0x60 DUP5 ADD SWAP2 SWAP1 PUSH2 0x1BDD SWAP1 PUSH2 0x38BC JUMP JUMPDEST DUP1 PUSH1 0x1F ADD PUSH1 0x20 DUP1 SWAP2 DIV MUL PUSH1 0x20 ADD PUSH1 0x40 MLOAD SWAP1 DUP2 ADD PUSH1 0x40 MSTORE DUP1 SWAP3 SWAP2 SWAP1 DUP2 DUP2 MSTORE PUSH1 0x20 ADD DUP3 DUP1 SLOAD PUSH2 0x1C09 SWAP1 PUSH2 0x38BC JUMP JUMPDEST DUP1 ISZERO PUSH2 0x1C56 JUMPI DUP1 PUSH1 0x1F LT PUSH2 0x1C2B JUMPI PUSH2 0x100 DUP1 DUP4 SLOAD DIV MUL DUP4 MSTORE SWAP2 PUSH1 0x20 ADD SWAP2 PUSH2 0x1C56 JUMP JUMPDEST DUP3 ADD SWAP2 SWAP1 PUSH1 0x0 MSTORE PUSH1 0x20 PUSH1 0x0 KECCAK256 SWAP1 JUMPDEST DUP2 SLOAD DUP2 MSTORE SWAP1 PUSH1 0x1 ADD SWAP1 PUSH1 0x20 ADD DUP1 DUP4 GT PUSH2 0x1C39 JUMPI DUP3 SWAP1 SUB PUSH1 0x1F AND DUP3 ADD SWAP2 JUMPDEST POP POP POP POP POP DUP2 MSTORE PUSH1 0x20 ADD PUSH1 0x4 DUP3 ADD DUP1 SLOAD PUSH2 0x1C6F SWAP1 PUSH2 0x38BC JUMP JUMPDEST DUP1 PUSH1 0x1F ADD PUSH1 0x20 DUP1 SWAP2 DIV MUL PUSH1 0x20 ADD PUSH1 0x40 MLOAD SWAP1 DUP2 ADD PUSH1 0x40 MSTORE DUP1 SWAP3 SWAP2 SWAP1 DUP2 DUP2 MSTORE PUSH1 0x20 ADD DUP3 DUP1 SLOAD PUSH2 0x1C9B SWAP1 PUSH2 0x38BC JUMP JUMPDEST DUP1 ISZERO PUSH2 0x1CE8 JUMPI DUP1 PUSH1 0x1F LT PUSH2 0x1CBD JUMPI PUSH2 0x100 DUP1 DUP4 SLOAD DIV MUL DUP4 MSTORE SWAP2 PUSH1 0x20 ADD SWAP2 PUSH2 0x1CE8 JUMP JUMPDEST DUP3 ADD SWAP2 SWAP1 PUSH1 0x0 MSTORE PUSH1 0x20 PUSH1 0x0 KECCAK256 SWAP1 JUMPDEST DUP2 SLOAD DUP2 MSTORE SWAP1 PUSH1 0x1 ADD SWAP1 PUSH1 0x20 ADD DUP1 DUP4 GT PUSH2 0x1CCB JUMPI DUP3 SWAP1 SUB PUSH1 0x1F AND DUP3 ADD SWAP2 JUMPDEST POP POP POP POP POP DUP2 MSTORE PUSH1 0x20 ADD PUSH1 0x5 DUP3 ADD DUP1 SLOAD PUSH2 0x1D01 SWAP1 PUSH2 0x38BC JUMP JUMPDEST DUP1 PUSH1 0x1F ADD PUSH1 0x20 DUP1 SWAP2 DIV MUL PUSH1 0x20 ADD PUSH1 0x40 MLOAD SWAP1 DUP2 ADD PUSH1 0x40 MSTORE DUP1 SWAP3 SWAP2 SWAP1 DUP2 DUP2 MSTORE PUSH1 0x20 ADD DUP3 DUP1 SLOAD PUSH2 0x1D2D SWAP1 PUSH2 0x38BC JUMP JUMPDEST DUP1 ISZERO PUSH2 0x1D7A JUMPI DUP1 PUSH1 0x1F LT PUSH2 0x1D4F JUMPI PUSH2 0x100 DUP1 DUP4 SLOAD DIV MUL DUP4 MSTORE SWAP2 PUSH1 0x20 ADD SWAP2 PUSH2 0x1D7A JUMP JUMPDEST DUP3 ADD SWAP2 SWAP1 PUSH1 0x0 MSTORE PUSH1 0x20 PUSH1 0x0 KECCAK256 SWAP1 JUMPDEST DUP2 SLOAD DUP2 MSTORE SWAP1 PUSH1 0x1 ADD SWAP1 PUSH1 0x20 ADD DUP1 DUP4 GT PUSH2 0x1D5D JUMPI DUP3 SWAP1 SUB PUSH1 0x1F AND DUP3 ADD SWAP2 JUMPDEST POP POP POP SWAP2 DUP4 MSTORE POP POP PUSH1 0x6 DUP3 ADD SLOAD PUSH1 0x20 DUP3 ADD MSTORE PUSH1 0x7 DUP3 ADD SLOAD PUSH1 0x40 DUP3 ADD MSTORE PUSH1 0x8 DUP3 ADD SLOAD PUSH1 0x60 DUP3 ADD MSTORE PUSH1 0x9 DUP3 ADD SLOAD PUSH1 0x80 DUP3 ADD MSTORE PUSH1 0xA DUP3 ADD SLOAD PUSH1 0xA0 DUP3 ADD MSTORE PUSH1 0xB DUP3 ADD SLOAD PUSH1 0xC0 SWAP1 SWAP2 ADD SWAP1 PUSH1 0xFF AND PUSH1 0x5 DUP2 GT ISZERO PUSH2 0x1DD3 JUMPI PUSH2 0x1DD3 PUSH2 0x36D5 JUMP JUMPDEST PUSH1 0x5 DUP2 GT ISZERO PUSH2 0x1DE4 JUMPI PUSH2 0x1DE4 PUSH2 0x36D5 JUMP JUMPDEST DUP2 MSTORE POP POP DUP2 MSTORE PUSH1 0x20 ADD SWAP1 PUSH1 0x1 ADD SWAP1 PUSH2 0x1B79 JUMP JUMPDEST POP POP POP POP SWAP1 POP SWAP1 JUMP JUMPDEST PUSH1 0x1 PUSH1 0x1 PUSH1 0xA0 SHL SUB SWAP2 DUP3 AND PUSH1 0x0 SWAP1 DUP2 MSTORE PUSH1 0x5 PUSH1 0x20 SWAP1 DUP2 MSTORE PUSH1 0x40 DUP1 DUP4 KECCAK256 SWAP4 SWAP1 SWAP5 AND DUP3 MSTORE SWAP2 SWAP1 SWAP2 MSTORE KECCAK256 SLOAD PUSH1 0xFF AND SWAP1 JUMP JUMPDEST PUSH2 0x1E36 PUSH2 0x315B JUMP JUMPDEST PUSH1 0x0 DUP3 DUP2 MSTORE PUSH1 0x12 PUSH1 0x20 MSTORE PUSH1 0x40 SWAP1 KECCAK256 SLOAD PUSH1 0xFF AND PUSH2 0x1E64 JUMPI PUSH1 0x40 MLOAD PUSH3 0x461BCD PUSH1 0xE5 SHL DUP2 MSTORE PUSH1 0x4 ADD PUSH2 0x7F4 SWAP1 PUSH2 0x3A54 JUMP JUMPDEST PUSH1 0xF DUP3 DUP2 SLOAD DUP2 LT PUSH2 0x1E77 JUMPI PUSH2 0x1E77 PUSH2 0x3A3E JUMP JUMPDEST PUSH1 0x0 SWAP2 DUP3 MSTORE PUSH1 0x20 SWAP2 DUP3 SWAP1 KECCAK256 PUSH1 0x40 DUP1 MLOAD PUSH2 0x180 DUP2 ADD DUP3 MSTORE PUSH1 0xC SWAP1 SWAP4 MUL SWAP1 SWAP2 ADD DUP1 SLOAD DUP4 MSTORE PUSH1 0x1 DUP2 ADD SLOAD PUSH1 0x1 PUSH1 0x1 PUSH1 0xA0 SHL SUB SWAP1 DUP2 AND SWAP5 DUP5 ADD SWAP5 SWAP1 SWAP5 MSTORE PUSH1 0x2 DUP2 ADD SLOAD SWAP1 SWAP4 AND SWAP1 DUP3 ADD MSTORE PUSH1 0x3 DUP3 ADD DUP1 SLOAD SWAP2 SWAP3 SWAP2 PUSH1 0x60 DUP5 ADD SWAP2 SWAP1 PUSH2 0x1ED4 SWAP1 PUSH2 0x38BC JUMP JUMPDEST DUP1 PUSH1 0x1F ADD PUSH1 0x20 DUP1 SWAP2 DIV MUL PUSH1 0x20 ADD PUSH1 0x40 MLOAD SWAP1 DUP2 ADD PUSH1 0x40 MSTORE DUP1 SWAP3 SWAP2 SWAP1 DUP2 DUP2 MSTORE PUSH1 0x20 ADD DUP3 DUP1 SLOAD PUSH2 0x1F00 SWAP1 PUSH2 0x38BC JUMP JUMPDEST DUP1 ISZERO PUSH2 0x1F4D JUMPI DUP1 PUSH1 0x1F LT PUSH2 0x1F22 JUMPI PUSH2 0x100 DUP1 DUP4 SLOAD DIV MUL DUP4 MSTORE SWAP2 PUSH1 0x20 ADD SWAP2 PUSH2 0x1F4D JUMP JUMPDEST DUP3 ADD SWAP2 SWAP1 PUSH1 0x0 MSTORE PUSH1 0x20 PUSH1 0x0 KECCAK256 SWAP1 JUMPDEST DUP2 SLOAD DUP2 MSTORE SWAP1 PUSH1 0x1 ADD SWAP1 PUSH1 0x20 ADD DUP1 DUP4 GT PUSH2 0x1F30 JUMPI DUP3 SWAP1 SUB PUSH1 0x1F AND DUP3 ADD SWAP2 JUMPDEST POP POP POP POP POP DUP2 MSTORE PUSH1 0x20 ADD PUSH1 0x4 DUP3 ADD DUP1 SLOAD PUSH2 0x1F66 SWAP1 PUSH2 0x38BC JUMP JUMPDEST DUP1 PUSH1 0x1F ADD PUSH1 0x20 DUP1 SWAP2 DIV MUL PUSH1 0x20 ADD PUSH1 0x40 MLOAD SWAP1 DUP2 ADD PUSH1 0x40 MSTORE DUP1 SWAP3 SWAP2 SWAP1 DUP2 DUP2 MSTORE PUSH1 0x20 ADD DUP3 DUP1 SLOAD PUSH2 0x1F92 SWAP1 PUSH2 0x38BC JUMP JUMPDEST DUP1 ISZERO PUSH2 0x1FDF JUMPI DUP1 PUSH1 0x1F LT PUSH2 0x1FB4 JUMPI PUSH2 0x100 DUP1 DUP4 SLOAD DIV MUL DUP4 MSTORE SWAP2 PUSH1 0x20 ADD SWAP2 PUSH2 0x1FDF JUMP JUMPDEST DUP3 ADD SWAP2 SWAP1 PUSH1 0x0 MSTORE PUSH1 0x20 PUSH1 0x0 KECCAK256 SWAP1 JUMPDEST DUP2 SLOAD DUP2 MSTORE SWAP1 PUSH1 0x1 ADD SWAP1 PUSH1 0x20 ADD DUP1 DUP4 GT PUSH2 0x1FC2 JUMPI DUP3 SWAP1 SUB PUSH1 0x1F AND DUP3 ADD SWAP2 JUMPDEST POP POP POP POP POP DUP2 MSTORE PUSH1 0x20 ADD PUSH1 0x5 DUP3 ADD DUP1 SLOAD PUSH2 0x1FF8 SWAP1 PUSH2 0x38BC JUMP JUMPDEST DUP1 PUSH1 0x1F ADD PUSH1 0x20 DUP1 SWAP2 DIV MUL PUSH1 0x20 ADD PUSH1 0x40 MLOAD SWAP1 DUP2 ADD PUSH1 0x40 MSTORE DUP1 SWAP3 SWAP2 SWAP1 DUP2 DUP2 MSTORE PUSH1 0x20 ADD DUP3 DUP1 SLOAD PUSH2 0x2024 SWAP1 PUSH2 0x38BC JUMP JUMPDEST DUP1 ISZERO PUSH2 0x2071 JUMPI DUP1 PUSH1 0x1F LT PUSH2 0x2046 JUMPI PUSH2 0x100 DUP1 DUP4 SLOAD DIV MUL DUP4 MSTORE SWAP2 PUSH1 0x20 ADD SWAP2 PUSH2 0x2071 JUMP JUMPDEST DUP3 ADD SWAP2 SWAP1 PUSH1 0x0 MSTORE PUSH1 0x20 PUSH1 0x0 KECCAK256 SWAP1 JUMPDEST DUP2 SLOAD DUP2 MSTORE SWAP1 PUSH1 0x1 ADD SWAP1 PUSH1 0x20 ADD DUP1 DUP4 GT PUSH2 0x2054 JUMPI DUP3 SWAP1 SUB PUSH1 0x1F AND DUP3 ADD SWAP2 JUMPDEST POP POP POP SWAP2 DUP4 MSTORE POP POP PUSH1 0x6 DUP3 ADD SLOAD PUSH1 0x20 DUP3 ADD MSTORE PUSH1 0x7 DUP3 ADD SLOAD PUSH1 0x40 DUP3 ADD MSTORE PUSH1 0x8 DUP3 ADD SLOAD PUSH1 0x60 DUP3 ADD MSTORE PUSH1 0x9 DUP3 ADD SLOAD PUSH1 0x80 DUP3 ADD MSTORE PUSH1 0xA DUP3 ADD SLOAD PUSH1 0xA0 DUP3 ADD MSTORE PUSH1 0xB DUP3 ADD SLOAD PUSH1 0xC0 SWAP1 SWAP2 ADD SWAP1 PUSH1 0xFF AND PUSH1 0x5 DUP2 GT ISZERO PUSH2 0x20CA JUMPI PUSH2 0x20CA PUSH2 0x36D5 JUMP JUMPDEST PUSH1 0x5 DUP2 GT ISZERO PUSH2 0x20DB JUMPI PUSH2 0x20DB PUSH2 0x36D5 JUMP JUMPDEST SWAP1 MSTORE POP SWAP3 SWAP2 POP POP JUMP JUMPDEST CALLER PUSH1 0x0 SWAP1 DUP2 MSTORE PUSH1 0x13 PUSH1 0x20 MSTORE PUSH1 0x40 DUP2 KECCAK256 SLOAD PUSH1 0xFF AND DUP1 PUSH2 0x210C JUMPI POP PUSH1 0x7 SLOAD PUSH1 0x1 PUSH1 0x1 PUSH1 0xA0 SHL SUB AND CALLER EQ JUMPDEST PUSH2 0x2128 JUMPI PUSH1 0x40 MLOAD PUSH3 0x461BCD PUSH1 0xE5 SHL DUP2 MSTORE PUSH1 0x4 ADD PUSH2 0x7F4 SWAP1 PUSH2 0x3885 JUMP JUMPDEST PUSH1 0x0 DUP3 DUP2 MSTORE PUSH1 0x12 PUSH1 0x20 MSTORE PUSH1 0x40 SWAP1 KECCAK256 SLOAD PUSH1 0xFF AND PUSH2 0x2156 JUMPI PUSH1 0x40 MLOAD PUSH3 0x461BCD PUSH1 0xE5 SHL DUP2 MSTORE PUSH1 0x4 ADD PUSH2 0x7F4 SWAP1 PUSH2 0x3A54 JUMP JUMPDEST PUSH1 0x1 PUSH1 0xF DUP4 DUP2 SLOAD DUP2 LT PUSH2 0x216B JUMPI PUSH2 0x216B PUSH2 0x3A3E JUMP JUMPDEST PUSH1 0x0 SWAP2 DUP3 MSTORE PUSH1 0x20 SWAP1 SWAP2 KECCAK256 PUSH1 0xB PUSH1 0xC SWAP1 SWAP3 MUL ADD ADD SLOAD PUSH1 0xFF AND PUSH1 0x5 DUP2 GT ISZERO PUSH2 0x2193 JUMPI PUSH2 0x2193 PUSH2 0x36D5 JUMP JUMPDEST EQ PUSH2 0x21B0 JUMPI PUSH1 0x40 MLOAD PUSH3 0x461BCD PUSH1 0xE5 SHL DUP2 MSTORE PUSH1 0x4 ADD PUSH2 0x7F4 SWAP1 PUSH2 0x3AAC JUMP JUMPDEST PUSH1 0xF DUP3 DUP2 SLOAD DUP2 LT PUSH2 0x21C3 JUMPI PUSH2 0x21C3 PUSH2 0x3A3E JUMP JUMPDEST PUSH1 0x0 SWAP2 DUP3 MSTORE PUSH1 0x20 SWAP1 SWAP2 KECCAK256 PUSH1 0xC SWAP1 SWAP2 MUL ADD PUSH1 0x2 ADD SLOAD PUSH1 0x1 PUSH1 0x1 PUSH1 0xA0 SHL SUB AND CALLER EQ DUP1 PUSH2 0x21F7 JUMPI POP PUSH1 0x7 SLOAD PUSH1 0x1 PUSH1 0x1 PUSH1 0xA0 SHL SUB AND CALLER EQ JUMPDEST PUSH2 0x2213 JUMPI PUSH1 0x40 MLOAD PUSH3 0x461BCD PUSH1 0xE5 SHL DUP2 MSTORE PUSH1 0x4 ADD PUSH2 0x7F4 SWAP1 PUSH2 0x3A7F JUMP JUMPDEST PUSH2 0x221C DUP3 PUSH2 0x297E JUMP JUMPDEST PUSH1 0x4 PUSH1 0xF DUP4 DUP2 SLOAD DUP2 LT PUSH2 0x17C9 JUMPI PUSH2 0x17C9 PUSH2 0x3A3E JUMP JUMPDEST PUSH1 0x0 PUSH1 0x1 PUSH1 0x1 PUSH1 0xE0 SHL SUB NOT DUP3 AND PUSH4 0x24832483 PUSH1 0xE1 SHL EQ DUP1 PUSH2 0x7AA JUMPI POP PUSH2 0x7AA DUP3 PUSH2 0x2BDE JUMP JUMPDEST PUSH1 0x0 DUP2 DUP2 MSTORE PUSH1 0x2 PUSH1 0x20 MSTORE PUSH1 0x40 DUP2 KECCAK256 SLOAD PUSH1 0x1 PUSH1 0x1 PUSH1 0xA0 SHL SUB AND DUP1 PUSH2 0x7AA JUMPI PUSH1 0x40 MLOAD PUSH4 0x7E273289 PUSH1 0xE0 SHL DUP2 MSTORE PUSH1 0x4 DUP2 ADD DUP5 SWAP1 MSTORE PUSH1 0x24 ADD PUSH2 0x7F4 JUMP JUMPDEST PUSH2 0xF43 DUP4 DUP4 DUP4 PUSH1 0x1 PUSH2 0x2C2E JUMP JUMPDEST PUSH1 0x0 DUP3 DUP2 MSTORE PUSH1 0x2 PUSH1 0x20 MSTORE PUSH1 0x40 DUP2 KECCAK256 SLOAD PUSH1 0x1 PUSH1 0x1 PUSH1 0xA0 SHL SUB SWAP1 DUP2 AND SWAP1 DUP4 AND ISZERO PUSH2 0x22C9 JUMPI PUSH2 0x22C9 DUP2 DUP5 DUP7 PUSH2 0x2D34 JUMP JUMPDEST PUSH1 0x1 PUSH1 0x1 PUSH1 0xA0 SHL SUB DUP2 AND ISZERO PUSH2 0x2307 JUMPI PUSH2 0x22E6 PUSH1 0x0 DUP6 PUSH1 0x0 DUP1 PUSH2 0x2C2E JUMP JUMPDEST PUSH1 0x1 PUSH1 0x1 PUSH1 0xA0 SHL SUB DUP2 AND PUSH1 0x0 SWAP1 DUP2 MSTORE PUSH1 0x3 PUSH1 0x20 MSTORE PUSH1 0x40 SWAP1 KECCAK256 DUP1 SLOAD PUSH1 0x0 NOT ADD SWAP1 SSTORE JUMPDEST PUSH1 0x1 PUSH1 0x1 PUSH1 0xA0 SHL SUB DUP6 AND ISZERO PUSH2 0x2336 JUMPI PUSH1 0x1 PUSH1 0x1 PUSH1 0xA0 SHL SUB DUP6 AND PUSH1 0x0 SWAP1 DUP2 MSTORE PUSH1 0x3 PUSH1 0x20 MSTORE PUSH1 0x40 SWAP1 KECCAK256 DUP1 SLOAD PUSH1 0x1 ADD SWAP1 SSTORE JUMPDEST PUSH1 0x0 DUP5 DUP2 MSTORE PUSH1 0x2 PUSH1 0x20 MSTORE PUSH1 0x40 DUP1 DUP3 KECCAK256 DUP1 SLOAD PUSH1 0x1 PUSH1 0x1 PUSH1 0xA0 SHL SUB NOT AND PUSH1 0x1 PUSH1 0x1 PUSH1 0xA0 SHL SUB DUP10 DUP2 AND SWAP2 DUP3 OR SWAP1 SWAP3 SSTORE SWAP2 MLOAD DUP8 SWAP4 SWAP2 DUP6 AND SWAP2 PUSH32 0xDDF252AD1BE2C89B69C2B068FC378DAA952BA7F163C4A11628F55A4DF523B3EF SWAP2 LOG4 SWAP5 SWAP4 POP POP POP POP JUMP JUMPDEST PUSH1 0x0 JUMPDEST PUSH1 0x0 DUP3 DUP2 MSTORE PUSH1 0x11 PUSH1 0x20 MSTORE PUSH1 0x40 SWAP1 KECCAK256 SLOAD DUP2 LT ISZERO PUSH2 0xD47 JUMPI PUSH1 0x0 DUP3 DUP2 MSTORE PUSH1 0x11 PUSH1 0x20 MSTORE PUSH1 0x40 DUP2 KECCAK256 DUP1 SLOAD DUP4 SWAP1 DUP2 LT PUSH2 0x23CE JUMPI PUSH2 0x23CE PUSH2 0x3A3E JUMP JUMPDEST PUSH1 0x0 SWAP2 DUP3 MSTORE PUSH1 0x20 DUP1 DUP4 KECCAK256 PUSH1 0x4 SWAP1 SWAP3 MUL SWAP1 SWAP2 ADD SLOAD DUP6 DUP4 MSTORE PUSH1 0x11 SWAP1 SWAP2 MSTORE PUSH1 0x40 DUP3 KECCAK256 DUP1 SLOAD PUSH1 0x1 PUSH1 0x1 PUSH1 0xA0 SHL SUB SWAP1 SWAP3 AND SWAP4 POP SWAP1 DUP5 SWAP1 DUP2 LT PUSH2 0x240D JUMPI PUSH2 0x240D PUSH2 0x3A3E JUMP JUMPDEST SWAP1 PUSH1 0x0 MSTORE PUSH1 0x20 PUSH1 0x0 KECCAK256 SWAP1 PUSH1 0x4 MUL ADD PUSH1 0x1 ADD SLOAD SWAP1 POP PUSH1 0x1 PUSH1 0x11 PUSH1 0x0 DUP7 DUP2 MSTORE PUSH1 0x20 ADD SWAP1 DUP2 MSTORE PUSH1 0x20 ADD PUSH1 0x0 KECCAK256 DUP5 DUP2 SLOAD DUP2 LT PUSH2 0x2447 JUMPI PUSH2 0x2447 PUSH2 0x3A3E JUMP JUMPDEST SWAP1 PUSH1 0x0 MSTORE PUSH1 0x20 PUSH1 0x0 KECCAK256 SWAP1 PUSH1 0x4 MUL ADD PUSH1 0x3 ADD PUSH1 0x0 PUSH2 0x100 EXP DUP2 SLOAD DUP2 PUSH1 0xFF MUL NOT AND SWAP1 DUP4 ISZERO ISZERO MUL OR SWAP1 SSTORE POP TIMESTAMP PUSH1 0x11 PUSH1 0x0 DUP7 DUP2 MSTORE PUSH1 0x20 ADD SWAP1 DUP2 MSTORE PUSH1 0x20 ADD PUSH1 0x0 KECCAK256 DUP5 DUP2 SLOAD DUP2 LT PUSH2 0x2494 JUMPI PUSH2 0x2494 PUSH2 0x3A3E JUMP JUMPDEST SWAP1 PUSH1 0x0 MSTORE PUSH1 0x20 PUSH1 0x0 KECCAK256 SWAP1 PUSH1 0x4 MUL ADD PUSH1 0x2 ADD DUP2 SWAP1 SSTORE POP PUSH2 0x24B3 DUP3 DUP3 PUSH2 0x2D98 JUMP JUMPDEST DUP1 PUSH1 0xF DUP6 DUP2 SLOAD DUP2 LT PUSH2 0x24C7 JUMPI PUSH2 0x24C7 PUSH2 0x3A3E JUMP JUMPDEST SWAP1 PUSH1 0x0 MSTORE PUSH1 0x20 PUSH1 0x0 KECCAK256 SWAP1 PUSH1 0xC MUL ADD PUSH1 0x7 ADD PUSH1 0x0 DUP3 DUP3 SLOAD PUSH2 0x24E7 SWAP2 SWAP1 PUSH2 0x3AE3 JUMP JUMPDEST SWAP1 SWAP2 SSTORE POP POP PUSH1 0xD DUP1 SLOAD PUSH1 0x1 SWAP2 SWAP1 PUSH1 0x0 SWAP1 PUSH2 0x2502 SWAP1 DUP5 SWAP1 PUSH2 0x3AE3 JUMP JUMPDEST SWAP1 SWAP2 SSTORE POP POP PUSH1 0xE DUP1 SLOAD DUP3 SWAP2 SWAP1 PUSH1 0x0 SWAP1 PUSH2 0x251C SWAP1 DUP5 SWAP1 PUSH2 0x3AE3 JUMP JUMPDEST SWAP1 SWAP2 SSTORE POP POP PUSH1 0x1 SWAP1 SWAP3 ADD SWAP2 POP PUSH2 0x2398 SWAP1 POP JUMP JUMPDEST PUSH1 0x1 PUSH1 0x1 PUSH1 0xA0 SHL SUB DUP3 AND PUSH2 0x2561 JUMPI PUSH1 0x40 MLOAD PUSH4 0xB611743 PUSH1 0xE3 SHL DUP2 MSTORE PUSH1 0x1 PUSH1 0x1 PUSH1 0xA0 SHL SUB DUP4 AND PUSH1 0x4 DUP3 ADD MSTORE PUSH1 0x24 ADD PUSH2 0x7F4 JUMP JUMPDEST PUSH1 0x1 PUSH1 0x1 PUSH1 0xA0 SHL SUB DUP4 DUP2 AND PUSH1 0x0 DUP2 DUP2 MSTORE PUSH1 0x5 PUSH1 0x20 SWAP1 DUP2 MSTORE PUSH1 0x40 DUP1 DUP4 KECCAK256 SWAP5 DUP8 AND DUP1 DUP5 MSTORE SWAP5 DUP3 MSTORE SWAP2 DUP3 SWAP1 KECCAK256 DUP1 SLOAD PUSH1 0xFF NOT AND DUP7 ISZERO ISZERO SWAP1 DUP2 OR SWAP1 SWAP2 SSTORE SWAP2 MLOAD SWAP2 DUP3 MSTORE PUSH32 0x17307EAB39AB6107E8899845AD3D59BD9653F200F220920489CA2B5937696C31 SWAP2 ADD PUSH1 0x40 MLOAD DUP1 SWAP2 SUB SWAP1 LOG3 POP POP POP JUMP JUMPDEST PUSH1 0x0 PUSH1 0xF DUP3 DUP2 SLOAD DUP2 LT PUSH2 0x25E3 JUMPI PUSH2 0x25E3 PUSH2 0x3A3E JUMP JUMPDEST SWAP1 PUSH1 0x0 MSTORE PUSH1 0x20 PUSH1 0x0 KECCAK256 SWAP1 PUSH1 0xC MUL ADD PUSH1 0x7 ADD SLOAD SWAP1 POP PUSH1 0x0 PUSH1 0x64 PUSH1 0x8 SLOAD DUP4 PUSH2 0x2609 SWAP2 SWAP1 PUSH2 0x3AF6 JUMP JUMPDEST PUSH2 0x2613 SWAP2 SWAP1 PUSH2 0x3B0D JUMP JUMPDEST SWAP1 POP PUSH1 0x5 PUSH1 0xF DUP5 DUP2 SLOAD DUP2 LT PUSH2 0x262A JUMPI PUSH2 0x262A PUSH2 0x3A3E JUMP JUMPDEST PUSH1 0x0 SWAP2 DUP3 MSTORE PUSH1 0x20 SWAP1 SWAP2 KECCAK256 PUSH1 0xB PUSH1 0xC SWAP1 SWAP3 MUL ADD ADD DUP1 SLOAD PUSH1 0xFF NOT AND PUSH1 0x1 DUP4 PUSH1 0x5 DUP2 GT ISZERO PUSH2 0x2657 JUMPI PUSH2 0x2657 PUSH2 0x36D5 JUMP JUMPDEST MUL OR SWAP1 SSTORE POP PUSH1 0x7 SLOAD PUSH2 0x2672 SWAP1 PUSH1 0x1 PUSH1 0x1 PUSH1 0xA0 SHL SUB AND DUP3 PUSH2 0x2D98 JUMP JUMPDEST PUSH2 0x26B4 PUSH1 0xF DUP5 DUP2 SLOAD DUP2 LT PUSH2 0x2688 JUMPI PUSH2 0x2688 PUSH2 0x3A3E JUMP JUMPDEST PUSH1 0x0 SWAP2 DUP3 MSTORE PUSH1 0x20 SWAP1 SWAP2 KECCAK256 PUSH1 0x2 PUSH1 0xC SWAP1 SWAP3 MUL ADD ADD SLOAD PUSH1 0x1 PUSH1 0x1 PUSH1 0xA0 SHL SUB AND PUSH2 0x26AF DUP4 DUP6 PUSH2 0x3AE3 JUMP JUMPDEST PUSH2 0x2D98 JUMP JUMPDEST PUSH1 0xF DUP4 DUP2 SLOAD DUP2 LT PUSH2 0x26C7 JUMPI PUSH2 0x26C7 PUSH2 0x3A3E JUMP JUMPDEST SWAP1 PUSH1 0x0 MSTORE PUSH1 0x20 PUSH1 0x0 KECCAK256 SWAP1 PUSH1 0xC MUL ADD PUSH1 0x7 ADD SLOAD PUSH1 0xA PUSH1 0x0 DUP3 DUP3 SLOAD PUSH2 0x26EA SWAP2 SWAP1 PUSH2 0x3AE3 JUMP JUMPDEST SWAP1 SWAP2 SSTORE POP POP PUSH1 0x40 DUP1 MLOAD DUP5 DUP2 MSTORE PUSH1 0x60 PUSH1 0x20 DUP3 ADD DUP2 SWAP1 MSTORE PUSH1 0xF SWAP1 DUP3 ADD MSTORE PUSH15 0x141493D29150D5081410525113D555 PUSH1 0x8A SHL PUSH1 0x80 DUP3 ADD MSTORE TIMESTAMP DUP2 DUP4 ADD MSTORE SWAP1 MLOAD CALLER SWAP2 PUSH1 0x0 DUP1 MLOAD PUSH1 0x20 PUSH2 0x3C82 DUP4 CODECOPY DUP2 MLOAD SWAP2 MSTORE SWAP2 SWAP1 DUP2 SWAP1 SUB PUSH1 0xA0 ADD SWAP1 LOG2 POP POP POP JUMP JUMPDEST PUSH1 0x1 PUSH1 0x1 PUSH1 0xA0 SHL SUB DUP4 AND EXTCODESIZE ISZERO PUSH2 0xDD0 JUMPI PUSH1 0x40 MLOAD PUSH4 0xA85BD01 PUSH1 0xE1 SHL DUP2 MSTORE PUSH1 0x1 PUSH1 0x1 PUSH1 0xA0 SHL SUB DUP5 AND SWAP1 PUSH4 0x150B7A02 SWAP1 PUSH2 0x2786 SWAP1 CALLER SWAP1 DUP9 SWAP1 DUP8 SWAP1 DUP8 SWAP1 PUSH1 0x4 ADD PUSH2 0x3B2F JUMP JUMPDEST PUSH1 0x20 PUSH1 0x40 MLOAD DUP1 DUP4 SUB DUP2 PUSH1 0x0 DUP8 GAS CALL SWAP3 POP POP POP DUP1 ISZERO PUSH2 0x27C1 JUMPI POP PUSH1 0x40 DUP1 MLOAD PUSH1 0x1F RETURNDATASIZE SWAP1 DUP2 ADD PUSH1 0x1F NOT AND DUP3 ADD SWAP1 SWAP3 MSTORE PUSH2 0x27BE SWAP2 DUP2 ADD SWAP1 PUSH2 0x3B6C JUMP JUMPDEST PUSH1 0x1 JUMPDEST PUSH2 0x282A JUMPI RETURNDATASIZE DUP1 DUP1 ISZERO PUSH2 0x27EF JUMPI PUSH1 0x40 MLOAD SWAP2 POP PUSH1 0x1F NOT PUSH1 0x3F RETURNDATASIZE ADD AND DUP3 ADD PUSH1 0x40 MSTORE RETURNDATASIZE DUP3 MSTORE RETURNDATASIZE PUSH1 0x0 PUSH1 0x20 DUP5 ADD RETURNDATACOPY PUSH2 0x27F4 JUMP JUMPDEST PUSH1 0x60 SWAP2 POP JUMPDEST POP DUP1 MLOAD PUSH1 0x0 SUB PUSH2 0x2822 JUMPI PUSH1 0x40 MLOAD PUSH4 0x32505749 PUSH1 0xE1 SHL DUP2 MSTORE PUSH1 0x1 PUSH1 0x1 PUSH1 0xA0 SHL SUB DUP6 AND PUSH1 0x4 DUP3 ADD MSTORE PUSH1 0x24 ADD PUSH2 0x7F4 JUMP JUMPDEST DUP1 MLOAD DUP2 PUSH1 0x20 ADD REVERT JUMPDEST PUSH1 0x1 PUSH1 0x1 PUSH1 0xE0 SHL SUB NOT DUP2 AND PUSH4 0xA85BD01 PUSH1 0xE1 SHL EQ PUSH2 0x2866 JUMPI PUSH1 0x40 MLOAD PUSH4 0x32505749 PUSH1 0xE1 SHL DUP2 MSTORE PUSH1 0x1 PUSH1 0x1 PUSH1 0xA0 SHL SUB DUP6 AND PUSH1 0x4 DUP3 ADD MSTORE PUSH1 0x24 ADD PUSH2 0x7F4 JUMP JUMPDEST POP POP POP POP POP JUMP JUMPDEST PUSH1 0x60 PUSH2 0x2878 DUP3 PUSH2 0x2256 JUMP JUMPDEST POP PUSH1 0x0 DUP3 DUP2 MSTORE PUSH1 0x6 PUSH1 0x20 MSTORE PUSH1 0x40 DUP2 KECCAK256 DUP1 SLOAD PUSH2 0x2892 SWAP1 PUSH2 0x38BC JUMP JUMPDEST DUP1 PUSH1 0x1F ADD PUSH1 0x20 DUP1 SWAP2 DIV MUL PUSH1 0x20 ADD PUSH1 0x40 MLOAD SWAP1 DUP2 ADD PUSH1 0x40 MSTORE DUP1 SWAP3 SWAP2 SWAP1 DUP2 DUP2 MSTORE PUSH1 0x20 ADD DUP3 DUP1 SLOAD PUSH2 0x28BE SWAP1 PUSH2 0x38BC JUMP JUMPDEST DUP1 ISZERO PUSH2 0x290B JUMPI DUP1 PUSH1 0x1F LT PUSH2 0x28E0 JUMPI PUSH2 0x100 DUP1 DUP4 SLOAD DIV MUL DUP4 MSTORE SWAP2 PUSH1 0x20 ADD SWAP2 PUSH2 0x290B JUMP JUMPDEST DUP3 ADD SWAP2 SWAP1 PUSH1 0x0 MSTORE PUSH1 0x20 PUSH1 0x0 KECCAK256 SWAP1 JUMPDEST DUP2 SLOAD DUP2 MSTORE SWAP1 PUSH1 0x1 ADD SWAP1 PUSH1 0x20 ADD DUP1 DUP4 GT PUSH2 0x28EE JUMPI DUP3 SWAP1 SUB PUSH1 0x1F AND DUP3 ADD SWAP2 JUMPDEST POP POP POP POP POP SWAP1 POP PUSH1 0x0 PUSH2 0x2929 PUSH1 0x40 DUP1 MLOAD PUSH1 0x20 DUP2 ADD SWAP1 SWAP2 MSTORE PUSH1 0x0 DUP2 MSTORE SWAP1 JUMP JUMPDEST SWAP1 POP DUP1 MLOAD PUSH1 0x0 SUB PUSH2 0x293B JUMPI POP SWAP3 SWAP2 POP POP JUMP JUMPDEST DUP2 MLOAD ISZERO PUSH2 0x296D JUMPI DUP1 DUP3 PUSH1 0x40 MLOAD PUSH1 0x20 ADD PUSH2 0x2955 SWAP3 SWAP2 SWAP1 PUSH2 0x3B89 JUMP JUMPDEST PUSH1 0x40 MLOAD PUSH1 0x20 DUP2 DUP4 SUB SUB DUP2 MSTORE SWAP1 PUSH1 0x40 MSTORE SWAP3 POP POP POP SWAP2 SWAP1 POP JUMP JUMPDEST PUSH2 0x2976 DUP5 PUSH2 0x2DF8 JUMP JUMPDEST SWAP5 SWAP4 POP POP POP POP JUMP JUMPDEST PUSH1 0x0 DUP2 DUP2 MSTORE PUSH1 0x12 PUSH1 0x20 MSTORE PUSH1 0x40 SWAP1 KECCAK256 SLOAD PUSH1 0xFF AND PUSH2 0x29AC JUMPI PUSH1 0x40 MLOAD PUSH3 0x461BCD PUSH1 0xE5 SHL DUP2 MSTORE PUSH1 0x4 ADD PUSH2 0x7F4 SWAP1 PUSH2 0x3A54 JUMP JUMPDEST PUSH1 0x1 PUSH1 0xF DUP3 DUP2 SLOAD DUP2 LT PUSH2 0x29C1 JUMPI PUSH2 0x29C1 PUSH2 0x3A3E JUMP JUMPDEST PUSH1 0x0 SWAP2 DUP3 MSTORE PUSH1 0x20 SWAP1 SWAP2 KECCAK256 PUSH1 0xB PUSH1 0xC SWAP1 SWAP3 MUL ADD ADD SLOAD PUSH1 0xFF AND PUSH1 0x5 DUP2 GT ISZERO PUSH2 0x29E9 JUMPI PUSH2 0x29E9 PUSH2 0x36D5 JUMP JUMPDEST EQ PUSH2 0x2A06 JUMPI PUSH1 0x40 MLOAD PUSH3 0x461BCD PUSH1 0xE5 SHL DUP2 MSTORE PUSH1 0x4 ADD PUSH2 0x7F4 SWAP1 PUSH2 0x3AAC JUMP JUMPDEST PUSH1 0x0 DUP2 DUP2 MSTORE PUSH1 0x11 PUSH1 0x20 SWAP1 DUP2 MSTORE PUSH1 0x40 DUP1 DUP4 KECCAK256 DUP1 SLOAD DUP3 MLOAD DUP2 DUP6 MUL DUP2 ADD DUP6 ADD SWAP1 SWAP4 MSTORE DUP1 DUP4 MSTORE SWAP2 SWAP3 SWAP1 SWAP2 SWAP1 DUP5 SWAP1 DUP5 ADD JUMPDEST DUP3 DUP3 LT ISZERO PUSH2 0x2A94 JUMPI PUSH1 0x0 DUP5 DUP2 MSTORE PUSH1 0x20 SWAP1 DUP2 SWAP1 KECCAK256 PUSH1 0x40 DUP1 MLOAD PUSH1 0x80 DUP2 ADD DUP3 MSTORE PUSH1 0x4 DUP7 MUL SWAP1 SWAP3 ADD DUP1 SLOAD PUSH1 0x1 PUSH1 0x1 PUSH1 0xA0 SHL SUB AND DUP4 MSTORE PUSH1 0x1 DUP1 DUP3 ADD SLOAD DUP5 DUP7 ADD MSTORE PUSH1 0x2 DUP3 ADD SLOAD SWAP3 DUP5 ADD SWAP3 SWAP1 SWAP3 MSTORE PUSH1 0x3 ADD SLOAD PUSH1 0xFF AND ISZERO ISZERO PUSH1 0x60 DUP4 ADD MSTORE SWAP1 DUP4 MSTORE SWAP1 SWAP3 ADD SWAP2 ADD PUSH2 0x2A32 JUMP JUMPDEST POP POP POP POP SWAP1 POP PUSH1 0x0 JUMPDEST DUP2 MLOAD DUP2 LT ISZERO PUSH2 0x2B8D JUMPI PUSH1 0x0 DUP3 DUP3 DUP2 MLOAD DUP2 LT PUSH2 0x2ABA JUMPI PUSH2 0x2ABA PUSH2 0x3A3E JUMP JUMPDEST PUSH1 0x20 MUL PUSH1 0x20 ADD ADD MLOAD PUSH1 0x0 ADD MLOAD SWAP1 POP PUSH1 0x0 PUSH1 0xF DUP6 DUP2 SLOAD DUP2 LT PUSH2 0x2ADD JUMPI PUSH2 0x2ADD PUSH2 0x3A3E JUMP JUMPDEST SWAP1 PUSH1 0x0 MSTORE PUSH1 0x20 PUSH1 0x0 KECCAK256 SWAP1 PUSH1 0xC MUL ADD PUSH1 0x3 ADD PUSH1 0xF DUP7 DUP2 SLOAD DUP2 LT PUSH2 0x2B01 JUMPI PUSH2 0x2B01 PUSH2 0x3A3E JUMP JUMPDEST SWAP1 PUSH1 0x0 MSTORE PUSH1 0x20 PUSH1 0x0 KECCAK256 SWAP1 PUSH1 0xC MUL ADD PUSH1 0x5 ADD PUSH1 0x40 MLOAD PUSH1 0x20 ADD PUSH2 0x2B23 SWAP3 SWAP2 SWAP1 PUSH2 0x3C2A JUMP JUMPDEST PUSH1 0x40 MLOAD PUSH1 0x20 DUP2 DUP4 SUB SUB DUP2 MSTORE SWAP1 PUSH1 0x40 MSTORE SWAP1 POP PUSH1 0x0 PUSH2 0x2B40 DUP4 DUP4 PUSH2 0x2E6D JUMP JUMPDEST PUSH1 0x0 DUP8 DUP2 MSTORE PUSH1 0x14 PUSH1 0x20 SWAP1 DUP2 MSTORE PUSH1 0x40 DUP1 DUP4 KECCAK256 DUP1 SLOAD PUSH1 0x1 DUP2 DUP2 ADD DUP4 SSTORE SWAP2 DUP6 MSTORE DUP4 DUP6 KECCAK256 ADD DUP6 SWAP1 SSTORE PUSH1 0x1 PUSH1 0x1 PUSH1 0xA0 SHL SUB SWAP1 SWAP8 AND DUP4 MSTORE PUSH1 0x15 DUP3 MSTORE DUP3 KECCAK256 DUP1 SLOAD DUP1 DUP9 ADD DUP3 SSTORE SWAP1 DUP4 MSTORE SWAP2 KECCAK256 ADD SSTORE POP POP ADD PUSH2 0x2A9D JUMP JUMPDEST POP PUSH1 0x40 DUP1 MLOAD DUP4 DUP2 MSTORE PUSH1 0x60 PUSH1 0x20 DUP3 ADD DUP2 SWAP1 MSTORE PUSH1 0xB SWAP1 DUP3 ADD MSTORE PUSH11 0x1391951CC8135253951151 PUSH1 0xAA SHL PUSH1 0x80 DUP3 ADD MSTORE TIMESTAMP DUP2 DUP4 ADD MSTORE SWAP1 MLOAD CALLER SWAP2 PUSH1 0x0 DUP1 MLOAD PUSH1 0x20 PUSH2 0x3C82 DUP4 CODECOPY DUP2 MLOAD SWAP2 MSTORE SWAP2 SWAP1 DUP2 SWAP1 SUB PUSH1 0xA0 ADD SWAP1 LOG2 POP POP JUMP JUMPDEST PUSH1 0x0 PUSH1 0x1 PUSH1 0x1 PUSH1 0xE0 SHL SUB NOT DUP3 AND PUSH4 0x80AC58CD PUSH1 0xE0 SHL EQ DUP1 PUSH2 0x2C0F JUMPI POP PUSH1 0x1 PUSH1 0x1 PUSH1 0xE0 SHL SUB NOT DUP3 AND PUSH4 0x5B5E139F PUSH1 0xE0 SHL EQ JUMPDEST DUP1 PUSH2 0x7AA JUMPI POP PUSH4 0x1FFC9A7 PUSH1 0xE0 SHL PUSH1 0x1 PUSH1 0x1 PUSH1 0xE0 SHL SUB NOT DUP4 AND EQ PUSH2 0x7AA JUMP JUMPDEST DUP1 DUP1 PUSH2 0x2C42 JUMPI POP PUSH1 0x1 PUSH1 0x1 PUSH1 0xA0 SHL SUB DUP3 AND ISZERO ISZERO JUMPDEST ISZERO PUSH2 0x2D04 JUMPI PUSH1 0x0 PUSH2 0x2C52 DUP5 PUSH2 0x2256 JUMP JUMPDEST SWAP1 POP PUSH1 0x1 PUSH1 0x1 PUSH1 0xA0 SHL SUB DUP4 AND ISZERO DUP1 ISZERO SWAP1 PUSH2 0x2C7E JUMPI POP DUP3 PUSH1 0x1 PUSH1 0x1 PUSH1 0xA0 SHL SUB AND DUP2 PUSH1 0x1 PUSH1 0x1 PUSH1 0xA0 SHL SUB AND EQ ISZERO JUMPDEST DUP1 ISZERO PUSH2 0x2C91 JUMPI POP PUSH2 0x2C8F DUP2 DUP5 PUSH2 0x1E00 JUMP JUMPDEST ISZERO JUMPDEST ISZERO PUSH2 0x2CBA JUMPI PUSH1 0x40 MLOAD PUSH4 0xA9FBF51F PUSH1 0xE0 SHL DUP2 MSTORE PUSH1 0x1 PUSH1 0x1 PUSH1 0xA0 SHL SUB DUP5 AND PUSH1 0x4 DUP3 ADD MSTORE PUSH1 0x24 ADD PUSH2 0x7F4 JUMP JUMPDEST DUP2 ISZERO PUSH2 0x2D02 JUMPI DUP4 DUP6 PUSH1 0x1 PUSH1 0x1 PUSH1 0xA0 SHL SUB AND DUP3 PUSH1 0x1 PUSH1 0x1 PUSH1 0xA0 SHL SUB AND PUSH32 0x8C5BE1E5EBEC7D5BD14F71427D1E84F3DD0314C0F7B2291E5B200AC8C7C3B925 PUSH1 0x40 MLOAD PUSH1 0x40 MLOAD DUP1 SWAP2 SUB SWAP1 LOG4 JUMPDEST POP JUMPDEST POP POP PUSH1 0x0 SWAP1 DUP2 MSTORE PUSH1 0x4 PUSH1 0x20 MSTORE PUSH1 0x40 SWAP1 KECCAK256 DUP1 SLOAD PUSH1 0x1 PUSH1 0x1 PUSH1 0xA0 SHL SUB NOT AND PUSH1 0x1 PUSH1 0x1 PUSH1 0xA0 SHL SUB SWAP3 SWAP1 SWAP3 AND SWAP2 SWAP1 SWAP2 OR SWAP1 SSTORE JUMP JUMPDEST PUSH2 0x2D3F DUP4 DUP4 DUP4 PUSH2 0x2EA7 JUMP JUMPDEST PUSH2 0xF43 JUMPI PUSH1 0x1 PUSH1 0x1 PUSH1 0xA0 SHL SUB DUP4 AND PUSH2 0x2D6D JUMPI PUSH1 0x40 MLOAD PUSH4 0x7E273289 PUSH1 0xE0 SHL DUP2 MSTORE PUSH1 0x4 DUP2 ADD DUP3 SWAP1 MSTORE PUSH1 0x24 ADD PUSH2 0x7F4 JUMP JUMPDEST PUSH1 0x40 MLOAD PUSH4 0x177E802F PUSH1 0xE0 SHL DUP2 MSTORE PUSH1 0x1 PUSH1 0x1 PUSH1 0xA0 SHL SUB DUP4 AND PUSH1 0x4 DUP3 ADD MSTORE PUSH1 0x24 DUP2 ADD DUP3 SWAP1 MSTORE PUSH1 0x44 ADD PUSH2 0x7F4 JUMP JUMPDEST PUSH1 0x0 DUP3 PUSH1 0x1 PUSH1 0x1 PUSH1 0xA0 SHL SUB AND DUP3 PUSH1 0x40 MLOAD PUSH1 0x0 PUSH1 0x40 MLOAD DUP1 DUP4 SUB DUP2 DUP6 DUP8 GAS CALL SWAP3 POP POP POP RETURNDATASIZE DUP1 PUSH1 0x0 DUP2 EQ PUSH2 0x2DE5 JUMPI PUSH1 0x40 MLOAD SWAP2 POP PUSH1 0x1F NOT PUSH1 0x3F RETURNDATASIZE ADD AND DUP3 ADD PUSH1 0x40 MSTORE RETURNDATASIZE DUP3 MSTORE RETURNDATASIZE PUSH1 0x0 PUSH1 0x20 DUP5 ADD RETURNDATACOPY PUSH2 0x2DEA JUMP JUMPDEST PUSH1 0x60 SWAP2 POP JUMPDEST POP POP SWAP1 POP DUP1 PUSH2 0xF43 JUMPI PUSH1 0x0 DUP1 REVERT JUMPDEST PUSH1 0x60 PUSH2 0x2E03 DUP3 PUSH2 0x2256 JUMP JUMPDEST POP PUSH1 0x0 PUSH2 0x2E1B PUSH1 0x40 DUP1 MLOAD PUSH1 0x20 DUP2 ADD SWAP1 SWAP2 MSTORE PUSH1 0x0 DUP2 MSTORE SWAP1 JUMP JUMPDEST SWAP1 POP PUSH1 0x0 DUP2 MLOAD GT PUSH2 0x2E3B JUMPI PUSH1 0x40 MLOAD DUP1 PUSH1 0x20 ADD PUSH1 0x40 MSTORE DUP1 PUSH1 0x0 DUP2 MSTORE POP PUSH2 0x2E66 JUMP JUMPDEST DUP1 PUSH2 0x2E45 DUP5 PUSH2 0x2F0A JUMP JUMPDEST PUSH1 0x40 MLOAD PUSH1 0x20 ADD PUSH2 0x2E56 SWAP3 SWAP2 SWAP1 PUSH2 0x3B89 JUMP JUMPDEST PUSH1 0x40 MLOAD PUSH1 0x20 DUP2 DUP4 SUB SUB DUP2 MSTORE SWAP1 PUSH1 0x40 MSTORE JUMPDEST SWAP4 SWAP3 POP POP POP JUMP JUMPDEST PUSH1 0xB SLOAD PUSH1 0x0 SWAP1 PUSH2 0x2E7D DUP5 DUP3 PUSH2 0x2F9D JUMP JUMPDEST PUSH2 0x2E87 DUP2 DUP5 PUSH2 0x2FB7 JUMP JUMPDEST PUSH1 0x1 PUSH1 0xB PUSH1 0x0 DUP3 DUP3 SLOAD PUSH2 0x2E9A SWAP2 SWAP1 PUSH2 0x3A12 JUMP JUMPDEST SWAP1 SWAP2 SSTORE POP SWAP1 SWAP5 SWAP4 POP POP POP POP JUMP JUMPDEST PUSH1 0x0 PUSH1 0x1 PUSH1 0x1 PUSH1 0xA0 SHL SUB DUP4 AND ISZERO DUP1 ISZERO SWAP1 PUSH2 0x2976 JUMPI POP DUP3 PUSH1 0x1 PUSH1 0x1 PUSH1 0xA0 SHL SUB AND DUP5 PUSH1 0x1 PUSH1 0x1 PUSH1 0xA0 SHL SUB AND EQ DUP1 PUSH2 0x2EE1 JUMPI POP PUSH2 0x2EE1 DUP5 DUP5 PUSH2 0x1E00 JUMP JUMPDEST DUP1 PUSH2 0x2976 JUMPI POP POP PUSH1 0x0 SWAP1 DUP2 MSTORE PUSH1 0x4 PUSH1 0x20 MSTORE PUSH1 0x40 SWAP1 KECCAK256 SLOAD PUSH1 0x1 PUSH1 0x1 PUSH1 0xA0 SHL SUB SWAP1 DUP2 AND SWAP2 AND EQ SWAP2 SWAP1 POP JUMP JUMPDEST PUSH1 0x60 PUSH1 0x0 PUSH2 0x2F17 DUP4 PUSH2 0x3007 JUMP JUMPDEST PUSH1 0x1 ADD SWAP1 POP PUSH1 0x0 DUP2 PUSH8 0xFFFFFFFFFFFFFFFF DUP2 GT ISZERO PUSH2 0x2F37 JUMPI PUSH2 0x2F37 PUSH2 0x3214 JUMP JUMPDEST PUSH1 0x40 MLOAD SWAP1 DUP1 DUP3 MSTORE DUP1 PUSH1 0x1F ADD PUSH1 0x1F NOT AND PUSH1 0x20 ADD DUP3 ADD PUSH1 0x40 MSTORE DUP1 ISZERO PUSH2 0x2F61 JUMPI PUSH1 0x20 DUP3 ADD DUP2 DUP1 CALLDATASIZE DUP4 CALLDATACOPY ADD SWAP1 POP JUMPDEST POP SWAP1 POP DUP2 DUP2 ADD PUSH1 0x20 ADD JUMPDEST PUSH1 0x0 NOT ADD PUSH16 0x181899199A1A9B1B9C1CB0B131B232B3 PUSH1 0x81 SHL PUSH1 0xA DUP7 MOD BYTE DUP2 MSTORE8 PUSH1 0xA DUP6 DIV SWAP5 POP DUP5 PUSH2 0x2F6B JUMPI POP SWAP4 SWAP3 POP POP POP JUMP JUMPDEST PUSH2 0xD47 DUP3 DUP3 PUSH1 0x40 MLOAD DUP1 PUSH1 0x20 ADD PUSH1 0x40 MSTORE DUP1 PUSH1 0x0 DUP2 MSTORE POP PUSH2 0x30DF JUMP JUMPDEST PUSH1 0x0 DUP3 DUP2 MSTORE PUSH1 0x6 PUSH1 0x20 MSTORE PUSH1 0x40 SWAP1 KECCAK256 PUSH2 0x2FCF DUP3 DUP3 PUSH2 0x393D JUMP JUMPDEST POP PUSH1 0x40 MLOAD DUP3 DUP2 MSTORE PUSH32 0xF8E1A15ABA9398E019F0B49DF1A4FDE98EE17AE345CB5F6B5E2C27F5033E8CE7 SWAP1 PUSH1 0x20 ADD PUSH1 0x40 MLOAD DUP1 SWAP2 SUB SWAP1 LOG1 POP POP JUMP JUMPDEST PUSH1 0x0 DUP1 PUSH19 0x184F03E93FF9F4DAA797ED6E38ED64BF6A1F01 PUSH1 0x40 SHL DUP4 LT PUSH2 0x3046 JUMPI PUSH19 0x184F03E93FF9F4DAA797ED6E38ED64BF6A1F01 PUSH1 0x40 SHL DUP4 DIV SWAP3 POP PUSH1 0x40 ADD JUMPDEST PUSH14 0x4EE2D6D415B85ACEF8100000000 DUP4 LT PUSH2 0x3072 JUMPI PUSH14 0x4EE2D6D415B85ACEF8100000000 DUP4 DIV SWAP3 POP PUSH1 0x20 ADD JUMPDEST PUSH7 0x2386F26FC10000 DUP4 LT PUSH2 0x3090 JUMPI PUSH7 0x2386F26FC10000 DUP4 DIV SWAP3 POP PUSH1 0x10 ADD JUMPDEST PUSH4 0x5F5E100 DUP4 LT PUSH2 0x30A8 JUMPI PUSH4 0x5F5E100 DUP4 DIV SWAP3 POP PUSH1 0x8 ADD JUMPDEST PUSH2 0x2710 DUP4 LT PUSH2 0x30BC JUMPI PUSH2 0x2710 DUP4 DIV SWAP3 POP PUSH1 0x4 ADD JUMPDEST PUSH1 0x64 DUP4 LT PUSH2 0x30CE JUMPI PUSH1 0x64 DUP4 DIV SWAP3 POP PUSH1 0x2 ADD JUMPDEST PUSH1 0xA DUP4 LT PUSH2 0x7AA JUMPI PUSH1 0x1 ADD SWAP3 SWAP2 POP POP JUMP JUMPDEST PUSH2 0x30E9 DUP4 DUP4 PUSH2 0x30F6 JUMP JUMPDEST PUSH2 0xF43 PUSH1 0x0 DUP5 DUP5 DUP5 PUSH2 0x2744 JUMP JUMPDEST PUSH1 0x1 PUSH1 0x1 PUSH1 0xA0 SHL SUB DUP3 AND PUSH2 0x3120 JUMPI PUSH1 0x40 MLOAD PUSH4 0x32505749 PUSH1 0xE1 SHL DUP2 MSTORE PUSH1 0x0 PUSH1 0x4 DUP3 ADD MSTORE PUSH1 0x24 ADD PUSH2 0x7F4 JUMP JUMPDEST PUSH1 0x0 PUSH2 0x312E DUP4 DUP4 PUSH1 0x0 PUSH2 0x229C JUMP JUMPDEST SWAP1 POP PUSH1 0x1 PUSH1 0x1 PUSH1 0xA0 SHL SUB DUP2 AND ISZERO PUSH2 0xF43 JUMPI PUSH1 0x40 MLOAD PUSH4 0x39E35637 PUSH1 0xE1 SHL DUP2 MSTORE PUSH1 0x0 PUSH1 0x4 DUP3 ADD MSTORE PUSH1 0x24 ADD PUSH2 0x7F4 JUMP JUMPDEST PUSH1 0x40 MLOAD DUP1 PUSH2 0x180 ADD PUSH1 0x40 MSTORE DUP1 PUSH1 0x0 DUP2 MSTORE PUSH1 0x20 ADD PUSH1 0x0 PUSH1 0x1 PUSH1 0x1 PUSH1 0xA0 SHL SUB AND DUP2 MSTORE PUSH1 0x20 ADD PUSH1 0x0 PUSH1 0x1 PUSH1 0x1 PUSH1 0xA0 SHL SUB AND DUP2 MSTORE PUSH1 0x20 ADD PUSH1 0x60 DUP2 MSTORE PUSH1 0x20 ADD PUSH1 0x60 DUP2 MSTORE PUSH1 0x20 ADD PUSH1 0x60 DUP2 MSTORE PUSH1 0x20 ADD PUSH1 0x0 DUP2 MSTORE PUSH1 0x20 ADD PUSH1 0x0 DUP2 MSTORE PUSH1 0x20 ADD PUSH1 0x0 DUP2 MSTORE PUSH1 0x20 ADD PUSH1 0x0 DUP2 MSTORE PUSH1 0x20 ADD PUSH1 0x0 DUP2 MSTORE PUSH1 0x20 ADD PUSH1 0x0 PUSH1 0x5 DUP2 GT ISZERO PUSH2 0x31D9 JUMPI PUSH2 0x31D9 PUSH2 0x36D5 JUMP JUMPDEST SWAP1 MSTORE SWAP1 JUMP JUMPDEST PUSH1 0x1 PUSH1 0x1 PUSH1 0xE0 SHL SUB NOT DUP2 AND DUP2 EQ PUSH2 0x31F4 JUMPI PUSH1 0x0 DUP1 REVERT JUMPDEST POP JUMP JUMPDEST PUSH1 0x0 PUSH1 0x20 DUP3 DUP5 SUB SLT ISZERO PUSH2 0x3209 JUMPI PUSH1 0x0 DUP1 REVERT JUMPDEST DUP2 CALLDATALOAD PUSH2 0x2E66 DUP2 PUSH2 0x31DE JUMP JUMPDEST PUSH4 0x4E487B71 PUSH1 0xE0 SHL PUSH1 0x0 MSTORE PUSH1 0x41 PUSH1 0x4 MSTORE PUSH1 0x24 PUSH1 0x0 REVERT JUMPDEST PUSH1 0x0 DUP1 PUSH8 0xFFFFFFFFFFFFFFFF DUP5 GT ISZERO PUSH2 0x3245 JUMPI PUSH2 0x3245 PUSH2 0x3214 JUMP JUMPDEST POP PUSH1 0x40 MLOAD PUSH1 0x1F NOT PUSH1 0x1F DUP6 ADD DUP2 AND PUSH1 0x3F ADD AND DUP2 ADD DUP2 DUP2 LT PUSH8 0xFFFFFFFFFFFFFFFF DUP3 GT OR ISZERO PUSH2 0x3274 JUMPI PUSH2 0x3274 PUSH2 0x3214 JUMP JUMPDEST PUSH1 0x40 MSTORE DUP4 DUP2 MSTORE SWAP1 POP DUP1 DUP3 DUP5 ADD DUP6 LT ISZERO PUSH2 0x328C JUMPI PUSH1 0x0 DUP1 REVERT JUMPDEST DUP4 DUP4 PUSH1 0x20 DUP4 ADD CALLDATACOPY PUSH1 0x0 PUSH1 0x20 DUP6 DUP4 ADD ADD MSTORE POP SWAP4 SWAP3 POP POP POP JUMP JUMPDEST PUSH1 0x0 DUP3 PUSH1 0x1F DUP4 ADD SLT PUSH2 0x32B5 JUMPI PUSH1 0x0 DUP1 REVERT JUMPDEST PUSH2 0x2E66 DUP4 DUP4 CALLDATALOAD PUSH1 0x20 DUP6 ADD PUSH2 0x322A JUMP JUMPDEST PUSH1 0x0 DUP1 PUSH1 0x0 DUP1 PUSH1 0x0 PUSH1 0xA0 DUP7 DUP9 SUB SLT ISZERO PUSH2 0x32DC JUMPI PUSH1 0x0 DUP1 REVERT JUMPDEST DUP6 CALLDATALOAD PUSH8 0xFFFFFFFFFFFFFFFF DUP2 GT ISZERO PUSH2 0x32F3 JUMPI PUSH1 0x0 DUP1 REVERT JUMPDEST PUSH2 0x32FF DUP9 DUP3 DUP10 ADD PUSH2 0x32A4 JUMP JUMPDEST SWAP6 POP POP PUSH1 0x20 DUP7 ADD CALLDATALOAD PUSH8 0xFFFFFFFFFFFFFFFF DUP2 GT ISZERO PUSH2 0x331C JUMPI PUSH1 0x0 DUP1 REVERT JUMPDEST PUSH2 0x3328 DUP9 DUP3 DUP10 ADD PUSH2 0x32A4 JUMP JUMPDEST SWAP5 POP POP PUSH1 0x40 DUP7 ADD CALLDATALOAD PUSH8 0xFFFFFFFFFFFFFFFF DUP2 GT ISZERO PUSH2 0x3345 JUMPI PUSH1 0x0 DUP1 REVERT JUMPDEST PUSH2 0x3351 DUP9 DUP3 DUP10 ADD PUSH2 0x32A4 JUMP JUMPDEST SWAP6 SWAP9 SWAP5 SWAP8 POP SWAP5 SWAP6 PUSH1 0x60 DUP2 ADD CALLDATALOAD SWAP6 POP PUSH1 0x80 ADD CALLDATALOAD SWAP4 SWAP3 POP POP POP JUMP JUMPDEST PUSH1 0x0 JUMPDEST DUP4 DUP2 LT ISZERO PUSH2 0x3385 JUMPI DUP2 DUP2 ADD MLOAD DUP4 DUP3 ADD MSTORE PUSH1 0x20 ADD PUSH2 0x336D JUMP JUMPDEST POP POP PUSH1 0x0 SWAP2 ADD MSTORE JUMP JUMPDEST PUSH1 0x0 DUP2 MLOAD DUP1 DUP5 MSTORE PUSH2 0x33A6 DUP2 PUSH1 0x20 DUP7 ADD PUSH1 0x20 DUP7 ADD PUSH2 0x336A JUMP JUMPDEST PUSH1 0x1F ADD PUSH1 0x1F NOT AND SWAP3 SWAP1 SWAP3 ADD PUSH1 0x20 ADD SWAP3 SWAP2 POP POP JUMP JUMPDEST PUSH1 0x20 DUP2 MSTORE PUSH1 0x0 PUSH2 0x2E66 PUSH1 0x20 DUP4 ADD DUP5 PUSH2 0x338E JUMP JUMPDEST PUSH1 0x0 PUSH1 0x20 DUP3 DUP5 SUB SLT ISZERO PUSH2 0x33DF JUMPI PUSH1 0x0 DUP1 REVERT JUMPDEST POP CALLDATALOAD SWAP2 SWAP1 POP JUMP JUMPDEST DUP1 CALLDATALOAD PUSH1 0x1 PUSH1 0x1 PUSH1 0xA0 SHL SUB DUP2 AND DUP2 EQ PUSH2 0x11A6 JUMPI PUSH1 0x0 DUP1 REVERT JUMPDEST PUSH1 0x0 DUP1 PUSH1 0x40 DUP4 DUP6 SUB SLT ISZERO PUSH2 0x3410 JUMPI PUSH1 0x0 DUP1 REVERT JUMPDEST PUSH2 0x3419 DUP4 PUSH2 0x33E6 JUMP JUMPDEST SWAP5 PUSH1 0x20 SWAP4 SWAP1 SWAP4 ADD CALLDATALOAD SWAP4 POP POP POP JUMP JUMPDEST PUSH1 0x0 PUSH1 0x20 DUP3 DUP5 SUB SLT ISZERO PUSH2 0x3439 JUMPI PUSH1 0x0 DUP1 REVERT JUMPDEST PUSH2 0x2E66 DUP3 PUSH2 0x33E6 JUMP JUMPDEST PUSH1 0x0 DUP1 PUSH1 0x0 PUSH1 0x60 DUP5 DUP7 SUB SLT ISZERO PUSH2 0x3457 JUMPI PUSH1 0x0 DUP1 REVERT JUMPDEST PUSH2 0x3460 DUP5 PUSH2 0x33E6 JUMP JUMPDEST SWAP3 POP PUSH2 0x346E PUSH1 0x20 DUP6 ADD PUSH2 0x33E6 JUMP JUMPDEST SWAP3 SWAP6 SWAP3 SWAP5 POP POP POP PUSH1 0x40 SWAP2 SWAP1 SWAP2 ADD CALLDATALOAD SWAP1 JUMP JUMPDEST PUSH1 0x0 DUP1 PUSH1 0x40 DUP4 DUP6 SUB SLT ISZERO PUSH2 0x3492 JUMPI PUSH1 0x0 DUP1 REVERT JUMPDEST POP POP DUP1 CALLDATALOAD SWAP3 PUSH1 0x20 SWAP1 SWAP2 ADD CALLDATALOAD SWAP2 POP JUMP JUMPDEST PUSH1 0x0 PUSH1 0x20 DUP3 ADD PUSH1 0x20 DUP4 MSTORE DUP1 DUP5 MLOAD DUP1 DUP4 MSTORE PUSH1 0x40 DUP6 ADD SWAP2 POP PUSH1 0x40 DUP2 PUSH1 0x5 SHL DUP7 ADD ADD SWAP3 POP PUSH1 0x20 DUP7 ADD PUSH1 0x0 JUMPDEST DUP3 DUP2 LT ISZERO PUSH2 0x34FA JUMPI PUSH1 0x3F NOT DUP8 DUP7 SUB ADD DUP5 MSTORE PUSH2 0x34E5 DUP6 DUP4 MLOAD PUSH2 0x338E JUMP JUMPDEST SWAP5 POP PUSH1 0x20 SWAP4 DUP5 ADD SWAP4 SWAP2 SWAP1 SWAP2 ADD SWAP1 PUSH1 0x1 ADD PUSH2 0x34C9 JUMP JUMPDEST POP SWAP3 SWAP7 SWAP6 POP POP POP POP POP POP JUMP JUMPDEST PUSH1 0x0 DUP1 PUSH1 0x0 DUP1 PUSH1 0x0 PUSH1 0xA0 DUP7 DUP9 SUB SLT ISZERO PUSH2 0x351E JUMPI PUSH1 0x0 DUP1 REVERT JUMPDEST DUP6 CALLDATALOAD SWAP5 POP PUSH1 0x20 DUP7 ADD CALLDATALOAD PUSH8 0xFFFFFFFFFFFFFFFF DUP2 GT ISZERO PUSH2 0x353C JUMPI PUSH1 0x0 DUP1 REVERT JUMPDEST PUSH2 0x3548 DUP9 DUP3 DUP10 ADD PUSH2 0x32A4 JUMP JUMPDEST SWAP5 POP POP PUSH1 0x40 DUP7 ADD CALLDATALOAD PUSH8 0xFFFFFFFFFFFFFFFF DUP2 GT ISZERO PUSH2 0x3565 JUMPI PUSH1 0x0 DUP1 REVERT JUMPDEST PUSH2 0x3571 DUP9 DUP3 DUP10 ADD PUSH2 0x32A4 JUMP JUMPDEST SWAP4 POP POP PUSH1 0x60 DUP7 ADD CALLDATALOAD PUSH8 0xFFFFFFFFFFFFFFFF DUP2 GT ISZERO PUSH2 0x358E JUMPI PUSH1 0x0 DUP1 REVERT JUMPDEST PUSH2 0x359A DUP9 DUP3 DUP10 ADD PUSH2 0x32A4 JUMP JUMPDEST SWAP6 SWAP9 SWAP5 SWAP8 POP SWAP3 SWAP6 PUSH1 0x80 ADD CALLDATALOAD SWAP4 SWAP3 POP POP POP JUMP JUMPDEST PUSH1 0x0 DUP1 PUSH1 0x40 DUP4 DUP6 SUB SLT ISZERO PUSH2 0x35BF JUMPI PUSH1 0x0 DUP1 REVERT JUMPDEST PUSH2 0x35C8 DUP4 PUSH2 0x33E6 JUMP JUMPDEST SWAP2 POP PUSH1 0x20 DUP4 ADD CALLDATALOAD DUP1 ISZERO ISZERO DUP2 EQ PUSH2 0x35DD JUMPI PUSH1 0x0 DUP1 REVERT JUMPDEST DUP1 SWAP2 POP POP SWAP3 POP SWAP3 SWAP1 POP JUMP JUMPDEST PUSH1 0x0 DUP1 PUSH1 0x0 DUP1 PUSH1 0x80 DUP6 DUP8 SUB SLT ISZERO PUSH2 0x35FE JUMPI PUSH1 0x0 DUP1 REVERT JUMPDEST PUSH2 0x3607 DUP6 PUSH2 0x33E6 JUMP JUMPDEST SWAP4 POP PUSH2 0x3615 PUSH1 0x20 DUP7 ADD PUSH2 0x33E6 JUMP JUMPDEST SWAP3 POP PUSH1 0x40 DUP6 ADD CALLDATALOAD SWAP2 POP PUSH1 0x60 DUP6 ADD CALLDATALOAD PUSH8 0xFFFFFFFFFFFFFFFF DUP2 GT ISZERO PUSH2 0x3638 JUMPI PUSH1 0x0 DUP1 REVERT JUMPDEST DUP6 ADD PUSH1 0x1F DUP2 ADD DUP8 SGT PUSH2 0x3649 JUMPI PUSH1 0x0 DUP1 REVERT JUMPDEST PUSH2 0x3658 DUP8 DUP3 CALLDATALOAD PUSH1 0x20 DUP5 ADD PUSH2 0x322A JUMP JUMPDEST SWAP2 POP POP SWAP3 SWAP6 SWAP2 SWAP5 POP SWAP3 POP JUMP JUMPDEST PUSH1 0x20 DUP1 DUP3 MSTORE DUP3 MLOAD DUP3 DUP3 ADD DUP2 SWAP1 MSTORE PUSH1 0x0 SWAP2 DUP5 ADD SWAP1 PUSH1 0x40 DUP5 ADD SWAP1 DUP4 JUMPDEST DUP2 DUP2 LT ISZERO PUSH2 0x36CA JUMPI DUP4 MLOAD DUP1 MLOAD PUSH1 0x1 PUSH1 0x1 PUSH1 0xA0 SHL SUB AND DUP5 MSTORE PUSH1 0x20 DUP1 DUP3 ADD MLOAD DUP2 DUP7 ADD MSTORE PUSH1 0x40 DUP1 DUP4 ADD MLOAD SWAP1 DUP7 ADD MSTORE PUSH1 0x60 SWAP2 DUP3 ADD MLOAD ISZERO ISZERO SWAP2 DUP6 ADD SWAP2 SWAP1 SWAP2 MSTORE SWAP1 SWAP4 ADD SWAP3 PUSH1 0x80 SWAP1 SWAP3 ADD SWAP2 PUSH1 0x1 ADD PUSH2 0x367E JUMP JUMPDEST POP SWAP1 SWAP6 SWAP5 POP POP POP POP POP JUMP JUMPDEST PUSH4 0x4E487B71 PUSH1 0xE0 SHL PUSH1 0x0 MSTORE PUSH1 0x21 PUSH1 0x4 MSTORE PUSH1 0x24 PUSH1 0x0 REVERT JUMPDEST PUSH1 0x6 DUP2 LT PUSH2 0x3709 JUMPI PUSH4 0x4E487B71 PUSH1 0xE0 SHL PUSH1 0x0 MSTORE PUSH1 0x21 PUSH1 0x4 MSTORE PUSH1 0x24 PUSH1 0x0 REVERT JUMPDEST SWAP1 MSTORE JUMP JUMPDEST DUP1 MLOAD DUP3 MSTORE PUSH1 0x0 PUSH1 0x20 DUP3 ADD MLOAD PUSH2 0x372D PUSH1 0x20 DUP6 ADD DUP3 PUSH1 0x1 PUSH1 0x1 PUSH1 0xA0 SHL SUB AND SWAP1 MSTORE JUMP JUMPDEST POP PUSH1 0x40 DUP3 ADD MLOAD PUSH2 0x3748 PUSH1 0x40 DUP6 ADD DUP3 PUSH1 0x1 PUSH1 0x1 PUSH1 0xA0 SHL SUB AND SWAP1 MSTORE JUMP JUMPDEST POP PUSH1 0x60 DUP3 ADD MLOAD PUSH2 0x180 PUSH1 0x60 DUP6 ADD MSTORE PUSH2 0x3764 PUSH2 0x180 DUP6 ADD DUP3 PUSH2 0x338E JUMP JUMPDEST SWAP1 POP PUSH1 0x80 DUP4 ADD MLOAD DUP5 DUP3 SUB PUSH1 0x80 DUP7 ADD MSTORE PUSH2 0x377D DUP3 DUP3 PUSH2 0x338E JUMP JUMPDEST SWAP2 POP POP PUSH1 0xA0 DUP4 ADD MLOAD DUP5 DUP3 SUB PUSH1 0xA0 DUP7 ADD MSTORE PUSH2 0x3797 DUP3 DUP3 PUSH2 0x338E JUMP JUMPDEST SWAP2 POP POP PUSH1 0xC0 DUP4 ADD MLOAD PUSH1 0xC0 DUP6 ADD MSTORE PUSH1 0xE0 DUP4 ADD MLOAD PUSH1 0xE0 DUP6 ADD MSTORE PUSH2 0x100 DUP4 ADD MLOAD PUSH2 0x100 DUP6 ADD MSTORE PUSH2 0x120 DUP4 ADD MLOAD PUSH2 0x120 DUP6 ADD MSTORE PUSH2 0x140 DUP4 ADD MLOAD PUSH2 0x140 DUP6 ADD MSTORE PUSH2 0x160 DUP4 ADD MLOAD PUSH2 0x103A PUSH2 0x160 DUP7 ADD DUP3 PUSH2 0x36EB JUMP JUMPDEST PUSH1 0x0 PUSH1 0x20 DUP3 ADD PUSH1 0x20 DUP4 MSTORE DUP1 DUP5 MLOAD DUP1 DUP4 MSTORE PUSH1 0x40 DUP6 ADD SWAP2 POP PUSH1 0x40 DUP2 PUSH1 0x5 SHL DUP7 ADD ADD SWAP3 POP PUSH1 0x20 DUP7 ADD PUSH1 0x0 JUMPDEST DUP3 DUP2 LT ISZERO PUSH2 0x34FA JUMPI PUSH1 0x3F NOT DUP8 DUP7 SUB ADD DUP5 MSTORE PUSH2 0x382A DUP6 DUP4 MLOAD PUSH2 0x370D JUMP JUMPDEST SWAP5 POP PUSH1 0x20 SWAP4 DUP5 ADD SWAP4 SWAP2 SWAP1 SWAP2 ADD SWAP1 PUSH1 0x1 ADD PUSH2 0x380E JUMP JUMPDEST PUSH1 0x0 DUP1 PUSH1 0x40 DUP4 DUP6 SUB SLT ISZERO PUSH2 0x3852 JUMPI PUSH1 0x0 DUP1 REVERT JUMPDEST PUSH2 0x385B DUP4 PUSH2 0x33E6 JUMP JUMPDEST SWAP2 POP PUSH2 0x3869 PUSH1 0x20 DUP5 ADD PUSH2 0x33E6 JUMP JUMPDEST SWAP1 POP SWAP3 POP SWAP3 SWAP1 POP JUMP JUMPDEST PUSH1 0x20 DUP2 MSTORE PUSH1 0x0 PUSH2 0x2E66 PUSH1 0x20 DUP4 ADD DUP5 PUSH2 0x370D JUMP JUMPDEST PUSH1 0x20 DUP1 DUP3 MSTORE PUSH1 0x1E SWAP1 DUP3 ADD MSTORE PUSH32 0x43726561746F72204F72204F776E6572207265736572766564206F6E6C790000 PUSH1 0x40 DUP3 ADD MSTORE PUSH1 0x60 ADD SWAP1 JUMP JUMPDEST PUSH1 0x1 DUP2 DUP2 SHR SWAP1 DUP3 AND DUP1 PUSH2 0x38D0 JUMPI PUSH1 0x7F DUP3 AND SWAP2 POP JUMPDEST PUSH1 0x20 DUP3 LT DUP2 SUB PUSH2 0x38F0 JUMPI PUSH4 0x4E487B71 PUSH1 0xE0 SHL PUSH1 0x0 MSTORE PUSH1 0x22 PUSH1 0x4 MSTORE PUSH1 0x24 PUSH1 0x0 REVERT JUMPDEST POP SWAP2 SWAP1 POP JUMP JUMPDEST PUSH1 0x1F DUP3 GT ISZERO PUSH2 0xF43 JUMPI DUP1 PUSH1 0x0 MSTORE PUSH1 0x20 PUSH1 0x0 KECCAK256 PUSH1 0x1F DUP5 ADD PUSH1 0x5 SHR DUP2 ADD PUSH1 0x20 DUP6 LT ISZERO PUSH2 0x391D JUMPI POP DUP1 JUMPDEST PUSH1 0x1F DUP5 ADD PUSH1 0x5 SHR DUP3 ADD SWAP2 POP JUMPDEST DUP2 DUP2 LT ISZERO PUSH2 0x2866 JUMPI PUSH1 0x0 DUP2 SSTORE PUSH1 0x1 ADD PUSH2 0x3929 JUMP JUMPDEST DUP2 MLOAD PUSH8 0xFFFFFFFFFFFFFFFF DUP2 GT ISZERO PUSH2 0x3957 JUMPI PUSH2 0x3957 PUSH2 0x3214 JUMP JUMPDEST PUSH2 0x396B DUP2 PUSH2 0x3965 DUP5 SLOAD PUSH2 0x38BC JUMP JUMPDEST DUP5 PUSH2 0x38F6 JUMP JUMPDEST PUSH1 0x20 PUSH1 0x1F DUP3 GT PUSH1 0x1 DUP2 EQ PUSH2 0x399F JUMPI PUSH1 0x0 DUP4 ISZERO PUSH2 0x3987 JUMPI POP DUP5 DUP3 ADD MLOAD JUMPDEST PUSH1 0x0 NOT PUSH1 0x3 DUP6 SWAP1 SHL SHR NOT AND PUSH1 0x1 DUP5 SWAP1 SHL OR DUP5 SSTORE PUSH2 0x2866 JUMP JUMPDEST PUSH1 0x0 DUP5 DUP2 MSTORE PUSH1 0x20 DUP2 KECCAK256 PUSH1 0x1F NOT DUP6 AND SWAP2 JUMPDEST DUP3 DUP2 LT ISZERO PUSH2 0x39CF JUMPI DUP8 DUP6 ADD MLOAD DUP3 SSTORE PUSH1 0x20 SWAP5 DUP6 ADD SWAP5 PUSH1 0x1 SWAP1 SWAP3 ADD SWAP2 ADD PUSH2 0x39AF JUMP JUMPDEST POP DUP5 DUP3 LT ISZERO PUSH2 0x39ED JUMPI DUP7 DUP5 ADD MLOAD PUSH1 0x0 NOT PUSH1 0x3 DUP8 SWAP1 SHL PUSH1 0xF8 AND SHR NOT AND DUP2 SSTORE JUMPDEST POP POP POP POP PUSH1 0x1 SWAP1 DUP2 SHL ADD SWAP1 SSTORE POP JUMP JUMPDEST PUSH4 0x4E487B71 PUSH1 0xE0 SHL PUSH1 0x0 MSTORE PUSH1 0x11 PUSH1 0x4 MSTORE PUSH1 0x24 PUSH1 0x0 REVERT JUMPDEST DUP1 DUP3 ADD DUP1 DUP3 GT ISZERO PUSH2 0x7AA JUMPI PUSH2 0x7AA PUSH2 0x39FC JUMP JUMPDEST PUSH1 0x0 PUSH1 0x1 DUP3 ADD PUSH2 0x3A37 JUMPI PUSH2 0x3A37 PUSH2 0x39FC JUMP JUMPDEST POP PUSH1 0x1 ADD SWAP1 JUMP JUMPDEST PUSH4 0x4E487B71 PUSH1 0xE0 SHL PUSH1 0x0 MSTORE PUSH1 0x32 PUSH1 0x4 MSTORE PUSH1 0x24 PUSH1 0x0 REVERT JUMPDEST PUSH1 0x20 DUP1 DUP3 MSTORE PUSH1 0x11 SWAP1 DUP3 ADD MSTORE PUSH17 0x141C9BDA9958DD081B9BDD08199BDD5B99 PUSH1 0x7A SHL PUSH1 0x40 DUP3 ADD MSTORE PUSH1 0x60 ADD SWAP1 JUMP JUMPDEST PUSH1 0x20 DUP1 DUP3 MSTORE PUSH1 0x13 SWAP1 DUP3 ADD MSTORE PUSH19 0x556E617574686F72697A656420456E74697479 PUSH1 0x68 SHL PUSH1 0x40 DUP3 ADD MSTORE PUSH1 0x60 ADD SWAP1 JUMP JUMPDEST PUSH1 0x20 DUP1 DUP3 MSTORE PUSH1 0x1B SWAP1 DUP3 ADD MSTORE PUSH32 0x50726F6A656374206973206E6F7420617070726F766564207965740000000000 PUSH1 0x40 DUP3 ADD MSTORE PUSH1 0x60 ADD SWAP1 JUMP JUMPDEST DUP2 DUP2 SUB DUP2 DUP2 GT ISZERO PUSH2 0x7AA JUMPI PUSH2 0x7AA PUSH2 0x39FC JUMP JUMPDEST DUP1 DUP3 MUL DUP2 ISZERO DUP3 DUP3 DIV DUP5 EQ OR PUSH2 0x7AA JUMPI PUSH2 0x7AA PUSH2 0x39FC JUMP JUMPDEST PUSH1 0x0 DUP3 PUSH2 0x3B2A JUMPI PUSH4 0x4E487B71 PUSH1 0xE0 SHL PUSH1 0x0 MSTORE PUSH1 0x12 PUSH1 0x4 MSTORE PUSH1 0x24 PUSH1 0x0 REVERT JUMPDEST POP DIV SWAP1 JUMP JUMPDEST PUSH1 0x1 PUSH1 0x1 PUSH1 0xA0 SHL SUB DUP6 DUP2 AND DUP3 MSTORE DUP5 AND PUSH1 0x20 DUP3 ADD MSTORE PUSH1 0x40 DUP2 ADD DUP4 SWAP1 MSTORE PUSH1 0x80 PUSH1 0x60 DUP3 ADD DUP2 SWAP1 MSTORE PUSH1 0x0 SWAP1 PUSH2 0x3B62 SWAP1 DUP4 ADD DUP5 PUSH2 0x338E JUMP JUMPDEST SWAP7 SWAP6 POP POP POP POP POP POP JUMP JUMPDEST PUSH1 0x0 PUSH1 0x20 DUP3 DUP5 SUB SLT ISZERO PUSH2 0x3B7E JUMPI PUSH1 0x0 DUP1 REVERT JUMPDEST DUP2 MLOAD PUSH2 0x2E66 DUP2 PUSH2 0x31DE JUMP JUMPDEST PUSH1 0x0 DUP4 MLOAD PUSH2 0x3B9B DUP2 DUP5 PUSH1 0x20 DUP9 ADD PUSH2 0x336A JUMP JUMPDEST DUP4 MLOAD SWAP1 DUP4 ADD SWAP1 PUSH2 0x3BAF DUP2 DUP4 PUSH1 0x20 DUP9 ADD PUSH2 0x336A JUMP JUMPDEST ADD SWAP5 SWAP4 POP POP POP POP JUMP JUMPDEST PUSH1 0x0 DUP2 SLOAD PUSH2 0x3BC5 DUP2 PUSH2 0x38BC JUMP JUMPDEST PUSH1 0x1 DUP3 AND DUP1 ISZERO PUSH2 0x3BDC JUMPI PUSH1 0x1 DUP2 EQ PUSH2 0x3BF1 JUMPI PUSH2 0x3C21 JUMP JUMPDEST PUSH1 0xFF NOT DUP4 AND DUP7 MSTORE DUP2 ISZERO ISZERO DUP3 MUL DUP7 ADD SWAP4 POP PUSH2 0x3C21 JUMP JUMPDEST DUP5 PUSH1 0x0 MSTORE PUSH1 0x20 PUSH1 0x0 KECCAK256 PUSH1 0x0 JUMPDEST DUP4 DUP2 LT ISZERO PUSH2 0x3C19 JUMPI DUP2 SLOAD DUP9 DUP3 ADD MSTORE PUSH1 0x1 SWAP1 SWAP2 ADD SWAP1 PUSH1 0x20 ADD PUSH2 0x3BFD JUMP JUMPDEST POP POP DUP2 DUP7 ADD SWAP4 POP JUMPDEST POP POP POP SWAP3 SWAP2 POP POP JUMP JUMPDEST PUSH11 0x3D913A34BA3632911D1011 PUSH1 0xA9 SHL DUP2 MSTORE PUSH1 0x0 PUSH2 0x3C4A PUSH1 0xB DUP4 ADD DUP6 PUSH2 0x3BB8 JUMP JUMPDEST PUSH16 0x1116101134B6B0B3B2AAA926111D1011 PUSH1 0x81 SHL DUP2 MSTORE PUSH2 0x3C6D PUSH1 0x10 DUP3 ADD DUP6 PUSH2 0x3BB8 JUMP JUMPDEST PUSH2 0x227D PUSH1 0xF0 SHL DUP2 MSTORE PUSH1 0x2 ADD SWAP6 SWAP5 POP POP POP POP POP JUMP INVALID 0xAE 0xE8 0xE5 0xD3 0xBB 0xB2 0xF7 BYTE SWAP6 SHL JUMP ORIGIN 0xCE 0xE2 0xF PUSH27 0xC487B9F8AB4F66A236F7694B13AF7C6AA2646970667358221220B6 0xB1 0xDA 0xAA CALLDATACOPY MOD TIMESTAMP 0xF PUSH27 0x9908A21E809DE38FA4DD4B71C5AA04AE79D12FBF57F35B64736F6C PUSH4 0x4300081A STOP CALLER "},"methodIdentifiers":{"CreatorExist(address)":"f7767c93","UserOfNFTs(address,uint256)":"c1ada37e","addCreator(address)":"3b9dce05","approve(address,uint256)":"095ea7b3","backProject(uint256)":"9f39a194","balance()":"b69ef8a8","balanceOf(address)":"70a08231","changeTax(uint256)":"3e45c8af","createProject(string,string,string,uint256,uint256)":"056c29ee","deleteProject(uint256)":"4cd0cb28","getApproved(uint256)":"081812fc","getBackers(uint256)":"c9168b72","getNfts(address)":"44cc2afe","getProject(uint256)":"f0f3f2c8","getProjects()":"dcc60128","isAppOwner()":"ca766f64","isAppOwner(address)":"1453d482","isApprovedForAll(address,address)":"e985e9c5","isCreator(address)":"efd46065","name()":"06fdde03","owner()":"8da5cb5b","ownerOf(uint256)":"6352211e","payOutProject(uint256)":"b531dcba","projectCount()":"36fbad26","projectExist(uint256)":"8593054b","projectOfNFTs(uint256,uint256)":"3d061498","projectTax()":"d24cd3ec","requestRefund(uint256)":"a4b2409e","safeTransferFrom(address,address,uint256)":"42842e0e","safeTransferFrom(address,address,uint256,bytes)":"b88d4fde","setApprovalForAll(address,bool)":"a22cb465","startProject(uint256)":"f62bf2de","stats()":"d80528ae","supportsInterface(bytes4)":"01ffc9a7","symbol()":"95d89b41","tokenCounter()":"d082e381","tokenURI(uint256)":"c87b56dd","transferFrom(address,address,uint256)":"23b872dd","updateProject(uint256,string,string,string,uint256)":"9a3fa8c7"}}}}}