{
  "_format": "hh-sol-artifact-1",
  "contractName": "NTPUFund",
  "sourceName": "src/contracts/NTPUFund.sol",
  "abi": [
    {
      "inputs": [
        {
          "internalType": "uint256",
          "name": "_projectTax",
          "type": "uint256"
        }
      ],
      "stateMutability": "nonpayable",
      "type": "constructor"
    },
    {
      "inputs": [
        {
          "internalType": "address",
          "name": "sender",
          "type": "address"
        },
        {
          "internalType": "uint256",
          "name": "tokenId",
          "type": "uint256"
        },
        {
          "internalType": "address",
          "name": "owner",
          "type": "address"
        }
      ],
      "name": "ERC721IncorrectOwner",
      "type": "error"
    },
    {
      "inputs": [
        {
          "internalType": "address",
          "name": "operator",
          "type": "address"
        },
        {
          "internalType": "uint256",
          "name": "tokenId",
          "type": "uint256"
        }
      ],
      "name": "ERC721InsufficientApproval",
      "type": "error"
    },
    {
      "inputs": [
        {
          "internalType": "address",
          "name": "approver",
          "type": "address"
        }
      ],
      "name": "ERC721InvalidApprover",
      "type": "error"
    },
    {
      "inputs": [
        {
          "internalType": "address",
          "name": "operator",
          "type": "address"
        }
      ],
      "name": "ERC721InvalidOperator",
      "type": "error"
    },
    {
      "inputs": [
        {
          "internalType": "address",
          "name": "owner",
          "type": "address"
        }
      ],
      "name": "ERC721InvalidOwner",
      "type": "error"
    },
    {
      "inputs": [
        {
          "internalType": "address",
          "name": "receiver",
          "type": "address"
        }
      ],
      "name": "ERC721InvalidReceiver",
      "type": "error"
    },
    {
      "inputs": [
        {
          "internalType": "address",
          "name": "sender",
          "type": "address"
        }
      ],
      "name": "ERC721InvalidSender",
      "type": "error"
    },
    {
      "inputs": [
        {
          "internalType": "uint256",
          "name": "tokenId",
          "type": "uint256"
        }
      ],
      "name": "ERC721NonexistentToken",
      "type": "error"
    },
    {
      "anonymous": false,
      "inputs": [
        {
          "indexed": false,
          "internalType": "uint256",
          "name": "id",
          "type": "uint256"
        },
        {
          "indexed": false,
          "internalType": "string",
          "name": "actionType",
          "type": "string"
        },
        {
          "indexed": true,
          "internalType": "address",
          "name": "executor",
          "type": "address"
        },
        {
          "indexed": false,
          "internalType": "uint256",
          "name": "timestamp",
          "type": "uint256"
        }
      ],
      "name": "Action",
      "type": "event"
    },
    {
      "anonymous": false,
      "inputs": [
        {
          "indexed": true,
          "internalType": "address",
          "name": "owner",
          "type": "address"
        },
        {
          "indexed": true,
          "internalType": "address",
          "name": "approved",
          "type": "address"
        },
        {
          "indexed": true,
          "internalType": "uint256",
          "name": "tokenId",
          "type": "uint256"
        }
      ],
      "name": "Approval",
      "type": "event"
    },
    {
      "anonymous": false,
      "inputs": [
        {
          "indexed": true,
          "internalType": "address",
          "name": "owner",
          "type": "address"
        },
        {
          "indexed": true,
          "internalType": "address",
          "name": "operator",
          "type": "address"
        },
        {
          "indexed": false,
          "internalType": "bool",
          "name": "approved",
          "type": "bool"
        }
      ],
      "name": "ApprovalForAll",
      "type": "event"
    },
    {
      "anonymous": false,
      "inputs": [
        {
          "indexed": false,
          "internalType": "uint256",
          "name": "_fromTokenId",
          "type": "uint256"
        },
        {
          "indexed": false,
          "internalType": "uint256",
          "name": "_toTokenId",
          "type": "uint256"
        }
      ],
      "name": "BatchMetadataUpdate",
      "type": "event"
    },
    {
      "anonymous": false,
      "inputs": [
        {
          "indexed": false,
          "internalType": "uint256",
          "name": "_tokenId",
          "type": "uint256"
        }
      ],
      "name": "MetadataUpdate",
      "type": "event"
    },
    {
      "anonymous": false,
      "inputs": [
        {
          "indexed": true,
          "internalType": "address",
          "name": "from",
          "type": "address"
        },
        {
          "indexed": true,
          "internalType": "address",
          "name": "to",
          "type": "address"
        },
        {
          "indexed": true,
          "internalType": "uint256",
          "name": "tokenId",
          "type": "uint256"
        }
      ],
      "name": "Transfer",
      "type": "event"
    },
    {
      "inputs": [
        {
          "internalType": "address",
          "name": "",
          "type": "address"
        }
      ],
      "name": "CreatorExist",
      "outputs": [
        {
          "internalType": "bool",
          "name": "",
          "type": "bool"
        }
      ],
      "stateMutability": "view",
      "type": "function"
    },
    {
      "inputs": [
        {
          "internalType": "address",
          "name": "",
          "type": "address"
        },
        {
          "internalType": "uint256",
          "name": "",
          "type": "uint256"
        }
      ],
      "name": "UserOfNFTs",
      "outputs": [
        {
          "internalType": "uint256",
          "name": "",
          "type": "uint256"
        }
      ],
      "stateMutability": "view",
      "type": "function"
    },
    {
      "inputs": [
        {
          "internalType": "address",
          "name": "_newCreator",
          "type": "address"
        }
      ],
      "name": "addCreator",
      "outputs": [],
      "stateMutability": "nonpayable",
      "type": "function"
    },
    {
      "inputs": [
        {
          "internalType": "address",
          "name": "to",
          "type": "address"
        },
        {
          "internalType": "uint256",
          "name": "tokenId",
          "type": "uint256"
        }
      ],
      "name": "approve",
      "outputs": [],
      "stateMutability": "nonpayable",
      "type": "function"
    },
    {
      "inputs": [
        {
          "internalType": "uint256",
          "name": "id",
          "type": "uint256"
        }
      ],
      "name": "backProject",
      "outputs": [
        {
          "internalType": "bool",
          "name": "",
          "type": "bool"
        }
      ],
      "stateMutability": "payable",
      "type": "function"
    },
    {
      "inputs": [],
      "name": "balance",
      "outputs": [
        {
          "internalType": "uint256",
          "name": "",
          "type": "uint256"
        }
      ],
      "stateMutability": "view",
      "type": "function"
    },
    {
      "inputs": [
        {
          "internalType": "address",
          "name": "owner",
          "type": "address"
        }
      ],
      "name": "balanceOf",
      "outputs": [
        {
          "internalType": "uint256",
          "name": "",
          "type": "uint256"
        }
      ],
      "stateMutability": "view",
      "type": "function"
    },
    {
      "inputs": [
        {
          "internalType": "uint256",
          "name": "_taxPct",
          "type": "uint256"
        }
      ],
      "name": "changeTax",
      "outputs": [],
      "stateMutability": "nonpayable",
      "type": "function"
    },
    {
      "inputs": [
        {
          "internalType": "string",
          "name": "title",
          "type": "string"
        },
        {
          "internalType": "string",
          "name": "description",
          "type": "string"
        },
        {
          "internalType": "string",
          "name": "imageURL",
          "type": "string"
        },
        {
          "internalType": "uint256",
          "name": "cost",
          "type": "uint256"
        },
        {
          "internalType": "uint256",
          "name": "expiresAt",
          "type": "uint256"
        }
      ],
      "name": "createProject",
      "outputs": [
        {
          "internalType": "bool",
          "name": "",
          "type": "bool"
        }
      ],
      "stateMutability": "nonpayable",
      "type": "function"
    },
    {
      "inputs": [
        {
          "internalType": "uint256",
          "name": "id",
          "type": "uint256"
        }
      ],
      "name": "deleteProject",
      "outputs": [
        {
          "internalType": "bool",
          "name": "",
          "type": "bool"
        }
      ],
      "stateMutability": "nonpayable",
      "type": "function"
    },
    {
      "inputs": [
        {
          "internalType": "uint256",
          "name": "tokenId",
          "type": "uint256"
        }
      ],
      "name": "getApproved",
      "outputs": [
        {
          "internalType": "address",
          "name": "",
          "type": "address"
        }
      ],
      "stateMutability": "view",
      "type": "function"
    },
    {
      "inputs": [
        {
          "internalType": "uint256",
          "name": "id",
          "type": "uint256"
        }
      ],
      "name": "getBackers",
      "outputs": [
        {
          "components": [
            {
              "internalType": "address",
              "name": "owner",
              "type": "address"
            },
            {
              "internalType": "uint256",
              "name": "contributions",
              "type": "uint256"
            },
            {
              "internalType": "uint256",
              "name": "timestamp",
              "type": "uint256"
            },
            {
              "internalType": "bool",
              "name": "refunded",
              "type": "bool"
            }
          ],
          "internalType": "struct NTPUFund.backerStruct[]",
          "name": "",
          "type": "tuple[]"
        }
      ],
      "stateMutability": "view",
      "type": "function"
    },
    {
      "inputs": [
        {
          "internalType": "address",
          "name": "_owner",
          "type": "address"
        }
      ],
      "name": "getNfts",
      "outputs": [
        {
          "internalType": "string[]",
          "name": "",
          "type": "string[]"
        }
      ],
      "stateMutability": "view",
      "type": "function"
    },
    {
      "inputs": [
        {
          "internalType": "uint256",
          "name": "id",
          "type": "uint256"
        }
      ],
      "name": "getProject",
      "outputs": [
        {
          "components": [
            {
              "internalType": "uint256",
              "name": "id",
              "type": "uint256"
            },
            {
              "internalType": "address",
              "name": "project",
              "type": "address"
            },
            {
              "internalType": "address",
              "name": "owner",
              "type": "address"
            },
            {
              "internalType": "string",
              "name": "title",
              "type": "string"
            },
            {
              "internalType": "string",
              "name": "description",
              "type": "string"
            },
            {
              "internalType": "string",
              "name": "imageURL",
              "type": "string"
            },
            {
              "internalType": "uint256",
              "name": "cost",
              "type": "uint256"
            },
            {
              "internalType": "uint256",
              "name": "raised",
              "type": "uint256"
            },
            {
              "internalType": "uint256",
              "name": "timestamp",
              "type": "uint256"
            },
            {
              "internalType": "uint256",
              "name": "expiresAt",
              "type": "uint256"
            },
            {
              "internalType": "uint256",
              "name": "backers",
              "type": "uint256"
            },
            {
              "internalType": "enum NTPUFund.statusEnum",
              "name": "status",
              "type": "uint8"
            }
          ],
          "internalType": "struct NTPUFund.projectStruct",
          "name": "",
          "type": "tuple"
        }
      ],
      "stateMutability": "view",
      "type": "function"
    },
    {
      "inputs": [],
      "name": "getProjects",
      "outputs": [
        {
          "components": [
            {
              "internalType": "uint256",
              "name": "id",
              "type": "uint256"
            },
            {
              "internalType": "address",
              "name": "project",
              "type": "address"
            },
            {
              "internalType": "address",
              "name": "owner",
              "type": "address"
            },
            {
              "internalType": "string",
              "name": "title",
              "type": "string"
            },
            {
              "internalType": "string",
              "name": "description",
              "type": "string"
            },
            {
              "internalType": "string",
              "name": "imageURL",
              "type": "string"
            },
            {
              "internalType": "uint256",
              "name": "cost",
              "type": "uint256"
            },
            {
              "internalType": "uint256",
              "name": "raised",
              "type": "uint256"
            },
            {
              "internalType": "uint256",
              "name": "timestamp",
              "type": "uint256"
            },
            {
              "internalType": "uint256",
              "name": "expiresAt",
              "type": "uint256"
            },
            {
              "internalType": "uint256",
              "name": "backers",
              "type": "uint256"
            },
            {
              "internalType": "enum NTPUFund.statusEnum",
              "name": "status",
              "type": "uint8"
            }
          ],
          "internalType": "struct NTPUFund.projectStruct[]",
          "name": "",
          "type": "tuple[]"
        }
      ],
      "stateMutability": "view",
      "type": "function"
    },
    {
      "inputs": [
        {
          "internalType": "address",
          "name": "addr",
          "type": "address"
        }
      ],
      "name": "isAppOwner",
      "outputs": [
        {
          "internalType": "bool",
          "name": "",
          "type": "bool"
        }
      ],
      "stateMutability": "view",
      "type": "function"
    },
    {
      "inputs": [],
      "name": "isAppOwner",
      "outputs": [
        {
          "internalType": "bool",
          "name": "",
          "type": "bool"
        }
      ],
      "stateMutability": "view",
      "type": "function"
    },
    {
      "inputs": [
        {
          "internalType": "address",
          "name": "owner",
          "type": "address"
        },
        {
          "internalType": "address",
          "name": "operator",
          "type": "address"
        }
      ],
      "name": "isApprovedForAll",
      "outputs": [
        {
          "internalType": "bool",
          "name": "",
          "type": "bool"
        }
      ],
      "stateMutability": "view",
      "type": "function"
    },
    {
      "inputs": [
        {
          "internalType": "address",
          "name": "addr",
          "type": "address"
        }
      ],
      "name": "isCreator",
      "outputs": [
        {
          "internalType": "bool",
          "name": "",
          "type": "bool"
        }
      ],
      "stateMutability": "view",
      "type": "function"
    },
    {
      "inputs": [
        {
          "internalType": "uint256",
          "name": "id",
          "type": "uint256"
        },
        {
          "internalType": "address",
          "name": "addr",
          "type": "address"
        }
      ],
      "name": "isProjectCreator",
      "outputs": [
        {
          "internalType": "bool",
          "name": "",
          "type": "bool"
        }
      ],
      "stateMutability": "view",
      "type": "function"
    },
    {
      "inputs": [],
      "name": "name",
      "outputs": [
        {
          "internalType": "string",
          "name": "",
          "type": "string"
        }
      ],
      "stateMutability": "view",
      "type": "function"
    },
    {
      "inputs": [],
      "name": "owner",
      "outputs": [
        {
          "internalType": "address",
          "name": "",
          "type": "address"
        }
      ],
      "stateMutability": "view",
      "type": "function"
    },
    {
      "inputs": [
        {
          "internalType": "uint256",
          "name": "tokenId",
          "type": "uint256"
        }
      ],
      "name": "ownerOf",
      "outputs": [
        {
          "internalType": "address",
          "name": "",
          "type": "address"
        }
      ],
      "stateMutability": "view",
      "type": "function"
    },
    {
      "inputs": [
        {
          "internalType": "uint256",
          "name": "id",
          "type": "uint256"
        }
      ],
      "name": "payOutProject",
      "outputs": [
        {
          "internalType": "bool",
          "name": "",
          "type": "bool"
        }
      ],
      "stateMutability": "nonpayable",
      "type": "function"
    },
    {
      "inputs": [],
      "name": "projectCount",
      "outputs": [
        {
          "internalType": "uint256",
          "name": "",
          "type": "uint256"
        }
      ],
      "stateMutability": "view",
      "type": "function"
    },
    {
      "inputs": [
        {
          "internalType": "uint256",
          "name": "",
          "type": "uint256"
        }
      ],
      "name": "projectExist",
      "outputs": [
        {
          "internalType": "bool",
          "name": "",
          "type": "bool"
        }
      ],
      "stateMutability": "view",
      "type": "function"
    },
    {
      "inputs": [
        {
          "internalType": "uint256",
          "name": "",
          "type": "uint256"
        },
        {
          "internalType": "uint256",
          "name": "",
          "type": "uint256"
        }
      ],
      "name": "projectOfNFTs",
      "outputs": [
        {
          "internalType": "uint256",
          "name": "",
          "type": "uint256"
        }
      ],
      "stateMutability": "view",
      "type": "function"
    },
    {
      "inputs": [],
      "name": "projectTax",
      "outputs": [
        {
          "internalType": "uint256",
          "name": "",
          "type": "uint256"
        }
      ],
      "stateMutability": "view",
      "type": "function"
    },
    {
      "inputs": [
        {
          "internalType": "uint256",
          "name": "id",
          "type": "uint256"
        }
      ],
      "name": "requestRefund",
      "outputs": [
        {
          "internalType": "bool",
          "name": "",
          "type": "bool"
        }
      ],
      "stateMutability": "nonpayable",
      "type": "function"
    },
    {
      "inputs": [
        {
          "internalType": "address",
          "name": "from",
          "type": "address"
        },
        {
          "internalType": "address",
          "name": "to",
          "type": "address"
        },
        {
          "internalType": "uint256",
          "name": "tokenId",
          "type": "uint256"
        }
      ],
      "name": "safeTransferFrom",
      "outputs": [],
      "stateMutability": "nonpayable",
      "type": "function"
    },
    {
      "inputs": [
        {
          "internalType": "address",
          "name": "from",
          "type": "address"
        },
        {
          "internalType": "address",
          "name": "to",
          "type": "address"
        },
        {
          "internalType": "uint256",
          "name": "tokenId",
          "type": "uint256"
        },
        {
          "internalType": "bytes",
          "name": "data",
          "type": "bytes"
        }
      ],
      "name": "safeTransferFrom",
      "outputs": [],
      "stateMutability": "nonpayable",
      "type": "function"
    },
    {
      "inputs": [
        {
          "internalType": "address",
          "name": "operator",
          "type": "address"
        },
        {
          "internalType": "bool",
          "name": "approved",
          "type": "bool"
        }
      ],
      "name": "setApprovalForAll",
      "outputs": [],
      "stateMutability": "nonpayable",
      "type": "function"
    },
    {
      "inputs": [
        {
          "internalType": "uint256",
          "name": "id",
          "type": "uint256"
        }
      ],
      "name": "startProject",
      "outputs": [
        {
          "internalType": "bool",
          "name": "",
          "type": "bool"
        }
      ],
      "stateMutability": "nonpayable",
      "type": "function"
    },
    {
      "inputs": [],
      "name": "stats",
      "outputs": [
        {
          "internalType": "uint256",
          "name": "totalProject",
          "type": "uint256"
        },
        {
          "internalType": "uint256",
          "name": "totalBacking",
          "type": "uint256"
        },
        {
          "internalType": "uint256",
          "name": "totalDonations",
          "type": "uint256"
        }
      ],
      "stateMutability": "view",
      "type": "function"
    },
    {
      "inputs": [
        {
          "internalType": "bytes4",
          "name": "interfaceId",
          "type": "bytes4"
        }
      ],
      "name": "supportsInterface",
      "outputs": [
        {
          "internalType": "bool",
          "name": "",
          "type": "bool"
        }
      ],
      "stateMutability": "view",
      "type": "function"
    },
    {
      "inputs": [],
      "name": "symbol",
      "outputs": [
        {
          "internalType": "string",
          "name": "",
          "type": "string"
        }
      ],
      "stateMutability": "view",
      "type": "function"
    },
    {
      "inputs": [],
      "name": "tokenCounter",
      "outputs": [
        {
          "internalType": "uint256",
          "name": "",
          "type": "uint256"
        }
      ],
      "stateMutability": "view",
      "type": "function"
    },
    {
      "inputs": [
        {
          "internalType": "uint256",
          "name": "tokenId",
          "type": "uint256"
        }
      ],
      "name": "tokenURI",
      "outputs": [
        {
          "internalType": "string",
          "name": "",
          "type": "string"
        }
      ],
      "stateMutability": "view",
      "type": "function"
    },
    {
      "inputs": [
        {
          "internalType": "address",
          "name": "from",
          "type": "address"
        },
        {
          "internalType": "address",
          "name": "to",
          "type": "address"
        },
        {
          "internalType": "uint256",
          "name": "tokenId",
          "type": "uint256"
        }
      ],
      "name": "transferFrom",
      "outputs": [],
      "stateMutability": "nonpayable",
      "type": "function"
    },
    {
      "inputs": [
        {
          "internalType": "uint256",
          "name": "id",
          "type": "uint256"
        },
        {
          "internalType": "string",
          "name": "title",
          "type": "string"
        },
        {
          "internalType": "string",
          "name": "description",
          "type": "string"
        },
        {
          "internalType": "string",
          "name": "imageURL",
          "type": "string"
        },
        {
          "internalType": "uint256",
          "name": "expiresAt",
          "type": "uint256"
        }
      ],
      "name": "updateProject",
      "outputs": [
        {
          "internalType": "bool",
          "name": "",
          "type": "bool"
        }
      ],
      "stateMutability": "nonpayable",
      "type": "function"
    }
  ],
  "bytecode": "0x608060405234801561001057600080fd5b50604051613ffd380380613ffd83398101604081905261002f916100ab565b60405180604001604052806008815260200167139d1c1d519d5b9960c21b815250604051806040016040528060048152602001634e54505560e01b815250816000908161007c9190610163565b5060016100898282610163565b50506000600b5550600780546001600160a01b03191633179055600855610221565b6000602082840312156100bd57600080fd5b5051919050565b634e487b7160e01b600052604160045260246000fd5b600181811c908216806100ee57607f821691505b60208210810361010e57634e487b7160e01b600052602260045260246000fd5b50919050565b601f82111561015e57806000526020600020601f840160051c8101602085101561013b5750805b601f840160051c820191505b8181101561015b5760008155600101610147565b50505b505050565b81516001600160401b0381111561017c5761017c6100c4565b6101908161018a84546100da565b84610114565b6020601f8211600181146101c457600083156101ac5750848201515b600019600385901b1c1916600184901b17845561015b565b600084815260208120601f198516915b828110156101f457878501518255602094850194600190920191016101d4565b50848210156102125786840151600019600387901b60f8161c191681555b50505050600190811b01905550565b613dcd806102306000396000f3fe60806040526004361061023b5760003560e01c80639a3fa8c71161012e578063ca766f64116100ab578063e985e9c51161006f578063e985e9c5146106f4578063efd4606514610714578063f0f3f2c81461074d578063f62bf2de1461077a578063f7767c931461079a57600080fd5b8063ca766f641461064c578063d082e3811461066c578063d24cd3ec14610682578063d80528ae14610698578063dcc60128146106d257600080fd5b8063b69ef8a8116100f2578063b69ef8a8146105a9578063b88d4fde146105bf578063c1ada37e146105df578063c87b56dd146105ff578063c9168b721461061f57600080fd5b80639a3fa8c7146105165780639f39a19414610536578063a22cb46514610549578063a4b2409e14610569578063b531dcba1461058957600080fd5b80633e45c8af116101bc5780636c57ebdf116101805780636c57ebdf1461047157806370a08231146104915780638593054b146104b15780638da5cb5b146104e157806395d89b411461050157600080fd5b80633e45c8af146103c457806342842e0e146103e457806344cc2afe146104045780634cd0cb28146104315780636352211e1461045157600080fd5b80631453d482116102035780631453d4821461031157806323b872dd1461034057806336fbad26146103605780633b9dce05146103845780633d061498146103a457600080fd5b806301ffc9a714610240578063056c29ee1461027557806306fdde0314610295578063081812fc146102b7578063095ea7b3146102ef575b600080fd5b34801561024c57600080fd5b5061026061025b36600461329c565b6107ca565b60405190151581526020015b60405180910390f35b34801561028157600080fd5b50610260610290366004613369565b6107db565b3480156102a157600080fd5b506102aa610cac565b60405161026c919061345f565b3480156102c357600080fd5b506102d76102d2366004613472565b610d3e565b6040516001600160a01b03909116815260200161026c565b3480156102fb57600080fd5b5061030f61030a3660046134a2565b610d67565b005b34801561031d57600080fd5b5061026061032c3660046134cc565b6007546001600160a01b0391821691161490565b34801561034c57600080fd5b5061030f61035b3660046134e7565b610d76565b34801561036c57600080fd5b5061037660095481565b60405190815260200161026c565b34801561039057600080fd5b5061030f61039f3660046134cc565b610e01565b3480156103b057600080fd5b506103766103bf366004613524565b610ecd565b3480156103d057600080fd5b5061030f6103df366004613472565b610efe565b3480156103f057600080fd5b5061030f6103ff3660046134e7565b610f53565b34801561041057600080fd5b5061042461041f3660046134cc565b610f73565b60405161026c9190613546565b34801561043d57600080fd5b5061026061044c366004613472565b61106d565b34801561045d57600080fd5b506102d761046c366004613472565b6111d6565b34801561047d57600080fd5b5061026061048c3660046135ab565b6111e1565b34801561049d57600080fd5b506103766104ac3660046134cc565b611251565b3480156104bd57600080fd5b506102606104cc366004613472565b60126020526000908152604090205460ff1681565b3480156104ed57600080fd5b506007546102d7906001600160a01b031681565b34801561050d57600080fd5b506102aa611299565b34801561052257600080fd5b506102606105313660046135d7565b6112a8565b610260610544366004613472565b61157a565b34801561055557600080fd5b5061030f61056436600461367d565b611921565b34801561057557600080fd5b50610260610584366004613472565b61192c565b34801561059557600080fd5b506102606105a4366004613472565b611a23565b3480156105b557600080fd5b50610376600a5481565b3480156105cb57600080fd5b5061030f6105da3660046136b9565b611aeb565b3480156105eb57600080fd5b506103766105fa3660046134a2565b611b02565b34801561060b57600080fd5b506102aa61061a366004613472565b611b1e565b34801561062b57600080fd5b5061063f61063a366004613472565b611b29565b60405161026c9190613735565b34801561065857600080fd5b506007546001600160a01b03163314610260565b34801561067857600080fd5b50610376600b5481565b34801561068e57600080fd5b5061037660085481565b3480156106a457600080fd5b50600c54600d54600e546106b792919083565b6040805193845260208401929092529082015260600161026c565b3480156106de57600080fd5b506106e7611bf0565b60405161026c91906138b7565b34801561070057600080fd5b5061026061070f366004613910565b611e9b565b34801561072057600080fd5b5061026061072f3660046134cc565b6001600160a01b031660009081526013602052604090205460ff1690565b34801561075957600080fd5b5061076d610768366004613472565b611ec9565b60405161026c919061393a565b34801561078657600080fd5b50610260610795366004613472565b61217f565b3480156107a657600080fd5b506102606107b53660046134cc565b60136020526000908152604090205460ff1681565b60006107d5826122cc565b92915050565b3360009081526013602052604081205460ff168061080357506007546001600160a01b031633145b6108285760405162461bcd60e51b815260040161081f9061394d565b60405180910390fd5b60008651116108715760405162461bcd60e51b81526020600482015260156024820152745469746c652063616e6e6f7420626520656d70747960581b604482015260640161081f565b60008551116108c25760405162461bcd60e51b815260206004820152601b60248201527f4465736372697074696f6e2063616e6e6f7420626520656d7074790000000000604482015260640161081f565b600084511161090e5760405162461bcd60e51b8152602060048201526018602482015277496d61676555524c2063616e6e6f7420626520656d70747960401b604482015260640161081f565b600083116109545760405162461bcd60e51b8152602060048201526013602482015272436f73742063616e6e6f74206265207a65726f60681b604482015260640161081f565b61095c613200565b60095481523360408201908152606082018881526080830188905260a0830187905260c08301869052426101008401526101208301859052600f805460018101825560009190915283517f8d1108e10bcb7c27dddfc02ed9d693a074039d026cf4ea4240b40f7d581ac802600c90920291820190815560208501517f8d1108e10bcb7c27dddfc02ed9d693a074039d026cf4ea4240b40f7d581ac803830180546001600160a01b03199081166001600160a01b039384161790915594517f8d1108e10bcb7c27dddfc02ed9d693a074039d026cf4ea4240b40f7d581ac8048401805490961691161790935590518392917f8d1108e10bcb7c27dddfc02ed9d693a074039d026cf4ea4240b40f7d581ac8050190610a799082613a05565b5060808201516004820190610a8e9082613a05565b5060a08201516005820190610aa39082613a05565b5060c0820151600682015560e0820151600782015561010082015160088201556101208201516009820155610140820151600a820155610160820151600b8201805460ff19166001836005811115610afd57610afd6137a6565b0217905550506009546000908152601260209081526040808320805460ff191660019081179091553384526010835281842080548083018255908552938390208651600c909502019384559185015191830180546001600160a01b039384166001600160a01b0319918216179091559085015160028401805491909316911617905560608301518392506003820190610b969082613a05565b5060808201516004820190610bab9082613a05565b5060a08201516005820190610bc09082613a05565b5060c0820151600682015560e0820151600782015561010082015160088201556101208201516009820155610140820151600a820155610160820151600b8201805460ff19166001836005811115610c1a57610c1a6137a6565b021790555050506001600c6000016000828254610c379190613ada565b9091555050600980543391600080516020613d7883398151915291906000610c5e83613aed565b9091555060408051918252606060208301819052600e908301526d50524f4a4543542043524541544560901b6080830152429082015260a00160405180910390a25060019695505050505050565b606060008054610cbb90613984565b80601f0160208091040260200160405190810160405280929190818152602001828054610ce790613984565b8015610d345780601f10610d0957610100808354040283529160200191610d34565b820191906000526020600020905b815481529060010190602001808311610d1757829003601f168201915b5050505050905090565b6000610d49826122f1565b506000828152600460205260409020546001600160a01b03166107d5565b610d7282823361232a565b5050565b6001600160a01b038216610da057604051633250574960e11b81526000600482015260240161081f565b6000610dad838333612337565b9050836001600160a01b0316816001600160a01b031614610dfb576040516364283d7b60e01b81526001600160a01b038086166004830152602482018490528216604482015260640161081f565b50505050565b6007546001600160a01b03163314610e515760405162461bcd60e51b81526020600482015260136024820152724f776e6572207265736572766564206f6e6c7960681b604482015260640161081f565b6001600160a01b038116600090815260136020526040808220805460ff19166001179055513391600080516020613d7883398151915291610ec291904290918252606060208301819052600d908301526c10d491505513d4881051111151609a1b6080830152604082015260a00190565b60405180910390a250565b60146020528160005260406000208181548110610ee957600080fd5b90600052602060002001600091509150505481565b6007546001600160a01b03163314610f4e5760405162461bcd60e51b81526020600482015260136024820152724f776e6572207265736572766564206f6e6c7960681b604482015260640161081f565b600855565b610f6e83838360405180602001604052806000815250611aeb565b505050565b6001600160a01b0381166000908152601560205260408120546060918167ffffffffffffffff811115610fa857610fa86132b9565b604051908082528060200260200182016040528015610fdb57816020015b6060815260200190600190039081610fc65790505b50905060005b6001600160a01b038516600090815260156020526040902054811015611065576001600160a01b0385166000908152601560205260409020805461104091908390811061103057611030613b06565b9060005260206000200154611b1e565b82828151811061105257611052613b06565b6020908102919091010152600101610fe1565b509392505050565b3360009081526013602052604081205460ff168061109557506007546001600160a01b031633145b6110b15760405162461bcd60e51b815260040161081f9061394d565b60008281526012602052604090205460ff166110df5760405162461bcd60e51b815260040161081f90613b1c565b600f82815481106110f2576110f2613b06565b60009182526020909120600c90910201600201546001600160a01b0316331461112d5760405162461bcd60e51b815260040161081f90613b47565b6003600f838154811061114257611142613b06565b60009182526020909120600b600c9092020101805460ff1916600183600581111561116f5761116f6137a6565b021790555061117d82612430565b60408051838152606060208201819052600f908201526e141493d29150d50811115311551151608a1b6080820152428183015290513391600080516020613d78833981519152919081900360a00190a25060015b919050565b60006107d5826122f1565b60008281526012602052604081205460ff1661120f5760405162461bcd60e51b815260040161081f90613b1c565b816001600160a01b0316600f848154811061122c5761122c613b06565b60009182526020909120600c90910201600201546001600160a01b0316149392505050565b60006001600160a01b03821661127d576040516322718ad960e21b81526000600482015260240161081f565b506001600160a01b031660009081526003602052604090205490565b606060018054610cbb90613984565b3360009081526013602052604081205460ff16806112d057506007546001600160a01b031633145b6112ec5760405162461bcd60e51b815260040161081f9061394d565b60008681526012602052604090205460ff1661131a5760405162461bcd60e51b815260040161081f90613b1c565b600f868154811061132d5761132d613b06565b60009182526020909120600c90910201600201546001600160a01b031633146113685760405162461bcd60e51b815260040161081f90613b47565b60008551116113b15760405162461bcd60e51b81526020600482015260156024820152745469746c652063616e6e6f7420626520656d70747960581b604482015260640161081f565b60008451116114025760405162461bcd60e51b815260206004820152601b60248201527f4465736372697074696f6e2063616e6e6f7420626520656d7074790000000000604482015260640161081f565b600083511161144e5760405162461bcd60e51b8152602060048201526018602482015277496d61676555524c2063616e6e6f7420626520656d70747960401b604482015260640161081f565b84600f878154811061146257611462613b06565b90600052602060002090600c0201600301908161147f9190613a05565b5083600f878154811061149457611494613b06565b90600052602060002090600c020160040190816114b19190613a05565b5082600f87815481106114c6576114c6613b06565b90600052602060002090600c020160050190816114e39190613a05565b5081600f87815481106114f8576114f8613b06565b90600052602060002090600c020160090181905550336001600160a01b0316600080516020613d788339815191528742604051611566929190918252606060208301819052600f908301526e141493d29150d50815541110551151608a1b6080830152604082015260a00190565b60405180910390a250600195945050505050565b60008034116115cb5760405162461bcd60e51b815260206004820152601f60248201527f4574686572206d7573742062652067726561746572207468616e207a65726f00604482015260640161081f565b60008281526012602052604090205460ff166115f95760405162461bcd60e51b815260040161081f90613b1c565b6000600f838154811061160e5761160e613b06565b60009182526020909120600b600c90920201015460ff166005811115611636576116366137a6565b146116795760405162461bcd60e51b8152602060048201526013602482015272283937b532b1ba1034b9903737ba1037b832b760691b604482015260640161081f565b6001600c600101600082825461168f9190613ada565b9091555050600e80543491906000906116a9908490613ada565b9250508190555034600f83815481106116c4576116c4613b06565b90600052602060002090600c020160070160008282546116e49190613ada565b925050819055506001600f838154811061170057611700613b06565b90600052602060002090600c0201600a0160008282546117209190613ada565b9091555050600082815260116020908152604080832081516080808201845233808352348387019081524284870181815260608087018b8152885460018082018b55998d529b8b902097516004909c0290970180546001600160a01b0319166001600160a01b03909c169b909b178b559251968a01969096559451600289015592516003909701805460ff1916971515979097179096558351888152948501829052600e918501919091526d141493d29150d508109050d2d15160921b9084015290820152600080516020613d788339815191529060a00160405180910390a2600f828154811061181357611813613b06565b90600052602060002090600c020160060154600f838154811061183857611838613b06565b90600052602060002090600c0201600701541061189e576001600f838154811061186457611864613b06565b60009182526020909120600b600c9092020101805460ff19166001836005811115611891576118916137a6565b0217905550600192915050565b600f82815481106118b1576118b1613b06565b90600052602060002090600c0201600901544210611919576002600f83815481106118de576118de613b06565b60009182526020909120600b600c9092020101805460ff1916600183600581111561190b5761190b6137a6565b021790555061191982612430565b506001919050565b610d723383836125ca565b60006002600f838154811061194357611943613b06565b60009182526020909120600b600c90920201015460ff16600581111561196b5761196b6137a6565b1415806119b357506003600f838154811061198857611988613b06565b60009182526020909120600b600c90920201015460ff1660058111156119b0576119b06137a6565b14155b611a0e5760405162461bcd60e51b815260206004820152602660248201527f50726f6a65637420686173206d61726b656420617320726576657274206f722060448201526564656c65746560d01b606482015260840161081f565b6002600f83815481106118de576118de613b06565b60006001600f8381548110611a3a57611a3a613b06565b60009182526020909120600b600c90920201015460ff166005811115611a6257611a626137a6565b14611a7f5760405162461bcd60e51b815260040161081f90613b74565b600f8281548110611a9257611a92613b06565b60009182526020909120600c90910201600201546001600160a01b0316331480611ac657506007546001600160a01b031633145b611ae25760405162461bcd60e51b815260040161081f90613b47565b61191982612669565b611af6848484610d76565b610dfb848484846127df565b60156020528160005260406000208181548110610ee957600080fd5b60606107d582612908565b60008181526012602052604090205460609060ff16611b5a5760405162461bcd60e51b815260040161081f90613b1c565b600082815260116020908152604080832080548251818502810185019093528083529193909284015b82821015611be5576000848152602090819020604080516080810182526004860290920180546001600160a01b03168352600180820154848601526002820154928401929092526003015460ff16151560608301529083529092019101611b83565b505050509050919050565b6060600f805480602002602001604051908101604052809291908181526020016000905b82821015611e925760008481526020908190206040805161018081018252600c86029092018054835260018101546001600160a01b0390811694840194909452600281015490931690820152600382018054919291606084019190611c7890613984565b80601f0160208091040260200160405190810160405280929190818152602001828054611ca490613984565b8015611cf15780601f10611cc657610100808354040283529160200191611cf1565b820191906000526020600020905b815481529060010190602001808311611cd457829003601f168201915b50505050508152602001600482018054611d0a90613984565b80601f0160208091040260200160405190810160405280929190818152602001828054611d3690613984565b8015611d835780601f10611d5857610100808354040283529160200191611d83565b820191906000526020600020905b815481529060010190602001808311611d6657829003601f168201915b50505050508152602001600582018054611d9c90613984565b80601f0160208091040260200160405190810160405280929190818152602001828054611dc890613984565b8015611e155780601f10611dea57610100808354040283529160200191611e15565b820191906000526020600020905b815481529060010190602001808311611df857829003601f168201915b505050918352505060068201546020820152600782015460408201526008820154606082015260098201546080820152600a82015460a0820152600b82015460c09091019060ff166005811115611e6e57611e6e6137a6565b6005811115611e7f57611e7f6137a6565b8152505081526020019060010190611c14565b50505050905090565b6001600160a01b03918216600090815260056020908152604080832093909416825291909152205460ff1690565b611ed1613200565b60008281526012602052604090205460ff16611eff5760405162461bcd60e51b815260040161081f90613b1c565b600f8281548110611f1257611f12613b06565b60009182526020918290206040805161018081018252600c9093029091018054835260018101546001600160a01b0390811694840194909452600281015490931690820152600382018054919291606084019190611f6f90613984565b80601f0160208091040260200160405190810160405280929190818152602001828054611f9b90613984565b8015611fe85780601f10611fbd57610100808354040283529160200191611fe8565b820191906000526020600020905b815481529060010190602001808311611fcb57829003601f168201915b5050505050815260200160048201805461200190613984565b80601f016020809104026020016040519081016040528092919081815260200182805461202d90613984565b801561207a5780601f1061204f5761010080835404028352916020019161207a565b820191906000526020600020905b81548152906001019060200180831161205d57829003601f168201915b5050505050815260200160058201805461209390613984565b80601f01602080910402602001604051908101604052809291908181526020018280546120bf90613984565b801561210c5780601f106120e15761010080835404028352916020019161210c565b820191906000526020600020905b8154815290600101906020018083116120ef57829003601f168201915b505050918352505060068201546020820152600782015460408201526008820154606082015260098201546080820152600a82015460a0820152600b82015460c09091019060ff166005811115612165576121656137a6565b6005811115612176576121766137a6565b90525092915050565b3360009081526013602052604081205460ff16806121a757506007546001600160a01b031633145b6121c35760405162461bcd60e51b815260040161081f9061394d565b60008281526012602052604090205460ff166121f15760405162461bcd60e51b815260040161081f90613b1c565b6001600f838154811061220657612206613b06565b60009182526020909120600b600c90920201015460ff16600581111561222e5761222e6137a6565b1461224b5760405162461bcd60e51b815260040161081f90613b74565b600f828154811061225e5761225e613b06565b60009182526020909120600c90910201600201546001600160a01b031633148061229257506007546001600160a01b031633145b6122ae5760405162461bcd60e51b815260040161081f90613b47565b6122b782612a19565b6004600f838154811061186457611864613b06565b60006001600160e01b03198216632483248360e11b14806107d557506107d582612c83565b6000818152600260205260408120546001600160a01b0316806107d557604051637e27328960e01b81526004810184905260240161081f565b610f6e8383836001612cd3565b6000828152600260205260408120546001600160a01b039081169083161561236457612364818486612dd9565b6001600160a01b038116156123a257612381600085600080612cd3565b6001600160a01b038116600090815260036020526040902080546000190190555b6001600160a01b038516156123d1576001600160a01b0385166000908152600360205260409020805460010190555b60008481526002602052604080822080546001600160a01b0319166001600160a01b0389811691821790925591518793918516917fddf252ad1be2c89b69c2b068fc378daa952ba7f163c4a11628f55a4df523b3ef91a4949350505050565b60005b600082815260116020526040902054811015610d7257600082815260116020526040812080548390811061246957612469613b06565b6000918252602080832060049092029091015485835260119091526040822080546001600160a01b03909216935090849081106124a8576124a8613b06565b906000526020600020906004020160010154905060016011600086815260200190815260200160002084815481106124e2576124e2613b06565b906000526020600020906004020160030160006101000a81548160ff0219169083151502179055504260116000868152602001908152602001600020848154811061252f5761252f613b06565b90600052602060002090600402016002018190555061254e8282612e3d565b80600f858154811061256257612562613b06565b90600052602060002090600c020160070160008282546125829190613bab565b9091555050600d80546001919060009061259d908490613bab565b9091555050600e80548291906000906125b7908490613bab565b9091555050600190920191506124339050565b6001600160a01b0382166125fc57604051630b61174360e31b81526001600160a01b038316600482015260240161081f565b6001600160a01b03838116600081815260056020908152604080832094871680845294825291829020805460ff191686151590811790915591519182527f17307eab39ab6107e8899845ad3d59bd9653f200f220920489ca2b5937696c31910160405180910390a3505050565b6000600f828154811061267e5761267e613b06565b90600052602060002090600c020160070154905060006064600854836126a49190613bbe565b6126ae9190613bd5565b90506005600f84815481106126c5576126c5613b06565b60009182526020909120600b600c9092020101805460ff191660018360058111156126f2576126f26137a6565b021790555060075461270d906001600160a01b031682612e3d565b61274f600f848154811061272357612723613b06565b600091825260209091206002600c9092020101546001600160a01b031661274a8385613bab565b612e3d565b600f838154811061276257612762613b06565b90600052602060002090600c020160070154600a60008282546127859190613bab565b909155505060408051848152606060208201819052600f908201526e141493d29150d5081410525113d555608a1b6080820152428183015290513391600080516020613d78833981519152919081900360a00190a2505050565b6001600160a01b0383163b15610dfb57604051630a85bd0160e11b81526001600160a01b0384169063150b7a0290612821903390889087908790600401613bf7565b6020604051808303816000875af192505050801561285c575060408051601f3d908101601f1916820190925261285991810190613c34565b60015b6128c5573d80801561288a576040519150601f19603f3d011682016040523d82523d6000602084013e61288f565b606091505b5080516000036128bd57604051633250574960e11b81526001600160a01b038516600482015260240161081f565b805181602001fd5b6001600160e01b03198116630a85bd0160e11b1461290157604051633250574960e11b81526001600160a01b038516600482015260240161081f565b5050505050565b6060612913826122f1565b506000828152600660205260408120805461292d90613984565b80601f016020809104026020016040519081016040528092919081815260200182805461295990613984565b80156129a65780601f1061297b576101008083540402835291602001916129a6565b820191906000526020600020905b81548152906001019060200180831161298957829003601f168201915b5050505050905060006129c460408051602081019091526000815290565b905080516000036129d6575092915050565b815115612a085780826040516020016129f0929190613c51565b60405160208183030381529060405292505050919050565b612a1184612e9d565b949350505050565b60008181526012602052604090205460ff16612a475760405162461bcd60e51b815260040161081f90613b1c565b6001600f8281548110612a5c57612a5c613b06565b60009182526020909120600b600c90920201015460ff166005811115612a8457612a846137a6565b14612aa15760405162461bcd60e51b815260040161081f90613b74565b600081815260116020908152604080832080548251818502810185019093528083529192909190849084015b82821015612b2f576000848152602090819020604080516080810182526004860290920180546001600160a01b03168352600180820154848601526002820154928401929092526003015460ff16151560608301529083529092019101612acd565b50505050905060005b8151811015612c32576000828281518110612b5557612b55613b06565b60200260200101516000015190506000612b6e85612f12565b600f8681548110612b8157612b81613b06565b90600052602060002090600c0201600301600f8781548110612ba557612ba5613b06565b90600052602060002090600c0201600501604051602001612bc893929190613cf2565b60405160208183030381529060405290506000612be58383612fa5565b6000878152601460209081526040808320805460018181018355918552838520018590556001600160a01b0390971683526015825282208054808801825590835291200155505001612b38565b5060408051838152606060208201819052600b908201526a1391951cc813525395115160aa1b6080820152428183015290513391600080516020613d78833981519152919081900360a00190a25050565b60006001600160e01b031982166380ac58cd60e01b1480612cb457506001600160e01b03198216635b5e139f60e01b145b806107d557506301ffc9a760e01b6001600160e01b03198316146107d5565b8080612ce757506001600160a01b03821615155b15612da9576000612cf7846122f1565b90506001600160a01b03831615801590612d235750826001600160a01b0316816001600160a01b031614155b8015612d365750612d348184611e9b565b155b15612d5f5760405163a9fbf51f60e01b81526001600160a01b038416600482015260240161081f565b8115612da75783856001600160a01b0316826001600160a01b03167f8c5be1e5ebec7d5bd14f71427d1e84f3dd0314c0f7b2291e5b200ac8c7c3b92560405160405180910390a45b505b5050600090815260046020526040902080546001600160a01b0319166001600160a01b0392909216919091179055565b612de4838383612fdf565b610f6e576001600160a01b038316612e1257604051637e27328960e01b81526004810182905260240161081f565b60405163177e802f60e01b81526001600160a01b03831660048201526024810182905260440161081f565b6000826001600160a01b03168260405160006040518083038185875af1925050503d8060008114612e8a576040519150601f19603f3d011682016040523d82523d6000602084013e612e8f565b606091505b5050905080610f6e57600080fd5b6060612ea8826122f1565b506000612ec060408051602081019091526000815290565b90506000815111612ee05760405180602001604052806000815250612f0b565b80612eea84612f12565b604051602001612efb929190613c51565b6040516020818303038152906040525b9392505050565b60606000612f1f83613042565b600101905060008167ffffffffffffffff811115612f3f57612f3f6132b9565b6040519080825280601f01601f191660200182016040528015612f69576020820181803683370190505b5090508181016020015b600019016f181899199a1a9b1b9c1cb0b131b232b360811b600a86061a8153600a8504945084612f7357509392505050565b600b54600090612fb5848261311a565b612fbf8184613134565b6001600b6000828254612fd29190613ada565b9091555090949350505050565b60006001600160a01b03831615801590612a115750826001600160a01b0316846001600160a01b0316148061301957506130198484611e9b565b80612a115750506000908152600460205260409020546001600160a01b03908116911614919050565b60008072184f03e93ff9f4daa797ed6e38ed64bf6a1f0160401b83106130815772184f03e93ff9f4daa797ed6e38ed64bf6a1f0160401b830492506040015b6d04ee2d6d415b85acef810000000083106130ad576d04ee2d6d415b85acef8100000000830492506020015b662386f26fc1000083106130cb57662386f26fc10000830492506010015b6305f5e10083106130e3576305f5e100830492506008015b61271083106130f757612710830492506004015b60648310613109576064830492506002015b600a83106107d55760010192915050565b610d72828260405180602001604052806000815250613184565b600082815260066020526040902061314c8282613a05565b506040518281527ff8e1a15aba9398e019f0b49df1a4fde98ee17ae345cb5f6b5e2c27f5033e8ce79060200160405180910390a15050565b61318e838361319b565b610f6e60008484846127df565b6001600160a01b0382166131c557604051633250574960e11b81526000600482015260240161081f565b60006131d383836000612337565b90506001600160a01b03811615610f6e576040516339e3563760e11b81526000600482015260240161081f565b6040518061018001604052806000815260200160006001600160a01b0316815260200160006001600160a01b0316815260200160608152602001606081526020016060815260200160008152602001600081526020016000815260200160008152602001600081526020016000600581111561327e5761327e6137a6565b905290565b6001600160e01b03198116811461329957600080fd5b50565b6000602082840312156132ae57600080fd5b8135612f0b81613283565b634e487b7160e01b600052604160045260246000fd5b60008067ffffffffffffffff8411156132ea576132ea6132b9565b50604051601f19601f85018116603f0116810181811067ffffffffffffffff82111715613319576133196132b9565b60405283815290508082840185101561333157600080fd5b83836020830137600060208583010152509392505050565b600082601f83011261335a57600080fd5b612f0b838335602085016132cf565b600080600080600060a0868803121561338157600080fd5b853567ffffffffffffffff81111561339857600080fd5b6133a488828901613349565b955050602086013567ffffffffffffffff8111156133c157600080fd5b6133cd88828901613349565b945050604086013567ffffffffffffffff8111156133ea57600080fd5b6133f688828901613349565b9598949750949560608101359550608001359392505050565b60005b8381101561342a578181015183820152602001613412565b50506000910152565b6000815180845261344b81602086016020860161340f565b601f01601f19169290920160200192915050565b602081526000612f0b6020830184613433565b60006020828403121561348457600080fd5b5035919050565b80356001600160a01b03811681146111d157600080fd5b600080604083850312156134b557600080fd5b6134be8361348b565b946020939093013593505050565b6000602082840312156134de57600080fd5b612f0b8261348b565b6000806000606084860312156134fc57600080fd5b6135058461348b565b92506135136020850161348b565b929592945050506040919091013590565b6000806040838503121561353757600080fd5b50508035926020909101359150565b6000602082016020835280845180835260408501915060408160051b86010192506020860160005b8281101561359f57603f1987860301845261358a858351613433565b9450602093840193919091019060010161356e565b50929695505050505050565b600080604083850312156135be57600080fd5b823591506135ce6020840161348b565b90509250929050565b600080600080600060a086880312156135ef57600080fd5b85359450602086013567ffffffffffffffff81111561360d57600080fd5b61361988828901613349565b945050604086013567ffffffffffffffff81111561363657600080fd5b61364288828901613349565b935050606086013567ffffffffffffffff81111561365f57600080fd5b61366b88828901613349565b95989497509295608001359392505050565b6000806040838503121561369057600080fd5b6136998361348b565b9150602083013580151581146136ae57600080fd5b809150509250929050565b600080600080608085870312156136cf57600080fd5b6136d88561348b565b93506136e66020860161348b565b925060408501359150606085013567ffffffffffffffff81111561370957600080fd5b8501601f8101871361371a57600080fd5b613729878235602084016132cf565b91505092959194509250565b602080825282518282018190526000918401906040840190835b8181101561379b57835180516001600160a01b0316845260208082015181860152604080830151908601526060918201511515918501919091529093019260809092019160010161374f565b509095945050505050565b634e487b7160e01b600052602160045260246000fd5b600681106137da57634e487b7160e01b600052602160045260246000fd5b9052565b80518252600060208201516137fe60208501826001600160a01b03169052565b50604082015161381960408501826001600160a01b03169052565b5060608201516101806060850152613835610180850182613433565b90506080830151848203608086015261384e8282613433565b91505060a083015184820360a08601526138688282613433565b91505060c083015160c085015260e083015160e08501526101008301516101008501526101208301516101208501526101408301516101408501526101608301516110656101608601826137bc565b6000602082016020835280845180835260408501915060408160051b86010192506020860160005b8281101561359f57603f198786030184526138fb8583516137de565b945060209384019391909101906001016138df565b6000806040838503121561392357600080fd5b61392c8361348b565b91506135ce6020840161348b565b602081526000612f0b60208301846137de565b6020808252601e908201527f43726561746f72204f72204f776e6572207265736572766564206f6e6c790000604082015260600190565b600181811c9082168061399857607f821691505b6020821081036139b857634e487b7160e01b600052602260045260246000fd5b50919050565b601f821115610f6e57806000526020600020601f840160051c810160208510156139e55750805b601f840160051c820191505b8181101561290157600081556001016139f1565b815167ffffffffffffffff811115613a1f57613a1f6132b9565b613a3381613a2d8454613984565b846139be565b6020601f821160018114613a675760008315613a4f5750848201515b600019600385901b1c1916600184901b178455612901565b600084815260208120601f198516915b82811015613a975787850151825560209485019460019092019101613a77565b5084821015613ab55786840151600019600387901b60f8161c191681555b50505050600190811b01905550565b634e487b7160e01b600052601160045260246000fd5b808201808211156107d5576107d5613ac4565b600060018201613aff57613aff613ac4565b5060010190565b634e487b7160e01b600052603260045260246000fd5b602080825260119082015270141c9bda9958dd081b9bdd08199bdd5b99607a1b604082015260600190565b602080825260139082015272556e617574686f72697a656420456e7469747960681b604082015260600190565b6020808252601b908201527f50726f6a656374206973206e6f7420617070726f766564207965740000000000604082015260600190565b818103818111156107d5576107d5613ac4565b80820281158282048414176107d5576107d5613ac4565b600082613bf257634e487b7160e01b600052601260045260246000fd5b500490565b6001600160a01b0385811682528416602082015260408101839052608060608201819052600090613c2a90830184613433565b9695505050505050565b600060208284031215613c4657600080fd5b8151612f0b81613283565b60008351613c6381846020880161340f565b835190830190613c7781836020880161340f565b01949350505050565b60008154613c8d81613984565b600182168015613ca45760018114613cb957613ce9565b60ff1983168652811515820286019350613ce9565b84600052602060002060005b83811015613ce157815488820152600190910190602001613cc5565b505081860193505b50505092915050565b673d9134b2111d101160c11b81528351600090613d1681600885016020890161340f565b6c111610113a34ba3632911d101160991b600891840191820152613d3d6015820186613c80565b6f1116101134b6b0b3b2aaa926111d101160811b81529050613d626010820185613c80565b61227d60f01b8152600201969550505050505056feaee8e5d3bbb2f71a951b5632cee20f7ac487b9f8ab4f66a236f7694b13af7c6aa26469706673582212200bc0121f28fbf22c3506d871611b4cf1802df67397271062458895df6c84224664736f6c634300081a0033",
  "linkReferences": {},
  "deployedLinkReferences": {}
}