{
  "_format": "hh-sol-artifact-1",
  "contractName": "NTPUVote",
  "sourceName": "src/contracts/NTPUVote.sol",
  "abi": [
    {
      "inputs": [
        {
          "internalType": "string",
          "name": "_name",
          "type": "string"
        }
      ],
      "name": "createOption",
      "outputs": [],
      "stateMutability": "nonpayable",
      "type": "function"
    },
    {
      "inputs": [],
      "name": "getResults",
      "outputs": [
        {
          "components": [
            {
              "internalType": "string",
              "name": "name",
              "type": "string"
            },
            {
              "internalType": "uint256",
              "name": "voteCount",
              "type": "uint256"
            }
          ],
          "internalType": "struct NTPUVote.Option[]",
          "name": "",
          "type": "tuple[]"
        }
      ],
      "stateMutability": "view",
      "type": "function"
    },
    {
      "inputs": [
        {
          "internalType": "uint256",
          "name": "",
          "type": "uint256"
        }
      ],
      "name": "options",
      "outputs": [
        {
          "internalType": "string",
          "name": "name",
          "type": "string"
        },
        {
          "internalType": "uint256",
          "name": "voteCount",
          "type": "uint256"
        }
      ],
      "stateMutability": "view",
      "type": "function"
    },
    {
      "inputs": [
        {
          "internalType": "uint256",
          "name": "_option",
          "type": "uint256"
        }
      ],
      "name": "vote",
      "outputs": [],
      "stateMutability": "nonpayable",
      "type": "function"
    },
    {
      "inputs": [
        {
          "internalType": "address",
          "name": "",
          "type": "address"
        }
      ],
      "name": "votes",
      "outputs": [
        {
          "internalType": "address",
          "name": "voter",
          "type": "address"
        },
        {
          "internalType": "uint256",
          "name": "option",
          "type": "uint256"
        }
      ],
      "stateMutability": "view",
      "type": "function"
    }
  ],
  "bytecode": "0x6080604052348015600f57600080fd5b506108008061001f6000396000f3fe608060405234801561001057600080fd5b50600436106100575760003560e01c80630121b93f1461005c578063265875a114610071578063409e2205146100845780634717f97c146100ae578063d8bff5a5146100c3575b600080fd5b61006f61006a36600461044c565b610115565b005b61006f61007f36600461047b565b61022e565b61009761009236600461044c565b610295565b6040516100a592919061057a565b60405180910390f35b6100b6610351565b6040516100a5919061059c565b6100f66100d1366004610615565b600160208190526000918252604090912080549101546001600160a01b039091169082565b604080516001600160a01b0390931683526020830191909152016100a5565b600054811061015c5760405162461bcd60e51b815260206004820152600e60248201526d24b73b30b634b21037b83a34b7b760911b60448201526064015b60405180910390fd5b336000908152600160205260409020546001600160a01b0316156101b25760405162461bcd60e51b815260206004820152600d60248201526c105b1c9958591e481d9bdd1959609a1b6044820152606401610153565b600081815481106101c5576101c5610645565b6000918252602082206001600290920201018054916101e38361065b565b90915550506040805180820182523380825260208083019485526000918252600190819052929020905181546001600160a01b0319166001600160a01b039091161781559151910155565b604080518082019091528181526000602082018190528054600181018255908052815160029091027f290decd9548b62a8d60345a988386fc84ba6bc95484008f6362f93160ef3e56301908190610285908261070b565b5060208201518160010155505050565b600081815481106102a557600080fd5b90600052602060002090600202016000915090508060000180546102c890610682565b80601f01602080910402602001604051908101604052809291908181526020018280546102f490610682565b80156103415780601f1061031657610100808354040283529160200191610341565b820191906000526020600020905b81548152906001019060200180831161032457829003601f168201915b5050505050908060010154905082565b60606000805480602002602001604051908101604052809291908181526020016000905b8282101561044357838290600052602060002090600202016040518060400160405290816000820180546103a890610682565b80601f01602080910402602001604051908101604052809291908181526020018280546103d490610682565b80156104215780601f106103f657610100808354040283529160200191610421565b820191906000526020600020905b81548152906001019060200180831161040457829003601f168201915b5050505050815260200160018201548152505081526020019060010190610375565b50505050905090565b60006020828403121561045e57600080fd5b5035919050565b634e487b7160e01b600052604160045260246000fd5b60006020828403121561048d57600080fd5b813567ffffffffffffffff8111156104a457600080fd5b8201601f810184136104b557600080fd5b803567ffffffffffffffff8111156104cf576104cf610465565b604051601f8201601f19908116603f0116810167ffffffffffffffff811182821017156104fe576104fe610465565b60405281815282820160200186101561051657600080fd5b81602084016020830137600091810160200191909152949350505050565b6000815180845260005b8181101561055a5760208185018101518683018201520161053e565b506000602082860101526020601f19601f83011685010191505092915050565b60408152600061058d6040830185610534565b90508260208301529392505050565b6000602082016020835280845180835260408501915060408160051b86010192506020860160005b8281101561060957603f1987860301845281518051604087526105ea6040880182610534565b60209283015197830197909752509384019391909101906001016105c4565b50929695505050505050565b60006020828403121561062757600080fd5b81356001600160a01b038116811461063e57600080fd5b9392505050565b634e487b7160e01b600052603260045260246000fd5b60006001820161067b57634e487b7160e01b600052601160045260246000fd5b5060010190565b600181811c9082168061069657607f821691505b6020821081036106b657634e487b7160e01b600052602260045260246000fd5b50919050565b601f82111561070657806000526020600020601f840160051c810160208510156106e35750805b601f840160051c820191505b8181101561070357600081556001016106ef565b50505b505050565b815167ffffffffffffffff81111561072557610725610465565b610739816107338454610682565b846106bc565b6020601f82116001811461076d57600083156107555750848201515b600019600385901b1c1916600184901b178455610703565b600084815260208120601f198516915b8281101561079d578785015182556020948501946001909201910161077d565b50848210156107bb5786840151600019600387901b60f8161c191681555b50505050600190811b0190555056fea2646970667358221220b8850924b38d5761453f0f29df0e20c4fdc1bd4b9a0e5e08e30f5538fe94f02464736f6c634300081a0033",
  "linkReferences": {},
  "deployedLinkReferences": {}
}