{
  "_format": "hh-sol-artifact-1",
  "contractName": "NTPUVote",
  "sourceName": "src/contracts/NTPUVote.sol",
  "abi": [
    {
      "inputs": [
        {
          "internalType": "address",
          "name": "_fundAddress",
          "type": "address"
        }
      ],
      "stateMutability": "nonpayable",
      "type": "constructor"
    },
    {
      "inputs": [
        {
          "internalType": "uint256",
          "name": "projectId",
          "type": "uint256"
        }
      ],
      "name": "createFundReview",
      "outputs": [],
      "stateMutability": "nonpayable",
      "type": "function"
    },
    {
      "inputs": [],
      "name": "fundAddress",
      "outputs": [
        {
          "internalType": "address",
          "name": "",
          "type": "address"
        }
      ],
      "stateMutability": "view",
      "type": "function"
    },
    {
      "inputs": [],
      "name": "fundContract",
      "outputs": [
        {
          "internalType": "contract NTPUFundInterface",
          "name": "",
          "type": "address"
        }
      ],
      "stateMutability": "view",
      "type": "function"
    },
    {
      "inputs": [
        {
          "internalType": "uint256",
          "name": "",
          "type": "uint256"
        },
        {
          "internalType": "uint256",
          "name": "",
          "type": "uint256"
        }
      ],
      "name": "fundReviews",
      "outputs": [
        {
          "internalType": "uint256",
          "name": "fundReviewId",
          "type": "uint256"
        },
        {
          "internalType": "uint256",
          "name": "projectId",
          "type": "uint256"
        },
        {
          "internalType": "uint256",
          "name": "startDate",
          "type": "uint256"
        },
        {
          "internalType": "uint256",
          "name": "endDate",
          "type": "uint256"
        },
        {
          "internalType": "uint256",
          "name": "passCount",
          "type": "uint256"
        },
        {
          "internalType": "uint256",
          "name": "totalVoteCount",
          "type": "uint256"
        }
      ],
      "stateMutability": "view",
      "type": "function"
    },
    {
      "inputs": [
        {
          "internalType": "uint256",
          "name": "projectId",
          "type": "uint256"
        }
      ],
      "name": "getFundReviews",
      "outputs": [
        {
          "components": [
            {
              "internalType": "uint256",
              "name": "fundReviewId",
              "type": "uint256"
            },
            {
              "internalType": "uint256",
              "name": "projectId",
              "type": "uint256"
            },
            {
              "internalType": "uint256",
              "name": "startDate",
              "type": "uint256"
            },
            {
              "internalType": "uint256",
              "name": "endDate",
              "type": "uint256"
            },
            {
              "internalType": "uint256",
              "name": "passCount",
              "type": "uint256"
            },
            {
              "internalType": "uint256",
              "name": "totalVoteCount",
              "type": "uint256"
            }
          ],
          "internalType": "struct NTPUVote.FundReview[]",
          "name": "",
          "type": "tuple[]"
        }
      ],
      "stateMutability": "view",
      "type": "function"
    },
    {
      "inputs": [
        {
          "internalType": "address",
          "name": "",
          "type": "address"
        },
        {
          "internalType": "uint256",
          "name": "",
          "type": "uint256"
        }
      ],
      "name": "hasVoted",
      "outputs": [
        {
          "internalType": "bool",
          "name": "",
          "type": "bool"
        }
      ],
      "stateMutability": "view",
      "type": "function"
    },
    {
      "inputs": [
        {
          "internalType": "uint256",
          "name": "projectId",
          "type": "uint256"
        }
      ],
      "name": "isFundReviewing",
      "outputs": [
        {
          "internalType": "bool",
          "name": "",
          "type": "bool"
        }
      ],
      "stateMutability": "view",
      "type": "function"
    },
    {
      "inputs": [
        {
          "internalType": "uint256",
          "name": "",
          "type": "uint256"
        }
      ],
      "name": "projectReviewing",
      "outputs": [
        {
          "internalType": "bool",
          "name": "",
          "type": "bool"
        }
      ],
      "stateMutability": "view",
      "type": "function"
    },
    {
      "inputs": [
        {
          "internalType": "uint256",
          "name": "projectId",
          "type": "uint256"
        },
        {
          "internalType": "uint256",
          "name": "_option",
          "type": "uint256"
        }
      ],
      "name": "vote",
      "outputs": [],
      "stateMutability": "nonpayable",
      "type": "function"
    },
    {
      "inputs": [
        {
          "internalType": "address",
          "name": "",
          "type": "address"
        },
        {
          "internalType": "uint256",
          "name": "",
          "type": "uint256"
        }
      ],
      "name": "votes",
      "outputs": [
        {
          "internalType": "address",
          "name": "voter",
          "type": "address"
        },
        {
          "internalType": "uint256",
          "name": "projectId",
          "type": "uint256"
        },
        {
          "internalType": "uint256",
          "name": "option",
          "type": "uint256"
        }
      ],
      "stateMutability": "view",
      "type": "function"
    }
  ],
  "bytecode": "0x6080604052348015600f57600080fd5b50604051610d1e380380610d1e833981016040819052602c91605d565b600080546001600160a01b039092166001600160a01b0319928316811782556001805490931617909155600255608b565b600060208284031215606e57600080fd5b81516001600160a01b0381168114608457600080fd5b9392505050565b610c848061009a6000396000f3fe608060405234801561001057600080fd5b506004361061009e5760003560e01c8063b384abef11610066578063b384abef14610196578063bb95acc5146101a9578063bd097e21146101cc578063e82bef29146101f7578063ea8467f91461020a57600080fd5b806342545825146100a35780636e9212cf146100e65780637b90ba9d146101265780639f2524ee146101495780639fa264c814610181575b600080fd5b6100d16100b1366004610a89565b600660209081526000928352604080842090915290825290205460ff1681565b60405190151581526020015b60405180910390f35b6100f96100f4366004610ac1565b61022a565b604080519687526020870195909552938501929092526060840152608083015260a082015260c0016100dd565b6100d1610134366004610ae3565b60046020526000908152604090205460ff1681565b61015c610157366004610a89565b61027e565b604080516001600160a01b0390941684526020840192909252908201526060016100dd565b61019461018f366004610ae3565b6102ca565b005b6101946101a4366004610ac1565b6104c0565b6100d16101b7366004610ae3565b60009081526004602052604090205460ff1690565b6001546101df906001600160a01b031681565b6040516001600160a01b0390911681526020016100dd565b6000546101df906001600160a01b031681565b61021d610218366004610ae3565b61085c565b6040516100dd9190610afc565b6003602052816000526040600020818154811061024657600080fd5b600091825260209091206006909102018054600182015460028301546003840154600485015460059095015493965091945092909186565b6005602052816000526040600020818154811061029a57600080fd5b60009182526020909120600390910201805460018201546002909201546001600160a01b03909116935090915083565b600154604051636c57ebdf60e01b8152600481018390523360248201526001600160a01b0390911690636c57ebdf90604401602060405180830381865afa158015610319573d6000803e3d6000fd5b505050506040513d601f19601f8201168201806040525081019061033d9190610b79565b6103a25760405162461bcd60e51b815260206004820152602b60248201527f4f6e6c792070726f6a6563742063726561746f722063616e206372656174652060448201526a66756e642072657669657760a81b60648201526084015b60405180910390fd5b60008181526004602052604090205460ff16156103f85760405162461bcd60e51b815260206004820152601460248201527350726f6a65637420697320726576696577696e6760601b6044820152606401610399565b600081815260036020526040808220815160c081019092526002805491938392919061042383610bb8565b9190505581526020018381526020014281526020014260786104459190610bd1565b81526000602080830182905260409283018290528454600181810187559583528183208551600690920201908155848201518187015584840151600282015560608501516003820155608085015160048083019190915560a0909501516005909101559481529190935291909120805460ff19169091179055565b80600114806104cd575080155b61050a5760405162461bcd60e51b815260206004820152600e60248201526d24b73b30b634b21037b83a34b7b760911b6044820152606401610399565b60008281526004602052604090205460ff166105685760405162461bcd60e51b815260206004820152601860248201527f50726f6a656374206973206e6f7420726576696577696e6700000000000000006044820152606401610399565b6000828152600360205260408120805461058490600190610bea565b8154811061059457610594610bfd565b600091825260208083206006928302015433845291815260408084208385529091529091205490915060ff16156105fd5760405162461bcd60e51b815260206004820152600d60248201526c105b1c9958591e481d9bdd1959609a1b6044820152606401610399565b6000838152600360205260409020805461061990600190610bea565b8154811061062957610629610bfd565b906000526020600020906006020160030154421115610666576000838152600460205260409020805460ff191690556106618361090a565b505050565b3360009081526006602090815260408083208484528252808320805460ff191660019081179091558684526003909252909120805484926106a691610bea565b815481106106b6576106b6610bfd565b906000526020600020906006020160040160008282546106d69190610bd1565b9091555050600083815260036020526040902080546106f790600190610bea565b8154811061070757610707610bfd565b60009182526020822060056006909202010180549161072583610bb8565b90915550503360008181526005602090815260408083208151606081018352948552848301888152858301888152825460018082018555938752949095209551600390940290950180546001600160a01b0319166001600160a01b03948516178155945185820155925160029094019390935590549151636f7bab7160e11b81526004810186905291169063def756e290602401602060405180830381865afa1580156107d6573d6000803e3d6000fd5b505050506040513d601f19601f820116820180604052508101906107fa9190610c13565b6000848152600360205260409020805461081690600190610bea565b8154811061082657610826610bfd565b90600052602060002090600602016005015403610661576000838152600460205260409020805460ff191690556106618361090a565b606060036000838152602001908152602001600020805480602002602001604051908101604052809291908181526020016000905b828210156108ff57838290600052602060002090600602016040518060c0016040529081600082015481526020016001820154815260200160028201548152602001600382015481526020016004820154815260200160058201548152505081526020019060010190610891565b505050509050919050565b600081815260036020526040902080546002919061092a90600190610bea565b8154811061093a5761093a610bfd565b9060005260206000209060060201600501546109569190610c2c565b6000828152600360205260409020805461097290600190610bea565b8154811061098257610982610bfd565b9060005260206000209060060201600401541115610a2857600154600082815260036020526040908190205490516001623c68d960e11b031981526004810184905260248101919091526001600160a01b039091169063ff872e4e906044016020604051808303816000875af1158015610a00573d6000803e3d6000fd5b505050506040513d601f19601f82011682018060405250810190610a249190610b79565b5050565b600154604051631d8394bd60e01b8152600481018390526001600160a01b0390911690631d8394bd90602401600060405180830381600087803b158015610a6e57600080fd5b505af1158015610a82573d6000803e3d6000fd5b5050505050565b60008060408385031215610a9c57600080fd5b82356001600160a01b0381168114610ab357600080fd5b946020939093013593505050565b60008060408385031215610ad457600080fd5b50508035926020909101359150565b600060208284031215610af557600080fd5b5035919050565b602080825282518282018190526000918401906040840190835b81811015610b6e578351805184526020810151602085015260408101516040850152606081015160608501526080810151608085015260a081015160a08501525060c083019250602084019350600181019050610b16565b509095945050505050565b600060208284031215610b8b57600080fd5b81518015158114610b9b57600080fd5b9392505050565b634e487b7160e01b600052601160045260246000fd5b600060018201610bca57610bca610ba2565b5060010190565b80820180821115610be457610be4610ba2565b92915050565b81810381811115610be457610be4610ba2565b634e487b7160e01b600052603260045260246000fd5b600060208284031215610c2557600080fd5b5051919050565b600082610c4957634e487b7160e01b600052601260045260246000fd5b50049056fea2646970667358221220247c56eae180c46e52ef665e6f2095f2c5f08799ed3fbadc16ccc9487584cbbd64736f6c634300081a0033",
  "linkReferences": {},
  "deployedLinkReferences": {}
}